{
	"GIFT.sol": {
		"GIFT": {
			"abi": [
				{
					"inputs": [
						{
							"internalType": "address",
							"name": "spender",
							"type": "address"
						},
						{
							"internalType": "uint256",
							"name": "allowance",
							"type": "uint256"
						},
						{
							"internalType": "uint256",
							"name": "needed",
							"type": "uint256"
						}
					],
					"name": "ERC20InsufficientAllowance",
					"type": "error"
				},
				{
					"inputs": [
						{
							"internalType": "address",
							"name": "sender",
							"type": "address"
						},
						{
							"internalType": "uint256",
							"name": "balance",
							"type": "uint256"
						},
						{
							"internalType": "uint256",
							"name": "needed",
							"type": "uint256"
						}
					],
					"name": "ERC20InsufficientBalance",
					"type": "error"
				},
				{
					"inputs": [
						{
							"internalType": "address",
							"name": "approver",
							"type": "address"
						}
					],
					"name": "ERC20InvalidApprover",
					"type": "error"
				},
				{
					"inputs": [
						{
							"internalType": "address",
							"name": "receiver",
							"type": "address"
						}
					],
					"name": "ERC20InvalidReceiver",
					"type": "error"
				},
				{
					"inputs": [
						{
							"internalType": "address",
							"name": "sender",
							"type": "address"
						}
					],
					"name": "ERC20InvalidSender",
					"type": "error"
				},
				{
					"inputs": [
						{
							"internalType": "address",
							"name": "spender",
							"type": "address"
						}
					],
					"name": "ERC20InvalidSpender",
					"type": "error"
				},
				{
					"inputs": [],
					"name": "InvalidInitialization",
					"type": "error"
				},
				{
					"inputs": [],
					"name": "NotInitializing",
					"type": "error"
				},
				{
					"inputs": [
						{
							"internalType": "address",
							"name": "owner",
							"type": "address"
						}
					],
					"name": "OwnableInvalidOwner",
					"type": "error"
				},
				{
					"inputs": [
						{
							"internalType": "address",
							"name": "account",
							"type": "address"
						}
					],
					"name": "OwnableUnauthorizedAccount",
					"type": "error"
				},
				{
					"anonymous": false,
					"inputs": [
						{
							"indexed": true,
							"internalType": "address",
							"name": "owner",
							"type": "address"
						},
						{
							"indexed": true,
							"internalType": "address",
							"name": "spender",
							"type": "address"
						},
						{
							"indexed": false,
							"internalType": "uint256",
							"name": "value",
							"type": "uint256"
						}
					],
					"name": "Approval",
					"type": "event"
				},
				{
					"anonymous": false,
					"inputs": [
						{
							"indexed": true,
							"internalType": "address",
							"name": "newBeneficiary",
							"type": "address"
						}
					],
					"name": "BeneficiarySet",
					"type": "event"
				},
				{
					"anonymous": false,
					"inputs": [
						{
							"indexed": true,
							"internalType": "address",
							"name": "account",
							"type": "address"
						},
						{
							"indexed": false,
							"internalType": "bool",
							"name": "isExcludedOutbound",
							"type": "bool"
						},
						{
							"indexed": false,
							"internalType": "bool",
							"name": "isExcludedInbound",
							"type": "bool"
						}
					],
					"name": "FeeExclusionSet",
					"type": "event"
				},
				{
					"anonymous": false,
					"inputs": [
						{
							"indexed": false,
							"internalType": "uint64",
							"name": "version",
							"type": "uint64"
						}
					],
					"name": "Initialized",
					"type": "event"
				},
				{
					"anonymous": false,
					"inputs": [
						{
							"indexed": true,
							"internalType": "address",
							"name": "account",
							"type": "address"
						},
						{
							"indexed": false,
							"internalType": "bool",
							"name": "isPool",
							"type": "bool"
						}
					],
					"name": "LiquidityPoolSet",
					"type": "event"
				},
				{
					"anonymous": false,
					"inputs": [
						{
							"indexed": true,
							"internalType": "address",
							"name": "previousOwner",
							"type": "address"
						},
						{
							"indexed": true,
							"internalType": "address",
							"name": "newOwner",
							"type": "address"
						}
					],
					"name": "OwnershipTransferred",
					"type": "event"
				},
				{
					"anonymous": false,
					"inputs": [
						{
							"indexed": false,
							"internalType": "address",
							"name": "account",
							"type": "address"
						}
					],
					"name": "Paused",
					"type": "event"
				},
				{
					"anonymous": false,
					"inputs": [
						{
							"indexed": false,
							"internalType": "uint256",
							"name": "newPeriod",
							"type": "uint256"
						}
					],
					"name": "ReserveCheckPeriodSet",
					"type": "event"
				},
				{
					"anonymous": false,
					"inputs": [
						{
							"indexed": true,
							"internalType": "address",
							"name": "newReserveConsumer",
							"type": "address"
						}
					],
					"name": "ReserveConsumerSet",
					"type": "event"
				},
				{
					"anonymous": false,
					"inputs": [
						{
							"indexed": true,
							"internalType": "address",
							"name": "newSupplyController",
							"type": "address"
						}
					],
					"name": "SupplyControllerSet",
					"type": "event"
				},
				{
					"anonymous": false,
					"inputs": [
						{
							"indexed": false,
							"internalType": "uint256[5]",
							"name": "tiers",
							"type": "uint256[5]"
						},
						{
							"indexed": false,
							"internalType": "uint256[5]",
							"name": "percentages",
							"type": "uint256[5]"
						}
					],
					"name": "TaxUpdated",
					"type": "event"
				},
				{
					"anonymous": false,
					"inputs": [
						{
							"indexed": true,
							"internalType": "address",
							"name": "from",
							"type": "address"
						},
						{
							"indexed": true,
							"internalType": "address",
							"name": "to",
							"type": "address"
						},
						{
							"indexed": false,
							"internalType": "uint256",
							"name": "value",
							"type": "uint256"
						}
					],
					"name": "Transfer",
					"type": "event"
				},
				{
					"anonymous": false,
					"inputs": [
						{
							"indexed": false,
							"internalType": "address",
							"name": "account",
							"type": "address"
						}
					],
					"name": "Unpaused",
					"type": "event"
				},
				{
					"inputs": [],
					"name": "MAX_TAX_PERCENTAGE",
					"outputs": [
						{
							"internalType": "uint256",
							"name": "",
							"type": "uint256"
						}
					],
					"stateMutability": "view",
					"type": "function"
				},
				{
					"inputs": [
						{
							"internalType": "address",
							"name": "owner",
							"type": "address"
						},
						{
							"internalType": "address",
							"name": "spender",
							"type": "address"
						}
					],
					"name": "allowance",
					"outputs": [
						{
							"internalType": "uint256",
							"name": "",
							"type": "uint256"
						}
					],
					"stateMutability": "view",
					"type": "function"
				},
				{
					"inputs": [
						{
							"internalType": "address",
							"name": "spender",
							"type": "address"
						},
						{
							"internalType": "uint256",
							"name": "value",
							"type": "uint256"
						}
					],
					"name": "approve",
					"outputs": [
						{
							"internalType": "bool",
							"name": "",
							"type": "bool"
						}
					],
					"stateMutability": "nonpayable",
					"type": "function"
				},
				{
					"inputs": [
						{
							"internalType": "address",
							"name": "account",
							"type": "address"
						}
					],
					"name": "balanceOf",
					"outputs": [
						{
							"internalType": "uint256",
							"name": "",
							"type": "uint256"
						}
					],
					"stateMutability": "view",
					"type": "function"
				},
				{
					"inputs": [],
					"name": "beneficiary",
					"outputs": [
						{
							"internalType": "address",
							"name": "",
							"type": "address"
						}
					],
					"stateMutability": "view",
					"type": "function"
				},
				{
					"inputs": [
						{
							"internalType": "uint256",
							"name": "_amount",
							"type": "uint256"
						}
					],
					"name": "burn",
					"outputs": [],
					"stateMutability": "nonpayable",
					"type": "function"
				},
				{
					"inputs": [
						{
							"internalType": "address",
							"name": "_account",
							"type": "address"
						},
						{
							"internalType": "uint256",
							"name": "_amount",
							"type": "uint256"
						}
					],
					"name": "burnFrom",
					"outputs": [],
					"stateMutability": "nonpayable",
					"type": "function"
				},
				{
					"inputs": [],
					"name": "decimals",
					"outputs": [
						{
							"internalType": "uint8",
							"name": "",
							"type": "uint8"
						}
					],
					"stateMutability": "view",
					"type": "function"
				},
				{
					"inputs": [
						{
							"internalType": "string",
							"name": "name",
							"type": "string"
						},
						{
							"internalType": "string",
							"name": "symbol",
							"type": "string"
						},
						{
							"internalType": "address",
							"name": "_supplyController",
							"type": "address"
						},
						{
							"internalType": "address",
							"name": "_beneficiary",
							"type": "address"
						},
						{
							"internalType": "address",
							"name": "_reserveConsumer",
							"type": "address"
						}
					],
					"name": "initialize",
					"outputs": [],
					"stateMutability": "nonpayable",
					"type": "function"
				},
				{
					"inputs": [
						{
							"internalType": "address",
							"name": "",
							"type": "address"
						}
					],
					"name": "isExcludedFromInboundFees",
					"outputs": [
						{
							"internalType": "bool",
							"name": "",
							"type": "bool"
						}
					],
					"stateMutability": "view",
					"type": "function"
				},
				{
					"inputs": [
						{
							"internalType": "address",
							"name": "",
							"type": "address"
						}
					],
					"name": "isExcludedFromOutboundFees",
					"outputs": [
						{
							"internalType": "bool",
							"name": "",
							"type": "bool"
						}
					],
					"stateMutability": "view",
					"type": "function"
				},
				{
					"inputs": [
						{
							"internalType": "address",
							"name": "",
							"type": "address"
						}
					],
					"name": "isLiquidityPool",
					"outputs": [
						{
							"internalType": "bool",
							"name": "",
							"type": "bool"
						}
					],
					"stateMutability": "view",
					"type": "function"
				},
				{
					"inputs": [],
					"name": "lastReserveCheck",
					"outputs": [
						{
							"internalType": "uint256",
							"name": "",
							"type": "uint256"
						}
					],
					"stateMutability": "view",
					"type": "function"
				},
				{
					"inputs": [
						{
							"internalType": "address",
							"name": "_to",
							"type": "address"
						},
						{
							"internalType": "uint256",
							"name": "_amount",
							"type": "uint256"
						}
					],
					"name": "mint",
					"outputs": [],
					"stateMutability": "nonpayable",
					"type": "function"
				},
				{
					"inputs": [],
					"name": "name",
					"outputs": [
						{
							"internalType": "string",
							"name": "",
							"type": "string"
						}
					],
					"stateMutability": "view",
					"type": "function"
				},
				{
					"inputs": [],
					"name": "owner",
					"outputs": [
						{
							"internalType": "address",
							"name": "",
							"type": "address"
						}
					],
					"stateMutability": "view",
					"type": "function"
				},
				{
					"inputs": [],
					"name": "pause",
					"outputs": [],
					"stateMutability": "nonpayable",
					"type": "function"
				},
				{
					"inputs": [],
					"name": "paused",
					"outputs": [
						{
							"internalType": "bool",
							"name": "",
							"type": "bool"
						}
					],
					"stateMutability": "view",
					"type": "function"
				},
				{
					"inputs": [],
					"name": "renounceAdminControl",
					"outputs": [],
					"stateMutability": "nonpayable",
					"type": "function"
				},
				{
					"inputs": [],
					"name": "renounceOwnership",
					"outputs": [],
					"stateMutability": "nonpayable",
					"type": "function"
				},
				{
					"inputs": [],
					"name": "reserveCheckPeriod",
					"outputs": [
						{
							"internalType": "uint256",
							"name": "",
							"type": "uint256"
						}
					],
					"stateMutability": "view",
					"type": "function"
				},
				{
					"inputs": [],
					"name": "reserveConsumer",
					"outputs": [
						{
							"internalType": "address",
							"name": "",
							"type": "address"
						}
					],
					"stateMutability": "view",
					"type": "function"
				},
				{
					"inputs": [
						{
							"internalType": "address",
							"name": "_newBeneficiary",
							"type": "address"
						}
					],
					"name": "setBeneficiary",
					"outputs": [],
					"stateMutability": "nonpayable",
					"type": "function"
				},
				{
					"inputs": [
						{
							"internalType": "address",
							"name": "_address",
							"type": "address"
						},
						{
							"internalType": "bool",
							"name": "_isExcludedOutbound",
							"type": "bool"
						},
						{
							"internalType": "bool",
							"name": "_isExcludedInbound",
							"type": "bool"
						}
					],
					"name": "setFeeExclusion",
					"outputs": [],
					"stateMutability": "nonpayable",
					"type": "function"
				},
				{
					"inputs": [
						{
							"internalType": "address",
							"name": "_address",
							"type": "address"
						},
						{
							"internalType": "bool",
							"name": "_isPool",
							"type": "bool"
						}
					],
					"name": "setLiquidityPool",
					"outputs": [],
					"stateMutability": "nonpayable",
					"type": "function"
				},
				{
					"inputs": [
						{
							"internalType": "uint256",
							"name": "_newPeriod",
							"type": "uint256"
						}
					],
					"name": "setReserveCheckPeriod",
					"outputs": [],
					"stateMutability": "nonpayable",
					"type": "function"
				},
				{
					"inputs": [
						{
							"internalType": "address",
							"name": "_newReserveConsumer",
							"type": "address"
						}
					],
					"name": "setReserveConsumer",
					"outputs": [],
					"stateMutability": "nonpayable",
					"type": "function"
				},
				{
					"inputs": [
						{
							"internalType": "address",
							"name": "_newSupplyController",
							"type": "address"
						}
					],
					"name": "setSupplyController",
					"outputs": [],
					"stateMutability": "nonpayable",
					"type": "function"
				},
				{
					"inputs": [
						{
							"internalType": "uint256[5]",
							"name": "_tiers",
							"type": "uint256[5]"
						},
						{
							"internalType": "uint256[5]",
							"name": "_percentages",
							"type": "uint256[5]"
						}
					],
					"name": "setTaxParameters",
					"outputs": [],
					"stateMutability": "nonpayable",
					"type": "function"
				},
				{
					"inputs": [],
					"name": "supplyController",
					"outputs": [
						{
							"internalType": "address",
							"name": "",
							"type": "address"
						}
					],
					"stateMutability": "view",
					"type": "function"
				},
				{
					"inputs": [],
					"name": "symbol",
					"outputs": [
						{
							"internalType": "string",
							"name": "",
							"type": "string"
						}
					],
					"stateMutability": "view",
					"type": "function"
				},
				{
					"inputs": [
						{
							"internalType": "uint256",
							"name": "",
							"type": "uint256"
						}
					],
					"name": "taxPercentages",
					"outputs": [
						{
							"internalType": "uint256",
							"name": "",
							"type": "uint256"
						}
					],
					"stateMutability": "view",
					"type": "function"
				},
				{
					"inputs": [
						{
							"internalType": "uint256",
							"name": "",
							"type": "uint256"
						}
					],
					"name": "taxTiers",
					"outputs": [
						{
							"internalType": "uint256",
							"name": "",
							"type": "uint256"
						}
					],
					"stateMutability": "view",
					"type": "function"
				},
				{
					"inputs": [],
					"name": "totalSupply",
					"outputs": [
						{
							"internalType": "uint256",
							"name": "",
							"type": "uint256"
						}
					],
					"stateMutability": "view",
					"type": "function"
				},
				{
					"inputs": [
						{
							"internalType": "address",
							"name": "recipient",
							"type": "address"
						},
						{
							"internalType": "uint256",
							"name": "amount",
							"type": "uint256"
						}
					],
					"name": "transfer",
					"outputs": [
						{
							"internalType": "bool",
							"name": "",
							"type": "bool"
						}
					],
					"stateMutability": "nonpayable",
					"type": "function"
				},
				{
					"inputs": [
						{
							"internalType": "address",
							"name": "newAdmin",
							"type": "address"
						}
					],
					"name": "transferAdminControl",
					"outputs": [],
					"stateMutability": "nonpayable",
					"type": "function"
				},
				{
					"inputs": [
						{
							"internalType": "address",
							"name": "sender",
							"type": "address"
						},
						{
							"internalType": "address",
							"name": "recipient",
							"type": "address"
						},
						{
							"internalType": "uint256",
							"name": "amount",
							"type": "uint256"
						}
					],
					"name": "transferFrom",
					"outputs": [
						{
							"internalType": "bool",
							"name": "",
							"type": "bool"
						}
					],
					"stateMutability": "nonpayable",
					"type": "function"
				},
				{
					"inputs": [
						{
							"internalType": "address",
							"name": "newOwner",
							"type": "address"
						}
					],
					"name": "transferOwnership",
					"outputs": [],
					"stateMutability": "nonpayable",
					"type": "function"
				},
				{
					"inputs": [],
					"name": "unpause",
					"outputs": [],
					"stateMutability": "nonpayable",
					"type": "function"
				}
			],
			"devdoc": {
				"errors": {
					"ERC20InsufficientAllowance(address,uint256,uint256)": [
						{
							"details": "Indicates a failure with the `spender`’s `allowance`. Used in transfers.",
							"params": {
								"allowance": "Amount of tokens a `spender` is allowed to operate with.",
								"needed": "Minimum amount required to perform a transfer.",
								"spender": "Address that may be allowed to operate on tokens without being their owner."
							}
						}
					],
					"ERC20InsufficientBalance(address,uint256,uint256)": [
						{
							"details": "Indicates an error related to the current `balance` of a `sender`. Used in transfers.",
							"params": {
								"balance": "Current balance for the interacting account.",
								"needed": "Minimum amount required to perform a transfer.",
								"sender": "Address whose tokens are being transferred."
							}
						}
					],
					"ERC20InvalidApprover(address)": [
						{
							"details": "Indicates a failure with the `approver` of a token to be approved. Used in approvals.",
							"params": {
								"approver": "Address initiating an approval operation."
							}
						}
					],
					"ERC20InvalidReceiver(address)": [
						{
							"details": "Indicates a failure with the token `receiver`. Used in transfers.",
							"params": {
								"receiver": "Address to which tokens are being transferred."
							}
						}
					],
					"ERC20InvalidSender(address)": [
						{
							"details": "Indicates a failure with the token `sender`. Used in transfers.",
							"params": {
								"sender": "Address whose tokens are being transferred."
							}
						}
					],
					"ERC20InvalidSpender(address)": [
						{
							"details": "Indicates a failure with the `spender` to be approved. Used in approvals.",
							"params": {
								"spender": "Address that may be allowed to operate on tokens without being their owner."
							}
						}
					],
					"InvalidInitialization()": [
						{
							"details": "The contract is already initialized."
						}
					],
					"NotInitializing()": [
						{
							"details": "The contract is not initializing."
						}
					],
					"OwnableInvalidOwner(address)": [
						{
							"details": "The owner is not a valid owner account. (eg. `address(0)`)"
						}
					],
					"OwnableUnauthorizedAccount(address)": [
						{
							"details": "The caller account is not authorized to perform an operation."
						}
					]
				},
				"events": {
					"Approval(address,address,uint256)": {
						"details": "Emitted when the allowance of a `spender` for an `owner` is set by a call to {approve}. `value` is the new allowance."
					},
					"Initialized(uint64)": {
						"details": "Triggered when the contract has been initialized or reinitialized."
					},
					"Paused(address)": {
						"details": "Emitted when the pause is triggered by `account`."
					},
					"Transfer(address,address,uint256)": {
						"details": "Emitted when `value` tokens are moved from one account (`from`) to another (`to`). Note that `value` may be zero."
					},
					"Unpaused(address)": {
						"details": "Emitted when the pause is lifted by `account`."
					}
				},
				"kind": "dev",
				"methods": {
					"allowance(address,address)": {
						"details": "See {IERC20-allowance}."
					},
					"approve(address,uint256)": {
						"details": "See {IERC20-approve}. NOTE: If `value` is the maximum `uint256`, the allowance is not updated on `transferFrom`. This is semantically equivalent to an infinite approval. Requirements: - `spender` cannot be the zero address."
					},
					"balanceOf(address)": {
						"details": "See {IERC20-balanceOf}."
					},
					"decimals()": {
						"details": "Returns the number of decimals used to get its user representation. For example, if `decimals` equals `2`, a balance of `505` tokens should be displayed to a user as `5.05` (`505 / 10 ** 2`). Tokens usually opt for a value of 18, imitating the relationship between Ether and Wei. This is the default value returned by this function, unless it's overridden. NOTE: This information is only used for _display_ purposes: it in no way affects any of the arithmetic of the contract, including {IERC20-balanceOf} and {IERC20-transfer}."
					},
					"name()": {
						"details": "Returns the name of the token."
					},
					"owner()": {
						"details": "Returns the address of the current owner."
					},
					"paused()": {
						"details": "Returns true if the contract is paused, and false otherwise."
					},
					"renounceOwnership()": {
						"details": "Leaves the contract without owner. It will not be possible to call `onlyOwner` functions. Can only be called by the current owner. NOTE: Renouncing ownership will leave the contract without an owner, thereby disabling any functionality that is only available to the owner."
					},
					"symbol()": {
						"details": "Returns the symbol of the token, usually a shorter version of the name."
					},
					"totalSupply()": {
						"details": "See {IERC20-totalSupply}."
					},
					"transferOwnership(address)": {
						"details": "Transfers ownership of the contract to a new account (`newOwner`). Can only be called by the current owner."
					}
				},
				"version": 1
			},
			"evm": {
				"assembly": "    /* \"GIFT.sol\":384:7731  contract GIFT is ERC20Upgradeable, OwnableUpgradeable, PausableUpgradeable {... */\n  mstore(0x40, 0x80)\n  callvalue\n  dup1\n  iszero\n  tag_1\n  jumpi\n  0x00\n  dup1\n  revert\ntag_1:\n  pop\n  dataSize(sub_0)\n  dup1\n  dataOffset(sub_0)\n  0x00\n  codecopy\n  0x00\n  return\nstop\n\nsub_0: assembly {\n        /* \"GIFT.sol\":384:7731  contract GIFT is ERC20Upgradeable, OwnableUpgradeable, PausableUpgradeable {... */\n      mstore(0x40, 0x80)\n      callvalue\n      dup1\n      iszero\n      tag_1\n      jumpi\n      0x00\n      dup1\n      revert\n    tag_1:\n      pop\n      jumpi(tag_2, lt(calldatasize, 0x04))\n      shr(0xe0, calldataload(0x00))\n      dup1\n      0x79cc6790\n      gt\n      tag_42\n      jumpi\n      dup1\n      0xc29c669a\n      gt\n      tag_43\n      jumpi\n      dup1\n      0xdd62ed3e\n      gt\n      tag_44\n      jumpi\n      dup1\n      0xdd62ed3e\n      eq\n      tag_37\n      jumpi\n      dup1\n      0xe1a8f3f4\n      eq\n      tag_38\n      jumpi\n      dup1\n      0xe7ba1012\n      eq\n      tag_39\n      jumpi\n      dup1\n      0xe85455d7\n      eq\n      tag_40\n      jumpi\n      dup1\n      0xf2fde38b\n      eq\n      tag_41\n      jumpi\n      jump(tag_2)\n    tag_44:\n      dup1\n      0xc29c669a\n      eq\n      tag_32\n      jumpi\n      dup1\n      0xc658a5e3\n      eq\n      tag_33\n      jumpi\n      dup1\n      0xcc7134ba\n      eq\n      tag_34\n      jumpi\n      dup1\n      0xd048d988\n      eq\n      tag_35\n      jumpi\n      dup1\n      0xdb0ed6a0\n      eq\n      tag_36\n      jumpi\n      jump(tag_2)\n    tag_43:\n      dup1\n      0x8da5cb5b\n      gt\n      tag_45\n      jumpi\n      dup1\n      0x8da5cb5b\n      eq\n      tag_27\n      jumpi\n      dup1\n      0x95d89b41\n      eq\n      tag_28\n      jumpi\n      dup1\n      0xa02fba1e\n      eq\n      tag_29\n      jumpi\n      dup1\n      0xa9059cbb\n      eq\n      tag_30\n      jumpi\n      dup1\n      0xa906c70e\n      eq\n      tag_31\n      jumpi\n      jump(tag_2)\n    tag_45:\n      dup1\n      0x79cc6790\n      eq\n      tag_22\n      jumpi\n      dup1\n      0x79e631f4\n      eq\n      tag_23\n      jumpi\n      dup1\n      0x8456cb59\n      eq\n      tag_24\n      jumpi\n      dup1\n      0x851f39d4\n      eq\n      tag_25\n      jumpi\n      dup1\n      0x8850b9c2\n      eq\n      tag_26\n      jumpi\n      jump(tag_2)\n    tag_42:\n      dup1\n      0x38af3eed\n      gt\n      tag_46\n      jumpi\n      dup1\n      0x53e4e3cb\n      gt\n      tag_47\n      jumpi\n      dup1\n      0x53e4e3cb\n      eq\n      tag_17\n      jumpi\n      dup1\n      0x5c975abb\n      eq\n      tag_18\n      jumpi\n      dup1\n      0x70a08231\n      eq\n      tag_19\n      jumpi\n      dup1\n      0x70d27fa0\n      eq\n      tag_20\n      jumpi\n      dup1\n      0x715018a6\n      eq\n      tag_21\n      jumpi\n      jump(tag_2)\n    tag_47:\n      dup1\n      0x38af3eed\n      eq\n      tag_12\n      jumpi\n      dup1\n      0x3f4ba83a\n      eq\n      tag_13\n      jumpi\n      dup1\n      0x40c10f19\n      eq\n      tag_14\n      jumpi\n      dup1\n      0x42966c68\n      eq\n      tag_15\n      jumpi\n      dup1\n      0x52875bc3\n      eq\n      tag_16\n      jumpi\n      jump(tag_2)\n    tag_46:\n      dup1\n      0x1a5e62fd\n      gt\n      tag_48\n      jumpi\n      dup1\n      0x1a5e62fd\n      eq\n      tag_7\n      jumpi\n      dup1\n      0x1c31f710\n      eq\n      tag_8\n      jumpi\n      dup1\n      0x23b872dd\n      eq\n      tag_9\n      jumpi\n      dup1\n      0x24e8933d\n      eq\n      tag_10\n      jumpi\n      dup1\n      0x313ce567\n      eq\n      tag_11\n      jumpi\n      jump(tag_2)\n    tag_48:\n      dup1\n      0x06fdde03\n      eq\n      tag_3\n      jumpi\n      dup1\n      0x095ea7b3\n      eq\n      tag_4\n      jumpi\n      dup1\n      0x110c621d\n      eq\n      tag_5\n      jumpi\n      dup1\n      0x18160ddd\n      eq\n      tag_6\n      jumpi\n    tag_2:\n      0x00\n      dup1\n      revert\n        /* \"@openzeppelin/contracts-upgradeable/token/ERC20/ERC20Upgradeable.sol\":3011:3155  function name() public view virtual returns (string memory) {... */\n    tag_3:\n      tag_49\n      tag_50\n      jump\t// in\n    tag_49:\n      mload(0x40)\n      tag_51\n      swap2\n      swap1\n      tag_52\n      jump\t// in\n    tag_51:\n      mload(0x40)\n      dup1\n      swap2\n      sub\n      swap1\n      return\n        /* \"@openzeppelin/contracts-upgradeable/token/ERC20/ERC20Upgradeable.sol\":5505:5691  function approve(address spender, uint256 value) public virtual returns (bool) {... */\n    tag_4:\n      tag_53\n      0x04\n      dup1\n      calldatasize\n      sub\n      dup2\n      add\n      swap1\n      tag_54\n      swap2\n      swap1\n      tag_55\n      jump\t// in\n    tag_54:\n      tag_56\n      jump\t// in\n    tag_53:\n      mload(0x40)\n      tag_57\n      swap2\n      swap1\n      tag_58\n      jump\t// in\n    tag_57:\n      mload(0x40)\n      dup1\n      swap2\n      sub\n      swap1\n      return\n        /* \"GIFT.sol\":840:872  uint256[5] public taxPercentages */\n    tag_5:\n      tag_59\n      0x04\n      dup1\n      calldatasize\n      sub\n      dup2\n      add\n      swap1\n      tag_60\n      swap2\n      swap1\n      tag_61\n      jump\t// in\n    tag_60:\n      tag_62\n      jump\t// in\n    tag_59:\n      mload(0x40)\n      tag_63\n      swap2\n      swap1\n      tag_64\n      jump\t// in\n    tag_63:\n      mload(0x40)\n      dup1\n      swap2\n      sub\n      swap1\n      return\n        /* \"@openzeppelin/contracts-upgradeable/token/ERC20/ERC20Upgradeable.sol\":4191:4343  function totalSupply() public view virtual returns (uint256) {... */\n    tag_6:\n      tag_65\n      tag_66\n      jump\t// in\n    tag_65:\n      mload(0x40)\n      tag_67\n      swap2\n      swap1\n      tag_64\n      jump\t// in\n    tag_67:\n      mload(0x40)\n      dup1\n      swap2\n      sub\n      swap1\n      return\n        /* \"GIFT.sol\":7430:7631  function transferAdminControl(address newAdmin) external onlyOwner {... */\n    tag_7:\n      tag_68\n      0x04\n      dup1\n      calldatasize\n      sub\n      dup2\n      add\n      swap1\n      tag_69\n      swap2\n      swap1\n      tag_70\n      jump\t// in\n    tag_69:\n      tag_71\n      jump\t// in\n    tag_68:\n      stop\n        /* \"GIFT.sol\":3372:3535  function setBeneficiary(address _newBeneficiary) external onlyOwner {... */\n    tag_8:\n      tag_72\n      0x04\n      dup1\n      calldatasize\n      sub\n      dup2\n      add\n      swap1\n      tag_73\n      swap2\n      swap1\n      tag_70\n      jump\t// in\n    tag_73:\n      tag_74\n      jump\t// in\n    tag_72:\n      stop\n        /* \"GIFT.sol\":5406:5874  function transferFrom(address sender, address recipient, uint256 amount) public virtual override whenNotPaused checkReserves returns (bool) {... */\n    tag_9:\n      tag_75\n      0x04\n      dup1\n      calldatasize\n      sub\n      dup2\n      add\n      swap1\n      tag_76\n      swap2\n      swap1\n      tag_77\n      jump\t// in\n    tag_76:\n      tag_78\n      jump\t// in\n    tag_75:\n      mload(0x40)\n      tag_79\n      swap2\n      swap1\n      tag_58\n      jump\t// in\n    tag_79:\n      mload(0x40)\n      dup1\n      swap2\n      sub\n      swap1\n      return\n        /* \"GIFT.sol\":946:977  uint256 public lastReserveCheck */\n    tag_10:\n      tag_80\n      tag_81\n      jump\t// in\n    tag_80:\n      mload(0x40)\n      tag_82\n      swap2\n      swap1\n      tag_64\n      jump\t// in\n    tag_82:\n      mload(0x40)\n      dup1\n      swap2\n      sub\n      swap1\n      return\n        /* \"@openzeppelin/contracts-upgradeable/token/ERC20/ERC20Upgradeable.sol\":4049:4131  function decimals() public view virtual returns (uint8) {... */\n    tag_11:\n      tag_83\n      tag_84\n      jump\t// in\n    tag_83:\n      mload(0x40)\n      tag_85\n      swap2\n      swap1\n      tag_86\n      jump\t// in\n    tag_85:\n      mload(0x40)\n      dup1\n      swap2\n      sub\n      swap1\n      return\n        /* \"GIFT.sol\":550:576  address public beneficiary */\n    tag_12:\n      tag_87\n      tag_88\n      jump\t// in\n    tag_87:\n      mload(0x40)\n      tag_89\n      swap2\n      swap1\n      tag_90\n      jump\t// in\n    tag_89:\n      mload(0x40)\n      dup1\n      swap2\n      sub\n      swap1\n      return\n        /* \"GIFT.sol\":5129:5196  function unpause() external onlyOwner {... */\n    tag_13:\n      tag_91\n      tag_92\n      jump\t// in\n    tag_91:\n      stop\n        /* \"GIFT.sol\":4456:4582  function mint(address _to, uint256 _amount) external onlySupplyController checkReserves {... */\n    tag_14:\n      tag_93\n      0x04\n      dup1\n      calldatasize\n      sub\n      dup2\n      add\n      swap1\n      tag_94\n      swap2\n      swap1\n      tag_55\n      jump\t// in\n    tag_94:\n      tag_95\n      jump\t// in\n    tag_93:\n      stop\n        /* \"GIFT.sol\":4590:4675  function burn(uint256 _amount) external {... */\n    tag_15:\n      tag_96\n      0x04\n      dup1\n      calldatasize\n      sub\n      dup2\n      add\n      swap1\n      tag_97\n      swap2\n      swap1\n      tag_61\n      jump\t// in\n    tag_97:\n      tag_98\n      jump\t// in\n    tag_96:\n      stop\n        /* \"GIFT.sol\":3171:3364  function setSupplyController(address _newSupplyController) external onlyOwner {... */\n    tag_16:\n      tag_99\n      0x04\n      dup1\n      calldatasize\n      sub\n      dup2\n      add\n      swap1\n      tag_100\n      swap2\n      swap1\n      tag_70\n      jump\t// in\n    tag_100:\n      tag_101\n      jump\t// in\n    tag_99:\n      stop\n        /* \"GIFT.sol\":2606:3159  function setTaxParameters(uint256[5] memory _tiers, uint256[5] memory _percentages) external onlyOwner {... */\n    tag_17:\n      tag_102\n      0x04\n      dup1\n      calldatasize\n      sub\n      dup2\n      add\n      swap1\n      tag_103\n      swap2\n      swap1\n      tag_104\n      jump\t// in\n    tag_103:\n      tag_105\n      jump\t// in\n    tag_102:\n      stop\n        /* \"@openzeppelin/contracts-upgradeable/security/PausableUpgradeable.sol\":1879:1963  function paused() public view virtual returns (bool) {... */\n    tag_18:\n      tag_106\n      tag_107\n      jump\t// in\n    tag_106:\n      mload(0x40)\n      tag_108\n      swap2\n      swap1\n      tag_58\n      jump\t// in\n    tag_108:\n      mload(0x40)\n      dup1\n      swap2\n      sub\n      swap1\n      return\n        /* \"@openzeppelin/contracts-upgradeable/token/ERC20/ERC20Upgradeable.sol\":4401:4572  function balanceOf(address account) public view virtual returns (uint256) {... */\n    tag_19:\n      tag_109\n      0x04\n      dup1\n      calldatasize\n      sub\n      dup2\n      add\n      swap1\n      tag_110\n      swap2\n      swap1\n      tag_70\n      jump\t// in\n    tag_110:\n      tag_111\n      jump\t// in\n    tag_109:\n      mload(0x40)\n      tag_112\n      swap2\n      swap1\n      tag_64\n      jump\t// in\n    tag_112:\n      mload(0x40)\n      dup1\n      swap2\n      sub\n      swap1\n      return\n        /* \"GIFT.sol\":881:932  uint256 public constant MAX_TAX_PERCENTAGE = 20_000 */\n    tag_20:\n      tag_113\n      tag_114\n      jump\t// in\n    tag_113:\n      mload(0x40)\n      tag_115\n      swap2\n      swap1\n      tag_64\n      jump\t// in\n    tag_115:\n      mload(0x40)\n      dup1\n      swap2\n      sub\n      swap1\n      return\n        /* \"@openzeppelin/contracts-upgradeable/access/OwnableUpgradeable.sol\":3155:3256  function renounceOwnership() public virtual onlyOwner {... */\n    tag_21:\n      tag_116\n      tag_117\n      jump\t// in\n    tag_116:\n      stop\n        /* \"GIFT.sol\":4683:5048  function burnFrom(address _account, uint256 _amount) external {... */\n    tag_22:\n      tag_118\n      0x04\n      dup1\n      calldatasize\n      sub\n      dup2\n      add\n      swap1\n      tag_119\n      swap2\n      swap1\n      tag_55\n      jump\t// in\n    tag_119:\n      tag_120\n      jump\t// in\n    tag_118:\n      stop\n        /* \"GIFT.sol\":4082:4269  function setReserveConsumer(address _newReserveConsumer) external onlyOwner {... */\n    tag_23:\n      tag_121\n      0x04\n      dup1\n      calldatasize\n      sub\n      dup2\n      add\n      swap1\n      tag_122\n      swap2\n      swap1\n      tag_70\n      jump\t// in\n    tag_122:\n      tag_123\n      jump\t// in\n    tag_121:\n      stop\n        /* \"GIFT.sol\":5058:5121  function pause() external onlyOwner {... */\n    tag_24:\n      tag_124\n      tag_125\n      jump\t// in\n    tag_124:\n      stop\n        /* \"GIFT.sol\":687:744  mapping(address => bool) public isExcludedFromInboundFees */\n    tag_25:\n      tag_126\n      0x04\n      dup1\n      calldatasize\n      sub\n      dup2\n      add\n      swap1\n      tag_127\n      swap2\n      swap1\n      tag_70\n      jump\t// in\n    tag_127:\n      tag_128\n      jump\t// in\n    tag_126:\n      mload(0x40)\n      tag_129\n      swap2\n      swap1\n      tag_58\n      jump\t// in\n    tag_129:\n      mload(0x40)\n      dup1\n      swap2\n      sub\n      swap1\n      return\n        /* \"GIFT.sol\":583:613  address public reserveConsumer */\n    tag_26:\n      tag_130\n      tag_131\n      jump\t// in\n    tag_130:\n      mload(0x40)\n      tag_132\n      swap2\n      swap1\n      tag_90\n      jump\t// in\n    tag_132:\n      mload(0x40)\n      dup1\n      swap2\n      sub\n      swap1\n      return\n        /* \"@openzeppelin/contracts-upgradeable/access/OwnableUpgradeable.sol\":2441:2585  function owner() public view virtual returns (address) {... */\n    tag_27:\n      tag_133\n      tag_134\n      jump\t// in\n    tag_133:\n      mload(0x40)\n      tag_135\n      swap2\n      swap1\n      tag_90\n      jump\t// in\n    tag_135:\n      mload(0x40)\n      dup1\n      swap2\n      sub\n      swap1\n      return\n        /* \"@openzeppelin/contracts-upgradeable/token/ERC20/ERC20Upgradeable.sol\":3268:3416  function symbol() public view virtual returns (string memory) {... */\n    tag_28:\n      tag_136\n      tag_137\n      jump\t// in\n    tag_136:\n      mload(0x40)\n      tag_138\n      swap2\n      swap1\n      tag_52\n      jump\t// in\n    tag_138:\n      mload(0x40)\n      dup1\n      swap2\n      sub\n      swap1\n      return\n        /* \"GIFT.sol\":4277:4446  function setReserveCheckPeriod(uint256 _newPeriod) external onlyOwner {... */\n    tag_29:\n      tag_139\n      0x04\n      dup1\n      calldatasize\n      sub\n      dup2\n      add\n      swap1\n      tag_140\n      swap2\n      swap1\n      tag_61\n      jump\t// in\n    tag_140:\n      tag_141\n      jump\t// in\n    tag_139:\n      stop\n        /* \"GIFT.sol\":5204:5396  function transfer(address recipient, uint256 amount) public virtual override whenNotPaused checkReserves returns (bool) {... */\n    tag_30:\n      tag_142\n      0x04\n      dup1\n      calldatasize\n      sub\n      dup2\n      add\n      swap1\n      tag_143\n      swap2\n      swap1\n      tag_55\n      jump\t// in\n    tag_143:\n      tag_144\n      jump\t// in\n    tag_142:\n      mload(0x40)\n      tag_145\n      swap2\n      swap1\n      tag_58\n      jump\t// in\n    tag_145:\n      mload(0x40)\n      dup1\n      swap2\n      sub\n      swap1\n      return\n        /* \"GIFT.sol\":807:833  uint256[5] public taxTiers */\n    tag_31:\n      tag_146\n      0x04\n      dup1\n      calldatasize\n      sub\n      dup2\n      add\n      swap1\n      tag_147\n      swap2\n      swap1\n      tag_61\n      jump\t// in\n    tag_147:\n      tag_148\n      jump\t// in\n    tag_146:\n      mload(0x40)\n      tag_149\n      swap2\n      swap1\n      tag_64\n      jump\t// in\n    tag_149:\n      mload(0x40)\n      dup1\n      swap2\n      sub\n      swap1\n      return\n        /* \"GIFT.sol\":3892:4074  function setLiquidityPool(address _address, bool _isPool) external onlyOwner {... */\n    tag_32:\n      tag_150\n      0x04\n      dup1\n      calldatasize\n      sub\n      dup2\n      add\n      swap1\n      tag_151\n      swap2\n      swap1\n      tag_152\n      jump\t// in\n    tag_151:\n      tag_153\n      jump\t// in\n    tag_150:\n      stop\n        /* \"GIFT.sol\":7639:7728  function renounceAdminControl() external onlyOwner {... */\n    tag_33:\n      tag_154\n      tag_155\n      jump\t// in\n    tag_154:\n      stop\n        /* \"GIFT.sol\":622:680  mapping(address => bool) public isExcludedFromOutboundFees */\n    tag_34:\n      tag_156\n      0x04\n      dup1\n      calldatasize\n      sub\n      dup2\n      add\n      swap1\n      tag_157\n      swap2\n      swap1\n      tag_70\n      jump\t// in\n    tag_157:\n      tag_158\n      jump\t// in\n    tag_156:\n      mload(0x40)\n      tag_159\n      swap2\n      swap1\n      tag_58\n      jump\t// in\n    tag_159:\n      mload(0x40)\n      dup1\n      swap2\n      sub\n      swap1\n      return\n        /* \"GIFT.sol\":984:1017  uint256 public reserveCheckPeriod */\n    tag_35:\n      tag_160\n      tag_161\n      jump\t// in\n    tag_160:\n      mload(0x40)\n      tag_162\n      swap2\n      swap1\n      tag_64\n      jump\t// in\n    tag_162:\n      mload(0x40)\n      dup1\n      swap2\n      sub\n      swap1\n      return\n        /* \"GIFT.sol\":1847:2592  function initialize(... */\n    tag_36:\n      tag_163\n      0x04\n      dup1\n      calldatasize\n      sub\n      dup2\n      add\n      swap1\n      tag_164\n      swap2\n      swap1\n      tag_165\n      jump\t// in\n    tag_164:\n      tag_166\n      jump\t// in\n    tag_163:\n      stop\n        /* \"@openzeppelin/contracts-upgradeable/token/ERC20/ERC20Upgradeable.sol\":5003:5198  function allowance(address owner, address spender) public view virtual returns (uint256) {... */\n    tag_37:\n      tag_167\n      0x04\n      dup1\n      calldatasize\n      sub\n      dup2\n      add\n      swap1\n      tag_168\n      swap2\n      swap1\n      tag_169\n      jump\t// in\n    tag_168:\n      tag_170\n      jump\t// in\n    tag_167:\n      mload(0x40)\n      tag_171\n      swap2\n      swap1\n      tag_64\n      jump\t// in\n    tag_171:\n      mload(0x40)\n      dup1\n      swap2\n      sub\n      swap1\n      return\n        /* \"GIFT.sol\":3543:3882  function setFeeExclusion(address _address, bool _isExcludedOutbound, bool _isExcludedInbound) external onlyOwner {... */\n    tag_38:\n      tag_172\n      0x04\n      dup1\n      calldatasize\n      sub\n      dup2\n      add\n      swap1\n      tag_173\n      swap2\n      swap1\n      tag_174\n      jump\t// in\n    tag_173:\n      tag_175\n      jump\t// in\n    tag_172:\n      stop\n        /* \"GIFT.sol\":512:543  address public supplyController */\n    tag_39:\n      tag_176\n      tag_177\n      jump\t// in\n    tag_176:\n      mload(0x40)\n      tag_178\n      swap2\n      swap1\n      tag_90\n      jump\t// in\n    tag_178:\n      mload(0x40)\n      dup1\n      swap2\n      sub\n      swap1\n      return\n        /* \"GIFT.sol\":751:798  mapping(address => bool) public isLiquidityPool */\n    tag_40:\n      tag_179\n      0x04\n      dup1\n      calldatasize\n      sub\n      dup2\n      add\n      swap1\n      tag_180\n      swap2\n      swap1\n      tag_70\n      jump\t// in\n    tag_180:\n      tag_181\n      jump\t// in\n    tag_179:\n      mload(0x40)\n      tag_182\n      swap2\n      swap1\n      tag_58\n      jump\t// in\n    tag_182:\n      mload(0x40)\n      dup1\n      swap2\n      sub\n      swap1\n      return\n        /* \"@openzeppelin/contracts-upgradeable/access/OwnableUpgradeable.sol\":3405:3620  function transferOwnership(address newOwner) public virtual onlyOwner {... */\n    tag_41:\n      tag_183\n      0x04\n      dup1\n      calldatasize\n      sub\n      dup2\n      add\n      swap1\n      tag_184\n      swap2\n      swap1\n      tag_70\n      jump\t// in\n    tag_184:\n      tag_185\n      jump\t// in\n    tag_183:\n      stop\n        /* \"@openzeppelin/contracts-upgradeable/token/ERC20/ERC20Upgradeable.sol\":3011:3155  function name() public view virtual returns (string memory) {... */\n    tag_50:\n        /* \"@openzeppelin/contracts-upgradeable/token/ERC20/ERC20Upgradeable.sol\":3056:3069  string memory */\n      0x60\n        /* \"@openzeppelin/contracts-upgradeable/token/ERC20/ERC20Upgradeable.sol\":3081:3103  ERC20Storage storage $ */\n      0x00\n        /* \"@openzeppelin/contracts-upgradeable/token/ERC20/ERC20Upgradeable.sol\":3106:3124  _getERC20Storage() */\n      tag_187\n        /* \"@openzeppelin/contracts-upgradeable/token/ERC20/ERC20Upgradeable.sol\":3106:3122  _getERC20Storage */\n      tag_188\n        /* \"@openzeppelin/contracts-upgradeable/token/ERC20/ERC20Upgradeable.sol\":3106:3124  _getERC20Storage() */\n      jump\t// in\n    tag_187:\n        /* \"@openzeppelin/contracts-upgradeable/token/ERC20/ERC20Upgradeable.sol\":3081:3124  ERC20Storage storage $ = _getERC20Storage() */\n      swap1\n      pop\n        /* \"@openzeppelin/contracts-upgradeable/token/ERC20/ERC20Upgradeable.sol\":3141:3142  $ */\n      dup1\n        /* \"@openzeppelin/contracts-upgradeable/token/ERC20/ERC20Upgradeable.sol\":3141:3148  $._name */\n      0x03\n      add\n        /* \"@openzeppelin/contracts-upgradeable/token/ERC20/ERC20Upgradeable.sol\":3134:3148  return $._name */\n      dup1\n      sload\n      tag_189\n      swap1\n      tag_190\n      jump\t// in\n    tag_189:\n      dup1\n      0x1f\n      add\n      0x20\n      dup1\n      swap2\n      div\n      mul\n      0x20\n      add\n      mload(0x40)\n      swap1\n      dup2\n      add\n      0x40\n      mstore\n      dup1\n      swap3\n      swap2\n      swap1\n      dup2\n      dup2\n      mstore\n      0x20\n      add\n      dup3\n      dup1\n      sload\n      tag_191\n      swap1\n      tag_190\n      jump\t// in\n    tag_191:\n      dup1\n      iszero\n      tag_192\n      jumpi\n      dup1\n      0x1f\n      lt\n      tag_193\n      jumpi\n      0x0100\n      dup1\n      dup4\n      sload\n      div\n      mul\n      dup4\n      mstore\n      swap2\n      0x20\n      add\n      swap2\n      jump(tag_192)\n    tag_193:\n      dup3\n      add\n      swap2\n      swap1\n      0x00\n      mstore\n      keccak256(0x00, 0x20)\n      swap1\n    tag_194:\n      dup2\n      sload\n      dup2\n      mstore\n      swap1\n      0x01\n      add\n      swap1\n      0x20\n      add\n      dup1\n      dup4\n      gt\n      tag_194\n      jumpi\n      dup3\n      swap1\n      sub\n      0x1f\n      and\n      dup3\n      add\n      swap2\n    tag_192:\n      pop\n      pop\n      pop\n      pop\n      pop\n      swap2\n      pop\n      pop\n        /* \"@openzeppelin/contracts-upgradeable/token/ERC20/ERC20Upgradeable.sol\":3011:3155  function name() public view virtual returns (string memory) {... */\n      swap1\n      jump\t// out\n        /* \"@openzeppelin/contracts-upgradeable/token/ERC20/ERC20Upgradeable.sol\":5505:5691  function approve(address spender, uint256 value) public virtual returns (bool) {... */\n    tag_56:\n        /* \"@openzeppelin/contracts-upgradeable/token/ERC20/ERC20Upgradeable.sol\":5578:5582  bool */\n      0x00\n        /* \"@openzeppelin/contracts-upgradeable/token/ERC20/ERC20Upgradeable.sol\":5594:5607  address owner */\n      dup1\n        /* \"@openzeppelin/contracts-upgradeable/token/ERC20/ERC20Upgradeable.sol\":5610:5622  _msgSender() */\n      tag_196\n        /* \"@openzeppelin/contracts-upgradeable/token/ERC20/ERC20Upgradeable.sol\":5610:5620  _msgSender */\n      tag_197\n        /* \"@openzeppelin/contracts-upgradeable/token/ERC20/ERC20Upgradeable.sol\":5610:5622  _msgSender() */\n      jump\t// in\n    tag_196:\n        /* \"@openzeppelin/contracts-upgradeable/token/ERC20/ERC20Upgradeable.sol\":5594:5622  address owner = _msgSender() */\n      swap1\n      pop\n        /* \"@openzeppelin/contracts-upgradeable/token/ERC20/ERC20Upgradeable.sol\":5632:5663  _approve(owner, spender, value) */\n      tag_198\n        /* \"@openzeppelin/contracts-upgradeable/token/ERC20/ERC20Upgradeable.sol\":5641:5646  owner */\n      dup2\n        /* \"@openzeppelin/contracts-upgradeable/token/ERC20/ERC20Upgradeable.sol\":5648:5655  spender */\n      dup6\n        /* \"@openzeppelin/contracts-upgradeable/token/ERC20/ERC20Upgradeable.sol\":5657:5662  value */\n      dup6\n        /* \"@openzeppelin/contracts-upgradeable/token/ERC20/ERC20Upgradeable.sol\":5632:5640  _approve */\n      tag_199\n        /* \"@openzeppelin/contracts-upgradeable/token/ERC20/ERC20Upgradeable.sol\":5632:5663  _approve(owner, spender, value) */\n      jump\t// in\n    tag_198:\n        /* \"@openzeppelin/contracts-upgradeable/token/ERC20/ERC20Upgradeable.sol\":5680:5684  true */\n      0x01\n        /* \"@openzeppelin/contracts-upgradeable/token/ERC20/ERC20Upgradeable.sol\":5673:5684  return true */\n      swap2\n      pop\n      pop\n        /* \"@openzeppelin/contracts-upgradeable/token/ERC20/ERC20Upgradeable.sol\":5505:5691  function approve(address spender, uint256 value) public virtual returns (bool) {... */\n      swap3\n      swap2\n      pop\n      pop\n      jump\t// out\n        /* \"GIFT.sol\":840:872  uint256[5] public taxPercentages */\n    tag_62:\n      0x3d\n      dup2\n      0x05\n      dup2\n      lt\n      tag_200\n      jumpi\n      0x00\n      dup1\n      revert\n    tag_200:\n      add\n      0x00\n      swap2\n      pop\n      swap1\n      pop\n      sload\n      dup2\n      jump\t// out\n        /* \"@openzeppelin/contracts-upgradeable/token/ERC20/ERC20Upgradeable.sol\":4191:4343  function totalSupply() public view virtual returns (uint256) {... */\n    tag_66:\n        /* \"@openzeppelin/contracts-upgradeable/token/ERC20/ERC20Upgradeable.sol\":4243:4250  uint256 */\n      0x00\n        /* \"@openzeppelin/contracts-upgradeable/token/ERC20/ERC20Upgradeable.sol\":4262:4284  ERC20Storage storage $ */\n      dup1\n        /* \"@openzeppelin/contracts-upgradeable/token/ERC20/ERC20Upgradeable.sol\":4287:4305  _getERC20Storage() */\n      tag_203\n        /* \"@openzeppelin/contracts-upgradeable/token/ERC20/ERC20Upgradeable.sol\":4287:4303  _getERC20Storage */\n      tag_188\n        /* \"@openzeppelin/contracts-upgradeable/token/ERC20/ERC20Upgradeable.sol\":4287:4305  _getERC20Storage() */\n      jump\t// in\n    tag_203:\n        /* \"@openzeppelin/contracts-upgradeable/token/ERC20/ERC20Upgradeable.sol\":4262:4305  ERC20Storage storage $ = _getERC20Storage() */\n      swap1\n      pop\n        /* \"@openzeppelin/contracts-upgradeable/token/ERC20/ERC20Upgradeable.sol\":4322:4323  $ */\n      dup1\n        /* \"@openzeppelin/contracts-upgradeable/token/ERC20/ERC20Upgradeable.sol\":4322:4336  $._totalSupply */\n      0x02\n      add\n      sload\n        /* \"@openzeppelin/contracts-upgradeable/token/ERC20/ERC20Upgradeable.sol\":4315:4336  return $._totalSupply */\n      swap2\n      pop\n      pop\n        /* \"@openzeppelin/contracts-upgradeable/token/ERC20/ERC20Upgradeable.sol\":4191:4343  function totalSupply() public view virtual returns (uint256) {... */\n      swap1\n      jump\t// out\n        /* \"GIFT.sol\":7430:7631  function transferAdminControl(address newAdmin) external onlyOwner {... */\n    tag_71:\n        /* \"@openzeppelin/contracts-upgradeable/access/OwnableUpgradeable.sol\":2334:2347  _checkOwner() */\n      tag_205\n        /* \"@openzeppelin/contracts-upgradeable/access/OwnableUpgradeable.sol\":2334:2345  _checkOwner */\n      tag_206\n        /* \"@openzeppelin/contracts-upgradeable/access/OwnableUpgradeable.sol\":2334:2347  _checkOwner() */\n      jump\t// in\n    tag_205:\n        /* \"GIFT.sol\":7536:7537  0 */\n      0x00\n        /* \"GIFT.sol\":7516:7538  newAdmin != address(0) */\n      0xffffffffffffffffffffffffffffffffffffffff\n      and\n        /* \"GIFT.sol\":7516:7524  newAdmin */\n      dup2\n        /* \"GIFT.sol\":7516:7538  newAdmin != address(0) */\n      0xffffffffffffffffffffffffffffffffffffffff\n      and\n      sub\n        /* \"GIFT.sol\":7508:7585  require(newAdmin != address(0), \"GIFT: New admin cannot be the zero address\") */\n      tag_208\n      jumpi\n      mload(0x40)\n      0x08c379a000000000000000000000000000000000000000000000000000000000\n      dup2\n      mstore\n      0x04\n      add\n      tag_209\n      swap1\n      tag_210\n      jump\t// in\n    tag_209:\n      mload(0x40)\n      dup1\n      swap2\n      sub\n      swap1\n      revert\n    tag_208:\n        /* \"GIFT.sol\":7596:7623  transferOwnership(newAdmin) */\n      tag_211\n        /* \"GIFT.sol\":7614:7622  newAdmin */\n      dup2\n        /* \"GIFT.sol\":7596:7613  transferOwnership */\n      tag_185\n        /* \"GIFT.sol\":7596:7623  transferOwnership(newAdmin) */\n      jump\t// in\n    tag_211:\n        /* \"GIFT.sol\":7430:7631  function transferAdminControl(address newAdmin) external onlyOwner {... */\n      pop\n      jump\t// out\n        /* \"GIFT.sol\":3372:3535  function setBeneficiary(address _newBeneficiary) external onlyOwner {... */\n    tag_74:\n        /* \"@openzeppelin/contracts-upgradeable/access/OwnableUpgradeable.sol\":2334:2347  _checkOwner() */\n      tag_213\n        /* \"@openzeppelin/contracts-upgradeable/access/OwnableUpgradeable.sol\":2334:2345  _checkOwner */\n      tag_206\n        /* \"@openzeppelin/contracts-upgradeable/access/OwnableUpgradeable.sol\":2334:2347  _checkOwner() */\n      jump\t// in\n    tag_213:\n        /* \"GIFT.sol\":3465:3480  _newBeneficiary */\n      dup1\n        /* \"GIFT.sol\":3451:3462  beneficiary */\n      0x33\n      0x00\n        /* \"GIFT.sol\":3451:3480  beneficiary = _newBeneficiary */\n      0x0100\n      exp\n      dup2\n      sload\n      dup2\n      0xffffffffffffffffffffffffffffffffffffffff\n      mul\n      not\n      and\n      swap1\n      dup4\n      0xffffffffffffffffffffffffffffffffffffffff\n      and\n      mul\n      or\n      swap1\n      sstore\n      pop\n        /* \"GIFT.sol\":3511:3526  _newBeneficiary */\n      dup1\n        /* \"GIFT.sol\":3496:3527  BeneficiarySet(_newBeneficiary) */\n      0xffffffffffffffffffffffffffffffffffffffff\n      and\n      0x04d55a8be181fb8d75b76f2d48aa0b2ee40f47e53d6e61763eeeec46feea8a24\n      mload(0x40)\n      mload(0x40)\n      dup1\n      swap2\n      sub\n      swap1\n      log2\n        /* \"GIFT.sol\":3372:3535  function setBeneficiary(address _newBeneficiary) external onlyOwner {... */\n      pop\n      jump\t// out\n        /* \"GIFT.sol\":5406:5874  function transferFrom(address sender, address recipient, uint256 amount) public virtual override whenNotPaused checkReserves returns (bool) {... */\n    tag_78:\n        /* \"GIFT.sol\":5540:5544  bool */\n      0x00\n        /* \"@openzeppelin/contracts-upgradeable/security/PausableUpgradeable.sol\":1503:1522  _requireNotPaused() */\n      tag_216\n        /* \"@openzeppelin/contracts-upgradeable/security/PausableUpgradeable.sol\":1503:1520  _requireNotPaused */\n      tag_217\n        /* \"@openzeppelin/contracts-upgradeable/security/PausableUpgradeable.sol\":1503:1522  _requireNotPaused() */\n      jump\t// in\n    tag_216:\n        /* \"GIFT.sol\":1731:1771  lastReserveCheck.add(reserveCheckPeriod) */\n      tag_219\n        /* \"GIFT.sol\":1752:1770  reserveCheckPeriod */\n      sload(0x43)\n        /* \"GIFT.sol\":1731:1747  lastReserveCheck */\n      sload(0x42)\n        /* \"GIFT.sol\":1731:1751  lastReserveCheck.add */\n      tag_220\n      swap1\n        /* \"GIFT.sol\":1731:1771  lastReserveCheck.add(reserveCheckPeriod) */\n      swap2\n      swap1\n      0xffffffff\n      and\n      jump\t// in\n    tag_219:\n        /* \"GIFT.sol\":1712:1727  block.timestamp */\n      timestamp\n        /* \"GIFT.sol\":1712:1771  block.timestamp >= lastReserveCheck.add(reserveCheckPeriod) */\n      lt\n        /* \"GIFT.sol\":1708:1816  if (block.timestamp >= lastReserveCheck.add(reserveCheckPeriod)) {... */\n      tag_221\n      jumpi\n        /* \"GIFT.sol\":1788:1804  _checkReserves() */\n      tag_222\n        /* \"GIFT.sol\":1788:1802  _checkReserves */\n      tag_223\n        /* \"GIFT.sol\":1788:1804  _checkReserves() */\n      jump\t// in\n    tag_222:\n        /* \"GIFT.sol\":1708:1816  if (block.timestamp >= lastReserveCheck.add(reserveCheckPeriod)) {... */\n    tag_221:\n        /* \"GIFT.sol\":5557:5581  uint256 currentAllowance */\n      0x00\n        /* \"GIFT.sol\":5584:5615  allowance(sender, _msgSender()) */\n      tag_225\n        /* \"GIFT.sol\":5594:5600  sender */\n      dup6\n        /* \"GIFT.sol\":5602:5614  _msgSender() */\n      tag_226\n        /* \"GIFT.sol\":5602:5612  _msgSender */\n      tag_197\n        /* \"GIFT.sol\":5602:5614  _msgSender() */\n      jump\t// in\n    tag_226:\n        /* \"GIFT.sol\":5584:5593  allowance */\n      tag_170\n        /* \"GIFT.sol\":5584:5615  allowance(sender, _msgSender()) */\n      jump\t// in\n    tag_225:\n        /* \"GIFT.sol\":5557:5615  uint256 currentAllowance = allowance(sender, _msgSender()) */\n      swap1\n      pop\n        /* \"GIFT.sol\":5654:5660  amount */\n      dup3\n        /* \"GIFT.sol\":5634:5650  currentAllowance */\n      dup2\n        /* \"GIFT.sol\":5634:5660  currentAllowance >= amount */\n      lt\n      iszero\n        /* \"GIFT.sol\":5626:5704  require(currentAllowance >= amount, \"GIFT: transfer amount exceeds allowance\") */\n      tag_227\n      jumpi\n      mload(0x40)\n      0x08c379a000000000000000000000000000000000000000000000000000000000\n      dup2\n      mstore\n      0x04\n      add\n      tag_228\n      swap1\n      tag_229\n      jump\t// in\n    tag_228:\n      mload(0x40)\n      dup1\n      swap2\n      sub\n      swap1\n      revert\n    tag_227:\n        /* \"GIFT.sol\":5740:5797  _approve(sender, _msgSender(), currentAllowance - amount) */\n      tag_230\n        /* \"GIFT.sol\":5749:5755  sender */\n      dup6\n        /* \"GIFT.sol\":5757:5769  _msgSender() */\n      tag_231\n        /* \"GIFT.sol\":5757:5767  _msgSender */\n      tag_197\n        /* \"GIFT.sol\":5757:5769  _msgSender() */\n      jump\t// in\n    tag_231:\n        /* \"GIFT.sol\":5790:5796  amount */\n      dup6\n        /* \"GIFT.sol\":5771:5787  currentAllowance */\n      dup5\n        /* \"GIFT.sol\":5771:5796  currentAllowance - amount */\n      sub\n        /* \"GIFT.sol\":5740:5748  _approve */\n      tag_199\n        /* \"GIFT.sol\":5740:5797  _approve(sender, _msgSender(), currentAllowance - amount) */\n      jump\t// in\n    tag_230:\n        /* \"GIFT.sol\":5826:5866  _transferGIFT(sender, recipient, amount) */\n      tag_232\n        /* \"GIFT.sol\":5840:5846  sender */\n      dup6\n        /* \"GIFT.sol\":5848:5857  recipient */\n      dup6\n        /* \"GIFT.sol\":5859:5865  amount */\n      dup6\n        /* \"GIFT.sol\":5826:5839  _transferGIFT */\n      tag_233\n        /* \"GIFT.sol\":5826:5866  _transferGIFT(sender, recipient, amount) */\n      jump\t// in\n    tag_232:\n        /* \"GIFT.sol\":5819:5866  return _transferGIFT(sender, recipient, amount) */\n      swap2\n      pop\n      pop\n        /* \"GIFT.sol\":5406:5874  function transferFrom(address sender, address recipient, uint256 amount) public virtual override whenNotPaused checkReserves returns (bool) {... */\n      swap4\n      swap3\n      pop\n      pop\n      pop\n      jump\t// out\n        /* \"GIFT.sol\":946:977  uint256 public lastReserveCheck */\n    tag_81:\n      sload(0x42)\n      dup2\n      jump\t// out\n        /* \"@openzeppelin/contracts-upgradeable/token/ERC20/ERC20Upgradeable.sol\":4049:4131  function decimals() public view virtual returns (uint8) {... */\n    tag_84:\n        /* \"@openzeppelin/contracts-upgradeable/token/ERC20/ERC20Upgradeable.sol\":4098:4103  uint8 */\n      0x00\n        /* \"@openzeppelin/contracts-upgradeable/token/ERC20/ERC20Upgradeable.sol\":4122:4124  18 */\n      0x12\n        /* \"@openzeppelin/contracts-upgradeable/token/ERC20/ERC20Upgradeable.sol\":4115:4124  return 18 */\n      swap1\n      pop\n        /* \"@openzeppelin/contracts-upgradeable/token/ERC20/ERC20Upgradeable.sol\":4049:4131  function decimals() public view virtual returns (uint8) {... */\n      swap1\n      jump\t// out\n        /* \"GIFT.sol\":550:576  address public beneficiary */\n    tag_88:\n      0x33\n      0x00\n      swap1\n      sload\n      swap1\n      0x0100\n      exp\n      swap1\n      div\n      0xffffffffffffffffffffffffffffffffffffffff\n      and\n      dup2\n      jump\t// out\n        /* \"GIFT.sol\":5129:5196  function unpause() external onlyOwner {... */\n    tag_92:\n        /* \"@openzeppelin/contracts-upgradeable/access/OwnableUpgradeable.sol\":2334:2347  _checkOwner() */\n      tag_236\n        /* \"@openzeppelin/contracts-upgradeable/access/OwnableUpgradeable.sol\":2334:2345  _checkOwner */\n      tag_206\n        /* \"@openzeppelin/contracts-upgradeable/access/OwnableUpgradeable.sol\":2334:2347  _checkOwner() */\n      jump\t// in\n    tag_236:\n        /* \"GIFT.sol\":5178:5188  _unpause() */\n      tag_238\n        /* \"GIFT.sol\":5178:5186  _unpause */\n      tag_239\n        /* \"GIFT.sol\":5178:5188  _unpause() */\n      jump\t// in\n    tag_238:\n        /* \"GIFT.sol\":5129:5196  function unpause() external onlyOwner {... */\n      jump\t// out\n        /* \"GIFT.sol\":4456:4582  function mint(address _to, uint256 _amount) external onlySupplyController checkReserves {... */\n    tag_95:\n        /* \"GIFT.sol\":1583:1599  supplyController */\n      0x32\n      0x00\n      swap1\n      sload\n      swap1\n      0x0100\n      exp\n      swap1\n      div\n      0xffffffffffffffffffffffffffffffffffffffff\n      and\n        /* \"GIFT.sol\":1569:1599  msg.sender == supplyController */\n      0xffffffffffffffffffffffffffffffffffffffff\n      and\n        /* \"GIFT.sol\":1569:1579  msg.sender */\n      caller\n        /* \"GIFT.sol\":1569:1599  msg.sender == supplyController */\n      0xffffffffffffffffffffffffffffffffffffffff\n      and\n      eq\n        /* \"GIFT.sol\":1561:1644  require(msg.sender == supplyController, \"GIFT: caller is not the supplyController\") */\n      tag_241\n      jumpi\n      mload(0x40)\n      0x08c379a000000000000000000000000000000000000000000000000000000000\n      dup2\n      mstore\n      0x04\n      add\n      tag_242\n      swap1\n      tag_243\n      jump\t// in\n    tag_242:\n      mload(0x40)\n      dup1\n      swap2\n      sub\n      swap1\n      revert\n    tag_241:\n        /* \"GIFT.sol\":1731:1771  lastReserveCheck.add(reserveCheckPeriod) */\n      tag_245\n        /* \"GIFT.sol\":1752:1770  reserveCheckPeriod */\n      sload(0x43)\n        /* \"GIFT.sol\":1731:1747  lastReserveCheck */\n      sload(0x42)\n        /* \"GIFT.sol\":1731:1751  lastReserveCheck.add */\n      tag_220\n      swap1\n        /* \"GIFT.sol\":1731:1771  lastReserveCheck.add(reserveCheckPeriod) */\n      swap2\n      swap1\n      0xffffffff\n      and\n      jump\t// in\n    tag_245:\n        /* \"GIFT.sol\":1712:1727  block.timestamp */\n      timestamp\n        /* \"GIFT.sol\":1712:1771  block.timestamp >= lastReserveCheck.add(reserveCheckPeriod) */\n      lt\n        /* \"GIFT.sol\":1708:1816  if (block.timestamp >= lastReserveCheck.add(reserveCheckPeriod)) {... */\n      tag_246\n      jumpi\n        /* \"GIFT.sol\":1788:1804  _checkReserves() */\n      tag_247\n        /* \"GIFT.sol\":1788:1802  _checkReserves */\n      tag_223\n        /* \"GIFT.sol\":1788:1804  _checkReserves() */\n      jump\t// in\n    tag_247:\n        /* \"GIFT.sol\":1708:1816  if (block.timestamp >= lastReserveCheck.add(reserveCheckPeriod)) {... */\n    tag_246:\n        /* \"GIFT.sol\":4555:4574  _mint(_to, _amount) */\n      tag_249\n        /* \"GIFT.sol\":4561:4564  _to */\n      dup3\n        /* \"GIFT.sol\":4566:4573  _amount */\n      dup3\n        /* \"GIFT.sol\":4555:4560  _mint */\n      tag_250\n        /* \"GIFT.sol\":4555:4574  _mint(_to, _amount) */\n      jump\t// in\n    tag_249:\n        /* \"GIFT.sol\":4456:4582  function mint(address _to, uint256 _amount) external onlySupplyController checkReserves {... */\n      pop\n      pop\n      jump\t// out\n        /* \"GIFT.sol\":4590:4675  function burn(uint256 _amount) external {... */\n    tag_98:\n        /* \"GIFT.sol\":4641:4667  _burn(msg.sender, _amount) */\n      tag_252\n        /* \"GIFT.sol\":4647:4657  msg.sender */\n      caller\n        /* \"GIFT.sol\":4659:4666  _amount */\n      dup3\n        /* \"GIFT.sol\":4641:4646  _burn */\n      tag_253\n        /* \"GIFT.sol\":4641:4667  _burn(msg.sender, _amount) */\n      jump\t// in\n    tag_252:\n        /* \"GIFT.sol\":4590:4675  function burn(uint256 _amount) external {... */\n      pop\n      jump\t// out\n        /* \"GIFT.sol\":3171:3364  function setSupplyController(address _newSupplyController) external onlyOwner {... */\n    tag_101:\n        /* \"@openzeppelin/contracts-upgradeable/access/OwnableUpgradeable.sol\":2334:2347  _checkOwner() */\n      tag_255\n        /* \"@openzeppelin/contracts-upgradeable/access/OwnableUpgradeable.sol\":2334:2345  _checkOwner */\n      tag_206\n        /* \"@openzeppelin/contracts-upgradeable/access/OwnableUpgradeable.sol\":2334:2347  _checkOwner() */\n      jump\t// in\n    tag_255:\n        /* \"GIFT.sol\":3279:3299  _newSupplyController */\n      dup1\n        /* \"GIFT.sol\":3260:3276  supplyController */\n      0x32\n      0x00\n        /* \"GIFT.sol\":3260:3299  supplyController = _newSupplyController */\n      0x0100\n      exp\n      dup2\n      sload\n      dup2\n      0xffffffffffffffffffffffffffffffffffffffff\n      mul\n      not\n      and\n      swap1\n      dup4\n      0xffffffffffffffffffffffffffffffffffffffff\n      and\n      mul\n      or\n      swap1\n      sstore\n      pop\n        /* \"GIFT.sol\":3335:3355  _newSupplyController */\n      dup1\n        /* \"GIFT.sol\":3315:3356  SupplyControllerSet(_newSupplyController) */\n      0xffffffffffffffffffffffffffffffffffffffff\n      and\n      0x915d8b94cdcbf4fa1b4c768b15f63b99aee21096b9d04fe1938f45833036106d\n      mload(0x40)\n      mload(0x40)\n      dup1\n      swap2\n      sub\n      swap1\n      log2\n        /* \"GIFT.sol\":3171:3364  function setSupplyController(address _newSupplyController) external onlyOwner {... */\n      pop\n      jump\t// out\n        /* \"GIFT.sol\":2606:3159  function setTaxParameters(uint256[5] memory _tiers, uint256[5] memory _percentages) external onlyOwner {... */\n    tag_105:\n        /* \"@openzeppelin/contracts-upgradeable/access/OwnableUpgradeable.sol\":2334:2347  _checkOwner() */\n      tag_258\n        /* \"@openzeppelin/contracts-upgradeable/access/OwnableUpgradeable.sol\":2334:2345  _checkOwner */\n      tag_206\n        /* \"@openzeppelin/contracts-upgradeable/access/OwnableUpgradeable.sol\":2334:2347  _checkOwner() */\n      jump\t// in\n    tag_258:\n        /* \"GIFT.sol\":2741:2758  type(uint256).max */\n      0xffffffffffffffffffffffffffffffffffffffffffffffffffffffffffffffff\n        /* \"GIFT.sol\":2728:2734  _tiers */\n      dup3\n        /* \"GIFT.sol\":2735:2736  4 */\n      0x04\n        /* \"GIFT.sol\":2728:2737  _tiers[4] */\n      0x05\n      dup2\n      lt\n      tag_260\n      jumpi\n      tag_261\n      tag_262\n      jump\t// in\n    tag_261:\n    tag_260:\n      0x20\n      mul\n      add\n      mload\n        /* \"GIFT.sol\":2728:2758  _tiers[4] == type(uint256).max */\n      eq\n        /* \"GIFT.sol\":2720:2790  require(_tiers[4] == type(uint256).max, \"GIFT: Last tier must be max\") */\n      tag_263\n      jumpi\n      mload(0x40)\n      0x08c379a000000000000000000000000000000000000000000000000000000000\n      dup2\n      mstore\n      0x04\n      add\n      tag_264\n      swap1\n      tag_265\n      jump\t// in\n    tag_264:\n      mload(0x40)\n      dup1\n      swap2\n      sub\n      swap1\n      revert\n    tag_263:\n        /* \"GIFT.sol\":2806:2812  uint i */\n      0x00\n        /* \"GIFT.sol\":2801:3036  for (uint i = 0; i < 5; i++) {... */\n    tag_266:\n        /* \"GIFT.sol\":2822:2823  5 */\n      0x05\n        /* \"GIFT.sol\":2818:2819  i */\n      dup2\n        /* \"GIFT.sol\":2818:2823  i < 5 */\n      lt\n        /* \"GIFT.sol\":2801:3036  for (uint i = 0; i < 5; i++) {... */\n      iszero\n      tag_267\n      jumpi\n        /* \"GIFT.sol\":926:932  20_000 */\n      0x4e20\n        /* \"GIFT.sol\":2853:2865  _percentages */\n      dup3\n        /* \"GIFT.sol\":2866:2867  i */\n      dup3\n        /* \"GIFT.sol\":2853:2868  _percentages[i] */\n      0x05\n      dup2\n      lt\n      tag_269\n      jumpi\n      tag_270\n      tag_262\n      jump\t// in\n    tag_270:\n    tag_269:\n      0x20\n      mul\n      add\n      mload\n        /* \"GIFT.sol\":2853:2890  _percentages[i] <= MAX_TAX_PERCENTAGE */\n      gt\n      iszero\n        /* \"GIFT.sol\":2845:2924  require(_percentages[i] <= MAX_TAX_PERCENTAGE, \"GIFT: Tax percentage too high\") */\n      tag_271\n      jumpi\n      mload(0x40)\n      0x08c379a000000000000000000000000000000000000000000000000000000000\n      dup2\n      mstore\n      0x04\n      add\n      tag_272\n      swap1\n      tag_273\n      jump\t// in\n    tag_272:\n      mload(0x40)\n      dup1\n      swap2\n      sub\n      swap1\n      revert\n    tag_271:\n        /* \"GIFT.sol\":2947:2948  0 */\n      0x00\n        /* \"GIFT.sol\":2943:2944  i */\n      dup2\n        /* \"GIFT.sol\":2943:2948  i > 0 */\n      gt\n        /* \"GIFT.sol\":2939:3024  if (i > 0) require(_tiers[i] > _tiers[i-1], \"GIFT: Tiers must be in ascending order\") */\n      iszero\n      tag_274\n      jumpi\n        /* \"GIFT.sol\":2970:2976  _tiers */\n      dup3\n        /* \"GIFT.sol\":2979:2980  1 */\n      0x01\n        /* \"GIFT.sol\":2977:2978  i */\n      dup3\n        /* \"GIFT.sol\":2977:2980  i-1 */\n      tag_275\n      swap2\n      swap1\n      tag_276\n      jump\t// in\n    tag_275:\n        /* \"GIFT.sol\":2970:2981  _tiers[i-1] */\n      0x05\n      dup2\n      lt\n      tag_277\n      jumpi\n      tag_278\n      tag_262\n      jump\t// in\n    tag_278:\n    tag_277:\n      0x20\n      mul\n      add\n      mload\n        /* \"GIFT.sol\":2958:2964  _tiers */\n      dup4\n        /* \"GIFT.sol\":2965:2966  i */\n      dup3\n        /* \"GIFT.sol\":2958:2967  _tiers[i] */\n      0x05\n      dup2\n      lt\n      tag_279\n      jumpi\n      tag_280\n      tag_262\n      jump\t// in\n    tag_280:\n    tag_279:\n      0x20\n      mul\n      add\n      mload\n        /* \"GIFT.sol\":2958:2981  _tiers[i] > _tiers[i-1] */\n      gt\n        /* \"GIFT.sol\":2950:3024  require(_tiers[i] > _tiers[i-1], \"GIFT: Tiers must be in ascending order\") */\n      tag_281\n      jumpi\n      mload(0x40)\n      0x08c379a000000000000000000000000000000000000000000000000000000000\n      dup2\n      mstore\n      0x04\n      add\n      tag_282\n      swap1\n      tag_283\n      jump\t// in\n    tag_282:\n      mload(0x40)\n      dup1\n      swap2\n      sub\n      swap1\n      revert\n    tag_281:\n        /* \"GIFT.sol\":2939:3024  if (i > 0) require(_tiers[i] > _tiers[i-1], \"GIFT: Tiers must be in ascending order\") */\n    tag_274:\n        /* \"GIFT.sol\":2825:2828  i++ */\n      dup1\n      dup1\n      tag_284\n      swap1\n      tag_285\n      jump\t// in\n    tag_284:\n      swap2\n      pop\n      pop\n        /* \"GIFT.sol\":2801:3036  for (uint i = 0; i < 5; i++) {... */\n      jump(tag_266)\n    tag_267:\n      pop\n        /* \"GIFT.sol\":3057:3063  _tiers */\n      dup2\n        /* \"GIFT.sol\":3046:3054  taxTiers */\n      0x38\n        /* \"GIFT.sol\":3046:3063  taxTiers = _tiers */\n      swap1\n      0x05\n      tag_286\n      swap3\n      swap2\n      swap1\n      tag_287\n      jump\t// in\n    tag_286:\n      pop\n        /* \"GIFT.sol\":3091:3103  _percentages */\n      dup1\n        /* \"GIFT.sol\":3074:3088  taxPercentages */\n      0x3d\n        /* \"GIFT.sol\":3074:3103  taxPercentages = _percentages */\n      swap1\n      0x05\n      tag_288\n      swap3\n      swap2\n      swap1\n      tag_287\n      jump\t// in\n    tag_288:\n      pop\n        /* \"GIFT.sol\":3119:3151  TaxUpdated(_tiers, _percentages) */\n      0xfca5dd7612680a40f4851bb137ecc39852bd2a1a3cc176efbb39affa8ce97214\n        /* \"GIFT.sol\":3130:3136  _tiers */\n      dup3\n        /* \"GIFT.sol\":3138:3150  _percentages */\n      dup3\n        /* \"GIFT.sol\":3119:3151  TaxUpdated(_tiers, _percentages) */\n      mload(0x40)\n      tag_289\n      swap3\n      swap2\n      swap1\n      tag_290\n      jump\t// in\n    tag_289:\n      mload(0x40)\n      dup1\n      swap2\n      sub\n      swap1\n      log1\n        /* \"GIFT.sol\":2606:3159  function setTaxParameters(uint256[5] memory _tiers, uint256[5] memory _percentages) external onlyOwner {... */\n      pop\n      pop\n      jump\t// out\n        /* \"@openzeppelin/contracts-upgradeable/security/PausableUpgradeable.sol\":1879:1963  function paused() public view virtual returns (bool) {... */\n    tag_107:\n        /* \"@openzeppelin/contracts-upgradeable/security/PausableUpgradeable.sol\":1926:1930  bool */\n      0x00\n        /* \"@openzeppelin/contracts-upgradeable/security/PausableUpgradeable.sol\":1949:1956  _paused */\n      dup1\n      0x00\n      swap1\n      sload\n      swap1\n      0x0100\n      exp\n      swap1\n      div\n      0xff\n      and\n        /* \"@openzeppelin/contracts-upgradeable/security/PausableUpgradeable.sol\":1942:1956  return _paused */\n      swap1\n      pop\n        /* \"@openzeppelin/contracts-upgradeable/security/PausableUpgradeable.sol\":1879:1963  function paused() public view virtual returns (bool) {... */\n      swap1\n      jump\t// out\n        /* \"@openzeppelin/contracts-upgradeable/token/ERC20/ERC20Upgradeable.sol\":4401:4572  function balanceOf(address account) public view virtual returns (uint256) {... */\n    tag_111:\n        /* \"@openzeppelin/contracts-upgradeable/token/ERC20/ERC20Upgradeable.sol\":4466:4473  uint256 */\n      0x00\n        /* \"@openzeppelin/contracts-upgradeable/token/ERC20/ERC20Upgradeable.sol\":4485:4507  ERC20Storage storage $ */\n      dup1\n        /* \"@openzeppelin/contracts-upgradeable/token/ERC20/ERC20Upgradeable.sol\":4510:4528  _getERC20Storage() */\n      tag_293\n        /* \"@openzeppelin/contracts-upgradeable/token/ERC20/ERC20Upgradeable.sol\":4510:4526  _getERC20Storage */\n      tag_188\n        /* \"@openzeppelin/contracts-upgradeable/token/ERC20/ERC20Upgradeable.sol\":4510:4528  _getERC20Storage() */\n      jump\t// in\n    tag_293:\n        /* \"@openzeppelin/contracts-upgradeable/token/ERC20/ERC20Upgradeable.sol\":4485:4528  ERC20Storage storage $ = _getERC20Storage() */\n      swap1\n      pop\n        /* \"@openzeppelin/contracts-upgradeable/token/ERC20/ERC20Upgradeable.sol\":4545:4546  $ */\n      dup1\n        /* \"@openzeppelin/contracts-upgradeable/token/ERC20/ERC20Upgradeable.sol\":4545:4556  $._balances */\n      0x00\n      add\n        /* \"@openzeppelin/contracts-upgradeable/token/ERC20/ERC20Upgradeable.sol\":4545:4565  $._balances[account] */\n      0x00\n        /* \"@openzeppelin/contracts-upgradeable/token/ERC20/ERC20Upgradeable.sol\":4557:4564  account */\n      dup5\n        /* \"@openzeppelin/contracts-upgradeable/token/ERC20/ERC20Upgradeable.sol\":4545:4565  $._balances[account] */\n      0xffffffffffffffffffffffffffffffffffffffff\n      and\n      0xffffffffffffffffffffffffffffffffffffffff\n      and\n      dup2\n      mstore\n      0x20\n      add\n      swap1\n      dup2\n      mstore\n      0x20\n      add\n      0x00\n      keccak256\n      sload\n        /* \"@openzeppelin/contracts-upgradeable/token/ERC20/ERC20Upgradeable.sol\":4538:4565  return $._balances[account] */\n      swap2\n      pop\n      pop\n        /* \"@openzeppelin/contracts-upgradeable/token/ERC20/ERC20Upgradeable.sol\":4401:4572  function balanceOf(address account) public view virtual returns (uint256) {... */\n      swap2\n      swap1\n      pop\n      jump\t// out\n        /* \"GIFT.sol\":881:932  uint256 public constant MAX_TAX_PERCENTAGE = 20_000 */\n    tag_114:\n        /* \"GIFT.sol\":926:932  20_000 */\n      0x4e20\n        /* \"GIFT.sol\":881:932  uint256 public constant MAX_TAX_PERCENTAGE = 20_000 */\n      dup2\n      jump\t// out\n        /* \"@openzeppelin/contracts-upgradeable/access/OwnableUpgradeable.sol\":3155:3256  function renounceOwnership() public virtual onlyOwner {... */\n    tag_117:\n        /* \"@openzeppelin/contracts-upgradeable/access/OwnableUpgradeable.sol\":2334:2347  _checkOwner() */\n      tag_295\n        /* \"@openzeppelin/contracts-upgradeable/access/OwnableUpgradeable.sol\":2334:2345  _checkOwner */\n      tag_206\n        /* \"@openzeppelin/contracts-upgradeable/access/OwnableUpgradeable.sol\":2334:2347  _checkOwner() */\n      jump\t// in\n    tag_295:\n        /* \"@openzeppelin/contracts-upgradeable/access/OwnableUpgradeable.sol\":3219:3249  _transferOwnership(address(0)) */\n      tag_297\n        /* \"@openzeppelin/contracts-upgradeable/access/OwnableUpgradeable.sol\":3246:3247  0 */\n      0x00\n        /* \"@openzeppelin/contracts-upgradeable/access/OwnableUpgradeable.sol\":3219:3237  _transferOwnership */\n      tag_298\n        /* \"@openzeppelin/contracts-upgradeable/access/OwnableUpgradeable.sol\":3219:3249  _transferOwnership(address(0)) */\n      jump\t// in\n    tag_297:\n        /* \"@openzeppelin/contracts-upgradeable/access/OwnableUpgradeable.sol\":3155:3256  function renounceOwnership() public virtual onlyOwner {... */\n      jump\t// out\n        /* \"GIFT.sol\":4683:5048  function burnFrom(address _account, uint256 _amount) external {... */\n    tag_120:\n        /* \"GIFT.sol\":4756:4780  uint256 currentAllowance */\n      0x00\n        /* \"GIFT.sol\":4783:4814  allowance(_account, msg.sender) */\n      tag_300\n        /* \"GIFT.sol\":4793:4801  _account */\n      dup4\n        /* \"GIFT.sol\":4803:4813  msg.sender */\n      caller\n        /* \"GIFT.sol\":4783:4792  allowance */\n      tag_170\n        /* \"GIFT.sol\":4783:4814  allowance(_account, msg.sender) */\n      jump\t// in\n    tag_300:\n        /* \"GIFT.sol\":4756:4814  uint256 currentAllowance = allowance(_account, msg.sender) */\n      swap1\n      pop\n        /* \"GIFT.sol\":4853:4860  _amount */\n      dup2\n        /* \"GIFT.sol\":4833:4849  currentAllowance */\n      dup2\n        /* \"GIFT.sol\":4833:4860  currentAllowance >= _amount */\n      lt\n      iszero\n        /* \"GIFT.sol\":4825:4900  require(currentAllowance >= _amount, \"GIFT: burn amount exceeds allowance\") */\n      tag_301\n      jumpi\n      mload(0x40)\n      0x08c379a000000000000000000000000000000000000000000000000000000000\n      dup2\n      mstore\n      0x04\n      add\n      tag_302\n      swap1\n      tag_303\n      jump\t// in\n    tag_302:\n      mload(0x40)\n      dup1\n      swap2\n      sub\n      swap1\n      revert\n    tag_301:\n        /* \"GIFT.sol\":4936:4994  _approve(_account, msg.sender, currentAllowance - _amount) */\n      tag_304\n        /* \"GIFT.sol\":4945:4953  _account */\n      dup4\n        /* \"GIFT.sol\":4955:4965  msg.sender */\n      caller\n        /* \"GIFT.sol\":4986:4993  _amount */\n      dup5\n        /* \"GIFT.sol\":4967:4983  currentAllowance */\n      dup5\n        /* \"GIFT.sol\":4967:4993  currentAllowance - _amount */\n      sub\n        /* \"GIFT.sol\":4936:4944  _approve */\n      tag_199\n        /* \"GIFT.sol\":4936:4994  _approve(_account, msg.sender, currentAllowance - _amount) */\n      jump\t// in\n    tag_304:\n        /* \"GIFT.sol\":5016:5040  _burn(_account, _amount) */\n      tag_305\n        /* \"GIFT.sol\":5022:5030  _account */\n      dup4\n        /* \"GIFT.sol\":5032:5039  _amount */\n      dup4\n        /* \"GIFT.sol\":5016:5021  _burn */\n      tag_253\n        /* \"GIFT.sol\":5016:5040  _burn(_account, _amount) */\n      jump\t// in\n    tag_305:\n        /* \"GIFT.sol\":4745:5048  {... */\n      pop\n        /* \"GIFT.sol\":4683:5048  function burnFrom(address _account, uint256 _amount) external {... */\n      pop\n      pop\n      jump\t// out\n        /* \"GIFT.sol\":4082:4269  function setReserveConsumer(address _newReserveConsumer) external onlyOwner {... */\n    tag_123:\n        /* \"@openzeppelin/contracts-upgradeable/access/OwnableUpgradeable.sol\":2334:2347  _checkOwner() */\n      tag_307\n        /* \"@openzeppelin/contracts-upgradeable/access/OwnableUpgradeable.sol\":2334:2345  _checkOwner */\n      tag_206\n        /* \"@openzeppelin/contracts-upgradeable/access/OwnableUpgradeable.sol\":2334:2347  _checkOwner() */\n      jump\t// in\n    tag_307:\n        /* \"GIFT.sol\":4187:4206  _newReserveConsumer */\n      dup1\n        /* \"GIFT.sol\":4169:4184  reserveConsumer */\n      0x34\n      0x00\n        /* \"GIFT.sol\":4169:4206  reserveConsumer = _newReserveConsumer */\n      0x0100\n      exp\n      dup2\n      sload\n      dup2\n      0xffffffffffffffffffffffffffffffffffffffff\n      mul\n      not\n      and\n      swap1\n      dup4\n      0xffffffffffffffffffffffffffffffffffffffff\n      and\n      mul\n      or\n      swap1\n      sstore\n      pop\n        /* \"GIFT.sol\":4241:4260  _newReserveConsumer */\n      dup1\n        /* \"GIFT.sol\":4222:4261  ReserveConsumerSet(_newReserveConsumer) */\n      0xffffffffffffffffffffffffffffffffffffffff\n      and\n      0x25cf73d41a7a2f5baa3ed34b7a72144453377d3d6c59b74db14e0ff168fd1fa9\n      mload(0x40)\n      mload(0x40)\n      dup1\n      swap2\n      sub\n      swap1\n      log2\n        /* \"GIFT.sol\":4082:4269  function setReserveConsumer(address _newReserveConsumer) external onlyOwner {... */\n      pop\n      jump\t// out\n        /* \"GIFT.sol\":5058:5121  function pause() external onlyOwner {... */\n    tag_125:\n        /* \"@openzeppelin/contracts-upgradeable/access/OwnableUpgradeable.sol\":2334:2347  _checkOwner() */\n      tag_310\n        /* \"@openzeppelin/contracts-upgradeable/access/OwnableUpgradeable.sol\":2334:2345  _checkOwner */\n      tag_206\n        /* \"@openzeppelin/contracts-upgradeable/access/OwnableUpgradeable.sol\":2334:2347  _checkOwner() */\n      jump\t// in\n    tag_310:\n        /* \"GIFT.sol\":5105:5113  _pause() */\n      tag_312\n        /* \"GIFT.sol\":5105:5111  _pause */\n      tag_313\n        /* \"GIFT.sol\":5105:5113  _pause() */\n      jump\t// in\n    tag_312:\n        /* \"GIFT.sol\":5058:5121  function pause() external onlyOwner {... */\n      jump\t// out\n        /* \"GIFT.sol\":687:744  mapping(address => bool) public isExcludedFromInboundFees */\n    tag_128:\n      mstore(0x20, 0x36)\n      dup1\n      0x00\n      mstore\n      keccak256(0x00, 0x40)\n      0x00\n      swap2\n      pop\n      sload\n      swap1\n      0x0100\n      exp\n      swap1\n      div\n      0xff\n      and\n      dup2\n      jump\t// out\n        /* \"GIFT.sol\":583:613  address public reserveConsumer */\n    tag_131:\n      0x34\n      0x00\n      swap1\n      sload\n      swap1\n      0x0100\n      exp\n      swap1\n      div\n      0xffffffffffffffffffffffffffffffffffffffff\n      and\n      dup2\n      jump\t// out\n        /* \"@openzeppelin/contracts-upgradeable/access/OwnableUpgradeable.sol\":2441:2585  function owner() public view virtual returns (address) {... */\n    tag_134:\n        /* \"@openzeppelin/contracts-upgradeable/access/OwnableUpgradeable.sol\":2487:2494  address */\n      0x00\n        /* \"@openzeppelin/contracts-upgradeable/access/OwnableUpgradeable.sol\":2506:2530  OwnableStorage storage $ */\n      dup1\n        /* \"@openzeppelin/contracts-upgradeable/access/OwnableUpgradeable.sol\":2533:2553  _getOwnableStorage() */\n      tag_315\n        /* \"@openzeppelin/contracts-upgradeable/access/OwnableUpgradeable.sol\":2533:2551  _getOwnableStorage */\n      tag_316\n        /* \"@openzeppelin/contracts-upgradeable/access/OwnableUpgradeable.sol\":2533:2553  _getOwnableStorage() */\n      jump\t// in\n    tag_315:\n        /* \"@openzeppelin/contracts-upgradeable/access/OwnableUpgradeable.sol\":2506:2553  OwnableStorage storage $ = _getOwnableStorage() */\n      swap1\n      pop\n        /* \"@openzeppelin/contracts-upgradeable/access/OwnableUpgradeable.sol\":2570:2571  $ */\n      dup1\n        /* \"@openzeppelin/contracts-upgradeable/access/OwnableUpgradeable.sol\":2570:2578  $._owner */\n      0x00\n      add\n      0x00\n      swap1\n      sload\n      swap1\n      0x0100\n      exp\n      swap1\n      div\n      0xffffffffffffffffffffffffffffffffffffffff\n      and\n        /* \"@openzeppelin/contracts-upgradeable/access/OwnableUpgradeable.sol\":2563:2578  return $._owner */\n      swap2\n      pop\n      pop\n        /* \"@openzeppelin/contracts-upgradeable/access/OwnableUpgradeable.sol\":2441:2585  function owner() public view virtual returns (address) {... */\n      swap1\n      jump\t// out\n        /* \"@openzeppelin/contracts-upgradeable/token/ERC20/ERC20Upgradeable.sol\":3268:3416  function symbol() public view virtual returns (string memory) {... */\n    tag_137:\n        /* \"@openzeppelin/contracts-upgradeable/token/ERC20/ERC20Upgradeable.sol\":3315:3328  string memory */\n      0x60\n        /* \"@openzeppelin/contracts-upgradeable/token/ERC20/ERC20Upgradeable.sol\":3340:3362  ERC20Storage storage $ */\n      0x00\n        /* \"@openzeppelin/contracts-upgradeable/token/ERC20/ERC20Upgradeable.sol\":3365:3383  _getERC20Storage() */\n      tag_318\n        /* \"@openzeppelin/contracts-upgradeable/token/ERC20/ERC20Upgradeable.sol\":3365:3381  _getERC20Storage */\n      tag_188\n        /* \"@openzeppelin/contracts-upgradeable/token/ERC20/ERC20Upgradeable.sol\":3365:3383  _getERC20Storage() */\n      jump\t// in\n    tag_318:\n        /* \"@openzeppelin/contracts-upgradeable/token/ERC20/ERC20Upgradeable.sol\":3340:3383  ERC20Storage storage $ = _getERC20Storage() */\n      swap1\n      pop\n        /* \"@openzeppelin/contracts-upgradeable/token/ERC20/ERC20Upgradeable.sol\":3400:3401  $ */\n      dup1\n        /* \"@openzeppelin/contracts-upgradeable/token/ERC20/ERC20Upgradeable.sol\":3400:3409  $._symbol */\n      0x04\n      add\n        /* \"@openzeppelin/contracts-upgradeable/token/ERC20/ERC20Upgradeable.sol\":3393:3409  return $._symbol */\n      dup1\n      sload\n      tag_319\n      swap1\n      tag_190\n      jump\t// in\n    tag_319:\n      dup1\n      0x1f\n      add\n      0x20\n      dup1\n      swap2\n      div\n      mul\n      0x20\n      add\n      mload(0x40)\n      swap1\n      dup2\n      add\n      0x40\n      mstore\n      dup1\n      swap3\n      swap2\n      swap1\n      dup2\n      dup2\n      mstore\n      0x20\n      add\n      dup3\n      dup1\n      sload\n      tag_320\n      swap1\n      tag_190\n      jump\t// in\n    tag_320:\n      dup1\n      iszero\n      tag_321\n      jumpi\n      dup1\n      0x1f\n      lt\n      tag_322\n      jumpi\n      0x0100\n      dup1\n      dup4\n      sload\n      div\n      mul\n      dup4\n      mstore\n      swap2\n      0x20\n      add\n      swap2\n      jump(tag_321)\n    tag_322:\n      dup3\n      add\n      swap2\n      swap1\n      0x00\n      mstore\n      keccak256(0x00, 0x20)\n      swap1\n    tag_323:\n      dup2\n      sload\n      dup2\n      mstore\n      swap1\n      0x01\n      add\n      swap1\n      0x20\n      add\n      dup1\n      dup4\n      gt\n      tag_323\n      jumpi\n      dup3\n      swap1\n      sub\n      0x1f\n      and\n      dup3\n      add\n      swap2\n    tag_321:\n      pop\n      pop\n      pop\n      pop\n      pop\n      swap2\n      pop\n      pop\n        /* \"@openzeppelin/contracts-upgradeable/token/ERC20/ERC20Upgradeable.sol\":3268:3416  function symbol() public view virtual returns (string memory) {... */\n      swap1\n      jump\t// out\n        /* \"GIFT.sol\":4277:4446  function setReserveCheckPeriod(uint256 _newPeriod) external onlyOwner {... */\n    tag_141:\n        /* \"@openzeppelin/contracts-upgradeable/access/OwnableUpgradeable.sol\":2334:2347  _checkOwner() */\n      tag_325\n        /* \"@openzeppelin/contracts-upgradeable/access/OwnableUpgradeable.sol\":2334:2345  _checkOwner */\n      tag_206\n        /* \"@openzeppelin/contracts-upgradeable/access/OwnableUpgradeable.sol\":2334:2347  _checkOwner() */\n      jump\t// in\n    tag_325:\n        /* \"GIFT.sol\":4379:4389  _newPeriod */\n      dup1\n        /* \"GIFT.sol\":4358:4376  reserveCheckPeriod */\n      0x43\n        /* \"GIFT.sol\":4358:4389  reserveCheckPeriod = _newPeriod */\n      dup2\n      swap1\n      sstore\n      pop\n        /* \"GIFT.sol\":4405:4438  ReserveCheckPeriodSet(_newPeriod) */\n      0xf759d32ec37fe15560fbb2ad08f9ea31689d826215d24d6a6e2e740c517c66db\n        /* \"GIFT.sol\":4427:4437  _newPeriod */\n      dup2\n        /* \"GIFT.sol\":4405:4438  ReserveCheckPeriodSet(_newPeriod) */\n      mload(0x40)\n      tag_327\n      swap2\n      swap1\n      tag_64\n      jump\t// in\n    tag_327:\n      mload(0x40)\n      dup1\n      swap2\n      sub\n      swap1\n      log1\n        /* \"GIFT.sol\":4277:4446  function setReserveCheckPeriod(uint256 _newPeriod) external onlyOwner {... */\n      pop\n      jump\t// out\n        /* \"GIFT.sol\":5204:5396  function transfer(address recipient, uint256 amount) public virtual override whenNotPaused checkReserves returns (bool) {... */\n    tag_144:\n        /* \"GIFT.sol\":5318:5322  bool */\n      0x00\n        /* \"@openzeppelin/contracts-upgradeable/security/PausableUpgradeable.sol\":1503:1522  _requireNotPaused() */\n      tag_329\n        /* \"@openzeppelin/contracts-upgradeable/security/PausableUpgradeable.sol\":1503:1520  _requireNotPaused */\n      tag_217\n        /* \"@openzeppelin/contracts-upgradeable/security/PausableUpgradeable.sol\":1503:1522  _requireNotPaused() */\n      jump\t// in\n    tag_329:\n        /* \"GIFT.sol\":1731:1771  lastReserveCheck.add(reserveCheckPeriod) */\n      tag_331\n        /* \"GIFT.sol\":1752:1770  reserveCheckPeriod */\n      sload(0x43)\n        /* \"GIFT.sol\":1731:1747  lastReserveCheck */\n      sload(0x42)\n        /* \"GIFT.sol\":1731:1751  lastReserveCheck.add */\n      tag_220\n      swap1\n        /* \"GIFT.sol\":1731:1771  lastReserveCheck.add(reserveCheckPeriod) */\n      swap2\n      swap1\n      0xffffffff\n      and\n      jump\t// in\n    tag_331:\n        /* \"GIFT.sol\":1712:1727  block.timestamp */\n      timestamp\n        /* \"GIFT.sol\":1712:1771  block.timestamp >= lastReserveCheck.add(reserveCheckPeriod) */\n      lt\n        /* \"GIFT.sol\":1708:1816  if (block.timestamp >= lastReserveCheck.add(reserveCheckPeriod)) {... */\n      tag_332\n      jumpi\n        /* \"GIFT.sol\":1788:1804  _checkReserves() */\n      tag_333\n        /* \"GIFT.sol\":1788:1802  _checkReserves */\n      tag_223\n        /* \"GIFT.sol\":1788:1804  _checkReserves() */\n      jump\t// in\n    tag_333:\n        /* \"GIFT.sol\":1708:1816  if (block.timestamp >= lastReserveCheck.add(reserveCheckPeriod)) {... */\n    tag_332:\n        /* \"GIFT.sol\":5342:5388  _transferGIFT(_msgSender(), recipient, amount) */\n      tag_335\n        /* \"GIFT.sol\":5356:5368  _msgSender() */\n      tag_336\n        /* \"GIFT.sol\":5356:5366  _msgSender */\n      tag_197\n        /* \"GIFT.sol\":5356:5368  _msgSender() */\n      jump\t// in\n    tag_336:\n        /* \"GIFT.sol\":5370:5379  recipient */\n      dup5\n        /* \"GIFT.sol\":5381:5387  amount */\n      dup5\n        /* \"GIFT.sol\":5342:5355  _transferGIFT */\n      tag_233\n        /* \"GIFT.sol\":5342:5388  _transferGIFT(_msgSender(), recipient, amount) */\n      jump\t// in\n    tag_335:\n        /* \"GIFT.sol\":5335:5388  return _transferGIFT(_msgSender(), recipient, amount) */\n      swap1\n      pop\n        /* \"GIFT.sol\":5204:5396  function transfer(address recipient, uint256 amount) public virtual override whenNotPaused checkReserves returns (bool) {... */\n      swap3\n      swap2\n      pop\n      pop\n      jump\t// out\n        /* \"GIFT.sol\":807:833  uint256[5] public taxTiers */\n    tag_148:\n      0x38\n      dup2\n      0x05\n      dup2\n      lt\n      tag_337\n      jumpi\n      0x00\n      dup1\n      revert\n    tag_337:\n      add\n      0x00\n      swap2\n      pop\n      swap1\n      pop\n      sload\n      dup2\n      jump\t// out\n        /* \"GIFT.sol\":3892:4074  function setLiquidityPool(address _address, bool _isPool) external onlyOwner {... */\n    tag_153:\n        /* \"@openzeppelin/contracts-upgradeable/access/OwnableUpgradeable.sol\":2334:2347  _checkOwner() */\n      tag_340\n        /* \"@openzeppelin/contracts-upgradeable/access/OwnableUpgradeable.sol\":2334:2345  _checkOwner */\n      tag_206\n        /* \"@openzeppelin/contracts-upgradeable/access/OwnableUpgradeable.sol\":2334:2347  _checkOwner() */\n      jump\t// in\n    tag_340:\n        /* \"GIFT.sol\":4008:4015  _isPool */\n      dup1\n        /* \"GIFT.sol\":3980:3995  isLiquidityPool */\n      0x37\n        /* \"GIFT.sol\":3980:4005  isLiquidityPool[_address] */\n      0x00\n        /* \"GIFT.sol\":3996:4004  _address */\n      dup5\n        /* \"GIFT.sol\":3980:4005  isLiquidityPool[_address] */\n      0xffffffffffffffffffffffffffffffffffffffff\n      and\n      0xffffffffffffffffffffffffffffffffffffffff\n      and\n      dup2\n      mstore\n      0x20\n      add\n      swap1\n      dup2\n      mstore\n      0x20\n      add\n      0x00\n      keccak256\n      0x00\n        /* \"GIFT.sol\":3980:4015  isLiquidityPool[_address] = _isPool */\n      0x0100\n      exp\n      dup2\n      sload\n      dup2\n      0xff\n      mul\n      not\n      and\n      swap1\n      dup4\n      iszero\n      iszero\n      mul\n      or\n      swap1\n      sstore\n      pop\n        /* \"GIFT.sol\":4048:4056  _address */\n      dup2\n        /* \"GIFT.sol\":4031:4066  LiquidityPoolSet(_address, _isPool) */\n      0xffffffffffffffffffffffffffffffffffffffff\n      and\n      0xfa4a2b2457d2065452473bed7d55c8fa2f65fc4a1eff1ebdaf14a1b7281e7773\n        /* \"GIFT.sol\":4058:4065  _isPool */\n      dup3\n        /* \"GIFT.sol\":4031:4066  LiquidityPoolSet(_address, _isPool) */\n      mload(0x40)\n      tag_342\n      swap2\n      swap1\n      tag_58\n      jump\t// in\n    tag_342:\n      mload(0x40)\n      dup1\n      swap2\n      sub\n      swap1\n      log2\n        /* \"GIFT.sol\":3892:4074  function setLiquidityPool(address _address, bool _isPool) external onlyOwner {... */\n      pop\n      pop\n      jump\t// out\n        /* \"GIFT.sol\":7639:7728  function renounceAdminControl() external onlyOwner {... */\n    tag_155:\n        /* \"@openzeppelin/contracts-upgradeable/access/OwnableUpgradeable.sol\":2334:2347  _checkOwner() */\n      tag_344\n        /* \"@openzeppelin/contracts-upgradeable/access/OwnableUpgradeable.sol\":2334:2345  _checkOwner */\n      tag_206\n        /* \"@openzeppelin/contracts-upgradeable/access/OwnableUpgradeable.sol\":2334:2347  _checkOwner() */\n      jump\t// in\n    tag_344:\n        /* \"GIFT.sol\":7701:7720  renounceOwnership() */\n      tag_346\n        /* \"GIFT.sol\":7701:7718  renounceOwnership */\n      tag_117\n        /* \"GIFT.sol\":7701:7720  renounceOwnership() */\n      jump\t// in\n    tag_346:\n        /* \"GIFT.sol\":7639:7728  function renounceAdminControl() external onlyOwner {... */\n      jump\t// out\n        /* \"GIFT.sol\":622:680  mapping(address => bool) public isExcludedFromOutboundFees */\n    tag_158:\n      mstore(0x20, 0x35)\n      dup1\n      0x00\n      mstore\n      keccak256(0x00, 0x40)\n      0x00\n      swap2\n      pop\n      sload\n      swap1\n      0x0100\n      exp\n      swap1\n      div\n      0xff\n      and\n      dup2\n      jump\t// out\n        /* \"GIFT.sol\":984:1017  uint256 public reserveCheckPeriod */\n    tag_161:\n      sload(0x43)\n      dup2\n      jump\t// out\n        /* \"GIFT.sol\":1847:2592  function initialize(... */\n    tag_166:\n        /* \"@openzeppelin/contracts-upgradeable/proxy/utils/Initializable.sol\":4158:4188  InitializableStorage storage $ */\n      0x00\n        /* \"@openzeppelin/contracts-upgradeable/proxy/utils/Initializable.sol\":4191:4217  _getInitializableStorage() */\n      tag_348\n        /* \"@openzeppelin/contracts-upgradeable/proxy/utils/Initializable.sol\":4191:4215  _getInitializableStorage */\n      tag_349\n        /* \"@openzeppelin/contracts-upgradeable/proxy/utils/Initializable.sol\":4191:4217  _getInitializableStorage() */\n      jump\t// in\n    tag_348:\n        /* \"@openzeppelin/contracts-upgradeable/proxy/utils/Initializable.sol\":4158:4217  InitializableStorage storage $ = _getInitializableStorage() */\n      swap1\n      pop\n        /* \"@openzeppelin/contracts-upgradeable/proxy/utils/Initializable.sol\":4279:4298  bool isTopLevelCall */\n      0x00\n        /* \"@openzeppelin/contracts-upgradeable/proxy/utils/Initializable.sol\":4302:4303  $ */\n      dup2\n        /* \"@openzeppelin/contracts-upgradeable/proxy/utils/Initializable.sol\":4302:4317  $._initializing */\n      0x00\n      add\n      0x08\n      swap1\n      sload\n      swap1\n      0x0100\n      exp\n      swap1\n      div\n      0xff\n      and\n        /* \"@openzeppelin/contracts-upgradeable/proxy/utils/Initializable.sol\":4301:4317  !$._initializing */\n      iszero\n        /* \"@openzeppelin/contracts-upgradeable/proxy/utils/Initializable.sol\":4279:4317  bool isTopLevelCall = !$._initializing */\n      swap1\n      pop\n        /* \"@openzeppelin/contracts-upgradeable/proxy/utils/Initializable.sol\":4327:4345  uint64 initialized */\n      0x00\n        /* \"@openzeppelin/contracts-upgradeable/proxy/utils/Initializable.sol\":4348:4349  $ */\n      dup3\n        /* \"@openzeppelin/contracts-upgradeable/proxy/utils/Initializable.sol\":4348:4362  $._initialized */\n      0x00\n      add\n      0x00\n      swap1\n      sload\n      swap1\n      0x0100\n      exp\n      swap1\n      div\n      0xffffffffffffffff\n      and\n        /* \"@openzeppelin/contracts-upgradeable/proxy/utils/Initializable.sol\":4327:4362  uint64 initialized = $._initialized */\n      swap1\n      pop\n        /* \"@openzeppelin/contracts-upgradeable/proxy/utils/Initializable.sol\":4706:4723  bool initialSetup */\n      0x00\n        /* \"@openzeppelin/contracts-upgradeable/proxy/utils/Initializable.sol\":4741:4742  0 */\n      dup1\n        /* \"@openzeppelin/contracts-upgradeable/proxy/utils/Initializable.sol\":4726:4737  initialized */\n      dup3\n        /* \"@openzeppelin/contracts-upgradeable/proxy/utils/Initializable.sol\":4726:4742  initialized == 0 */\n      0xffffffffffffffff\n      and\n      eq\n        /* \"@openzeppelin/contracts-upgradeable/proxy/utils/Initializable.sol\":4726:4760  initialized == 0 && isTopLevelCall */\n      dup1\n      iszero\n      tag_350\n      jumpi\n      pop\n        /* \"@openzeppelin/contracts-upgradeable/proxy/utils/Initializable.sol\":4746:4760  isTopLevelCall */\n      dup3\n        /* \"@openzeppelin/contracts-upgradeable/proxy/utils/Initializable.sol\":4726:4760  initialized == 0 && isTopLevelCall */\n    tag_350:\n        /* \"@openzeppelin/contracts-upgradeable/proxy/utils/Initializable.sol\":4706:4760  bool initialSetup = initialized == 0 && isTopLevelCall */\n      swap1\n      pop\n        /* \"@openzeppelin/contracts-upgradeable/proxy/utils/Initializable.sol\":4770:4787  bool construction */\n      0x00\n        /* \"@openzeppelin/contracts-upgradeable/proxy/utils/Initializable.sol\":4805:4806  1 */\n      0x01\n        /* \"@openzeppelin/contracts-upgradeable/proxy/utils/Initializable.sol\":4790:4801  initialized */\n      dup4\n        /* \"@openzeppelin/contracts-upgradeable/proxy/utils/Initializable.sol\":4790:4806  initialized == 1 */\n      0xffffffffffffffff\n      and\n      eq\n        /* \"@openzeppelin/contracts-upgradeable/proxy/utils/Initializable.sol\":4790:4840  initialized == 1 && address(this).code.length == 0 */\n      dup1\n      iszero\n      tag_351\n      jumpi\n      pop\n        /* \"@openzeppelin/contracts-upgradeable/proxy/utils/Initializable.sol\":4839:4840  0 */\n      0x00\n        /* \"@openzeppelin/contracts-upgradeable/proxy/utils/Initializable.sol\":4818:4822  this */\n      address\n        /* \"@openzeppelin/contracts-upgradeable/proxy/utils/Initializable.sol\":4810:4835  address(this).code.length */\n      0xffffffffffffffffffffffffffffffffffffffff\n      and\n      extcodesize\n        /* \"@openzeppelin/contracts-upgradeable/proxy/utils/Initializable.sol\":4810:4840  address(this).code.length == 0 */\n      eq\n        /* \"@openzeppelin/contracts-upgradeable/proxy/utils/Initializable.sol\":4790:4840  initialized == 1 && address(this).code.length == 0 */\n    tag_351:\n        /* \"@openzeppelin/contracts-upgradeable/proxy/utils/Initializable.sol\":4770:4840  bool construction = initialized == 1 && address(this).code.length == 0 */\n      swap1\n      pop\n        /* \"@openzeppelin/contracts-upgradeable/proxy/utils/Initializable.sol\":4856:4868  initialSetup */\n      dup2\n        /* \"@openzeppelin/contracts-upgradeable/proxy/utils/Initializable.sol\":4855:4868  !initialSetup */\n      iszero\n        /* \"@openzeppelin/contracts-upgradeable/proxy/utils/Initializable.sol\":4855:4885  !initialSetup && !construction */\n      dup1\n      iszero\n      tag_352\n      jumpi\n      pop\n        /* \"@openzeppelin/contracts-upgradeable/proxy/utils/Initializable.sol\":4873:4885  construction */\n      dup1\n        /* \"@openzeppelin/contracts-upgradeable/proxy/utils/Initializable.sol\":4872:4885  !construction */\n      iszero\n        /* \"@openzeppelin/contracts-upgradeable/proxy/utils/Initializable.sol\":4855:4885  !initialSetup && !construction */\n    tag_352:\n        /* \"@openzeppelin/contracts-upgradeable/proxy/utils/Initializable.sol\":4851:4942  if (!initialSetup && !construction) {... */\n      iszero\n      tag_353\n      jumpi\n        /* \"@openzeppelin/contracts-upgradeable/proxy/utils/Initializable.sol\":4908:4931  InvalidInitialization() */\n      mload(0x40)\n      0xf92ee8a900000000000000000000000000000000000000000000000000000000\n      dup2\n      mstore\n      0x04\n      add\n      mload(0x40)\n      dup1\n      swap2\n      sub\n      swap1\n      revert\n        /* \"@openzeppelin/contracts-upgradeable/proxy/utils/Initializable.sol\":4851:4942  if (!initialSetup && !construction) {... */\n    tag_353:\n        /* \"@openzeppelin/contracts-upgradeable/proxy/utils/Initializable.sol\":4968:4969  1 */\n      0x01\n        /* \"@openzeppelin/contracts-upgradeable/proxy/utils/Initializable.sol\":4951:4952  $ */\n      dup6\n        /* \"@openzeppelin/contracts-upgradeable/proxy/utils/Initializable.sol\":4951:4965  $._initialized */\n      0x00\n      add\n      0x00\n        /* \"@openzeppelin/contracts-upgradeable/proxy/utils/Initializable.sol\":4951:4969  $._initialized = 1 */\n      0x0100\n      exp\n      dup2\n      sload\n      dup2\n      0xffffffffffffffff\n      mul\n      not\n      and\n      swap1\n      dup4\n      0xffffffffffffffff\n      and\n      mul\n      or\n      swap1\n      sstore\n      pop\n        /* \"@openzeppelin/contracts-upgradeable/proxy/utils/Initializable.sol\":4983:4997  isTopLevelCall */\n      dup4\n        /* \"@openzeppelin/contracts-upgradeable/proxy/utils/Initializable.sol\":4979:5046  if (isTopLevelCall) {... */\n      iszero\n      tag_354\n      jumpi\n        /* \"@openzeppelin/contracts-upgradeable/proxy/utils/Initializable.sol\":5031:5035  true */\n      0x01\n        /* \"@openzeppelin/contracts-upgradeable/proxy/utils/Initializable.sol\":5013:5014  $ */\n      dup6\n        /* \"@openzeppelin/contracts-upgradeable/proxy/utils/Initializable.sol\":5013:5028  $._initializing */\n      0x00\n      add\n      0x08\n        /* \"@openzeppelin/contracts-upgradeable/proxy/utils/Initializable.sol\":5013:5035  $._initializing = true */\n      0x0100\n      exp\n      dup2\n      sload\n      dup2\n      0xff\n      mul\n      not\n      and\n      swap1\n      dup4\n      iszero\n      iszero\n      mul\n      or\n      swap1\n      sstore\n      pop\n        /* \"@openzeppelin/contracts-upgradeable/proxy/utils/Initializable.sol\":4979:5046  if (isTopLevelCall) {... */\n    tag_354:\n        /* \"GIFT.sol\":2068:2094  __ERC20_init(name, symbol) */\n      tag_356\n        /* \"GIFT.sol\":2081:2085  name */\n      dup11\n        /* \"GIFT.sol\":2087:2093  symbol */\n      dup11\n        /* \"GIFT.sol\":2068:2080  __ERC20_init */\n      tag_357\n        /* \"GIFT.sol\":2068:2094  __ERC20_init(name, symbol) */\n      jump\t// in\n    tag_356:\n        /* \"GIFT.sol\":2105:2131  __Ownable_init(msg.sender) */\n      tag_358\n        /* \"GIFT.sol\":2120:2130  msg.sender */\n      caller\n        /* \"GIFT.sol\":2105:2119  __Ownable_init */\n      tag_359\n        /* \"GIFT.sol\":2105:2131  __Ownable_init(msg.sender) */\n      jump\t// in\n    tag_358:\n        /* \"GIFT.sol\":2142:2159  __Pausable_init() */\n      tag_360\n        /* \"GIFT.sol\":2142:2157  __Pausable_init */\n      tag_361\n        /* \"GIFT.sol\":2142:2159  __Pausable_init() */\n      jump\t// in\n    tag_360:\n        /* \"GIFT.sol\":2199:2216  _supplyController */\n      dup8\n        /* \"GIFT.sol\":2180:2196  supplyController */\n      0x32\n      0x00\n        /* \"GIFT.sol\":2180:2216  supplyController = _supplyController */\n      0x0100\n      exp\n      dup2\n      sload\n      dup2\n      0xffffffffffffffffffffffffffffffffffffffff\n      mul\n      not\n      and\n      swap1\n      dup4\n      0xffffffffffffffffffffffffffffffffffffffff\n      and\n      mul\n      or\n      swap1\n      sstore\n      pop\n        /* \"GIFT.sol\":2241:2253  _beneficiary */\n      dup7\n        /* \"GIFT.sol\":2227:2238  beneficiary */\n      0x33\n      0x00\n        /* \"GIFT.sol\":2227:2253  beneficiary = _beneficiary */\n      0x0100\n      exp\n      dup2\n      sload\n      dup2\n      0xffffffffffffffffffffffffffffffffffffffff\n      mul\n      not\n      and\n      swap1\n      dup4\n      0xffffffffffffffffffffffffffffffffffffffff\n      and\n      mul\n      or\n      swap1\n      sstore\n      pop\n        /* \"GIFT.sol\":2282:2298  _reserveConsumer */\n      dup6\n        /* \"GIFT.sol\":2264:2279  reserveConsumer */\n      0x34\n      0x00\n        /* \"GIFT.sol\":2264:2298  reserveConsumer = _reserveConsumer */\n      0x0100\n      exp\n      dup2\n      sload\n      dup2\n      0xffffffffffffffffffffffffffffffffffffffff\n      mul\n      not\n      and\n      swap1\n      dup4\n      0xffffffffffffffffffffffffffffffffffffffff\n      and\n      mul\n      or\n      swap1\n      sstore\n      pop\n        /* \"GIFT.sol\":2372:2452  taxTiers = [1000 ether, 5000 ether, 10000 ether, 50000 ether, type(uint256).max] */\n      mload(0x40)\n      dup1\n      0xa0\n      add\n      0x40\n      mstore\n      dup1\n        /* \"GIFT.sol\":2384:2394  1000 ether */\n      0x3635c9adc5dea00000\n        /* \"GIFT.sol\":2372:2452  taxTiers = [1000 ether, 5000 ether, 10000 ether, 50000 ether, type(uint256).max] */\n      dup2\n      mstore\n      0x20\n      add\n        /* \"GIFT.sol\":2396:2406  5000 ether */\n      0x010f0cf064dd59200000\n        /* \"GIFT.sol\":2372:2452  taxTiers = [1000 ether, 5000 ether, 10000 ether, 50000 ether, type(uint256).max] */\n      dup2\n      mstore\n      0x20\n      add\n        /* \"GIFT.sol\":2408:2419  10000 ether */\n      0x021e19e0c9bab2400000\n        /* \"GIFT.sol\":2372:2452  taxTiers = [1000 ether, 5000 ether, 10000 ether, 50000 ether, type(uint256).max] */\n      dup2\n      mstore\n      0x20\n      add\n        /* \"GIFT.sol\":2421:2432  50000 ether */\n      0x0a968163f0a57b400000\n        /* \"GIFT.sol\":2372:2452  taxTiers = [1000 ether, 5000 ether, 10000 ether, 50000 ether, type(uint256).max] */\n      dup2\n      mstore\n      0x20\n      add\n        /* \"GIFT.sol\":2434:2451  type(uint256).max */\n      0xffffffffffffffffffffffffffffffffffffffffffffffffffffffffffffffff\n        /* \"GIFT.sol\":2372:2452  taxTiers = [1000 ether, 5000 ether, 10000 ether, 50000 ether, type(uint256).max] */\n      dup2\n      mstore\n      pop\n        /* \"GIFT.sol\":2372:2380  taxTiers */\n      0x38\n        /* \"GIFT.sol\":2372:2452  taxTiers = [1000 ether, 5000 ether, 10000 ether, 50000 ether, type(uint256).max] */\n      swap1\n      0x05\n      tag_362\n      swap3\n      swap2\n      swap1\n      tag_287\n      jump\t// in\n    tag_362:\n      pop\n        /* \"GIFT.sol\":2463:2506  taxPercentages = [1000, 800, 600, 400, 200] */\n      mload(0x40)\n      dup1\n      0xa0\n      add\n      0x40\n      mstore\n      dup1\n        /* \"GIFT.sol\":2481:2485  1000 */\n      0x03e8\n        /* \"GIFT.sol\":2463:2506  taxPercentages = [1000, 800, 600, 400, 200] */\n      0xffff\n      and\n      dup2\n      mstore\n      0x20\n      add\n        /* \"GIFT.sol\":2487:2490  800 */\n      0x0320\n        /* \"GIFT.sol\":2463:2506  taxPercentages = [1000, 800, 600, 400, 200] */\n      0xffff\n      and\n      dup2\n      mstore\n      0x20\n      add\n        /* \"GIFT.sol\":2492:2495  600 */\n      0x0258\n        /* \"GIFT.sol\":2463:2506  taxPercentages = [1000, 800, 600, 400, 200] */\n      0xffff\n      and\n      dup2\n      mstore\n      0x20\n      add\n        /* \"GIFT.sol\":2497:2500  400 */\n      0x0190\n        /* \"GIFT.sol\":2463:2506  taxPercentages = [1000, 800, 600, 400, 200] */\n      0xffff\n      and\n      dup2\n      mstore\n      0x20\n      add\n        /* \"GIFT.sol\":2502:2505  200 */\n      0xc8\n        /* \"GIFT.sol\":2463:2506  taxPercentages = [1000, 800, 600, 400, 200] */\n      0xffff\n      and\n      dup2\n      mstore\n      pop\n        /* \"GIFT.sol\":2463:2477  taxPercentages */\n      0x3d\n        /* \"GIFT.sol\":2463:2506  taxPercentages = [1000, 800, 600, 400, 200] */\n      swap1\n      0x05\n      tag_363\n      swap3\n      swap2\n      swap1\n      tag_364\n      jump\t// in\n    tag_363:\n      pop\n        /* \"GIFT.sol\":2578:2584  1 days */\n      0x015180\n        /* \"GIFT.sol\":2557:2575  reserveCheckPeriod */\n      0x43\n        /* \"GIFT.sol\":2557:2584  reserveCheckPeriod = 1 days */\n      dup2\n      swap1\n      sstore\n      pop\n        /* \"@openzeppelin/contracts-upgradeable/proxy/utils/Initializable.sol\":5070:5084  isTopLevelCall */\n      dup4\n        /* \"@openzeppelin/contracts-upgradeable/proxy/utils/Initializable.sol\":5066:5167  if (isTopLevelCall) {... */\n      iszero\n      tag_365\n      jumpi\n        /* \"@openzeppelin/contracts-upgradeable/proxy/utils/Initializable.sol\":5118:5123  false */\n      0x00\n        /* \"@openzeppelin/contracts-upgradeable/proxy/utils/Initializable.sol\":5100:5101  $ */\n      dup6\n        /* \"@openzeppelin/contracts-upgradeable/proxy/utils/Initializable.sol\":5100:5115  $._initializing */\n      0x00\n      add\n      0x08\n        /* \"@openzeppelin/contracts-upgradeable/proxy/utils/Initializable.sol\":5100:5123  $._initializing = false */\n      0x0100\n      exp\n      dup2\n      sload\n      dup2\n      0xff\n      mul\n      not\n      and\n      swap1\n      dup4\n      iszero\n      iszero\n      mul\n      or\n      swap1\n      sstore\n      pop\n        /* \"@openzeppelin/contracts-upgradeable/proxy/utils/Initializable.sol\":5142:5156  Initialized(1) */\n      0xc7f505b2f371ae2175ee4913f4499e1f2633a7b5936321eed1cdaeb6115181d2\n        /* \"@openzeppelin/contracts-upgradeable/proxy/utils/Initializable.sol\":5154:5155  1 */\n      0x01\n        /* \"@openzeppelin/contracts-upgradeable/proxy/utils/Initializable.sol\":5142:5156  Initialized(1) */\n      mload(0x40)\n      tag_366\n      swap2\n      swap1\n      tag_367\n      jump\t// in\n    tag_366:\n      mload(0x40)\n      dup1\n      swap2\n      sub\n      swap1\n      log1\n        /* \"@openzeppelin/contracts-upgradeable/proxy/utils/Initializable.sol\":5066:5167  if (isTopLevelCall) {... */\n    tag_365:\n        /* \"@openzeppelin/contracts-upgradeable/proxy/utils/Initializable.sol\":4092:5173  {... */\n      pop\n      pop\n      pop\n      pop\n      pop\n        /* \"GIFT.sol\":1847:2592  function initialize(... */\n      pop\n      pop\n      pop\n      pop\n      pop\n      jump\t// out\n        /* \"@openzeppelin/contracts-upgradeable/token/ERC20/ERC20Upgradeable.sol\":5003:5198  function allowance(address owner, address spender) public view virtual returns (uint256) {... */\n    tag_170:\n        /* \"@openzeppelin/contracts-upgradeable/token/ERC20/ERC20Upgradeable.sol\":5083:5090  uint256 */\n      0x00\n        /* \"@openzeppelin/contracts-upgradeable/token/ERC20/ERC20Upgradeable.sol\":5102:5124  ERC20Storage storage $ */\n      dup1\n        /* \"@openzeppelin/contracts-upgradeable/token/ERC20/ERC20Upgradeable.sol\":5127:5145  _getERC20Storage() */\n      tag_369\n        /* \"@openzeppelin/contracts-upgradeable/token/ERC20/ERC20Upgradeable.sol\":5127:5143  _getERC20Storage */\n      tag_188\n        /* \"@openzeppelin/contracts-upgradeable/token/ERC20/ERC20Upgradeable.sol\":5127:5145  _getERC20Storage() */\n      jump\t// in\n    tag_369:\n        /* \"@openzeppelin/contracts-upgradeable/token/ERC20/ERC20Upgradeable.sol\":5102:5145  ERC20Storage storage $ = _getERC20Storage() */\n      swap1\n      pop\n        /* \"@openzeppelin/contracts-upgradeable/token/ERC20/ERC20Upgradeable.sol\":5162:5163  $ */\n      dup1\n        /* \"@openzeppelin/contracts-upgradeable/token/ERC20/ERC20Upgradeable.sol\":5162:5175  $._allowances */\n      0x01\n      add\n        /* \"@openzeppelin/contracts-upgradeable/token/ERC20/ERC20Upgradeable.sol\":5162:5182  $._allowances[owner] */\n      0x00\n        /* \"@openzeppelin/contracts-upgradeable/token/ERC20/ERC20Upgradeable.sol\":5176:5181  owner */\n      dup6\n        /* \"@openzeppelin/contracts-upgradeable/token/ERC20/ERC20Upgradeable.sol\":5162:5182  $._allowances[owner] */\n      0xffffffffffffffffffffffffffffffffffffffff\n      and\n      0xffffffffffffffffffffffffffffffffffffffff\n      and\n      dup2\n      mstore\n      0x20\n      add\n      swap1\n      dup2\n      mstore\n      0x20\n      add\n      0x00\n      keccak256\n        /* \"@openzeppelin/contracts-upgradeable/token/ERC20/ERC20Upgradeable.sol\":5162:5191  $._allowances[owner][spender] */\n      0x00\n        /* \"@openzeppelin/contracts-upgradeable/token/ERC20/ERC20Upgradeable.sol\":5183:5190  spender */\n      dup5\n        /* \"@openzeppelin/contracts-upgradeable/token/ERC20/ERC20Upgradeable.sol\":5162:5191  $._allowances[owner][spender] */\n      0xffffffffffffffffffffffffffffffffffffffff\n      and\n      0xffffffffffffffffffffffffffffffffffffffff\n      and\n      dup2\n      mstore\n      0x20\n      add\n      swap1\n      dup2\n      mstore\n      0x20\n      add\n      0x00\n      keccak256\n      sload\n        /* \"@openzeppelin/contracts-upgradeable/token/ERC20/ERC20Upgradeable.sol\":5155:5191  return $._allowances[owner][spender] */\n      swap2\n      pop\n      pop\n        /* \"@openzeppelin/contracts-upgradeable/token/ERC20/ERC20Upgradeable.sol\":5003:5198  function allowance(address owner, address spender) public view virtual returns (uint256) {... */\n      swap3\n      swap2\n      pop\n      pop\n      jump\t// out\n        /* \"GIFT.sol\":3543:3882  function setFeeExclusion(address _address, bool _isExcludedOutbound, bool _isExcludedInbound) external onlyOwner {... */\n    tag_175:\n        /* \"@openzeppelin/contracts-upgradeable/access/OwnableUpgradeable.sol\":2334:2347  _checkOwner() */\n      tag_371\n        /* \"@openzeppelin/contracts-upgradeable/access/OwnableUpgradeable.sol\":2334:2345  _checkOwner */\n      tag_206\n        /* \"@openzeppelin/contracts-upgradeable/access/OwnableUpgradeable.sol\":2334:2347  _checkOwner() */\n      jump\t// in\n    tag_371:\n        /* \"GIFT.sol\":3706:3725  _isExcludedOutbound */\n      dup2\n        /* \"GIFT.sol\":3667:3693  isExcludedFromOutboundFees */\n      0x35\n        /* \"GIFT.sol\":3667:3703  isExcludedFromOutboundFees[_address] */\n      0x00\n        /* \"GIFT.sol\":3694:3702  _address */\n      dup6\n        /* \"GIFT.sol\":3667:3703  isExcludedFromOutboundFees[_address] */\n      0xffffffffffffffffffffffffffffffffffffffff\n      and\n      0xffffffffffffffffffffffffffffffffffffffff\n      and\n      dup2\n      mstore\n      0x20\n      add\n      swap1\n      dup2\n      mstore\n      0x20\n      add\n      0x00\n      keccak256\n      0x00\n        /* \"GIFT.sol\":3667:3725  isExcludedFromOutboundFees[_address] = _isExcludedOutbound */\n      0x0100\n      exp\n      dup2\n      sload\n      dup2\n      0xff\n      mul\n      not\n      and\n      swap1\n      dup4\n      iszero\n      iszero\n      mul\n      or\n      swap1\n      sstore\n      pop\n        /* \"GIFT.sol\":3774:3792  _isExcludedInbound */\n      dup1\n        /* \"GIFT.sol\":3736:3761  isExcludedFromInboundFees */\n      0x36\n        /* \"GIFT.sol\":3736:3771  isExcludedFromInboundFees[_address] */\n      0x00\n        /* \"GIFT.sol\":3762:3770  _address */\n      dup6\n        /* \"GIFT.sol\":3736:3771  isExcludedFromInboundFees[_address] */\n      0xffffffffffffffffffffffffffffffffffffffff\n      and\n      0xffffffffffffffffffffffffffffffffffffffff\n      and\n      dup2\n      mstore\n      0x20\n      add\n      swap1\n      dup2\n      mstore\n      0x20\n      add\n      0x00\n      keccak256\n      0x00\n        /* \"GIFT.sol\":3736:3792  isExcludedFromInboundFees[_address] = _isExcludedInbound */\n      0x0100\n      exp\n      dup2\n      sload\n      dup2\n      0xff\n      mul\n      not\n      and\n      swap1\n      dup4\n      iszero\n      iszero\n      mul\n      or\n      swap1\n      sstore\n      pop\n        /* \"GIFT.sol\":3824:3832  _address */\n      dup3\n        /* \"GIFT.sol\":3808:3874  FeeExclusionSet(_address, _isExcludedOutbound, _isExcludedInbound) */\n      0xffffffffffffffffffffffffffffffffffffffff\n      and\n      0x56ef0fe49f8ee42d7982bb42d42fa7b8d1370ec36d0f8cb83802a7f74215027d\n        /* \"GIFT.sol\":3834:3853  _isExcludedOutbound */\n      dup4\n        /* \"GIFT.sol\":3855:3873  _isExcludedInbound */\n      dup4\n        /* \"GIFT.sol\":3808:3874  FeeExclusionSet(_address, _isExcludedOutbound, _isExcludedInbound) */\n      mload(0x40)\n      tag_373\n      swap3\n      swap2\n      swap1\n      tag_374\n      jump\t// in\n    tag_373:\n      mload(0x40)\n      dup1\n      swap2\n      sub\n      swap1\n      log2\n        /* \"GIFT.sol\":3543:3882  function setFeeExclusion(address _address, bool _isExcludedOutbound, bool _isExcludedInbound) external onlyOwner {... */\n      pop\n      pop\n      pop\n      jump\t// out\n        /* \"GIFT.sol\":512:543  address public supplyController */\n    tag_177:\n      0x32\n      0x00\n      swap1\n      sload\n      swap1\n      0x0100\n      exp\n      swap1\n      div\n      0xffffffffffffffffffffffffffffffffffffffff\n      and\n      dup2\n      jump\t// out\n        /* \"GIFT.sol\":751:798  mapping(address => bool) public isLiquidityPool */\n    tag_181:\n      mstore(0x20, 0x37)\n      dup1\n      0x00\n      mstore\n      keccak256(0x00, 0x40)\n      0x00\n      swap2\n      pop\n      sload\n      swap1\n      0x0100\n      exp\n      swap1\n      div\n      0xff\n      and\n      dup2\n      jump\t// out\n        /* \"@openzeppelin/contracts-upgradeable/access/OwnableUpgradeable.sol\":3405:3620  function transferOwnership(address newOwner) public virtual onlyOwner {... */\n    tag_185:\n        /* \"@openzeppelin/contracts-upgradeable/access/OwnableUpgradeable.sol\":2334:2347  _checkOwner() */\n      tag_376\n        /* \"@openzeppelin/contracts-upgradeable/access/OwnableUpgradeable.sol\":2334:2345  _checkOwner */\n      tag_206\n        /* \"@openzeppelin/contracts-upgradeable/access/OwnableUpgradeable.sol\":2334:2347  _checkOwner() */\n      jump\t// in\n    tag_376:\n        /* \"@openzeppelin/contracts-upgradeable/access/OwnableUpgradeable.sol\":3509:3510  0 */\n      0x00\n        /* \"@openzeppelin/contracts-upgradeable/access/OwnableUpgradeable.sol\":3489:3511  newOwner == address(0) */\n      0xffffffffffffffffffffffffffffffffffffffff\n      and\n        /* \"@openzeppelin/contracts-upgradeable/access/OwnableUpgradeable.sol\":3489:3497  newOwner */\n      dup2\n        /* \"@openzeppelin/contracts-upgradeable/access/OwnableUpgradeable.sol\":3489:3511  newOwner == address(0) */\n      0xffffffffffffffffffffffffffffffffffffffff\n      and\n      sub\n        /* \"@openzeppelin/contracts-upgradeable/access/OwnableUpgradeable.sol\":3485:3576  if (newOwner == address(0)) {... */\n      tag_378\n      jumpi\n        /* \"@openzeppelin/contracts-upgradeable/access/OwnableUpgradeable.sol\":3562:3563  0 */\n      0x00\n        /* \"@openzeppelin/contracts-upgradeable/access/OwnableUpgradeable.sol\":3534:3565  OwnableInvalidOwner(address(0)) */\n      mload(0x40)\n      0x1e4fbdf700000000000000000000000000000000000000000000000000000000\n      dup2\n      mstore\n      0x04\n      add\n      tag_379\n      swap2\n      swap1\n      tag_90\n      jump\t// in\n    tag_379:\n      mload(0x40)\n      dup1\n      swap2\n      sub\n      swap1\n      revert\n        /* \"@openzeppelin/contracts-upgradeable/access/OwnableUpgradeable.sol\":3485:3576  if (newOwner == address(0)) {... */\n    tag_378:\n        /* \"@openzeppelin/contracts-upgradeable/access/OwnableUpgradeable.sol\":3585:3613  _transferOwnership(newOwner) */\n      tag_380\n        /* \"@openzeppelin/contracts-upgradeable/access/OwnableUpgradeable.sol\":3604:3612  newOwner */\n      dup2\n        /* \"@openzeppelin/contracts-upgradeable/access/OwnableUpgradeable.sol\":3585:3603  _transferOwnership */\n      tag_298\n        /* \"@openzeppelin/contracts-upgradeable/access/OwnableUpgradeable.sol\":3585:3613  _transferOwnership(newOwner) */\n      jump\t// in\n    tag_380:\n        /* \"@openzeppelin/contracts-upgradeable/access/OwnableUpgradeable.sol\":3405:3620  function transferOwnership(address newOwner) public virtual onlyOwner {... */\n      pop\n      jump\t// out\n        /* \"@openzeppelin/contracts-upgradeable/token/ERC20/ERC20Upgradeable.sol\":2242:2395  function _getERC20Storage() private pure returns (ERC20Storage storage $) {... */\n    tag_188:\n        /* \"@openzeppelin/contracts-upgradeable/token/ERC20/ERC20Upgradeable.sol\":2292:2314  ERC20Storage storage $ */\n      0x00\n        /* \"@openzeppelin/contracts-upgradeable/token/ERC20/ERC20Upgradeable.sol\":2359:2379  ERC20StorageLocation */\n      0x52c63247e1f47db19d5ce0460030c497f067ca4cebf71ba98eeadabe20bace00\n        /* \"@openzeppelin/contracts-upgradeable/token/ERC20/ERC20Upgradeable.sol\":2349:2379  $.slot := ERC20StorageLocation */\n      swap1\n      pop\n        /* \"@openzeppelin/contracts-upgradeable/token/ERC20/ERC20Upgradeable.sol\":2242:2395  function _getERC20Storage() private pure returns (ERC20Storage storage $) {... */\n      swap1\n      jump\t// out\n        /* \"@openzeppelin/contracts-upgradeable/utils/ContextUpgradeable.sol\":887:983  function _msgSender() internal view virtual returns (address) {... */\n    tag_197:\n        /* \"@openzeppelin/contracts-upgradeable/utils/ContextUpgradeable.sol\":940:947  address */\n      0x00\n        /* \"@openzeppelin/contracts-upgradeable/utils/ContextUpgradeable.sol\":966:976  msg.sender */\n      caller\n        /* \"@openzeppelin/contracts-upgradeable/utils/ContextUpgradeable.sol\":959:976  return msg.sender */\n      swap1\n      pop\n        /* \"@openzeppelin/contracts-upgradeable/utils/ContextUpgradeable.sol\":887:983  function _msgSender() internal view virtual returns (address) {... */\n      swap1\n      jump\t// out\n        /* \"@openzeppelin/contracts-upgradeable/token/ERC20/ERC20Upgradeable.sol\":10264:10392  function _approve(address owner, address spender, uint256 value) internal {... */\n    tag_199:\n        /* \"@openzeppelin/contracts-upgradeable/token/ERC20/ERC20Upgradeable.sol\":10348:10385  _approve(owner, spender, value, true) */\n      tag_384\n        /* \"@openzeppelin/contracts-upgradeable/token/ERC20/ERC20Upgradeable.sol\":10357:10362  owner */\n      dup4\n        /* \"@openzeppelin/contracts-upgradeable/token/ERC20/ERC20Upgradeable.sol\":10364:10371  spender */\n      dup4\n        /* \"@openzeppelin/contracts-upgradeable/token/ERC20/ERC20Upgradeable.sol\":10373:10378  value */\n      dup4\n        /* \"@openzeppelin/contracts-upgradeable/token/ERC20/ERC20Upgradeable.sol\":10380:10384  true */\n      0x01\n        /* \"@openzeppelin/contracts-upgradeable/token/ERC20/ERC20Upgradeable.sol\":10348:10356  _approve */\n      tag_385\n        /* \"@openzeppelin/contracts-upgradeable/token/ERC20/ERC20Upgradeable.sol\":10348:10385  _approve(owner, spender, value, true) */\n      jump\t// in\n    tag_384:\n        /* \"@openzeppelin/contracts-upgradeable/token/ERC20/ERC20Upgradeable.sol\":10264:10392  function _approve(address owner, address spender, uint256 value) internal {... */\n      pop\n      pop\n      pop\n      jump\t// out\n        /* \"@openzeppelin/contracts-upgradeable/access/OwnableUpgradeable.sol\":2658:2820  function _checkOwner() internal view virtual {... */\n    tag_206:\n        /* \"@openzeppelin/contracts-upgradeable/access/OwnableUpgradeable.sol\":2728:2740  _msgSender() */\n      tag_387\n        /* \"@openzeppelin/contracts-upgradeable/access/OwnableUpgradeable.sol\":2728:2738  _msgSender */\n      tag_197\n        /* \"@openzeppelin/contracts-upgradeable/access/OwnableUpgradeable.sol\":2728:2740  _msgSender() */\n      jump\t// in\n    tag_387:\n        /* \"@openzeppelin/contracts-upgradeable/access/OwnableUpgradeable.sol\":2717:2740  owner() != _msgSender() */\n      0xffffffffffffffffffffffffffffffffffffffff\n      and\n        /* \"@openzeppelin/contracts-upgradeable/access/OwnableUpgradeable.sol\":2717:2724  owner() */\n      tag_388\n        /* \"@openzeppelin/contracts-upgradeable/access/OwnableUpgradeable.sol\":2717:2722  owner */\n      tag_134\n        /* \"@openzeppelin/contracts-upgradeable/access/OwnableUpgradeable.sol\":2717:2724  owner() */\n      jump\t// in\n    tag_388:\n        /* \"@openzeppelin/contracts-upgradeable/access/OwnableUpgradeable.sol\":2717:2740  owner() != _msgSender() */\n      0xffffffffffffffffffffffffffffffffffffffff\n      and\n      eq\n        /* \"@openzeppelin/contracts-upgradeable/access/OwnableUpgradeable.sol\":2713:2814  if (owner() != _msgSender()) {... */\n      tag_389\n      jumpi\n        /* \"@openzeppelin/contracts-upgradeable/access/OwnableUpgradeable.sol\":2790:2802  _msgSender() */\n      tag_390\n        /* \"@openzeppelin/contracts-upgradeable/access/OwnableUpgradeable.sol\":2790:2800  _msgSender */\n      tag_197\n        /* \"@openzeppelin/contracts-upgradeable/access/OwnableUpgradeable.sol\":2790:2802  _msgSender() */\n      jump\t// in\n    tag_390:\n        /* \"@openzeppelin/contracts-upgradeable/access/OwnableUpgradeable.sol\":2763:2803  OwnableUnauthorizedAccount(_msgSender()) */\n      mload(0x40)\n      0x118cdaa700000000000000000000000000000000000000000000000000000000\n      dup2\n      mstore\n      0x04\n      add\n      tag_391\n      swap2\n      swap1\n      tag_90\n      jump\t// in\n    tag_391:\n      mload(0x40)\n      dup1\n      swap2\n      sub\n      swap1\n      revert\n        /* \"@openzeppelin/contracts-upgradeable/access/OwnableUpgradeable.sol\":2713:2814  if (owner() != _msgSender()) {... */\n    tag_389:\n        /* \"@openzeppelin/contracts-upgradeable/access/OwnableUpgradeable.sol\":2658:2820  function _checkOwner() internal view virtual {... */\n      jump\t// out\n        /* \"@openzeppelin/contracts-upgradeable/security/PausableUpgradeable.sol\":2031:2137  function _requireNotPaused() internal view virtual {... */\n    tag_217:\n        /* \"@openzeppelin/contracts-upgradeable/security/PausableUpgradeable.sol\":2101:2109  paused() */\n      tag_393\n        /* \"@openzeppelin/contracts-upgradeable/security/PausableUpgradeable.sol\":2101:2107  paused */\n      tag_107\n        /* \"@openzeppelin/contracts-upgradeable/security/PausableUpgradeable.sol\":2101:2109  paused() */\n      jump\t// in\n    tag_393:\n        /* \"@openzeppelin/contracts-upgradeable/security/PausableUpgradeable.sol\":2100:2109  !paused() */\n      iszero\n        /* \"@openzeppelin/contracts-upgradeable/security/PausableUpgradeable.sol\":2092:2130  require(!paused(), \"Pausable: paused\") */\n      tag_394\n      jumpi\n      mload(0x40)\n      0x08c379a000000000000000000000000000000000000000000000000000000000\n      dup2\n      mstore\n      0x04\n      add\n      tag_395\n      swap1\n      tag_396\n      jump\t// in\n    tag_395:\n      mload(0x40)\n      dup1\n      swap2\n      sub\n      swap1\n      revert\n    tag_394:\n        /* \"@openzeppelin/contracts-upgradeable/security/PausableUpgradeable.sol\":2031:2137  function _requireNotPaused() internal view virtual {... */\n      jump\t// out\n        /* \"@openzeppelin/contracts-upgradeable/utils/math/SafeMathUpgradeable.sol\":2766:2862  function add(uint256 a, uint256 b) internal pure returns (uint256) {... */\n    tag_220:\n        /* \"@openzeppelin/contracts-upgradeable/utils/math/SafeMathUpgradeable.sol\":2824:2831  uint256 */\n      0x00\n        /* \"@openzeppelin/contracts-upgradeable/utils/math/SafeMathUpgradeable.sol\":2854:2855  b */\n      dup2\n        /* \"@openzeppelin/contracts-upgradeable/utils/math/SafeMathUpgradeable.sol\":2850:2851  a */\n      dup4\n        /* \"@openzeppelin/contracts-upgradeable/utils/math/SafeMathUpgradeable.sol\":2850:2855  a + b */\n      tag_398\n      swap2\n      swap1\n      tag_399\n      jump\t// in\n    tag_398:\n        /* \"@openzeppelin/contracts-upgradeable/utils/math/SafeMathUpgradeable.sol\":2843:2855  return a + b */\n      swap1\n      pop\n        /* \"@openzeppelin/contracts-upgradeable/utils/math/SafeMathUpgradeable.sol\":2766:2862  function add(uint256 a, uint256 b) internal pure returns (uint256) {... */\n      swap3\n      swap2\n      pop\n      pop\n      jump\t// out\n        /* \"GIFT.sol\":6688:7158  function _checkReserves() internal {... */\n    tag_223:\n        /* \"GIFT.sol\":6765:6766  0 */\n      0x00\n        /* \"GIFT.sol\":6738:6767  reserveConsumer != address(0) */\n      0xffffffffffffffffffffffffffffffffffffffff\n      and\n        /* \"GIFT.sol\":6738:6753  reserveConsumer */\n      0x34\n      0x00\n      swap1\n      sload\n      swap1\n      0x0100\n      exp\n      swap1\n      div\n      0xffffffffffffffffffffffffffffffffffffffff\n      and\n        /* \"GIFT.sol\":6738:6767  reserveConsumer != address(0) */\n      0xffffffffffffffffffffffffffffffffffffffff\n      and\n      eq\n        /* \"GIFT.sol\":6734:7106  if (reserveConsumer != address(0)) {... */\n      tag_401\n      jumpi\n        /* \"GIFT.sol\":6785:6797  bool success */\n      0x00\n        /* \"GIFT.sol\":6799:6816  bytes memory data */\n      dup1\n        /* \"GIFT.sol\":6820:6835  reserveConsumer */\n      0x34\n      0x00\n      swap1\n      sload\n      swap1\n      0x0100\n      exp\n      swap1\n      div\n      0xffffffffffffffffffffffffffffffffffffffff\n      and\n        /* \"GIFT.sol\":6820:6846  reserveConsumer.staticcall */\n      0xffffffffffffffffffffffffffffffffffffffff\n      and\n        /* \"GIFT.sol\":6847:6887  abi.encodeWithSignature(\"getReserves()\") */\n      add(0x24, mload(0x40))\n      mload(0x40)\n      0x20\n      dup2\n      dup4\n      sub\n      sub\n      dup2\n      mstore\n      swap1\n      0x40\n      mstore\n      and(not(0xffffffffffffffffffffffffffffffffffffffffffffffffffffffff), 0x0902f1ac00000000000000000000000000000000000000000000000000000000)\n      0x20\n      dup3\n      add\n      dup1\n      mload\n      0xffffffffffffffffffffffffffffffffffffffffffffffffffffffff\n      dup4\n      dup2\n      dup4\n      and\n      or\n      dup4\n      mstore\n      pop\n      pop\n      pop\n      pop\n        /* \"GIFT.sol\":6820:6888  reserveConsumer.staticcall(abi.encodeWithSignature(\"getReserves()\")) */\n      mload(0x40)\n      tag_402\n      swap2\n      swap1\n      tag_403\n      jump\t// in\n    tag_402:\n      0x00\n      mload(0x40)\n      dup1\n      dup4\n      sub\n      dup2\n      dup6\n      gas\n      staticcall\n      swap2\n      pop\n      pop\n      returndatasize\n      dup1\n      0x00\n      dup2\n      eq\n      tag_406\n      jumpi\n      mload(0x40)\n      swap2\n      pop\n      and(add(returndatasize, 0x3f), not(0x1f))\n      dup3\n      add\n      0x40\n      mstore\n      returndatasize\n      dup3\n      mstore\n      returndatasize\n      0x00\n      0x20\n      dup5\n      add\n      returndatacopy\n      jump(tag_405)\n    tag_406:\n      0x60\n      swap2\n      pop\n    tag_405:\n      pop\n        /* \"GIFT.sol\":6784:6888  (bool success, bytes memory data) = reserveConsumer.staticcall(abi.encodeWithSignature(\"getReserves()\")) */\n      swap2\n      pop\n      swap2\n      pop\n        /* \"GIFT.sol\":6911:6918  success */\n      dup2\n        /* \"GIFT.sol\":6903:6953  require(success, \"GIFT: Failed to check reserves\") */\n      tag_407\n      jumpi\n      mload(0x40)\n      0x08c379a000000000000000000000000000000000000000000000000000000000\n      dup2\n      mstore\n      0x04\n      add\n      tag_408\n      swap1\n      tag_409\n      jump\t// in\n    tag_408:\n      mload(0x40)\n      dup1\n      swap2\n      sub\n      swap1\n      revert\n    tag_407:\n        /* \"GIFT.sol\":6968:6984  uint256 reserves */\n      0x00\n        /* \"GIFT.sol\":6998:7002  data */\n      dup2\n        /* \"GIFT.sol\":6987:7014  abi.decode(data, (uint256)) */\n      dup1\n      0x20\n      add\n      swap1\n      mload\n      dup2\n      add\n      swap1\n      tag_410\n      swap2\n      swap1\n      tag_411\n      jump\t// in\n    tag_410:\n        /* \"GIFT.sol\":6968:7014  uint256 reserves = abi.decode(data, (uint256)) */\n      swap1\n      pop\n        /* \"GIFT.sol\":7054:7062  reserves */\n      dup1\n        /* \"GIFT.sol\":7037:7050  totalSupply() */\n      tag_412\n        /* \"GIFT.sol\":7037:7048  totalSupply */\n      tag_66\n        /* \"GIFT.sol\":7037:7050  totalSupply() */\n      jump\t// in\n    tag_412:\n        /* \"GIFT.sol\":7037:7062  totalSupply() <= reserves */\n      gt\n      iszero\n        /* \"GIFT.sol\":7029:7094  require(totalSupply() <= reserves, \"GIFT: Insufficient reserves\") */\n      tag_413\n      jumpi\n      mload(0x40)\n      0x08c379a000000000000000000000000000000000000000000000000000000000\n      dup2\n      mstore\n      0x04\n      add\n      tag_414\n      swap1\n      tag_415\n      jump\t// in\n    tag_414:\n      mload(0x40)\n      dup1\n      swap2\n      sub\n      swap1\n      revert\n    tag_413:\n        /* \"GIFT.sol\":6769:7106  {... */\n      pop\n      pop\n      pop\n        /* \"GIFT.sol\":6734:7106  if (reserveConsumer != address(0)) {... */\n    tag_401:\n        /* \"GIFT.sol\":7135:7150  block.timestamp */\n      timestamp\n        /* \"GIFT.sol\":7116:7132  lastReserveCheck */\n      0x42\n        /* \"GIFT.sol\":7116:7150  lastReserveCheck = block.timestamp */\n      dup2\n      swap1\n      sstore\n      pop\n        /* \"GIFT.sol\":6688:7158  function _checkReserves() internal {... */\n      jump\t// out\n        /* \"GIFT.sol\":5882:6374  function _transferGIFT(address sender, address recipient, uint256 amount) internal virtual returns (bool) {... */\n    tag_233:\n        /* \"GIFT.sol\":5982:5986  bool */\n      0x00\n        /* \"GIFT.sol\":6003:6029  isExcludedFromOutboundFees */\n      0x35\n        /* \"GIFT.sol\":6003:6037  isExcludedFromOutboundFees[sender] */\n      0x00\n        /* \"GIFT.sol\":6030:6036  sender */\n      dup6\n        /* \"GIFT.sol\":6003:6037  isExcludedFromOutboundFees[sender] */\n      0xffffffffffffffffffffffffffffffffffffffff\n      and\n      0xffffffffffffffffffffffffffffffffffffffff\n      and\n      dup2\n      mstore\n      0x20\n      add\n      swap1\n      dup2\n      mstore\n      0x20\n      add\n      0x00\n      keccak256\n      0x00\n      swap1\n      sload\n      swap1\n      0x0100\n      exp\n      swap1\n      div\n      0xff\n      and\n        /* \"GIFT.sol\":6003:6077  isExcludedFromOutboundFees[sender] || isExcludedFromInboundFees[recipient] */\n      dup1\n      tag_417\n      jumpi\n      pop\n        /* \"GIFT.sol\":6041:6066  isExcludedFromInboundFees */\n      0x36\n        /* \"GIFT.sol\":6041:6077  isExcludedFromInboundFees[recipient] */\n      0x00\n        /* \"GIFT.sol\":6067:6076  recipient */\n      dup5\n        /* \"GIFT.sol\":6041:6077  isExcludedFromInboundFees[recipient] */\n      0xffffffffffffffffffffffffffffffffffffffff\n      and\n      0xffffffffffffffffffffffffffffffffffffffff\n      and\n      dup2\n      mstore\n      0x20\n      add\n      swap1\n      dup2\n      mstore\n      0x20\n      add\n      0x00\n      keccak256\n      0x00\n      swap1\n      sload\n      swap1\n      0x0100\n      exp\n      swap1\n      div\n      0xff\n      and\n        /* \"GIFT.sol\":6003:6077  isExcludedFromOutboundFees[sender] || isExcludedFromInboundFees[recipient] */\n    tag_417:\n        /* \"GIFT.sol\":6003:6104  isExcludedFromOutboundFees[sender] || isExcludedFromInboundFees[recipient] || isLiquidityPool[sender] */\n      dup1\n      tag_418\n      jumpi\n      pop\n        /* \"GIFT.sol\":6081:6096  isLiquidityPool */\n      0x37\n        /* \"GIFT.sol\":6081:6104  isLiquidityPool[sender] */\n      0x00\n        /* \"GIFT.sol\":6097:6103  sender */\n      dup6\n        /* \"GIFT.sol\":6081:6104  isLiquidityPool[sender] */\n      0xffffffffffffffffffffffffffffffffffffffff\n      and\n      0xffffffffffffffffffffffffffffffffffffffff\n      and\n      dup2\n      mstore\n      0x20\n      add\n      swap1\n      dup2\n      mstore\n      0x20\n      add\n      0x00\n      keccak256\n      0x00\n      swap1\n      sload\n      swap1\n      0x0100\n      exp\n      swap1\n      div\n      0xff\n      and\n        /* \"GIFT.sol\":6003:6104  isExcludedFromOutboundFees[sender] || isExcludedFromInboundFees[recipient] || isLiquidityPool[sender] */\n    tag_418:\n        /* \"GIFT.sol\":5999:6345  if (isExcludedFromOutboundFees[sender] || isExcludedFromInboundFees[recipient] || isLiquidityPool[sender]) {... */\n      iszero\n      tag_419\n      jumpi\n        /* \"GIFT.sol\":6121:6157  _transfer(sender, recipient, amount) */\n      tag_420\n        /* \"GIFT.sol\":6131:6137  sender */\n      dup5\n        /* \"GIFT.sol\":6139:6148  recipient */\n      dup5\n        /* \"GIFT.sol\":6150:6156  amount */\n      dup5\n        /* \"GIFT.sol\":6121:6130  _transfer */\n      tag_421\n        /* \"GIFT.sol\":6121:6157  _transfer(sender, recipient, amount) */\n      jump\t// in\n    tag_420:\n        /* \"GIFT.sol\":5999:6345  if (isExcludedFromOutboundFees[sender] || isExcludedFromInboundFees[recipient] || isLiquidityPool[sender]) {... */\n      jump(tag_422)\n    tag_419:\n        /* \"GIFT.sol\":6190:6201  uint256 tax */\n      0x00\n        /* \"GIFT.sol\":6204:6223  _computeTax(amount) */\n      tag_423\n        /* \"GIFT.sol\":6216:6222  amount */\n      dup4\n        /* \"GIFT.sol\":6204:6215  _computeTax */\n      tag_424\n        /* \"GIFT.sol\":6204:6223  _computeTax(amount) */\n      jump\t// in\n    tag_423:\n        /* \"GIFT.sol\":6190:6223  uint256 tax = _computeTax(amount) */\n      swap1\n      pop\n        /* \"GIFT.sol\":6238:6273  _transfer(sender, beneficiary, tax) */\n      tag_425\n        /* \"GIFT.sol\":6248:6254  sender */\n      dup6\n        /* \"GIFT.sol\":6256:6267  beneficiary */\n      0x33\n      0x00\n      swap1\n      sload\n      swap1\n      0x0100\n      exp\n      swap1\n      div\n      0xffffffffffffffffffffffffffffffffffffffff\n      and\n        /* \"GIFT.sol\":6269:6272  tax */\n      dup4\n        /* \"GIFT.sol\":6238:6247  _transfer */\n      tag_421\n        /* \"GIFT.sol\":6238:6273  _transfer(sender, beneficiary, tax) */\n      jump\t// in\n    tag_425:\n        /* \"GIFT.sol\":6288:6333  _transfer(sender, recipient, amount.sub(tax)) */\n      tag_426\n        /* \"GIFT.sol\":6298:6304  sender */\n      dup6\n        /* \"GIFT.sol\":6306:6315  recipient */\n      dup6\n        /* \"GIFT.sol\":6317:6332  amount.sub(tax) */\n      tag_427\n        /* \"GIFT.sol\":6328:6331  tax */\n      dup5\n        /* \"GIFT.sol\":6317:6323  amount */\n      dup8\n        /* \"GIFT.sol\":6317:6327  amount.sub */\n      tag_428\n      swap1\n        /* \"GIFT.sol\":6317:6332  amount.sub(tax) */\n      swap2\n      swap1\n      0xffffffff\n      and\n      jump\t// in\n    tag_427:\n        /* \"GIFT.sol\":6288:6297  _transfer */\n      tag_421\n        /* \"GIFT.sol\":6288:6333  _transfer(sender, recipient, amount.sub(tax)) */\n      jump\t// in\n    tag_426:\n        /* \"GIFT.sol\":6175:6345  {... */\n      pop\n        /* \"GIFT.sol\":5999:6345  if (isExcludedFromOutboundFees[sender] || isExcludedFromInboundFees[recipient] || isLiquidityPool[sender]) {... */\n    tag_422:\n        /* \"GIFT.sol\":6362:6366  true */\n      0x01\n        /* \"GIFT.sol\":6355:6366  return true */\n      swap1\n      pop\n        /* \"GIFT.sol\":5882:6374  function _transferGIFT(address sender, address recipient, uint256 amount) internal virtual returns (bool) {... */\n      swap4\n      swap3\n      pop\n      pop\n      pop\n      jump\t// out\n        /* \"@openzeppelin/contracts-upgradeable/security/PausableUpgradeable.sol\":2697:2814  function _unpause() internal virtual whenPaused {... */\n    tag_239:\n        /* \"@openzeppelin/contracts-upgradeable/security/PausableUpgradeable.sol\":1750:1766  _requirePaused() */\n      tag_430\n        /* \"@openzeppelin/contracts-upgradeable/security/PausableUpgradeable.sol\":1750:1764  _requirePaused */\n      tag_431\n        /* \"@openzeppelin/contracts-upgradeable/security/PausableUpgradeable.sol\":1750:1766  _requirePaused() */\n      jump\t// in\n    tag_430:\n        /* \"@openzeppelin/contracts-upgradeable/security/PausableUpgradeable.sol\":2765:2770  false */\n      0x00\n        /* \"@openzeppelin/contracts-upgradeable/security/PausableUpgradeable.sol\":2755:2762  _paused */\n      dup1\n      0x00\n        /* \"@openzeppelin/contracts-upgradeable/security/PausableUpgradeable.sol\":2755:2770  _paused = false */\n      0x0100\n      exp\n      dup2\n      sload\n      dup2\n      0xff\n      mul\n      not\n      and\n      swap1\n      dup4\n      iszero\n      iszero\n      mul\n      or\n      swap1\n      sstore\n      pop\n        /* \"@openzeppelin/contracts-upgradeable/security/PausableUpgradeable.sol\":2785:2807  Unpaused(_msgSender()) */\n      0x5db9ee0a495bf2e6ff9c91a7834c1ba4fdd244a5e8aa4e537bd38aeae4b073aa\n        /* \"@openzeppelin/contracts-upgradeable/security/PausableUpgradeable.sol\":2794:2806  _msgSender() */\n      tag_433\n        /* \"@openzeppelin/contracts-upgradeable/security/PausableUpgradeable.sol\":2794:2804  _msgSender */\n      tag_197\n        /* \"@openzeppelin/contracts-upgradeable/security/PausableUpgradeable.sol\":2794:2806  _msgSender() */\n      jump\t// in\n    tag_433:\n        /* \"@openzeppelin/contracts-upgradeable/security/PausableUpgradeable.sol\":2785:2807  Unpaused(_msgSender()) */\n      mload(0x40)\n      tag_434\n      swap2\n      swap1\n      tag_90\n      jump\t// in\n    tag_434:\n      mload(0x40)\n      dup1\n      swap2\n      sub\n      swap1\n      log1\n        /* \"@openzeppelin/contracts-upgradeable/security/PausableUpgradeable.sol\":2697:2814  function _unpause() internal virtual whenPaused {... */\n      jump\t// out\n        /* \"@openzeppelin/contracts-upgradeable/token/ERC20/ERC20Upgradeable.sol\":8996:9204  function _mint(address account, uint256 value) internal {... */\n    tag_250:\n        /* \"@openzeppelin/contracts-upgradeable/token/ERC20/ERC20Upgradeable.sol\":9085:9086  0 */\n      0x00\n        /* \"@openzeppelin/contracts-upgradeable/token/ERC20/ERC20Upgradeable.sol\":9066:9087  account == address(0) */\n      0xffffffffffffffffffffffffffffffffffffffff\n      and\n        /* \"@openzeppelin/contracts-upgradeable/token/ERC20/ERC20Upgradeable.sol\":9066:9073  account */\n      dup3\n        /* \"@openzeppelin/contracts-upgradeable/token/ERC20/ERC20Upgradeable.sol\":9066:9087  account == address(0) */\n      0xffffffffffffffffffffffffffffffffffffffff\n      and\n      sub\n        /* \"@openzeppelin/contracts-upgradeable/token/ERC20/ERC20Upgradeable.sol\":9062:9153  if (account == address(0)) {... */\n      tag_436\n      jumpi\n        /* \"@openzeppelin/contracts-upgradeable/token/ERC20/ERC20Upgradeable.sol\":9139:9140  0 */\n      0x00\n        /* \"@openzeppelin/contracts-upgradeable/token/ERC20/ERC20Upgradeable.sol\":9110:9142  ERC20InvalidReceiver(address(0)) */\n      mload(0x40)\n      0xec442f0500000000000000000000000000000000000000000000000000000000\n      dup2\n      mstore\n      0x04\n      add\n      tag_437\n      swap2\n      swap1\n      tag_90\n      jump\t// in\n    tag_437:\n      mload(0x40)\n      dup1\n      swap2\n      sub\n      swap1\n      revert\n        /* \"@openzeppelin/contracts-upgradeable/token/ERC20/ERC20Upgradeable.sol\":9062:9153  if (account == address(0)) {... */\n    tag_436:\n        /* \"@openzeppelin/contracts-upgradeable/token/ERC20/ERC20Upgradeable.sol\":9162:9197  _update(address(0), account, value) */\n      tag_438\n        /* \"@openzeppelin/contracts-upgradeable/token/ERC20/ERC20Upgradeable.sol\":9178:9179  0 */\n      0x00\n        /* \"@openzeppelin/contracts-upgradeable/token/ERC20/ERC20Upgradeable.sol\":9182:9189  account */\n      dup4\n        /* \"@openzeppelin/contracts-upgradeable/token/ERC20/ERC20Upgradeable.sol\":9191:9196  value */\n      dup4\n        /* \"@openzeppelin/contracts-upgradeable/token/ERC20/ERC20Upgradeable.sol\":9162:9169  _update */\n      tag_439\n        /* \"@openzeppelin/contracts-upgradeable/token/ERC20/ERC20Upgradeable.sol\":9162:9197  _update(address(0), account, value) */\n      jump\t// in\n    tag_438:\n        /* \"@openzeppelin/contracts-upgradeable/token/ERC20/ERC20Upgradeable.sol\":8996:9204  function _mint(address account, uint256 value) internal {... */\n      pop\n      pop\n      jump\t// out\n        /* \"@openzeppelin/contracts-upgradeable/token/ERC20/ERC20Upgradeable.sol\":9522:9728  function _burn(address account, uint256 value) internal {... */\n    tag_253:\n        /* \"@openzeppelin/contracts-upgradeable/token/ERC20/ERC20Upgradeable.sol\":9611:9612  0 */\n      0x00\n        /* \"@openzeppelin/contracts-upgradeable/token/ERC20/ERC20Upgradeable.sol\":9592:9613  account == address(0) */\n      0xffffffffffffffffffffffffffffffffffffffff\n      and\n        /* \"@openzeppelin/contracts-upgradeable/token/ERC20/ERC20Upgradeable.sol\":9592:9599  account */\n      dup3\n        /* \"@openzeppelin/contracts-upgradeable/token/ERC20/ERC20Upgradeable.sol\":9592:9613  account == address(0) */\n      0xffffffffffffffffffffffffffffffffffffffff\n      and\n      sub\n        /* \"@openzeppelin/contracts-upgradeable/token/ERC20/ERC20Upgradeable.sol\":9588:9677  if (account == address(0)) {... */\n      tag_441\n      jumpi\n        /* \"@openzeppelin/contracts-upgradeable/token/ERC20/ERC20Upgradeable.sol\":9663:9664  0 */\n      0x00\n        /* \"@openzeppelin/contracts-upgradeable/token/ERC20/ERC20Upgradeable.sol\":9636:9666  ERC20InvalidSender(address(0)) */\n      mload(0x40)\n      0x96c6fd1e00000000000000000000000000000000000000000000000000000000\n      dup2\n      mstore\n      0x04\n      add\n      tag_442\n      swap2\n      swap1\n      tag_90\n      jump\t// in\n    tag_442:\n      mload(0x40)\n      dup1\n      swap2\n      sub\n      swap1\n      revert\n        /* \"@openzeppelin/contracts-upgradeable/token/ERC20/ERC20Upgradeable.sol\":9588:9677  if (account == address(0)) {... */\n    tag_441:\n        /* \"@openzeppelin/contracts-upgradeable/token/ERC20/ERC20Upgradeable.sol\":9686:9721  _update(account, address(0), value) */\n      tag_443\n        /* \"@openzeppelin/contracts-upgradeable/token/ERC20/ERC20Upgradeable.sol\":9694:9701  account */\n      dup3\n        /* \"@openzeppelin/contracts-upgradeable/token/ERC20/ERC20Upgradeable.sol\":9711:9712  0 */\n      0x00\n        /* \"@openzeppelin/contracts-upgradeable/token/ERC20/ERC20Upgradeable.sol\":9715:9720  value */\n      dup4\n        /* \"@openzeppelin/contracts-upgradeable/token/ERC20/ERC20Upgradeable.sol\":9686:9693  _update */\n      tag_439\n        /* \"@openzeppelin/contracts-upgradeable/token/ERC20/ERC20Upgradeable.sol\":9686:9721  _update(account, address(0), value) */\n      jump\t// in\n    tag_443:\n        /* \"@openzeppelin/contracts-upgradeable/token/ERC20/ERC20Upgradeable.sol\":9522:9728  function _burn(address account, uint256 value) internal {... */\n      pop\n      pop\n      jump\t// out\n        /* \"@openzeppelin/contracts-upgradeable/access/OwnableUpgradeable.sol\":3774:4022  function _transferOwnership(address newOwner) internal virtual {... */\n    tag_298:\n        /* \"@openzeppelin/contracts-upgradeable/access/OwnableUpgradeable.sol\":3847:3871  OwnableStorage storage $ */\n      0x00\n        /* \"@openzeppelin/contracts-upgradeable/access/OwnableUpgradeable.sol\":3874:3894  _getOwnableStorage() */\n      tag_445\n        /* \"@openzeppelin/contracts-upgradeable/access/OwnableUpgradeable.sol\":3874:3892  _getOwnableStorage */\n      tag_316\n        /* \"@openzeppelin/contracts-upgradeable/access/OwnableUpgradeable.sol\":3874:3894  _getOwnableStorage() */\n      jump\t// in\n    tag_445:\n        /* \"@openzeppelin/contracts-upgradeable/access/OwnableUpgradeable.sol\":3847:3894  OwnableStorage storage $ = _getOwnableStorage() */\n      swap1\n      pop\n        /* \"@openzeppelin/contracts-upgradeable/access/OwnableUpgradeable.sol\":3904:3920  address oldOwner */\n      0x00\n        /* \"@openzeppelin/contracts-upgradeable/access/OwnableUpgradeable.sol\":3923:3924  $ */\n      dup2\n        /* \"@openzeppelin/contracts-upgradeable/access/OwnableUpgradeable.sol\":3923:3931  $._owner */\n      0x00\n      add\n      0x00\n      swap1\n      sload\n      swap1\n      0x0100\n      exp\n      swap1\n      div\n      0xffffffffffffffffffffffffffffffffffffffff\n      and\n        /* \"@openzeppelin/contracts-upgradeable/access/OwnableUpgradeable.sol\":3904:3931  address oldOwner = $._owner */\n      swap1\n      pop\n        /* \"@openzeppelin/contracts-upgradeable/access/OwnableUpgradeable.sol\":3952:3960  newOwner */\n      dup3\n        /* \"@openzeppelin/contracts-upgradeable/access/OwnableUpgradeable.sol\":3941:3942  $ */\n      dup3\n        /* \"@openzeppelin/contracts-upgradeable/access/OwnableUpgradeable.sol\":3941:3949  $._owner */\n      0x00\n      add\n      0x00\n        /* \"@openzeppelin/contracts-upgradeable/access/OwnableUpgradeable.sol\":3941:3960  $._owner = newOwner */\n      0x0100\n      exp\n      dup2\n      sload\n      dup2\n      0xffffffffffffffffffffffffffffffffffffffff\n      mul\n      not\n      and\n      swap1\n      dup4\n      0xffffffffffffffffffffffffffffffffffffffff\n      and\n      mul\n      or\n      swap1\n      sstore\n      pop\n        /* \"@openzeppelin/contracts-upgradeable/access/OwnableUpgradeable.sol\":4006:4014  newOwner */\n      dup3\n        /* \"@openzeppelin/contracts-upgradeable/access/OwnableUpgradeable.sol\":3975:4015  OwnershipTransferred(oldOwner, newOwner) */\n      0xffffffffffffffffffffffffffffffffffffffff\n      and\n        /* \"@openzeppelin/contracts-upgradeable/access/OwnableUpgradeable.sol\":3996:4004  oldOwner */\n      dup2\n        /* \"@openzeppelin/contracts-upgradeable/access/OwnableUpgradeable.sol\":3975:4015  OwnershipTransferred(oldOwner, newOwner) */\n      0xffffffffffffffffffffffffffffffffffffffff\n      and\n      0x8be0079c531659141344cd1fd0a4f28419497f9722a3daafe3b4186f6b6457e0\n      mload(0x40)\n      mload(0x40)\n      dup1\n      swap2\n      sub\n      swap1\n      log3\n        /* \"@openzeppelin/contracts-upgradeable/access/OwnableUpgradeable.sol\":3837:4022  {... */\n      pop\n      pop\n        /* \"@openzeppelin/contracts-upgradeable/access/OwnableUpgradeable.sol\":3774:4022  function _transferOwnership(address newOwner) internal virtual {... */\n      pop\n      jump\t// out\n        /* \"@openzeppelin/contracts-upgradeable/security/PausableUpgradeable.sol\":2450:2565  function _pause() internal virtual whenNotPaused {... */\n    tag_313:\n        /* \"@openzeppelin/contracts-upgradeable/security/PausableUpgradeable.sol\":1503:1522  _requireNotPaused() */\n      tag_447\n        /* \"@openzeppelin/contracts-upgradeable/security/PausableUpgradeable.sol\":1503:1520  _requireNotPaused */\n      tag_217\n        /* \"@openzeppelin/contracts-upgradeable/security/PausableUpgradeable.sol\":1503:1522  _requireNotPaused() */\n      jump\t// in\n    tag_447:\n        /* \"@openzeppelin/contracts-upgradeable/security/PausableUpgradeable.sol\":2519:2523  true */\n      0x01\n        /* \"@openzeppelin/contracts-upgradeable/security/PausableUpgradeable.sol\":2509:2516  _paused */\n      0x00\n      dup1\n        /* \"@openzeppelin/contracts-upgradeable/security/PausableUpgradeable.sol\":2509:2523  _paused = true */\n      0x0100\n      exp\n      dup2\n      sload\n      dup2\n      0xff\n      mul\n      not\n      and\n      swap1\n      dup4\n      iszero\n      iszero\n      mul\n      or\n      swap1\n      sstore\n      pop\n        /* \"@openzeppelin/contracts-upgradeable/security/PausableUpgradeable.sol\":2538:2558  Paused(_msgSender()) */\n      0x62e78cea01bee320cd4e420270b5ea74000d11b0c9f74754ebdbfc544b05a258\n        /* \"@openzeppelin/contracts-upgradeable/security/PausableUpgradeable.sol\":2545:2557  _msgSender() */\n      tag_449\n        /* \"@openzeppelin/contracts-upgradeable/security/PausableUpgradeable.sol\":2545:2555  _msgSender */\n      tag_197\n        /* \"@openzeppelin/contracts-upgradeable/security/PausableUpgradeable.sol\":2545:2557  _msgSender() */\n      jump\t// in\n    tag_449:\n        /* \"@openzeppelin/contracts-upgradeable/security/PausableUpgradeable.sol\":2538:2558  Paused(_msgSender()) */\n      mload(0x40)\n      tag_450\n      swap2\n      swap1\n      tag_90\n      jump\t// in\n    tag_450:\n      mload(0x40)\n      dup1\n      swap2\n      sub\n      swap1\n      log1\n        /* \"@openzeppelin/contracts-upgradeable/security/PausableUpgradeable.sol\":2450:2565  function _pause() internal virtual whenNotPaused {... */\n      jump\t// out\n        /* \"@openzeppelin/contracts-upgradeable/access/OwnableUpgradeable.sol\":1192:1351  function _getOwnableStorage() private pure returns (OwnableStorage storage $) {... */\n    tag_316:\n        /* \"@openzeppelin/contracts-upgradeable/access/OwnableUpgradeable.sol\":1244:1268  OwnableStorage storage $ */\n      0x00\n        /* \"@openzeppelin/contracts-upgradeable/access/OwnableUpgradeable.sol\":1313:1335  OwnableStorageLocation */\n      0x9016d09d72d40fdae2fd8ceac6b6234c7706214fd39c1cd1e609a0528c199300\n        /* \"@openzeppelin/contracts-upgradeable/access/OwnableUpgradeable.sol\":1303:1335  $.slot := OwnableStorageLocation */\n      swap1\n      pop\n        /* \"@openzeppelin/contracts-upgradeable/access/OwnableUpgradeable.sol\":1192:1351  function _getOwnableStorage() private pure returns (OwnableStorage storage $) {... */\n      swap1\n      jump\t// out\n        /* \"@openzeppelin/contracts-upgradeable/proxy/utils/Initializable.sol\":8737:8907  function _getInitializableStorage() private pure returns (InitializableStorage storage $) {... */\n    tag_349:\n        /* \"@openzeppelin/contracts-upgradeable/proxy/utils/Initializable.sol\":8795:8825  InitializableStorage storage $ */\n      0x00\n        /* \"@openzeppelin/contracts-upgradeable/proxy/utils/Initializable.sol\":8870:8891  INITIALIZABLE_STORAGE */\n      0xf0c57e16840df040f15088dc2f81fe391c3923bec73e23a9662efc9c229c6a00\n        /* \"@openzeppelin/contracts-upgradeable/proxy/utils/Initializable.sol\":8860:8891  $.slot := INITIALIZABLE_STORAGE */\n      swap1\n      pop\n        /* \"@openzeppelin/contracts-upgradeable/proxy/utils/Initializable.sol\":8737:8907  function _getInitializableStorage() private pure returns (InitializableStorage storage $) {... */\n      swap1\n      jump\t// out\n        /* \"@openzeppelin/contracts-upgradeable/token/ERC20/ERC20Upgradeable.sol\":2577:2724  function __ERC20_init(string memory name_, string memory symbol_) internal onlyInitializing {... */\n    tag_357:\n        /* \"@openzeppelin/contracts-upgradeable/proxy/utils/Initializable.sol\":6931:6951  _checkInitializing() */\n      tag_454\n        /* \"@openzeppelin/contracts-upgradeable/proxy/utils/Initializable.sol\":6931:6949  _checkInitializing */\n      tag_455\n        /* \"@openzeppelin/contracts-upgradeable/proxy/utils/Initializable.sol\":6931:6951  _checkInitializing() */\n      jump\t// in\n    tag_454:\n        /* \"@openzeppelin/contracts-upgradeable/token/ERC20/ERC20Upgradeable.sol\":2679:2717  __ERC20_init_unchained(name_, symbol_) */\n      tag_457\n        /* \"@openzeppelin/contracts-upgradeable/token/ERC20/ERC20Upgradeable.sol\":2702:2707  name_ */\n      dup3\n        /* \"@openzeppelin/contracts-upgradeable/token/ERC20/ERC20Upgradeable.sol\":2709:2716  symbol_ */\n      dup3\n        /* \"@openzeppelin/contracts-upgradeable/token/ERC20/ERC20Upgradeable.sol\":2679:2701  __ERC20_init_unchained */\n      tag_458\n        /* \"@openzeppelin/contracts-upgradeable/token/ERC20/ERC20Upgradeable.sol\":2679:2717  __ERC20_init_unchained(name_, symbol_) */\n      jump\t// in\n    tag_457:\n        /* \"@openzeppelin/contracts-upgradeable/token/ERC20/ERC20Upgradeable.sol\":2577:2724  function __ERC20_init(string memory name_, string memory symbol_) internal onlyInitializing {... */\n      pop\n      pop\n      jump\t// out\n        /* \"@openzeppelin/contracts-upgradeable/access/OwnableUpgradeable.sol\":1847:1974  function __Ownable_init(address initialOwner) internal onlyInitializing {... */\n    tag_359:\n        /* \"@openzeppelin/contracts-upgradeable/proxy/utils/Initializable.sol\":6931:6951  _checkInitializing() */\n      tag_460\n        /* \"@openzeppelin/contracts-upgradeable/proxy/utils/Initializable.sol\":6931:6949  _checkInitializing */\n      tag_455\n        /* \"@openzeppelin/contracts-upgradeable/proxy/utils/Initializable.sol\":6931:6951  _checkInitializing() */\n      jump\t// in\n    tag_460:\n        /* \"@openzeppelin/contracts-upgradeable/access/OwnableUpgradeable.sol\":1929:1967  __Ownable_init_unchained(initialOwner) */\n      tag_462\n        /* \"@openzeppelin/contracts-upgradeable/access/OwnableUpgradeable.sol\":1954:1966  initialOwner */\n      dup2\n        /* \"@openzeppelin/contracts-upgradeable/access/OwnableUpgradeable.sol\":1929:1953  __Ownable_init_unchained */\n      tag_463\n        /* \"@openzeppelin/contracts-upgradeable/access/OwnableUpgradeable.sol\":1929:1967  __Ownable_init_unchained(initialOwner) */\n      jump\t// in\n    tag_462:\n        /* \"@openzeppelin/contracts-upgradeable/access/OwnableUpgradeable.sol\":1847:1974  function __Ownable_init(address initialOwner) internal onlyInitializing {... */\n      pop\n      jump\t// out\n        /* \"@openzeppelin/contracts-upgradeable/security/PausableUpgradeable.sol\":1084:1181  function __Pausable_init() internal onlyInitializing {... */\n    tag_361:\n        /* \"@openzeppelin/contracts-upgradeable/proxy/utils/Initializable.sol\":6931:6951  _checkInitializing() */\n      tag_465\n        /* \"@openzeppelin/contracts-upgradeable/proxy/utils/Initializable.sol\":6931:6949  _checkInitializing */\n      tag_455\n        /* \"@openzeppelin/contracts-upgradeable/proxy/utils/Initializable.sol\":6931:6951  _checkInitializing() */\n      jump\t// in\n    tag_465:\n        /* \"@openzeppelin/contracts-upgradeable/security/PausableUpgradeable.sol\":1147:1174  __Pausable_init_unchained() */\n      tag_467\n        /* \"@openzeppelin/contracts-upgradeable/security/PausableUpgradeable.sol\":1147:1172  __Pausable_init_unchained */\n      tag_468\n        /* \"@openzeppelin/contracts-upgradeable/security/PausableUpgradeable.sol\":1147:1174  __Pausable_init_unchained() */\n      jump\t// in\n    tag_467:\n        /* \"@openzeppelin/contracts-upgradeable/security/PausableUpgradeable.sol\":1084:1181  function __Pausable_init() internal onlyInitializing {... */\n      jump\t// out\n        /* \"@openzeppelin/contracts-upgradeable/token/ERC20/ERC20Upgradeable.sol\":11224:11711  function _approve(address owner, address spender, uint256 value, bool emitEvent) internal virtual {... */\n    tag_385:\n        /* \"@openzeppelin/contracts-upgradeable/token/ERC20/ERC20Upgradeable.sol\":11332:11354  ERC20Storage storage $ */\n      0x00\n        /* \"@openzeppelin/contracts-upgradeable/token/ERC20/ERC20Upgradeable.sol\":11357:11375  _getERC20Storage() */\n      tag_470\n        /* \"@openzeppelin/contracts-upgradeable/token/ERC20/ERC20Upgradeable.sol\":11357:11373  _getERC20Storage */\n      tag_188\n        /* \"@openzeppelin/contracts-upgradeable/token/ERC20/ERC20Upgradeable.sol\":11357:11375  _getERC20Storage() */\n      jump\t// in\n    tag_470:\n        /* \"@openzeppelin/contracts-upgradeable/token/ERC20/ERC20Upgradeable.sol\":11332:11375  ERC20Storage storage $ = _getERC20Storage() */\n      swap1\n      pop\n        /* \"@openzeppelin/contracts-upgradeable/token/ERC20/ERC20Upgradeable.sol\":11406:11407  0 */\n      0x00\n        /* \"@openzeppelin/contracts-upgradeable/token/ERC20/ERC20Upgradeable.sol\":11389:11408  owner == address(0) */\n      0xffffffffffffffffffffffffffffffffffffffff\n      and\n        /* \"@openzeppelin/contracts-upgradeable/token/ERC20/ERC20Upgradeable.sol\":11389:11394  owner */\n      dup6\n        /* \"@openzeppelin/contracts-upgradeable/token/ERC20/ERC20Upgradeable.sol\":11389:11408  owner == address(0) */\n      0xffffffffffffffffffffffffffffffffffffffff\n      and\n      sub\n        /* \"@openzeppelin/contracts-upgradeable/token/ERC20/ERC20Upgradeable.sol\":11385:11474  if (owner == address(0)) {... */\n      tag_471\n      jumpi\n        /* \"@openzeppelin/contracts-upgradeable/token/ERC20/ERC20Upgradeable.sol\":11460:11461  0 */\n      0x00\n        /* \"@openzeppelin/contracts-upgradeable/token/ERC20/ERC20Upgradeable.sol\":11431:11463  ERC20InvalidApprover(address(0)) */\n      mload(0x40)\n      0xe602df0500000000000000000000000000000000000000000000000000000000\n      dup2\n      mstore\n      0x04\n      add\n      tag_472\n      swap2\n      swap1\n      tag_90\n      jump\t// in\n    tag_472:\n      mload(0x40)\n      dup1\n      swap2\n      sub\n      swap1\n      revert\n        /* \"@openzeppelin/contracts-upgradeable/token/ERC20/ERC20Upgradeable.sol\":11385:11474  if (owner == address(0)) {... */\n    tag_471:\n        /* \"@openzeppelin/contracts-upgradeable/token/ERC20/ERC20Upgradeable.sol\":11506:11507  0 */\n      0x00\n        /* \"@openzeppelin/contracts-upgradeable/token/ERC20/ERC20Upgradeable.sol\":11487:11508  spender == address(0) */\n      0xffffffffffffffffffffffffffffffffffffffff\n      and\n        /* \"@openzeppelin/contracts-upgradeable/token/ERC20/ERC20Upgradeable.sol\":11487:11494  spender */\n      dup5\n        /* \"@openzeppelin/contracts-upgradeable/token/ERC20/ERC20Upgradeable.sol\":11487:11508  spender == address(0) */\n      0xffffffffffffffffffffffffffffffffffffffff\n      and\n      sub\n        /* \"@openzeppelin/contracts-upgradeable/token/ERC20/ERC20Upgradeable.sol\":11483:11573  if (spender == address(0)) {... */\n      tag_473\n      jumpi\n        /* \"@openzeppelin/contracts-upgradeable/token/ERC20/ERC20Upgradeable.sol\":11559:11560  0 */\n      0x00\n        /* \"@openzeppelin/contracts-upgradeable/token/ERC20/ERC20Upgradeable.sol\":11531:11562  ERC20InvalidSpender(address(0)) */\n      mload(0x40)\n      0x94280d6200000000000000000000000000000000000000000000000000000000\n      dup2\n      mstore\n      0x04\n      add\n      tag_474\n      swap2\n      swap1\n      tag_90\n      jump\t// in\n    tag_474:\n      mload(0x40)\n      dup1\n      swap2\n      sub\n      swap1\n      revert\n        /* \"@openzeppelin/contracts-upgradeable/token/ERC20/ERC20Upgradeable.sol\":11483:11573  if (spender == address(0)) {... */\n    tag_473:\n        /* \"@openzeppelin/contracts-upgradeable/token/ERC20/ERC20Upgradeable.sol\":11614:11619  value */\n      dup3\n        /* \"@openzeppelin/contracts-upgradeable/token/ERC20/ERC20Upgradeable.sol\":11582:11583  $ */\n      dup2\n        /* \"@openzeppelin/contracts-upgradeable/token/ERC20/ERC20Upgradeable.sol\":11582:11595  $._allowances */\n      0x01\n      add\n        /* \"@openzeppelin/contracts-upgradeable/token/ERC20/ERC20Upgradeable.sol\":11582:11602  $._allowances[owner] */\n      0x00\n        /* \"@openzeppelin/contracts-upgradeable/token/ERC20/ERC20Upgradeable.sol\":11596:11601  owner */\n      dup8\n        /* \"@openzeppelin/contracts-upgradeable/token/ERC20/ERC20Upgradeable.sol\":11582:11602  $._allowances[owner] */\n      0xffffffffffffffffffffffffffffffffffffffff\n      and\n      0xffffffffffffffffffffffffffffffffffffffff\n      and\n      dup2\n      mstore\n      0x20\n      add\n      swap1\n      dup2\n      mstore\n      0x20\n      add\n      0x00\n      keccak256\n        /* \"@openzeppelin/contracts-upgradeable/token/ERC20/ERC20Upgradeable.sol\":11582:11611  $._allowances[owner][spender] */\n      0x00\n        /* \"@openzeppelin/contracts-upgradeable/token/ERC20/ERC20Upgradeable.sol\":11603:11610  spender */\n      dup7\n        /* \"@openzeppelin/contracts-upgradeable/token/ERC20/ERC20Upgradeable.sol\":11582:11611  $._allowances[owner][spender] */\n      0xffffffffffffffffffffffffffffffffffffffff\n      and\n      0xffffffffffffffffffffffffffffffffffffffff\n      and\n      dup2\n      mstore\n      0x20\n      add\n      swap1\n      dup2\n      mstore\n      0x20\n      add\n      0x00\n      keccak256\n        /* \"@openzeppelin/contracts-upgradeable/token/ERC20/ERC20Upgradeable.sol\":11582:11619  $._allowances[owner][spender] = value */\n      dup2\n      swap1\n      sstore\n      pop\n        /* \"@openzeppelin/contracts-upgradeable/token/ERC20/ERC20Upgradeable.sol\":11633:11642  emitEvent */\n      dup2\n        /* \"@openzeppelin/contracts-upgradeable/token/ERC20/ERC20Upgradeable.sol\":11629:11705  if (emitEvent) {... */\n      iszero\n      tag_475\n      jumpi\n        /* \"@openzeppelin/contracts-upgradeable/token/ERC20/ERC20Upgradeable.sol\":11679:11686  spender */\n      dup4\n        /* \"@openzeppelin/contracts-upgradeable/token/ERC20/ERC20Upgradeable.sol\":11663:11694  Approval(owner, spender, value) */\n      0xffffffffffffffffffffffffffffffffffffffff\n      and\n        /* \"@openzeppelin/contracts-upgradeable/token/ERC20/ERC20Upgradeable.sol\":11672:11677  owner */\n      dup6\n        /* \"@openzeppelin/contracts-upgradeable/token/ERC20/ERC20Upgradeable.sol\":11663:11694  Approval(owner, spender, value) */\n      0xffffffffffffffffffffffffffffffffffffffff\n      and\n      0x8c5be1e5ebec7d5bd14f71427d1e84f3dd0314c0f7b2291e5b200ac8c7c3b925\n        /* \"@openzeppelin/contracts-upgradeable/token/ERC20/ERC20Upgradeable.sol\":11688:11693  value */\n      dup6\n        /* \"@openzeppelin/contracts-upgradeable/token/ERC20/ERC20Upgradeable.sol\":11663:11694  Approval(owner, spender, value) */\n      mload(0x40)\n      tag_476\n      swap2\n      swap1\n      tag_64\n      jump\t// in\n    tag_476:\n      mload(0x40)\n      dup1\n      swap2\n      sub\n      swap1\n      log3\n        /* \"@openzeppelin/contracts-upgradeable/token/ERC20/ERC20Upgradeable.sol\":11629:11705  if (emitEvent) {... */\n    tag_475:\n        /* \"@openzeppelin/contracts-upgradeable/token/ERC20/ERC20Upgradeable.sol\":11322:11711  {... */\n      pop\n        /* \"@openzeppelin/contracts-upgradeable/token/ERC20/ERC20Upgradeable.sol\":11224:11711  function _approve(address owner, address spender, uint256 value, bool emitEvent) internal virtual {... */\n      pop\n      pop\n      pop\n      pop\n      jump\t// out\n        /* \"@openzeppelin/contracts-upgradeable/token/ERC20/ERC20Upgradeable.sol\":6868:7168  function _transfer(address from, address to, uint256 value) internal {... */\n    tag_421:\n        /* \"@openzeppelin/contracts-upgradeable/token/ERC20/ERC20Upgradeable.sol\":6967:6968  0 */\n      0x00\n        /* \"@openzeppelin/contracts-upgradeable/token/ERC20/ERC20Upgradeable.sol\":6951:6969  from == address(0) */\n      0xffffffffffffffffffffffffffffffffffffffff\n      and\n        /* \"@openzeppelin/contracts-upgradeable/token/ERC20/ERC20Upgradeable.sol\":6951:6955  from */\n      dup4\n        /* \"@openzeppelin/contracts-upgradeable/token/ERC20/ERC20Upgradeable.sol\":6951:6969  from == address(0) */\n      0xffffffffffffffffffffffffffffffffffffffff\n      and\n      sub\n        /* \"@openzeppelin/contracts-upgradeable/token/ERC20/ERC20Upgradeable.sol\":6947:7033  if (from == address(0)) {... */\n      tag_478\n      jumpi\n        /* \"@openzeppelin/contracts-upgradeable/token/ERC20/ERC20Upgradeable.sol\":7019:7020  0 */\n      0x00\n        /* \"@openzeppelin/contracts-upgradeable/token/ERC20/ERC20Upgradeable.sol\":6992:7022  ERC20InvalidSender(address(0)) */\n      mload(0x40)\n      0x96c6fd1e00000000000000000000000000000000000000000000000000000000\n      dup2\n      mstore\n      0x04\n      add\n      tag_479\n      swap2\n      swap1\n      tag_90\n      jump\t// in\n    tag_479:\n      mload(0x40)\n      dup1\n      swap2\n      sub\n      swap1\n      revert\n        /* \"@openzeppelin/contracts-upgradeable/token/ERC20/ERC20Upgradeable.sol\":6947:7033  if (from == address(0)) {... */\n    tag_478:\n        /* \"@openzeppelin/contracts-upgradeable/token/ERC20/ERC20Upgradeable.sol\":7060:7061  0 */\n      0x00\n        /* \"@openzeppelin/contracts-upgradeable/token/ERC20/ERC20Upgradeable.sol\":7046:7062  to == address(0) */\n      0xffffffffffffffffffffffffffffffffffffffff\n      and\n        /* \"@openzeppelin/contracts-upgradeable/token/ERC20/ERC20Upgradeable.sol\":7046:7048  to */\n      dup3\n        /* \"@openzeppelin/contracts-upgradeable/token/ERC20/ERC20Upgradeable.sol\":7046:7062  to == address(0) */\n      0xffffffffffffffffffffffffffffffffffffffff\n      and\n      sub\n        /* \"@openzeppelin/contracts-upgradeable/token/ERC20/ERC20Upgradeable.sol\":7042:7128  if (to == address(0)) {... */\n      tag_480\n      jumpi\n        /* \"@openzeppelin/contracts-upgradeable/token/ERC20/ERC20Upgradeable.sol\":7114:7115  0 */\n      0x00\n        /* \"@openzeppelin/contracts-upgradeable/token/ERC20/ERC20Upgradeable.sol\":7085:7117  ERC20InvalidReceiver(address(0)) */\n      mload(0x40)\n      0xec442f0500000000000000000000000000000000000000000000000000000000\n      dup2\n      mstore\n      0x04\n      add\n      tag_481\n      swap2\n      swap1\n      tag_90\n      jump\t// in\n    tag_481:\n      mload(0x40)\n      dup1\n      swap2\n      sub\n      swap1\n      revert\n        /* \"@openzeppelin/contracts-upgradeable/token/ERC20/ERC20Upgradeable.sol\":7042:7128  if (to == address(0)) {... */\n    tag_480:\n        /* \"@openzeppelin/contracts-upgradeable/token/ERC20/ERC20Upgradeable.sol\":7137:7161  _update(from, to, value) */\n      tag_482\n        /* \"@openzeppelin/contracts-upgradeable/token/ERC20/ERC20Upgradeable.sol\":7145:7149  from */\n      dup4\n        /* \"@openzeppelin/contracts-upgradeable/token/ERC20/ERC20Upgradeable.sol\":7151:7153  to */\n      dup4\n        /* \"@openzeppelin/contracts-upgradeable/token/ERC20/ERC20Upgradeable.sol\":7155:7160  value */\n      dup4\n        /* \"@openzeppelin/contracts-upgradeable/token/ERC20/ERC20Upgradeable.sol\":7137:7144  _update */\n      tag_439\n        /* \"@openzeppelin/contracts-upgradeable/token/ERC20/ERC20Upgradeable.sol\":7137:7161  _update(from, to, value) */\n      jump\t// in\n    tag_482:\n        /* \"@openzeppelin/contracts-upgradeable/token/ERC20/ERC20Upgradeable.sol\":6868:7168  function _transfer(address from, address to, uint256 value) internal {... */\n      pop\n      pop\n      pop\n      jump\t// out\n        /* \"GIFT.sol\":6384:6680  function _computeTax(uint256 _amount) internal view returns (uint256) {... */\n    tag_424:\n        /* \"GIFT.sol\":6445:6452  uint256 */\n      0x00\n        /* \"GIFT.sol\":6470:6476  uint i */\n      dup1\n        /* \"GIFT.sol\":6479:6480  0 */\n      0x00\n        /* \"GIFT.sol\":6470:6480  uint i = 0 */\n      swap1\n      pop\n        /* \"GIFT.sol\":6465:6632  for (uint i = 0; i < 5; i++) {... */\n    tag_484:\n        /* \"GIFT.sol\":6486:6487  5 */\n      0x05\n        /* \"GIFT.sol\":6482:6483  i */\n      dup2\n        /* \"GIFT.sol\":6482:6487  i < 5 */\n      lt\n        /* \"GIFT.sol\":6465:6632  for (uint i = 0; i < 5; i++) {... */\n      iszero\n      tag_485\n      jumpi\n        /* \"GIFT.sol\":6524:6532  taxTiers */\n      0x38\n        /* \"GIFT.sol\":6533:6534  i */\n      dup2\n        /* \"GIFT.sol\":6524:6535  taxTiers[i] */\n      0x05\n      dup2\n      lt\n      tag_487\n      jumpi\n      tag_488\n      tag_262\n      jump\t// in\n    tag_488:\n    tag_487:\n      add\n      sload\n        /* \"GIFT.sol\":6513:6520  _amount */\n      dup4\n        /* \"GIFT.sol\":6513:6535  _amount <= taxTiers[i] */\n      gt\n        /* \"GIFT.sol\":6509:6621  if (_amount <= taxTiers[i]) {... */\n      tag_490\n      jumpi\n        /* \"GIFT.sol\":6563:6605  _amount.mul(taxPercentages[i]).div(100000) */\n      tag_491\n        /* \"GIFT.sol\":6598:6604  100000 */\n      0x0186a0\n        /* \"GIFT.sol\":6563:6593  _amount.mul(taxPercentages[i]) */\n      tag_492\n        /* \"GIFT.sol\":6575:6589  taxPercentages */\n      0x3d\n        /* \"GIFT.sol\":6590:6591  i */\n      dup5\n        /* \"GIFT.sol\":6575:6592  taxPercentages[i] */\n      0x05\n      dup2\n      lt\n      tag_493\n      jumpi\n      tag_494\n      tag_262\n      jump\t// in\n    tag_494:\n    tag_493:\n      add\n      sload\n        /* \"GIFT.sol\":6563:6570  _amount */\n      dup7\n        /* \"GIFT.sol\":6563:6574  _amount.mul */\n      tag_496\n      swap1\n        /* \"GIFT.sol\":6563:6593  _amount.mul(taxPercentages[i]) */\n      swap2\n      swap1\n      0xffffffff\n      and\n      jump\t// in\n    tag_492:\n        /* \"GIFT.sol\":6563:6597  _amount.mul(taxPercentages[i]).div */\n      tag_497\n      swap1\n        /* \"GIFT.sol\":6563:6605  _amount.mul(taxPercentages[i]).div(100000) */\n      swap2\n      swap1\n      0xffffffff\n      and\n      jump\t// in\n    tag_491:\n        /* \"GIFT.sol\":6556:6605  return _amount.mul(taxPercentages[i]).div(100000) */\n      swap2\n      pop\n      pop\n      jump(tag_483)\n        /* \"GIFT.sol\":6509:6621  if (_amount <= taxTiers[i]) {... */\n    tag_490:\n        /* \"GIFT.sol\":6489:6492  i++ */\n      dup1\n      dup1\n      tag_498\n      swap1\n      tag_285\n      jump\t// in\n    tag_498:\n      swap2\n      pop\n      pop\n        /* \"GIFT.sol\":6465:6632  for (uint i = 0; i < 5; i++) {... */\n      jump(tag_484)\n    tag_485:\n      pop\n        /* \"GIFT.sol\":6642:6672  revert(\"GIFT: Invalid amount\") */\n      mload(0x40)\n      0x08c379a000000000000000000000000000000000000000000000000000000000\n      dup2\n      mstore\n      0x04\n      add\n      tag_499\n      swap1\n      tag_500\n      jump\t// in\n    tag_499:\n      mload(0x40)\n      dup1\n      swap2\n      sub\n      swap1\n      revert\n        /* \"GIFT.sol\":6384:6680  function _computeTax(uint256 _amount) internal view returns (uint256) {... */\n    tag_483:\n      swap2\n      swap1\n      pop\n      jump\t// out\n        /* \"@openzeppelin/contracts-upgradeable/utils/math/SafeMathUpgradeable.sol\":3133:3229  function sub(uint256 a, uint256 b) internal pure returns (uint256) {... */\n    tag_428:\n        /* \"@openzeppelin/contracts-upgradeable/utils/math/SafeMathUpgradeable.sol\":3191:3198  uint256 */\n      0x00\n        /* \"@openzeppelin/contracts-upgradeable/utils/math/SafeMathUpgradeable.sol\":3221:3222  b */\n      dup2\n        /* \"@openzeppelin/contracts-upgradeable/utils/math/SafeMathUpgradeable.sol\":3217:3218  a */\n      dup4\n        /* \"@openzeppelin/contracts-upgradeable/utils/math/SafeMathUpgradeable.sol\":3217:3222  a - b */\n      tag_502\n      swap2\n      swap1\n      tag_276\n      jump\t// in\n    tag_502:\n        /* \"@openzeppelin/contracts-upgradeable/utils/math/SafeMathUpgradeable.sol\":3210:3222  return a - b */\n      swap1\n      pop\n        /* \"@openzeppelin/contracts-upgradeable/utils/math/SafeMathUpgradeable.sol\":3133:3229  function sub(uint256 a, uint256 b) internal pure returns (uint256) {... */\n      swap3\n      swap2\n      pop\n      pop\n      jump\t// out\n        /* \"@openzeppelin/contracts-upgradeable/security/PausableUpgradeable.sol\":2209:2315  function _requirePaused() internal view virtual {... */\n    tag_431:\n        /* \"@openzeppelin/contracts-upgradeable/security/PausableUpgradeable.sol\":2275:2283  paused() */\n      tag_504\n        /* \"@openzeppelin/contracts-upgradeable/security/PausableUpgradeable.sol\":2275:2281  paused */\n      tag_107\n        /* \"@openzeppelin/contracts-upgradeable/security/PausableUpgradeable.sol\":2275:2283  paused() */\n      jump\t// in\n    tag_504:\n        /* \"@openzeppelin/contracts-upgradeable/security/PausableUpgradeable.sol\":2267:2308  require(paused(), \"Pausable: not paused\") */\n      tag_505\n      jumpi\n      mload(0x40)\n      0x08c379a000000000000000000000000000000000000000000000000000000000\n      dup2\n      mstore\n      0x04\n      add\n      tag_506\n      swap1\n      tag_507\n      jump\t// in\n    tag_506:\n      mload(0x40)\n      dup1\n      swap2\n      sub\n      swap1\n      revert\n    tag_505:\n        /* \"@openzeppelin/contracts-upgradeable/security/PausableUpgradeable.sol\":2209:2315  function _requirePaused() internal view virtual {... */\n      jump\t// out\n        /* \"@openzeppelin/contracts-upgradeable/token/ERC20/ERC20Upgradeable.sol\":7483:8653  function _update(address from, address to, uint256 value) internal virtual {... */\n    tag_439:\n        /* \"@openzeppelin/contracts-upgradeable/token/ERC20/ERC20Upgradeable.sol\":7568:7590  ERC20Storage storage $ */\n      0x00\n        /* \"@openzeppelin/contracts-upgradeable/token/ERC20/ERC20Upgradeable.sol\":7593:7611  _getERC20Storage() */\n      tag_509\n        /* \"@openzeppelin/contracts-upgradeable/token/ERC20/ERC20Upgradeable.sol\":7593:7609  _getERC20Storage */\n      tag_188\n        /* \"@openzeppelin/contracts-upgradeable/token/ERC20/ERC20Upgradeable.sol\":7593:7611  _getERC20Storage() */\n      jump\t// in\n    tag_509:\n        /* \"@openzeppelin/contracts-upgradeable/token/ERC20/ERC20Upgradeable.sol\":7568:7611  ERC20Storage storage $ = _getERC20Storage() */\n      swap1\n      pop\n        /* \"@openzeppelin/contracts-upgradeable/token/ERC20/ERC20Upgradeable.sol\":7641:7642  0 */\n      0x00\n        /* \"@openzeppelin/contracts-upgradeable/token/ERC20/ERC20Upgradeable.sol\":7625:7643  from == address(0) */\n      0xffffffffffffffffffffffffffffffffffffffff\n      and\n        /* \"@openzeppelin/contracts-upgradeable/token/ERC20/ERC20Upgradeable.sol\":7625:7629  from */\n      dup5\n        /* \"@openzeppelin/contracts-upgradeable/token/ERC20/ERC20Upgradeable.sol\":7625:7643  from == address(0) */\n      0xffffffffffffffffffffffffffffffffffffffff\n      and\n      sub\n        /* \"@openzeppelin/contracts-upgradeable/token/ERC20/ERC20Upgradeable.sol\":7621:8167  if (from == address(0)) {... */\n      tag_510\n      jumpi\n        /* \"@openzeppelin/contracts-upgradeable/token/ERC20/ERC20Upgradeable.sol\":7779:7784  value */\n      dup2\n        /* \"@openzeppelin/contracts-upgradeable/token/ERC20/ERC20Upgradeable.sol\":7761:7762  $ */\n      dup2\n        /* \"@openzeppelin/contracts-upgradeable/token/ERC20/ERC20Upgradeable.sol\":7761:7775  $._totalSupply */\n      0x02\n      add\n      0x00\n        /* \"@openzeppelin/contracts-upgradeable/token/ERC20/ERC20Upgradeable.sol\":7761:7784  $._totalSupply += value */\n      dup3\n      dup3\n      sload\n      tag_511\n      swap2\n      swap1\n      tag_399\n      jump\t// in\n    tag_511:\n      swap3\n      pop\n      pop\n      dup2\n      swap1\n      sstore\n      pop\n        /* \"@openzeppelin/contracts-upgradeable/token/ERC20/ERC20Upgradeable.sol\":7621:8167  if (from == address(0)) {... */\n      jump(tag_512)\n    tag_510:\n        /* \"@openzeppelin/contracts-upgradeable/token/ERC20/ERC20Upgradeable.sol\":7815:7834  uint256 fromBalance */\n      0x00\n        /* \"@openzeppelin/contracts-upgradeable/token/ERC20/ERC20Upgradeable.sol\":7837:7838  $ */\n      dup2\n        /* \"@openzeppelin/contracts-upgradeable/token/ERC20/ERC20Upgradeable.sol\":7837:7848  $._balances */\n      0x00\n      add\n        /* \"@openzeppelin/contracts-upgradeable/token/ERC20/ERC20Upgradeable.sol\":7837:7854  $._balances[from] */\n      0x00\n        /* \"@openzeppelin/contracts-upgradeable/token/ERC20/ERC20Upgradeable.sol\":7849:7853  from */\n      dup7\n        /* \"@openzeppelin/contracts-upgradeable/token/ERC20/ERC20Upgradeable.sol\":7837:7854  $._balances[from] */\n      0xffffffffffffffffffffffffffffffffffffffff\n      and\n      0xffffffffffffffffffffffffffffffffffffffff\n      and\n      dup2\n      mstore\n      0x20\n      add\n      swap1\n      dup2\n      mstore\n      0x20\n      add\n      0x00\n      keccak256\n      sload\n        /* \"@openzeppelin/contracts-upgradeable/token/ERC20/ERC20Upgradeable.sol\":7815:7854  uint256 fromBalance = $._balances[from] */\n      swap1\n      pop\n        /* \"@openzeppelin/contracts-upgradeable/token/ERC20/ERC20Upgradeable.sol\":7886:7891  value */\n      dup3\n        /* \"@openzeppelin/contracts-upgradeable/token/ERC20/ERC20Upgradeable.sol\":7872:7883  fromBalance */\n      dup2\n        /* \"@openzeppelin/contracts-upgradeable/token/ERC20/ERC20Upgradeable.sol\":7872:7891  fromBalance < value */\n      lt\n        /* \"@openzeppelin/contracts-upgradeable/token/ERC20/ERC20Upgradeable.sol\":7868:7983  if (fromBalance < value) {... */\n      iszero\n      tag_513\n      jumpi\n        /* \"@openzeppelin/contracts-upgradeable/token/ERC20/ERC20Upgradeable.sol\":7943:7947  from */\n      dup5\n        /* \"@openzeppelin/contracts-upgradeable/token/ERC20/ERC20Upgradeable.sol\":7949:7960  fromBalance */\n      dup2\n        /* \"@openzeppelin/contracts-upgradeable/token/ERC20/ERC20Upgradeable.sol\":7962:7967  value */\n      dup5\n        /* \"@openzeppelin/contracts-upgradeable/token/ERC20/ERC20Upgradeable.sol\":7918:7968  ERC20InsufficientBalance(from, fromBalance, value) */\n      mload(0x40)\n      0xe450d38c00000000000000000000000000000000000000000000000000000000\n      dup2\n      mstore\n      0x04\n      add\n      tag_514\n      swap4\n      swap3\n      swap2\n      swap1\n      tag_515\n      jump\t// in\n    tag_514:\n      mload(0x40)\n      dup1\n      swap2\n      sub\n      swap1\n      revert\n        /* \"@openzeppelin/contracts-upgradeable/token/ERC20/ERC20Upgradeable.sol\":7868:7983  if (fromBalance < value) {... */\n    tag_513:\n        /* \"@openzeppelin/contracts-upgradeable/token/ERC20/ERC20Upgradeable.sol\":8137:8142  value */\n      dup3\n        /* \"@openzeppelin/contracts-upgradeable/token/ERC20/ERC20Upgradeable.sol\":8123:8134  fromBalance */\n      dup2\n        /* \"@openzeppelin/contracts-upgradeable/token/ERC20/ERC20Upgradeable.sol\":8123:8142  fromBalance - value */\n      sub\n        /* \"@openzeppelin/contracts-upgradeable/token/ERC20/ERC20Upgradeable.sol\":8103:8104  $ */\n      dup3\n        /* \"@openzeppelin/contracts-upgradeable/token/ERC20/ERC20Upgradeable.sol\":8103:8114  $._balances */\n      0x00\n      add\n        /* \"@openzeppelin/contracts-upgradeable/token/ERC20/ERC20Upgradeable.sol\":8103:8120  $._balances[from] */\n      0x00\n        /* \"@openzeppelin/contracts-upgradeable/token/ERC20/ERC20Upgradeable.sol\":8115:8119  from */\n      dup8\n        /* \"@openzeppelin/contracts-upgradeable/token/ERC20/ERC20Upgradeable.sol\":8103:8120  $._balances[from] */\n      0xffffffffffffffffffffffffffffffffffffffff\n      and\n      0xffffffffffffffffffffffffffffffffffffffff\n      and\n      dup2\n      mstore\n      0x20\n      add\n      swap1\n      dup2\n      mstore\n      0x20\n      add\n      0x00\n      keccak256\n        /* \"@openzeppelin/contracts-upgradeable/token/ERC20/ERC20Upgradeable.sol\":8103:8142  $._balances[from] = fromBalance - value */\n      dup2\n      swap1\n      sstore\n      pop\n        /* \"@openzeppelin/contracts-upgradeable/token/ERC20/ERC20Upgradeable.sol\":7801:8167  {... */\n      pop\n        /* \"@openzeppelin/contracts-upgradeable/token/ERC20/ERC20Upgradeable.sol\":7621:8167  if (from == address(0)) {... */\n    tag_512:\n        /* \"@openzeppelin/contracts-upgradeable/token/ERC20/ERC20Upgradeable.sol\":8195:8196  0 */\n      0x00\n        /* \"@openzeppelin/contracts-upgradeable/token/ERC20/ERC20Upgradeable.sol\":8181:8197  to == address(0) */\n      0xffffffffffffffffffffffffffffffffffffffff\n      and\n        /* \"@openzeppelin/contracts-upgradeable/token/ERC20/ERC20Upgradeable.sol\":8181:8183  to */\n      dup4\n        /* \"@openzeppelin/contracts-upgradeable/token/ERC20/ERC20Upgradeable.sol\":8181:8197  to == address(0) */\n      0xffffffffffffffffffffffffffffffffffffffff\n      and\n      sub\n        /* \"@openzeppelin/contracts-upgradeable/token/ERC20/ERC20Upgradeable.sol\":8177:8606  if (to == address(0)) {... */\n      tag_516\n      jumpi\n        /* \"@openzeppelin/contracts-upgradeable/token/ERC20/ERC20Upgradeable.sol\":8362:8367  value */\n      dup2\n        /* \"@openzeppelin/contracts-upgradeable/token/ERC20/ERC20Upgradeable.sol\":8344:8345  $ */\n      dup2\n        /* \"@openzeppelin/contracts-upgradeable/token/ERC20/ERC20Upgradeable.sol\":8344:8358  $._totalSupply */\n      0x02\n      add\n      0x00\n        /* \"@openzeppelin/contracts-upgradeable/token/ERC20/ERC20Upgradeable.sol\":8344:8367  $._totalSupply -= value */\n      dup3\n      dup3\n      sload\n      sub\n      swap3\n      pop\n      pop\n      dup2\n      swap1\n      sstore\n      pop\n        /* \"@openzeppelin/contracts-upgradeable/token/ERC20/ERC20Upgradeable.sol\":8177:8606  if (to == address(0)) {... */\n      jump(tag_517)\n    tag_516:\n        /* \"@openzeppelin/contracts-upgradeable/token/ERC20/ERC20Upgradeable.sol\":8576:8581  value */\n      dup2\n        /* \"@openzeppelin/contracts-upgradeable/token/ERC20/ERC20Upgradeable.sol\":8557:8558  $ */\n      dup2\n        /* \"@openzeppelin/contracts-upgradeable/token/ERC20/ERC20Upgradeable.sol\":8557:8568  $._balances */\n      0x00\n      add\n        /* \"@openzeppelin/contracts-upgradeable/token/ERC20/ERC20Upgradeable.sol\":8557:8572  $._balances[to] */\n      0x00\n        /* \"@openzeppelin/contracts-upgradeable/token/ERC20/ERC20Upgradeable.sol\":8569:8571  to */\n      dup6\n        /* \"@openzeppelin/contracts-upgradeable/token/ERC20/ERC20Upgradeable.sol\":8557:8572  $._balances[to] */\n      0xffffffffffffffffffffffffffffffffffffffff\n      and\n      0xffffffffffffffffffffffffffffffffffffffff\n      and\n      dup2\n      mstore\n      0x20\n      add\n      swap1\n      dup2\n      mstore\n      0x20\n      add\n      0x00\n      keccak256\n      0x00\n        /* \"@openzeppelin/contracts-upgradeable/token/ERC20/ERC20Upgradeable.sol\":8557:8581  $._balances[to] += value */\n      dup3\n      dup3\n      sload\n      add\n      swap3\n      pop\n      pop\n      dup2\n      swap1\n      sstore\n      pop\n        /* \"@openzeppelin/contracts-upgradeable/token/ERC20/ERC20Upgradeable.sol\":8177:8606  if (to == address(0)) {... */\n    tag_517:\n        /* \"@openzeppelin/contracts-upgradeable/token/ERC20/ERC20Upgradeable.sol\":8636:8638  to */\n      dup3\n        /* \"@openzeppelin/contracts-upgradeable/token/ERC20/ERC20Upgradeable.sol\":8621:8646  Transfer(from, to, value) */\n      0xffffffffffffffffffffffffffffffffffffffff\n      and\n        /* \"@openzeppelin/contracts-upgradeable/token/ERC20/ERC20Upgradeable.sol\":8630:8634  from */\n      dup5\n        /* \"@openzeppelin/contracts-upgradeable/token/ERC20/ERC20Upgradeable.sol\":8621:8646  Transfer(from, to, value) */\n      0xffffffffffffffffffffffffffffffffffffffff\n      and\n      0xddf252ad1be2c89b69c2b068fc378daa952ba7f163c4a11628f55a4df523b3ef\n        /* \"@openzeppelin/contracts-upgradeable/token/ERC20/ERC20Upgradeable.sol\":8640:8645  value */\n      dup5\n        /* \"@openzeppelin/contracts-upgradeable/token/ERC20/ERC20Upgradeable.sol\":8621:8646  Transfer(from, to, value) */\n      mload(0x40)\n      tag_518\n      swap2\n      swap1\n      tag_64\n      jump\t// in\n    tag_518:\n      mload(0x40)\n      dup1\n      swap2\n      sub\n      swap1\n      log3\n        /* \"@openzeppelin/contracts-upgradeable/token/ERC20/ERC20Upgradeable.sol\":7558:8653  {... */\n      pop\n        /* \"@openzeppelin/contracts-upgradeable/token/ERC20/ERC20Upgradeable.sol\":7483:8653  function _update(address from, address to, uint256 value) internal virtual {... */\n      pop\n      pop\n      pop\n      jump\t// out\n        /* \"@openzeppelin/contracts-upgradeable/proxy/utils/Initializable.sol\":7084:7225  function _checkInitializing() internal view virtual {... */\n    tag_455:\n        /* \"@openzeppelin/contracts-upgradeable/proxy/utils/Initializable.sol\":7151:7168  _isInitializing() */\n      tag_520\n        /* \"@openzeppelin/contracts-upgradeable/proxy/utils/Initializable.sol\":7151:7166  _isInitializing */\n      tag_521\n        /* \"@openzeppelin/contracts-upgradeable/proxy/utils/Initializable.sol\":7151:7168  _isInitializing() */\n      jump\t// in\n    tag_520:\n        /* \"@openzeppelin/contracts-upgradeable/proxy/utils/Initializable.sol\":7146:7219  if (!_isInitializing()) {... */\n      tag_522\n      jumpi\n        /* \"@openzeppelin/contracts-upgradeable/proxy/utils/Initializable.sol\":7191:7208  NotInitializing() */\n      mload(0x40)\n      0xd7e6bcf800000000000000000000000000000000000000000000000000000000\n      dup2\n      mstore\n      0x04\n      add\n      mload(0x40)\n      dup1\n      swap2\n      sub\n      swap1\n      revert\n        /* \"@openzeppelin/contracts-upgradeable/proxy/utils/Initializable.sol\":7146:7219  if (!_isInitializing()) {... */\n    tag_522:\n        /* \"@openzeppelin/contracts-upgradeable/proxy/utils/Initializable.sol\":7084:7225  function _checkInitializing() internal view virtual {... */\n      jump\t// out\n        /* \"@openzeppelin/contracts-upgradeable/token/ERC20/ERC20Upgradeable.sol\":2730:2946  function __ERC20_init_unchained(string memory name_, string memory symbol_) internal onlyInitializing {... */\n    tag_458:\n        /* \"@openzeppelin/contracts-upgradeable/proxy/utils/Initializable.sol\":6931:6951  _checkInitializing() */\n      tag_524\n        /* \"@openzeppelin/contracts-upgradeable/proxy/utils/Initializable.sol\":6931:6949  _checkInitializing */\n      tag_455\n        /* \"@openzeppelin/contracts-upgradeable/proxy/utils/Initializable.sol\":6931:6951  _checkInitializing() */\n      jump\t// in\n    tag_524:\n        /* \"@openzeppelin/contracts-upgradeable/token/ERC20/ERC20Upgradeable.sol\":2842:2864  ERC20Storage storage $ */\n      0x00\n        /* \"@openzeppelin/contracts-upgradeable/token/ERC20/ERC20Upgradeable.sol\":2867:2885  _getERC20Storage() */\n      tag_526\n        /* \"@openzeppelin/contracts-upgradeable/token/ERC20/ERC20Upgradeable.sol\":2867:2883  _getERC20Storage */\n      tag_188\n        /* \"@openzeppelin/contracts-upgradeable/token/ERC20/ERC20Upgradeable.sol\":2867:2885  _getERC20Storage() */\n      jump\t// in\n    tag_526:\n        /* \"@openzeppelin/contracts-upgradeable/token/ERC20/ERC20Upgradeable.sol\":2842:2885  ERC20Storage storage $ = _getERC20Storage() */\n      swap1\n      pop\n        /* \"@openzeppelin/contracts-upgradeable/token/ERC20/ERC20Upgradeable.sol\":2905:2910  name_ */\n      dup3\n        /* \"@openzeppelin/contracts-upgradeable/token/ERC20/ERC20Upgradeable.sol\":2895:2896  $ */\n      dup2\n        /* \"@openzeppelin/contracts-upgradeable/token/ERC20/ERC20Upgradeable.sol\":2895:2902  $._name */\n      0x03\n      add\n        /* \"@openzeppelin/contracts-upgradeable/token/ERC20/ERC20Upgradeable.sol\":2895:2910  $._name = name_ */\n      swap1\n      dup2\n      tag_527\n      swap2\n      swap1\n      tag_528\n      jump\t// in\n    tag_527:\n      pop\n        /* \"@openzeppelin/contracts-upgradeable/token/ERC20/ERC20Upgradeable.sol\":2932:2939  symbol_ */\n      dup2\n        /* \"@openzeppelin/contracts-upgradeable/token/ERC20/ERC20Upgradeable.sol\":2920:2921  $ */\n      dup2\n        /* \"@openzeppelin/contracts-upgradeable/token/ERC20/ERC20Upgradeable.sol\":2920:2929  $._symbol */\n      0x04\n      add\n        /* \"@openzeppelin/contracts-upgradeable/token/ERC20/ERC20Upgradeable.sol\":2920:2939  $._symbol = symbol_ */\n      swap1\n      dup2\n      tag_529\n      swap2\n      swap1\n      tag_528\n      jump\t// in\n    tag_529:\n      pop\n        /* \"@openzeppelin/contracts-upgradeable/token/ERC20/ERC20Upgradeable.sol\":2832:2946  {... */\n      pop\n        /* \"@openzeppelin/contracts-upgradeable/token/ERC20/ERC20Upgradeable.sol\":2730:2946  function __ERC20_init_unchained(string memory name_, string memory symbol_) internal onlyInitializing {... */\n      pop\n      pop\n      jump\t// out\n        /* \"@openzeppelin/contracts-upgradeable/access/OwnableUpgradeable.sol\":1980:2215  function __Ownable_init_unchained(address initialOwner) internal onlyInitializing {... */\n    tag_463:\n        /* \"@openzeppelin/contracts-upgradeable/proxy/utils/Initializable.sol\":6931:6951  _checkInitializing() */\n      tag_531\n        /* \"@openzeppelin/contracts-upgradeable/proxy/utils/Initializable.sol\":6931:6949  _checkInitializing */\n      tag_455\n        /* \"@openzeppelin/contracts-upgradeable/proxy/utils/Initializable.sol\":6931:6951  _checkInitializing() */\n      jump\t// in\n    tag_531:\n        /* \"@openzeppelin/contracts-upgradeable/access/OwnableUpgradeable.sol\":2100:2101  0 */\n      0x00\n        /* \"@openzeppelin/contracts-upgradeable/access/OwnableUpgradeable.sol\":2076:2102  initialOwner == address(0) */\n      0xffffffffffffffffffffffffffffffffffffffff\n      and\n        /* \"@openzeppelin/contracts-upgradeable/access/OwnableUpgradeable.sol\":2076:2088  initialOwner */\n      dup2\n        /* \"@openzeppelin/contracts-upgradeable/access/OwnableUpgradeable.sol\":2076:2102  initialOwner == address(0) */\n      0xffffffffffffffffffffffffffffffffffffffff\n      and\n      sub\n        /* \"@openzeppelin/contracts-upgradeable/access/OwnableUpgradeable.sol\":2072:2167  if (initialOwner == address(0)) {... */\n      tag_533\n      jumpi\n        /* \"@openzeppelin/contracts-upgradeable/access/OwnableUpgradeable.sol\":2153:2154  0 */\n      0x00\n        /* \"@openzeppelin/contracts-upgradeable/access/OwnableUpgradeable.sol\":2125:2156  OwnableInvalidOwner(address(0)) */\n      mload(0x40)\n      0x1e4fbdf700000000000000000000000000000000000000000000000000000000\n      dup2\n      mstore\n      0x04\n      add\n      tag_534\n      swap2\n      swap1\n      tag_90\n      jump\t// in\n    tag_534:\n      mload(0x40)\n      dup1\n      swap2\n      sub\n      swap1\n      revert\n        /* \"@openzeppelin/contracts-upgradeable/access/OwnableUpgradeable.sol\":2072:2167  if (initialOwner == address(0)) {... */\n    tag_533:\n        /* \"@openzeppelin/contracts-upgradeable/access/OwnableUpgradeable.sol\":2176:2208  _transferOwnership(initialOwner) */\n      tag_535\n        /* \"@openzeppelin/contracts-upgradeable/access/OwnableUpgradeable.sol\":2195:2207  initialOwner */\n      dup2\n        /* \"@openzeppelin/contracts-upgradeable/access/OwnableUpgradeable.sol\":2176:2194  _transferOwnership */\n      tag_298\n        /* \"@openzeppelin/contracts-upgradeable/access/OwnableUpgradeable.sol\":2176:2208  _transferOwnership(initialOwner) */\n      jump\t// in\n    tag_535:\n        /* \"@openzeppelin/contracts-upgradeable/access/OwnableUpgradeable.sol\":1980:2215  function __Ownable_init_unchained(address initialOwner) internal onlyInitializing {... */\n      pop\n      jump\t// out\n        /* \"@openzeppelin/contracts-upgradeable/security/PausableUpgradeable.sol\":1187:1282  function __Pausable_init_unchained() internal onlyInitializing {... */\n    tag_468:\n        /* \"@openzeppelin/contracts-upgradeable/proxy/utils/Initializable.sol\":6931:6951  _checkInitializing() */\n      tag_537\n        /* \"@openzeppelin/contracts-upgradeable/proxy/utils/Initializable.sol\":6931:6949  _checkInitializing */\n      tag_455\n        /* \"@openzeppelin/contracts-upgradeable/proxy/utils/Initializable.sol\":6931:6951  _checkInitializing() */\n      jump\t// in\n    tag_537:\n        /* \"@openzeppelin/contracts-upgradeable/security/PausableUpgradeable.sol\":1270:1275  false */\n      0x00\n        /* \"@openzeppelin/contracts-upgradeable/security/PausableUpgradeable.sol\":1260:1267  _paused */\n      dup1\n      0x00\n        /* \"@openzeppelin/contracts-upgradeable/security/PausableUpgradeable.sol\":1260:1275  _paused = false */\n      0x0100\n      exp\n      dup2\n      sload\n      dup2\n      0xff\n      mul\n      not\n      and\n      swap1\n      dup4\n      iszero\n      iszero\n      mul\n      or\n      swap1\n      sstore\n      pop\n        /* \"@openzeppelin/contracts-upgradeable/security/PausableUpgradeable.sol\":1187:1282  function __Pausable_init_unchained() internal onlyInitializing {... */\n      jump\t// out\n        /* \"@openzeppelin/contracts-upgradeable/utils/math/SafeMathUpgradeable.sol\":3476:3572  function mul(uint256 a, uint256 b) internal pure returns (uint256) {... */\n    tag_496:\n        /* \"@openzeppelin/contracts-upgradeable/utils/math/SafeMathUpgradeable.sol\":3534:3541  uint256 */\n      0x00\n        /* \"@openzeppelin/contracts-upgradeable/utils/math/SafeMathUpgradeable.sol\":3564:3565  b */\n      dup2\n        /* \"@openzeppelin/contracts-upgradeable/utils/math/SafeMathUpgradeable.sol\":3560:3561  a */\n      dup4\n        /* \"@openzeppelin/contracts-upgradeable/utils/math/SafeMathUpgradeable.sol\":3560:3565  a * b */\n      tag_540\n      swap2\n      swap1\n      tag_541\n      jump\t// in\n    tag_540:\n        /* \"@openzeppelin/contracts-upgradeable/utils/math/SafeMathUpgradeable.sol\":3553:3565  return a * b */\n      swap1\n      pop\n        /* \"@openzeppelin/contracts-upgradeable/utils/math/SafeMathUpgradeable.sol\":3476:3572  function mul(uint256 a, uint256 b) internal pure returns (uint256) {... */\n      swap3\n      swap2\n      pop\n      pop\n      jump\t// out\n        /* \"@openzeppelin/contracts-upgradeable/utils/math/SafeMathUpgradeable.sol\":3861:3957  function div(uint256 a, uint256 b) internal pure returns (uint256) {... */\n    tag_497:\n        /* \"@openzeppelin/contracts-upgradeable/utils/math/SafeMathUpgradeable.sol\":3919:3926  uint256 */\n      0x00\n        /* \"@openzeppelin/contracts-upgradeable/utils/math/SafeMathUpgradeable.sol\":3949:3950  b */\n      dup2\n        /* \"@openzeppelin/contracts-upgradeable/utils/math/SafeMathUpgradeable.sol\":3945:3946  a */\n      dup4\n        /* \"@openzeppelin/contracts-upgradeable/utils/math/SafeMathUpgradeable.sol\":3945:3950  a / b */\n      tag_543\n      swap2\n      swap1\n      tag_544\n      jump\t// in\n    tag_543:\n        /* \"@openzeppelin/contracts-upgradeable/utils/math/SafeMathUpgradeable.sol\":3938:3950  return a / b */\n      swap1\n      pop\n        /* \"@openzeppelin/contracts-upgradeable/utils/math/SafeMathUpgradeable.sol\":3861:3957  function div(uint256 a, uint256 b) internal pure returns (uint256) {... */\n      swap3\n      swap2\n      pop\n      pop\n      jump\t// out\n        /* \"@openzeppelin/contracts-upgradeable/proxy/utils/Initializable.sol\":8487:8607  function _isInitializing() internal view returns (bool) {... */\n    tag_521:\n        /* \"@openzeppelin/contracts-upgradeable/proxy/utils/Initializable.sol\":8537:8541  bool */\n      0x00\n        /* \"@openzeppelin/contracts-upgradeable/proxy/utils/Initializable.sol\":8560:8586  _getInitializableStorage() */\n      tag_546\n        /* \"@openzeppelin/contracts-upgradeable/proxy/utils/Initializable.sol\":8560:8584  _getInitializableStorage */\n      tag_349\n        /* \"@openzeppelin/contracts-upgradeable/proxy/utils/Initializable.sol\":8560:8586  _getInitializableStorage() */\n      jump\t// in\n    tag_546:\n        /* \"@openzeppelin/contracts-upgradeable/proxy/utils/Initializable.sol\":8560:8600  _getInitializableStorage()._initializing */\n      0x00\n      add\n      0x08\n      swap1\n      sload\n      swap1\n      0x0100\n      exp\n      swap1\n      div\n      0xff\n      and\n        /* \"@openzeppelin/contracts-upgradeable/proxy/utils/Initializable.sol\":8553:8600  return _getInitializableStorage()._initializing */\n      swap1\n      pop\n        /* \"@openzeppelin/contracts-upgradeable/proxy/utils/Initializable.sol\":8487:8607  function _isInitializing() internal view returns (bool) {... */\n      swap1\n      jump\t// out\n    tag_287:\n      dup3\n      0x05\n      dup2\n      add\n      swap3\n      dup3\n      iszero\n      tag_547\n      jumpi\n      swap2\n      0x20\n      mul\n      dup3\n      add\n    tag_548:\n      dup3\n      dup2\n      gt\n      iszero\n      tag_549\n      jumpi\n      dup3\n      mload\n      dup3\n      sstore\n      swap2\n      0x20\n      add\n      swap2\n      swap1\n      0x01\n      add\n      swap1\n      jump(tag_548)\n    tag_549:\n    tag_547:\n      pop\n      swap1\n      pop\n      tag_550\n      swap2\n      swap1\n      tag_551\n      jump\t// in\n    tag_550:\n      pop\n      swap1\n      jump\t// out\n    tag_364:\n      dup3\n      0x05\n      dup2\n      add\n      swap3\n      dup3\n      iszero\n      tag_552\n      jumpi\n      swap2\n      0x20\n      mul\n      dup3\n      add\n    tag_553:\n      dup3\n      dup2\n      gt\n      iszero\n      tag_554\n      jumpi\n      dup3\n      mload\n      dup3\n      swap1\n      0xffff\n      and\n      swap1\n      sstore\n      swap2\n      0x20\n      add\n      swap2\n      swap1\n      0x01\n      add\n      swap1\n      jump(tag_553)\n    tag_554:\n    tag_552:\n      pop\n      swap1\n      pop\n      tag_555\n      swap2\n      swap1\n      tag_551\n      jump\t// in\n    tag_555:\n      pop\n      swap1\n      jump\t// out\n    tag_551:\n    tag_556:\n      dup1\n      dup3\n      gt\n      iszero\n      tag_557\n      jumpi\n      0x00\n      dup2\n      0x00\n      swap1\n      sstore\n      pop\n      0x01\n      add\n      jump(tag_556)\n    tag_557:\n      pop\n      swap1\n      jump\t// out\n        /* \"#utility.yul\":7:106   */\n    tag_558:\n        /* \"#utility.yul\":59:65   */\n      0x00\n        /* \"#utility.yul\":93:98   */\n      dup2\n        /* \"#utility.yul\":87:99   */\n      mload\n        /* \"#utility.yul\":77:99   */\n      swap1\n      pop\n        /* \"#utility.yul\":7:106   */\n      swap2\n      swap1\n      pop\n      jump\t// out\n        /* \"#utility.yul\":112:281   */\n    tag_559:\n        /* \"#utility.yul\":196:207   */\n      0x00\n        /* \"#utility.yul\":230:236   */\n      dup3\n        /* \"#utility.yul\":225:228   */\n      dup3\n        /* \"#utility.yul\":218:237   */\n      mstore\n        /* \"#utility.yul\":270:274   */\n      0x20\n        /* \"#utility.yul\":265:268   */\n      dup3\n        /* \"#utility.yul\":261:275   */\n      add\n        /* \"#utility.yul\":246:275   */\n      swap1\n      pop\n        /* \"#utility.yul\":112:281   */\n      swap3\n      swap2\n      pop\n      pop\n      jump\t// out\n        /* \"#utility.yul\":287:533   */\n    tag_560:\n        /* \"#utility.yul\":368:369   */\n      0x00\n        /* \"#utility.yul\":378:491   */\n    tag_655:\n        /* \"#utility.yul\":392:398   */\n      dup4\n        /* \"#utility.yul\":389:390   */\n      dup2\n        /* \"#utility.yul\":386:399   */\n      lt\n        /* \"#utility.yul\":378:491   */\n      iszero\n      tag_657\n      jumpi\n        /* \"#utility.yul\":477:478   */\n      dup1\n        /* \"#utility.yul\":472:475   */\n      dup3\n        /* \"#utility.yul\":468:479   */\n      add\n        /* \"#utility.yul\":462:480   */\n      mload\n        /* \"#utility.yul\":458:459   */\n      dup2\n        /* \"#utility.yul\":453:456   */\n      dup5\n        /* \"#utility.yul\":449:460   */\n      add\n        /* \"#utility.yul\":442:481   */\n      mstore\n        /* \"#utility.yul\":414:416   */\n      0x20\n        /* \"#utility.yul\":411:412   */\n      dup2\n        /* \"#utility.yul\":407:417   */\n      add\n        /* \"#utility.yul\":402:417   */\n      swap1\n      pop\n        /* \"#utility.yul\":378:491   */\n      jump(tag_655)\n    tag_657:\n        /* \"#utility.yul\":525:526   */\n      0x00\n        /* \"#utility.yul\":516:522   */\n      dup5\n        /* \"#utility.yul\":511:514   */\n      dup5\n        /* \"#utility.yul\":507:523   */\n      add\n        /* \"#utility.yul\":500:527   */\n      mstore\n        /* \"#utility.yul\":349:533   */\n      pop\n        /* \"#utility.yul\":287:533   */\n      pop\n      pop\n      pop\n      jump\t// out\n        /* \"#utility.yul\":539:641   */\n    tag_561:\n        /* \"#utility.yul\":580:586   */\n      0x00\n        /* \"#utility.yul\":631:633   */\n      0x1f\n        /* \"#utility.yul\":627:634   */\n      not\n        /* \"#utility.yul\":622:624   */\n      0x1f\n        /* \"#utility.yul\":615:620   */\n      dup4\n        /* \"#utility.yul\":611:625   */\n      add\n        /* \"#utility.yul\":607:635   */\n      and\n        /* \"#utility.yul\":597:635   */\n      swap1\n      pop\n        /* \"#utility.yul\":539:641   */\n      swap2\n      swap1\n      pop\n      jump\t// out\n        /* \"#utility.yul\":647:1024   */\n    tag_562:\n        /* \"#utility.yul\":735:738   */\n      0x00\n        /* \"#utility.yul\":763:802   */\n      tag_660\n        /* \"#utility.yul\":796:801   */\n      dup3\n        /* \"#utility.yul\":763:802   */\n      tag_558\n      jump\t// in\n    tag_660:\n        /* \"#utility.yul\":818:889   */\n      tag_661\n        /* \"#utility.yul\":882:888   */\n      dup2\n        /* \"#utility.yul\":877:880   */\n      dup6\n        /* \"#utility.yul\":818:889   */\n      tag_559\n      jump\t// in\n    tag_661:\n        /* \"#utility.yul\":811:889   */\n      swap4\n      pop\n        /* \"#utility.yul\":898:963   */\n      tag_662\n        /* \"#utility.yul\":956:962   */\n      dup2\n        /* \"#utility.yul\":951:954   */\n      dup6\n        /* \"#utility.yul\":944:948   */\n      0x20\n        /* \"#utility.yul\":937:942   */\n      dup7\n        /* \"#utility.yul\":933:949   */\n      add\n        /* \"#utility.yul\":898:963   */\n      tag_560\n      jump\t// in\n    tag_662:\n        /* \"#utility.yul\":988:1017   */\n      tag_663\n        /* \"#utility.yul\":1010:1016   */\n      dup2\n        /* \"#utility.yul\":988:1017   */\n      tag_561\n      jump\t// in\n    tag_663:\n        /* \"#utility.yul\":983:986   */\n      dup5\n        /* \"#utility.yul\":979:1018   */\n      add\n        /* \"#utility.yul\":972:1018   */\n      swap2\n      pop\n        /* \"#utility.yul\":739:1024   */\n      pop\n        /* \"#utility.yul\":647:1024   */\n      swap3\n      swap2\n      pop\n      pop\n      jump\t// out\n        /* \"#utility.yul\":1030:1343   */\n    tag_52:\n        /* \"#utility.yul\":1143:1147   */\n      0x00\n        /* \"#utility.yul\":1181:1183   */\n      0x20\n        /* \"#utility.yul\":1170:1179   */\n      dup3\n        /* \"#utility.yul\":1166:1184   */\n      add\n        /* \"#utility.yul\":1158:1184   */\n      swap1\n      pop\n        /* \"#utility.yul\":1230:1239   */\n      dup2\n        /* \"#utility.yul\":1224:1228   */\n      dup2\n        /* \"#utility.yul\":1220:1240   */\n      sub\n        /* \"#utility.yul\":1216:1217   */\n      0x00\n        /* \"#utility.yul\":1205:1214   */\n      dup4\n        /* \"#utility.yul\":1201:1218   */\n      add\n        /* \"#utility.yul\":1194:1241   */\n      mstore\n        /* \"#utility.yul\":1258:1336   */\n      tag_665\n        /* \"#utility.yul\":1331:1335   */\n      dup2\n        /* \"#utility.yul\":1322:1328   */\n      dup5\n        /* \"#utility.yul\":1258:1336   */\n      tag_562\n      jump\t// in\n    tag_665:\n        /* \"#utility.yul\":1250:1336   */\n      swap1\n      pop\n        /* \"#utility.yul\":1030:1343   */\n      swap3\n      swap2\n      pop\n      pop\n      jump\t// out\n        /* \"#utility.yul\":1349:1424   */\n    tag_563:\n        /* \"#utility.yul\":1382:1388   */\n      0x00\n        /* \"#utility.yul\":1415:1417   */\n      0x40\n        /* \"#utility.yul\":1409:1418   */\n      mload\n        /* \"#utility.yul\":1399:1418   */\n      swap1\n      pop\n        /* \"#utility.yul\":1349:1424   */\n      swap1\n      jump\t// out\n        /* \"#utility.yul\":1430:1547   */\n    tag_564:\n        /* \"#utility.yul\":1539:1540   */\n      0x00\n        /* \"#utility.yul\":1536:1537   */\n      dup1\n        /* \"#utility.yul\":1529:1541   */\n      revert\n        /* \"#utility.yul\":1553:1670   */\n    tag_565:\n        /* \"#utility.yul\":1662:1663   */\n      0x00\n        /* \"#utility.yul\":1659:1660   */\n      dup1\n        /* \"#utility.yul\":1652:1664   */\n      revert\n        /* \"#utility.yul\":1676:1802   */\n    tag_566:\n        /* \"#utility.yul\":1713:1720   */\n      0x00\n        /* \"#utility.yul\":1753:1795   */\n      0xffffffffffffffffffffffffffffffffffffffff\n        /* \"#utility.yul\":1746:1751   */\n      dup3\n        /* \"#utility.yul\":1742:1796   */\n      and\n        /* \"#utility.yul\":1731:1796   */\n      swap1\n      pop\n        /* \"#utility.yul\":1676:1802   */\n      swap2\n      swap1\n      pop\n      jump\t// out\n        /* \"#utility.yul\":1808:1904   */\n    tag_567:\n        /* \"#utility.yul\":1845:1852   */\n      0x00\n        /* \"#utility.yul\":1874:1898   */\n      tag_671\n        /* \"#utility.yul\":1892:1897   */\n      dup3\n        /* \"#utility.yul\":1874:1898   */\n      tag_566\n      jump\t// in\n    tag_671:\n        /* \"#utility.yul\":1863:1898   */\n      swap1\n      pop\n        /* \"#utility.yul\":1808:1904   */\n      swap2\n      swap1\n      pop\n      jump\t// out\n        /* \"#utility.yul\":1910:2032   */\n    tag_568:\n        /* \"#utility.yul\":1983:2007   */\n      tag_673\n        /* \"#utility.yul\":2001:2006   */\n      dup2\n        /* \"#utility.yul\":1983:2007   */\n      tag_567\n      jump\t// in\n    tag_673:\n        /* \"#utility.yul\":1976:1981   */\n      dup2\n        /* \"#utility.yul\":1973:2008   */\n      eq\n        /* \"#utility.yul\":1963:2026   */\n      tag_674\n      jumpi\n        /* \"#utility.yul\":2022:2023   */\n      0x00\n        /* \"#utility.yul\":2019:2020   */\n      dup1\n        /* \"#utility.yul\":2012:2024   */\n      revert\n        /* \"#utility.yul\":1963:2026   */\n    tag_674:\n        /* \"#utility.yul\":1910:2032   */\n      pop\n      jump\t// out\n        /* \"#utility.yul\":2038:2177   */\n    tag_569:\n        /* \"#utility.yul\":2084:2089   */\n      0x00\n        /* \"#utility.yul\":2122:2128   */\n      dup2\n        /* \"#utility.yul\":2109:2129   */\n      calldataload\n        /* \"#utility.yul\":2100:2129   */\n      swap1\n      pop\n        /* \"#utility.yul\":2138:2171   */\n      tag_676\n        /* \"#utility.yul\":2165:2170   */\n      dup2\n        /* \"#utility.yul\":2138:2171   */\n      tag_568\n      jump\t// in\n    tag_676:\n        /* \"#utility.yul\":2038:2177   */\n      swap3\n      swap2\n      pop\n      pop\n      jump\t// out\n        /* \"#utility.yul\":2183:2260   */\n    tag_570:\n        /* \"#utility.yul\":2220:2227   */\n      0x00\n        /* \"#utility.yul\":2249:2254   */\n      dup2\n        /* \"#utility.yul\":2238:2254   */\n      swap1\n      pop\n        /* \"#utility.yul\":2183:2260   */\n      swap2\n      swap1\n      pop\n      jump\t// out\n        /* \"#utility.yul\":2266:2388   */\n    tag_571:\n        /* \"#utility.yul\":2339:2363   */\n      tag_679\n        /* \"#utility.yul\":2357:2362   */\n      dup2\n        /* \"#utility.yul\":2339:2363   */\n      tag_570\n      jump\t// in\n    tag_679:\n        /* \"#utility.yul\":2332:2337   */\n      dup2\n        /* \"#utility.yul\":2329:2364   */\n      eq\n        /* \"#utility.yul\":2319:2382   */\n      tag_680\n      jumpi\n        /* \"#utility.yul\":2378:2379   */\n      0x00\n        /* \"#utility.yul\":2375:2376   */\n      dup1\n        /* \"#utility.yul\":2368:2380   */\n      revert\n        /* \"#utility.yul\":2319:2382   */\n    tag_680:\n        /* \"#utility.yul\":2266:2388   */\n      pop\n      jump\t// out\n        /* \"#utility.yul\":2394:2533   */\n    tag_572:\n        /* \"#utility.yul\":2440:2445   */\n      0x00\n        /* \"#utility.yul\":2478:2484   */\n      dup2\n        /* \"#utility.yul\":2465:2485   */\n      calldataload\n        /* \"#utility.yul\":2456:2485   */\n      swap1\n      pop\n        /* \"#utility.yul\":2494:2527   */\n      tag_682\n        /* \"#utility.yul\":2521:2526   */\n      dup2\n        /* \"#utility.yul\":2494:2527   */\n      tag_571\n      jump\t// in\n    tag_682:\n        /* \"#utility.yul\":2394:2533   */\n      swap3\n      swap2\n      pop\n      pop\n      jump\t// out\n        /* \"#utility.yul\":2539:3013   */\n    tag_55:\n        /* \"#utility.yul\":2607:2613   */\n      0x00\n        /* \"#utility.yul\":2615:2621   */\n      dup1\n        /* \"#utility.yul\":2664:2666   */\n      0x40\n        /* \"#utility.yul\":2652:2661   */\n      dup4\n        /* \"#utility.yul\":2643:2650   */\n      dup6\n        /* \"#utility.yul\":2639:2662   */\n      sub\n        /* \"#utility.yul\":2635:2667   */\n      slt\n        /* \"#utility.yul\":2632:2751   */\n      iszero\n      tag_684\n      jumpi\n        /* \"#utility.yul\":2670:2749   */\n      tag_685\n      tag_564\n      jump\t// in\n    tag_685:\n        /* \"#utility.yul\":2632:2751   */\n    tag_684:\n        /* \"#utility.yul\":2790:2791   */\n      0x00\n        /* \"#utility.yul\":2815:2868   */\n      tag_686\n        /* \"#utility.yul\":2860:2867   */\n      dup6\n        /* \"#utility.yul\":2851:2857   */\n      dup3\n        /* \"#utility.yul\":2840:2849   */\n      dup7\n        /* \"#utility.yul\":2836:2858   */\n      add\n        /* \"#utility.yul\":2815:2868   */\n      tag_569\n      jump\t// in\n    tag_686:\n        /* \"#utility.yul\":2805:2868   */\n      swap3\n      pop\n        /* \"#utility.yul\":2761:2878   */\n      pop\n        /* \"#utility.yul\":2917:2919   */\n      0x20\n        /* \"#utility.yul\":2943:2996   */\n      tag_687\n        /* \"#utility.yul\":2988:2995   */\n      dup6\n        /* \"#utility.yul\":2979:2985   */\n      dup3\n        /* \"#utility.yul\":2968:2977   */\n      dup7\n        /* \"#utility.yul\":2964:2986   */\n      add\n        /* \"#utility.yul\":2943:2996   */\n      tag_572\n      jump\t// in\n    tag_687:\n        /* \"#utility.yul\":2933:2996   */\n      swap2\n      pop\n        /* \"#utility.yul\":2888:3006   */\n      pop\n        /* \"#utility.yul\":2539:3013   */\n      swap3\n      pop\n      swap3\n      swap1\n      pop\n      jump\t// out\n        /* \"#utility.yul\":3019:3109   */\n    tag_573:\n        /* \"#utility.yul\":3053:3060   */\n      0x00\n        /* \"#utility.yul\":3096:3101   */\n      dup2\n        /* \"#utility.yul\":3089:3102   */\n      iszero\n        /* \"#utility.yul\":3082:3103   */\n      iszero\n        /* \"#utility.yul\":3071:3103   */\n      swap1\n      pop\n        /* \"#utility.yul\":3019:3109   */\n      swap2\n      swap1\n      pop\n      jump\t// out\n        /* \"#utility.yul\":3115:3224   */\n    tag_574:\n        /* \"#utility.yul\":3196:3217   */\n      tag_690\n        /* \"#utility.yul\":3211:3216   */\n      dup2\n        /* \"#utility.yul\":3196:3217   */\n      tag_573\n      jump\t// in\n    tag_690:\n        /* \"#utility.yul\":3191:3194   */\n      dup3\n        /* \"#utility.yul\":3184:3218   */\n      mstore\n        /* \"#utility.yul\":3115:3224   */\n      pop\n      pop\n      jump\t// out\n        /* \"#utility.yul\":3230:3440   */\n    tag_58:\n        /* \"#utility.yul\":3317:3321   */\n      0x00\n        /* \"#utility.yul\":3355:3357   */\n      0x20\n        /* \"#utility.yul\":3344:3353   */\n      dup3\n        /* \"#utility.yul\":3340:3358   */\n      add\n        /* \"#utility.yul\":3332:3358   */\n      swap1\n      pop\n        /* \"#utility.yul\":3368:3433   */\n      tag_692\n        /* \"#utility.yul\":3430:3431   */\n      0x00\n        /* \"#utility.yul\":3419:3428   */\n      dup4\n        /* \"#utility.yul\":3415:3432   */\n      add\n        /* \"#utility.yul\":3406:3412   */\n      dup5\n        /* \"#utility.yul\":3368:3433   */\n      tag_574\n      jump\t// in\n    tag_692:\n        /* \"#utility.yul\":3230:3440   */\n      swap3\n      swap2\n      pop\n      pop\n      jump\t// out\n        /* \"#utility.yul\":3446:3775   */\n    tag_61:\n        /* \"#utility.yul\":3505:3511   */\n      0x00\n        /* \"#utility.yul\":3554:3556   */\n      0x20\n        /* \"#utility.yul\":3542:3551   */\n      dup3\n        /* \"#utility.yul\":3533:3540   */\n      dup5\n        /* \"#utility.yul\":3529:3552   */\n      sub\n        /* \"#utility.yul\":3525:3557   */\n      slt\n        /* \"#utility.yul\":3522:3641   */\n      iszero\n      tag_694\n      jumpi\n        /* \"#utility.yul\":3560:3639   */\n      tag_695\n      tag_564\n      jump\t// in\n    tag_695:\n        /* \"#utility.yul\":3522:3641   */\n    tag_694:\n        /* \"#utility.yul\":3680:3681   */\n      0x00\n        /* \"#utility.yul\":3705:3758   */\n      tag_696\n        /* \"#utility.yul\":3750:3757   */\n      dup5\n        /* \"#utility.yul\":3741:3747   */\n      dup3\n        /* \"#utility.yul\":3730:3739   */\n      dup6\n        /* \"#utility.yul\":3726:3748   */\n      add\n        /* \"#utility.yul\":3705:3758   */\n      tag_572\n      jump\t// in\n    tag_696:\n        /* \"#utility.yul\":3695:3758   */\n      swap2\n      pop\n        /* \"#utility.yul\":3651:3768   */\n      pop\n        /* \"#utility.yul\":3446:3775   */\n      swap3\n      swap2\n      pop\n      pop\n      jump\t// out\n        /* \"#utility.yul\":3781:3899   */\n    tag_575:\n        /* \"#utility.yul\":3868:3892   */\n      tag_698\n        /* \"#utility.yul\":3886:3891   */\n      dup2\n        /* \"#utility.yul\":3868:3892   */\n      tag_570\n      jump\t// in\n    tag_698:\n        /* \"#utility.yul\":3863:3866   */\n      dup3\n        /* \"#utility.yul\":3856:3893   */\n      mstore\n        /* \"#utility.yul\":3781:3899   */\n      pop\n      pop\n      jump\t// out\n        /* \"#utility.yul\":3905:4127   */\n    tag_64:\n        /* \"#utility.yul\":3998:4002   */\n      0x00\n        /* \"#utility.yul\":4036:4038   */\n      0x20\n        /* \"#utility.yul\":4025:4034   */\n      dup3\n        /* \"#utility.yul\":4021:4039   */\n      add\n        /* \"#utility.yul\":4013:4039   */\n      swap1\n      pop\n        /* \"#utility.yul\":4049:4120   */\n      tag_700\n        /* \"#utility.yul\":4117:4118   */\n      0x00\n        /* \"#utility.yul\":4106:4115   */\n      dup4\n        /* \"#utility.yul\":4102:4119   */\n      add\n        /* \"#utility.yul\":4093:4099   */\n      dup5\n        /* \"#utility.yul\":4049:4120   */\n      tag_575\n      jump\t// in\n    tag_700:\n        /* \"#utility.yul\":3905:4127   */\n      swap3\n      swap2\n      pop\n      pop\n      jump\t// out\n        /* \"#utility.yul\":4133:4462   */\n    tag_70:\n        /* \"#utility.yul\":4192:4198   */\n      0x00\n        /* \"#utility.yul\":4241:4243   */\n      0x20\n        /* \"#utility.yul\":4229:4238   */\n      dup3\n        /* \"#utility.yul\":4220:4227   */\n      dup5\n        /* \"#utility.yul\":4216:4239   */\n      sub\n        /* \"#utility.yul\":4212:4244   */\n      slt\n        /* \"#utility.yul\":4209:4328   */\n      iszero\n      tag_702\n      jumpi\n        /* \"#utility.yul\":4247:4326   */\n      tag_703\n      tag_564\n      jump\t// in\n    tag_703:\n        /* \"#utility.yul\":4209:4328   */\n    tag_702:\n        /* \"#utility.yul\":4367:4368   */\n      0x00\n        /* \"#utility.yul\":4392:4445   */\n      tag_704\n        /* \"#utility.yul\":4437:4444   */\n      dup5\n        /* \"#utility.yul\":4428:4434   */\n      dup3\n        /* \"#utility.yul\":4417:4426   */\n      dup6\n        /* \"#utility.yul\":4413:4435   */\n      add\n        /* \"#utility.yul\":4392:4445   */\n      tag_569\n      jump\t// in\n    tag_704:\n        /* \"#utility.yul\":4382:4445   */\n      swap2\n      pop\n        /* \"#utility.yul\":4338:4455   */\n      pop\n        /* \"#utility.yul\":4133:4462   */\n      swap3\n      swap2\n      pop\n      pop\n      jump\t// out\n        /* \"#utility.yul\":4468:5087   */\n    tag_77:\n        /* \"#utility.yul\":4545:4551   */\n      0x00\n        /* \"#utility.yul\":4553:4559   */\n      dup1\n        /* \"#utility.yul\":4561:4567   */\n      0x00\n        /* \"#utility.yul\":4610:4612   */\n      0x60\n        /* \"#utility.yul\":4598:4607   */\n      dup5\n        /* \"#utility.yul\":4589:4596   */\n      dup7\n        /* \"#utility.yul\":4585:4608   */\n      sub\n        /* \"#utility.yul\":4581:4613   */\n      slt\n        /* \"#utility.yul\":4578:4697   */\n      iszero\n      tag_706\n      jumpi\n        /* \"#utility.yul\":4616:4695   */\n      tag_707\n      tag_564\n      jump\t// in\n    tag_707:\n        /* \"#utility.yul\":4578:4697   */\n    tag_706:\n        /* \"#utility.yul\":4736:4737   */\n      0x00\n        /* \"#utility.yul\":4761:4814   */\n      tag_708\n        /* \"#utility.yul\":4806:4813   */\n      dup7\n        /* \"#utility.yul\":4797:4803   */\n      dup3\n        /* \"#utility.yul\":4786:4795   */\n      dup8\n        /* \"#utility.yul\":4782:4804   */\n      add\n        /* \"#utility.yul\":4761:4814   */\n      tag_569\n      jump\t// in\n    tag_708:\n        /* \"#utility.yul\":4751:4814   */\n      swap4\n      pop\n        /* \"#utility.yul\":4707:4824   */\n      pop\n        /* \"#utility.yul\":4863:4865   */\n      0x20\n        /* \"#utility.yul\":4889:4942   */\n      tag_709\n        /* \"#utility.yul\":4934:4941   */\n      dup7\n        /* \"#utility.yul\":4925:4931   */\n      dup3\n        /* \"#utility.yul\":4914:4923   */\n      dup8\n        /* \"#utility.yul\":4910:4932   */\n      add\n        /* \"#utility.yul\":4889:4942   */\n      tag_569\n      jump\t// in\n    tag_709:\n        /* \"#utility.yul\":4879:4942   */\n      swap3\n      pop\n        /* \"#utility.yul\":4834:4952   */\n      pop\n        /* \"#utility.yul\":4991:4993   */\n      0x40\n        /* \"#utility.yul\":5017:5070   */\n      tag_710\n        /* \"#utility.yul\":5062:5069   */\n      dup7\n        /* \"#utility.yul\":5053:5059   */\n      dup3\n        /* \"#utility.yul\":5042:5051   */\n      dup8\n        /* \"#utility.yul\":5038:5060   */\n      add\n        /* \"#utility.yul\":5017:5070   */\n      tag_572\n      jump\t// in\n    tag_710:\n        /* \"#utility.yul\":5007:5070   */\n      swap2\n      pop\n        /* \"#utility.yul\":4962:5080   */\n      pop\n        /* \"#utility.yul\":4468:5087   */\n      swap3\n      pop\n      swap3\n      pop\n      swap3\n      jump\t// out\n        /* \"#utility.yul\":5093:5179   */\n    tag_576:\n        /* \"#utility.yul\":5128:5135   */\n      0x00\n        /* \"#utility.yul\":5168:5172   */\n      0xff\n        /* \"#utility.yul\":5161:5166   */\n      dup3\n        /* \"#utility.yul\":5157:5173   */\n      and\n        /* \"#utility.yul\":5146:5173   */\n      swap1\n      pop\n        /* \"#utility.yul\":5093:5179   */\n      swap2\n      swap1\n      pop\n      jump\t// out\n        /* \"#utility.yul\":5185:5297   */\n    tag_577:\n        /* \"#utility.yul\":5268:5290   */\n      tag_713\n        /* \"#utility.yul\":5284:5289   */\n      dup2\n        /* \"#utility.yul\":5268:5290   */\n      tag_576\n      jump\t// in\n    tag_713:\n        /* \"#utility.yul\":5263:5266   */\n      dup3\n        /* \"#utility.yul\":5256:5291   */\n      mstore\n        /* \"#utility.yul\":5185:5297   */\n      pop\n      pop\n      jump\t// out\n        /* \"#utility.yul\":5303:5517   */\n    tag_86:\n        /* \"#utility.yul\":5392:5396   */\n      0x00\n        /* \"#utility.yul\":5430:5432   */\n      0x20\n        /* \"#utility.yul\":5419:5428   */\n      dup3\n        /* \"#utility.yul\":5415:5433   */\n      add\n        /* \"#utility.yul\":5407:5433   */\n      swap1\n      pop\n        /* \"#utility.yul\":5443:5510   */\n      tag_715\n        /* \"#utility.yul\":5507:5508   */\n      0x00\n        /* \"#utility.yul\":5496:5505   */\n      dup4\n        /* \"#utility.yul\":5492:5509   */\n      add\n        /* \"#utility.yul\":5483:5489   */\n      dup5\n        /* \"#utility.yul\":5443:5510   */\n      tag_577\n      jump\t// in\n    tag_715:\n        /* \"#utility.yul\":5303:5517   */\n      swap3\n      swap2\n      pop\n      pop\n      jump\t// out\n        /* \"#utility.yul\":5523:5641   */\n    tag_578:\n        /* \"#utility.yul\":5610:5634   */\n      tag_717\n        /* \"#utility.yul\":5628:5633   */\n      dup2\n        /* \"#utility.yul\":5610:5634   */\n      tag_567\n      jump\t// in\n    tag_717:\n        /* \"#utility.yul\":5605:5608   */\n      dup3\n        /* \"#utility.yul\":5598:5635   */\n      mstore\n        /* \"#utility.yul\":5523:5641   */\n      pop\n      pop\n      jump\t// out\n        /* \"#utility.yul\":5647:5869   */\n    tag_90:\n        /* \"#utility.yul\":5740:5744   */\n      0x00\n        /* \"#utility.yul\":5778:5780   */\n      0x20\n        /* \"#utility.yul\":5767:5776   */\n      dup3\n        /* \"#utility.yul\":5763:5781   */\n      add\n        /* \"#utility.yul\":5755:5781   */\n      swap1\n      pop\n        /* \"#utility.yul\":5791:5862   */\n      tag_719\n        /* \"#utility.yul\":5859:5860   */\n      0x00\n        /* \"#utility.yul\":5848:5857   */\n      dup4\n        /* \"#utility.yul\":5844:5861   */\n      add\n        /* \"#utility.yul\":5835:5841   */\n      dup5\n        /* \"#utility.yul\":5791:5862   */\n      tag_578\n      jump\t// in\n    tag_719:\n        /* \"#utility.yul\":5647:5869   */\n      swap3\n      swap2\n      pop\n      pop\n      jump\t// out\n        /* \"#utility.yul\":5875:5992   */\n    tag_579:\n        /* \"#utility.yul\":5984:5985   */\n      0x00\n        /* \"#utility.yul\":5981:5982   */\n      dup1\n        /* \"#utility.yul\":5974:5986   */\n      revert\n        /* \"#utility.yul\":5998:6178   */\n    tag_580:\n        /* \"#utility.yul\":6046:6123   */\n      0x4e487b7100000000000000000000000000000000000000000000000000000000\n        /* \"#utility.yul\":6043:6044   */\n      0x00\n        /* \"#utility.yul\":6036:6124   */\n      mstore\n        /* \"#utility.yul\":6143:6147   */\n      0x41\n        /* \"#utility.yul\":6140:6141   */\n      0x04\n        /* \"#utility.yul\":6133:6148   */\n      mstore\n        /* \"#utility.yul\":6167:6171   */\n      0x24\n        /* \"#utility.yul\":6164:6165   */\n      0x00\n        /* \"#utility.yul\":6157:6172   */\n      revert\n        /* \"#utility.yul\":6184:6465   */\n    tag_581:\n        /* \"#utility.yul\":6267:6294   */\n      tag_723\n        /* \"#utility.yul\":6289:6293   */\n      dup3\n        /* \"#utility.yul\":6267:6294   */\n      tag_561\n      jump\t// in\n    tag_723:\n        /* \"#utility.yul\":6259:6265   */\n      dup2\n        /* \"#utility.yul\":6255:6295   */\n      add\n        /* \"#utility.yul\":6397:6403   */\n      dup2\n        /* \"#utility.yul\":6385:6395   */\n      dup2\n        /* \"#utility.yul\":6382:6404   */\n      lt\n        /* \"#utility.yul\":6361:6379   */\n      0xffffffffffffffff\n        /* \"#utility.yul\":6349:6359   */\n      dup3\n        /* \"#utility.yul\":6346:6380   */\n      gt\n        /* \"#utility.yul\":6343:6405   */\n      or\n        /* \"#utility.yul\":6340:6428   */\n      iszero\n      tag_724\n      jumpi\n        /* \"#utility.yul\":6408:6426   */\n      tag_725\n      tag_580\n      jump\t// in\n    tag_725:\n        /* \"#utility.yul\":6340:6428   */\n    tag_724:\n        /* \"#utility.yul\":6448:6458   */\n      dup1\n        /* \"#utility.yul\":6444:6446   */\n      0x40\n        /* \"#utility.yul\":6437:6459   */\n      mstore\n        /* \"#utility.yul\":6227:6465   */\n      pop\n        /* \"#utility.yul\":6184:6465   */\n      pop\n      pop\n      jump\t// out\n        /* \"#utility.yul\":6471:6600   */\n    tag_582:\n        /* \"#utility.yul\":6505:6511   */\n      0x00\n        /* \"#utility.yul\":6532:6552   */\n      tag_727\n      tag_563\n      jump\t// in\n    tag_727:\n        /* \"#utility.yul\":6522:6552   */\n      swap1\n      pop\n        /* \"#utility.yul\":6561:6594   */\n      tag_728\n        /* \"#utility.yul\":6589:6593   */\n      dup3\n        /* \"#utility.yul\":6581:6587   */\n      dup3\n        /* \"#utility.yul\":6561:6594   */\n      tag_581\n      jump\t// in\n    tag_728:\n        /* \"#utility.yul\":6471:6600   */\n      swap2\n      swap1\n      pop\n      jump\t// out\n        /* \"#utility.yul\":6606:6855   */\n    tag_583:\n        /* \"#utility.yul\":6681:6685   */\n      0x00\n        /* \"#utility.yul\":6771:6789   */\n      0xffffffffffffffff\n        /* \"#utility.yul\":6763:6769   */\n      dup3\n        /* \"#utility.yul\":6760:6790   */\n      gt\n        /* \"#utility.yul\":6757:6813   */\n      iszero\n      tag_730\n      jumpi\n        /* \"#utility.yul\":6793:6811   */\n      tag_731\n      tag_580\n      jump\t// in\n    tag_731:\n        /* \"#utility.yul\":6757:6813   */\n    tag_730:\n        /* \"#utility.yul\":6843:6847   */\n      0x20\n        /* \"#utility.yul\":6835:6841   */\n      dup3\n        /* \"#utility.yul\":6831:6848   */\n      mul\n        /* \"#utility.yul\":6823:6848   */\n      swap1\n      pop\n        /* \"#utility.yul\":6606:6855   */\n      swap2\n      swap1\n      pop\n      jump\t// out\n        /* \"#utility.yul\":6861:6978   */\n    tag_584:\n        /* \"#utility.yul\":6970:6971   */\n      0x00\n        /* \"#utility.yul\":6967:6968   */\n      dup1\n        /* \"#utility.yul\":6960:6972   */\n      revert\n        /* \"#utility.yul\":7002:7645   */\n    tag_585:\n        /* \"#utility.yul\":7096:7101   */\n      0x00\n        /* \"#utility.yul\":7121:7200   */\n      tag_734\n        /* \"#utility.yul\":7137:7199   */\n      tag_735\n        /* \"#utility.yul\":7192:7198   */\n      dup5\n        /* \"#utility.yul\":7137:7199   */\n      tag_583\n      jump\t// in\n    tag_735:\n        /* \"#utility.yul\":7121:7200   */\n      tag_582\n      jump\t// in\n    tag_734:\n        /* \"#utility.yul\":7112:7200   */\n      swap1\n      pop\n        /* \"#utility.yul\":7220:7225   */\n      dup1\n        /* \"#utility.yul\":7273:7277   */\n      0x20\n        /* \"#utility.yul\":7265:7271   */\n      dup5\n        /* \"#utility.yul\":7261:7278   */\n      mul\n        /* \"#utility.yul\":7253:7259   */\n      dup4\n        /* \"#utility.yul\":7249:7279   */\n      add\n        /* \"#utility.yul\":7302:7305   */\n      dup6\n        /* \"#utility.yul\":7294:7300   */\n      dup2\n        /* \"#utility.yul\":7291:7306   */\n      gt\n        /* \"#utility.yul\":7288:7410   */\n      iszero\n      tag_736\n      jumpi\n        /* \"#utility.yul\":7321:7400   */\n      tag_737\n      tag_584\n      jump\t// in\n    tag_737:\n        /* \"#utility.yul\":7288:7410   */\n    tag_736:\n        /* \"#utility.yul\":7436:7442   */\n      dup4\n        /* \"#utility.yul\":7419:7639   */\n    tag_738:\n        /* \"#utility.yul\":7453:7459   */\n      dup2\n        /* \"#utility.yul\":7448:7451   */\n      dup2\n        /* \"#utility.yul\":7445:7460   */\n      lt\n        /* \"#utility.yul\":7419:7639   */\n      iszero\n      tag_740\n      jumpi\n        /* \"#utility.yul\":7528:7531   */\n      dup1\n        /* \"#utility.yul\":7557:7594   */\n      tag_741\n        /* \"#utility.yul\":7590:7593   */\n      dup9\n        /* \"#utility.yul\":7578:7588   */\n      dup3\n        /* \"#utility.yul\":7557:7594   */\n      tag_572\n      jump\t// in\n    tag_741:\n        /* \"#utility.yul\":7552:7555   */\n      dup5\n        /* \"#utility.yul\":7545:7595   */\n      mstore\n        /* \"#utility.yul\":7624:7628   */\n      0x20\n        /* \"#utility.yul\":7619:7622   */\n      dup5\n        /* \"#utility.yul\":7615:7629   */\n      add\n        /* \"#utility.yul\":7608:7629   */\n      swap4\n      pop\n        /* \"#utility.yul\":7495:7639   */\n      pop\n        /* \"#utility.yul\":7479:7483   */\n      0x20\n        /* \"#utility.yul\":7474:7477   */\n      dup2\n        /* \"#utility.yul\":7470:7484   */\n      add\n        /* \"#utility.yul\":7463:7484   */\n      swap1\n      pop\n        /* \"#utility.yul\":7419:7639   */\n      jump(tag_738)\n    tag_740:\n        /* \"#utility.yul\":7423:7444   */\n      pop\n        /* \"#utility.yul\":7102:7645   */\n      pop\n      pop\n        /* \"#utility.yul\":7002:7645   */\n      swap4\n      swap3\n      pop\n      pop\n      pop\n      jump\t// out\n        /* \"#utility.yul\":7669:8008   */\n    tag_586:\n        /* \"#utility.yul\":7738:7743   */\n      0x00\n        /* \"#utility.yul\":7787:7790   */\n      dup3\n        /* \"#utility.yul\":7780:7784   */\n      0x1f\n        /* \"#utility.yul\":7772:7778   */\n      dup4\n        /* \"#utility.yul\":7768:7785   */\n      add\n        /* \"#utility.yul\":7764:7791   */\n      slt\n        /* \"#utility.yul\":7754:7876   */\n      tag_743\n      jumpi\n        /* \"#utility.yul\":7795:7874   */\n      tag_744\n      tag_579\n      jump\t// in\n    tag_744:\n        /* \"#utility.yul\":7754:7876   */\n    tag_743:\n        /* \"#utility.yul\":7899:7903   */\n      0x05\n        /* \"#utility.yul\":7921:8002   */\n      tag_745\n        /* \"#utility.yul\":7998:8001   */\n      dup5\n        /* \"#utility.yul\":7990:7996   */\n      dup3\n        /* \"#utility.yul\":7982:7988   */\n      dup6\n        /* \"#utility.yul\":7921:8002   */\n      tag_585\n      jump\t// in\n    tag_745:\n        /* \"#utility.yul\":7912:8002   */\n      swap2\n      pop\n        /* \"#utility.yul\":7744:8008   */\n      pop\n        /* \"#utility.yul\":7669:8008   */\n      swap3\n      swap2\n      pop\n      pop\n      jump\t// out\n        /* \"#utility.yul\":8014:8582   */\n    tag_104:\n        /* \"#utility.yul\":8128:8134   */\n      0x00\n        /* \"#utility.yul\":8136:8142   */\n      dup1\n        /* \"#utility.yul\":8185:8188   */\n      0x0140\n        /* \"#utility.yul\":8173:8182   */\n      dup4\n        /* \"#utility.yul\":8164:8171   */\n      dup6\n        /* \"#utility.yul\":8160:8183   */\n      sub\n        /* \"#utility.yul\":8156:8189   */\n      slt\n        /* \"#utility.yul\":8153:8273   */\n      iszero\n      tag_747\n      jumpi\n        /* \"#utility.yul\":8192:8271   */\n      tag_748\n      tag_564\n      jump\t// in\n    tag_748:\n        /* \"#utility.yul\":8153:8273   */\n    tag_747:\n        /* \"#utility.yul\":8312:8313   */\n      0x00\n        /* \"#utility.yul\":8337:8413   */\n      tag_749\n        /* \"#utility.yul\":8405:8412   */\n      dup6\n        /* \"#utility.yul\":8396:8402   */\n      dup3\n        /* \"#utility.yul\":8385:8394   */\n      dup7\n        /* \"#utility.yul\":8381:8403   */\n      add\n        /* \"#utility.yul\":8337:8413   */\n      tag_586\n      jump\t// in\n    tag_749:\n        /* \"#utility.yul\":8327:8413   */\n      swap3\n      pop\n        /* \"#utility.yul\":8283:8423   */\n      pop\n        /* \"#utility.yul\":8462:8465   */\n      0xa0\n        /* \"#utility.yul\":8489:8565   */\n      tag_750\n        /* \"#utility.yul\":8557:8564   */\n      dup6\n        /* \"#utility.yul\":8548:8554   */\n      dup3\n        /* \"#utility.yul\":8537:8546   */\n      dup7\n        /* \"#utility.yul\":8533:8555   */\n      add\n        /* \"#utility.yul\":8489:8565   */\n      tag_586\n      jump\t// in\n    tag_750:\n        /* \"#utility.yul\":8479:8565   */\n      swap2\n      pop\n        /* \"#utility.yul\":8433:8575   */\n      pop\n        /* \"#utility.yul\":8014:8582   */\n      swap3\n      pop\n      swap3\n      swap1\n      pop\n      jump\t// out\n        /* \"#utility.yul\":8588:8704   */\n    tag_587:\n        /* \"#utility.yul\":8658:8679   */\n      tag_752\n        /* \"#utility.yul\":8673:8678   */\n      dup2\n        /* \"#utility.yul\":8658:8679   */\n      tag_573\n      jump\t// in\n    tag_752:\n        /* \"#utility.yul\":8651:8656   */\n      dup2\n        /* \"#utility.yul\":8648:8680   */\n      eq\n        /* \"#utility.yul\":8638:8698   */\n      tag_753\n      jumpi\n        /* \"#utility.yul\":8694:8695   */\n      0x00\n        /* \"#utility.yul\":8691:8692   */\n      dup1\n        /* \"#utility.yul\":8684:8696   */\n      revert\n        /* \"#utility.yul\":8638:8698   */\n    tag_753:\n        /* \"#utility.yul\":8588:8704   */\n      pop\n      jump\t// out\n        /* \"#utility.yul\":8710:8843   */\n    tag_588:\n        /* \"#utility.yul\":8753:8758   */\n      0x00\n        /* \"#utility.yul\":8791:8797   */\n      dup2\n        /* \"#utility.yul\":8778:8798   */\n      calldataload\n        /* \"#utility.yul\":8769:8798   */\n      swap1\n      pop\n        /* \"#utility.yul\":8807:8837   */\n      tag_755\n        /* \"#utility.yul\":8831:8836   */\n      dup2\n        /* \"#utility.yul\":8807:8837   */\n      tag_587\n      jump\t// in\n    tag_755:\n        /* \"#utility.yul\":8710:8843   */\n      swap3\n      swap2\n      pop\n      pop\n      jump\t// out\n        /* \"#utility.yul\":8849:9317   */\n    tag_152:\n        /* \"#utility.yul\":8914:8920   */\n      0x00\n        /* \"#utility.yul\":8922:8928   */\n      dup1\n        /* \"#utility.yul\":8971:8973   */\n      0x40\n        /* \"#utility.yul\":8959:8968   */\n      dup4\n        /* \"#utility.yul\":8950:8957   */\n      dup6\n        /* \"#utility.yul\":8946:8969   */\n      sub\n        /* \"#utility.yul\":8942:8974   */\n      slt\n        /* \"#utility.yul\":8939:9058   */\n      iszero\n      tag_757\n      jumpi\n        /* \"#utility.yul\":8977:9056   */\n      tag_758\n      tag_564\n      jump\t// in\n    tag_758:\n        /* \"#utility.yul\":8939:9058   */\n    tag_757:\n        /* \"#utility.yul\":9097:9098   */\n      0x00\n        /* \"#utility.yul\":9122:9175   */\n      tag_759\n        /* \"#utility.yul\":9167:9174   */\n      dup6\n        /* \"#utility.yul\":9158:9164   */\n      dup3\n        /* \"#utility.yul\":9147:9156   */\n      dup7\n        /* \"#utility.yul\":9143:9165   */\n      add\n        /* \"#utility.yul\":9122:9175   */\n      tag_569\n      jump\t// in\n    tag_759:\n        /* \"#utility.yul\":9112:9175   */\n      swap3\n      pop\n        /* \"#utility.yul\":9068:9185   */\n      pop\n        /* \"#utility.yul\":9224:9226   */\n      0x20\n        /* \"#utility.yul\":9250:9300   */\n      tag_760\n        /* \"#utility.yul\":9292:9299   */\n      dup6\n        /* \"#utility.yul\":9283:9289   */\n      dup3\n        /* \"#utility.yul\":9272:9281   */\n      dup7\n        /* \"#utility.yul\":9268:9290   */\n      add\n        /* \"#utility.yul\":9250:9300   */\n      tag_588\n      jump\t// in\n    tag_760:\n        /* \"#utility.yul\":9240:9300   */\n      swap2\n      pop\n        /* \"#utility.yul\":9195:9310   */\n      pop\n        /* \"#utility.yul\":8849:9317   */\n      swap3\n      pop\n      swap3\n      swap1\n      pop\n      jump\t// out\n        /* \"#utility.yul\":9323:9440   */\n    tag_589:\n        /* \"#utility.yul\":9432:9433   */\n      0x00\n        /* \"#utility.yul\":9429:9430   */\n      dup1\n        /* \"#utility.yul\":9422:9434   */\n      revert\n        /* \"#utility.yul\":9446:9754   */\n    tag_590:\n        /* \"#utility.yul\":9508:9512   */\n      0x00\n        /* \"#utility.yul\":9598:9616   */\n      0xffffffffffffffff\n        /* \"#utility.yul\":9590:9596   */\n      dup3\n        /* \"#utility.yul\":9587:9617   */\n      gt\n        /* \"#utility.yul\":9584:9640   */\n      iszero\n      tag_763\n      jumpi\n        /* \"#utility.yul\":9620:9638   */\n      tag_764\n      tag_580\n      jump\t// in\n    tag_764:\n        /* \"#utility.yul\":9584:9640   */\n    tag_763:\n        /* \"#utility.yul\":9658:9687   */\n      tag_765\n        /* \"#utility.yul\":9680:9686   */\n      dup3\n        /* \"#utility.yul\":9658:9687   */\n      tag_561\n      jump\t// in\n    tag_765:\n        /* \"#utility.yul\":9650:9687   */\n      swap1\n      pop\n        /* \"#utility.yul\":9742:9746   */\n      0x20\n        /* \"#utility.yul\":9736:9740   */\n      dup2\n        /* \"#utility.yul\":9732:9747   */\n      add\n        /* \"#utility.yul\":9724:9747   */\n      swap1\n      pop\n        /* \"#utility.yul\":9446:9754   */\n      swap2\n      swap1\n      pop\n      jump\t// out\n        /* \"#utility.yul\":9760:9906   */\n    tag_591:\n        /* \"#utility.yul\":9857:9863   */\n      dup3\n        /* \"#utility.yul\":9852:9855   */\n      dup2\n        /* \"#utility.yul\":9847:9850   */\n      dup4\n        /* \"#utility.yul\":9834:9864   */\n      calldatacopy\n        /* \"#utility.yul\":9898:9899   */\n      0x00\n        /* \"#utility.yul\":9889:9895   */\n      dup4\n        /* \"#utility.yul\":9884:9887   */\n      dup4\n        /* \"#utility.yul\":9880:9896   */\n      add\n        /* \"#utility.yul\":9873:9900   */\n      mstore\n        /* \"#utility.yul\":9760:9906   */\n      pop\n      pop\n      pop\n      jump\t// out\n        /* \"#utility.yul\":9912:10337   */\n    tag_592:\n        /* \"#utility.yul\":9990:9995   */\n      0x00\n        /* \"#utility.yul\":10015:10081   */\n      tag_768\n        /* \"#utility.yul\":10031:10080   */\n      tag_769\n        /* \"#utility.yul\":10073:10079   */\n      dup5\n        /* \"#utility.yul\":10031:10080   */\n      tag_590\n      jump\t// in\n    tag_769:\n        /* \"#utility.yul\":10015:10081   */\n      tag_582\n      jump\t// in\n    tag_768:\n        /* \"#utility.yul\":10006:10081   */\n      swap1\n      pop\n        /* \"#utility.yul\":10104:10110   */\n      dup3\n        /* \"#utility.yul\":10097:10102   */\n      dup2\n        /* \"#utility.yul\":10090:10111   */\n      mstore\n        /* \"#utility.yul\":10142:10146   */\n      0x20\n        /* \"#utility.yul\":10135:10140   */\n      dup2\n        /* \"#utility.yul\":10131:10147   */\n      add\n        /* \"#utility.yul\":10180:10183   */\n      dup5\n        /* \"#utility.yul\":10171:10177   */\n      dup5\n        /* \"#utility.yul\":10166:10169   */\n      dup5\n        /* \"#utility.yul\":10162:10178   */\n      add\n        /* \"#utility.yul\":10159:10184   */\n      gt\n        /* \"#utility.yul\":10156:10268   */\n      iszero\n      tag_770\n      jumpi\n        /* \"#utility.yul\":10187:10266   */\n      tag_771\n      tag_589\n      jump\t// in\n    tag_771:\n        /* \"#utility.yul\":10156:10268   */\n    tag_770:\n        /* \"#utility.yul\":10277:10331   */\n      tag_772\n        /* \"#utility.yul\":10324:10330   */\n      dup5\n        /* \"#utility.yul\":10319:10322   */\n      dup3\n        /* \"#utility.yul\":10314:10317   */\n      dup6\n        /* \"#utility.yul\":10277:10331   */\n      tag_591\n      jump\t// in\n    tag_772:\n        /* \"#utility.yul\":9996:10337   */\n      pop\n        /* \"#utility.yul\":9912:10337   */\n      swap4\n      swap3\n      pop\n      pop\n      pop\n      jump\t// out\n        /* \"#utility.yul\":10357:10697   */\n    tag_593:\n        /* \"#utility.yul\":10413:10418   */\n      0x00\n        /* \"#utility.yul\":10462:10465   */\n      dup3\n        /* \"#utility.yul\":10455:10459   */\n      0x1f\n        /* \"#utility.yul\":10447:10453   */\n      dup4\n        /* \"#utility.yul\":10443:10460   */\n      add\n        /* \"#utility.yul\":10439:10466   */\n      slt\n        /* \"#utility.yul\":10429:10551   */\n      tag_774\n      jumpi\n        /* \"#utility.yul\":10470:10549   */\n      tag_775\n      tag_579\n      jump\t// in\n    tag_775:\n        /* \"#utility.yul\":10429:10551   */\n    tag_774:\n        /* \"#utility.yul\":10587:10593   */\n      dup2\n        /* \"#utility.yul\":10574:10594   */\n      calldataload\n        /* \"#utility.yul\":10612:10691   */\n      tag_776\n        /* \"#utility.yul\":10687:10690   */\n      dup5\n        /* \"#utility.yul\":10679:10685   */\n      dup3\n        /* \"#utility.yul\":10672:10676   */\n      0x20\n        /* \"#utility.yul\":10664:10670   */\n      dup7\n        /* \"#utility.yul\":10660:10677   */\n      add\n        /* \"#utility.yul\":10612:10691   */\n      tag_592\n      jump\t// in\n    tag_776:\n        /* \"#utility.yul\":10603:10691   */\n      swap2\n      pop\n        /* \"#utility.yul\":10419:10697   */\n      pop\n        /* \"#utility.yul\":10357:10697   */\n      swap3\n      swap2\n      pop\n      pop\n      jump\t// out\n        /* \"#utility.yul\":10703:11974   */\n    tag_165:\n        /* \"#utility.yul\":10818:10824   */\n      0x00\n        /* \"#utility.yul\":10826:10832   */\n      dup1\n        /* \"#utility.yul\":10834:10840   */\n      0x00\n        /* \"#utility.yul\":10842:10848   */\n      dup1\n        /* \"#utility.yul\":10850:10856   */\n      0x00\n        /* \"#utility.yul\":10899:10902   */\n      0xa0\n        /* \"#utility.yul\":10887:10896   */\n      dup7\n        /* \"#utility.yul\":10878:10885   */\n      dup9\n        /* \"#utility.yul\":10874:10897   */\n      sub\n        /* \"#utility.yul\":10870:10903   */\n      slt\n        /* \"#utility.yul\":10867:10987   */\n      iszero\n      tag_778\n      jumpi\n        /* \"#utility.yul\":10906:10985   */\n      tag_779\n      tag_564\n      jump\t// in\n    tag_779:\n        /* \"#utility.yul\":10867:10987   */\n    tag_778:\n        /* \"#utility.yul\":11054:11055   */\n      0x00\n        /* \"#utility.yul\":11043:11052   */\n      dup7\n        /* \"#utility.yul\":11039:11056   */\n      add\n        /* \"#utility.yul\":11026:11057   */\n      calldataload\n        /* \"#utility.yul\":11084:11102   */\n      0xffffffffffffffff\n        /* \"#utility.yul\":11076:11082   */\n      dup2\n        /* \"#utility.yul\":11073:11103   */\n      gt\n        /* \"#utility.yul\":11070:11187   */\n      iszero\n      tag_780\n      jumpi\n        /* \"#utility.yul\":11106:11185   */\n      tag_781\n      tag_565\n      jump\t// in\n    tag_781:\n        /* \"#utility.yul\":11070:11187   */\n    tag_780:\n        /* \"#utility.yul\":11211:11274   */\n      tag_782\n        /* \"#utility.yul\":11266:11273   */\n      dup9\n        /* \"#utility.yul\":11257:11263   */\n      dup3\n        /* \"#utility.yul\":11246:11255   */\n      dup10\n        /* \"#utility.yul\":11242:11264   */\n      add\n        /* \"#utility.yul\":11211:11274   */\n      tag_593\n      jump\t// in\n    tag_782:\n        /* \"#utility.yul\":11201:11274   */\n      swap6\n      pop\n        /* \"#utility.yul\":10997:11284   */\n      pop\n        /* \"#utility.yul\":11351:11353   */\n      0x20\n        /* \"#utility.yul\":11340:11349   */\n      dup7\n        /* \"#utility.yul\":11336:11354   */\n      add\n        /* \"#utility.yul\":11323:11355   */\n      calldataload\n        /* \"#utility.yul\":11382:11400   */\n      0xffffffffffffffff\n        /* \"#utility.yul\":11374:11380   */\n      dup2\n        /* \"#utility.yul\":11371:11401   */\n      gt\n        /* \"#utility.yul\":11368:11485   */\n      iszero\n      tag_783\n      jumpi\n        /* \"#utility.yul\":11404:11483   */\n      tag_784\n      tag_565\n      jump\t// in\n    tag_784:\n        /* \"#utility.yul\":11368:11485   */\n    tag_783:\n        /* \"#utility.yul\":11509:11572   */\n      tag_785\n        /* \"#utility.yul\":11564:11571   */\n      dup9\n        /* \"#utility.yul\":11555:11561   */\n      dup3\n        /* \"#utility.yul\":11544:11553   */\n      dup10\n        /* \"#utility.yul\":11540:11562   */\n      add\n        /* \"#utility.yul\":11509:11572   */\n      tag_593\n      jump\t// in\n    tag_785:\n        /* \"#utility.yul\":11499:11572   */\n      swap5\n      pop\n        /* \"#utility.yul\":11294:11582   */\n      pop\n        /* \"#utility.yul\":11621:11623   */\n      0x40\n        /* \"#utility.yul\":11647:11700   */\n      tag_786\n        /* \"#utility.yul\":11692:11699   */\n      dup9\n        /* \"#utility.yul\":11683:11689   */\n      dup3\n        /* \"#utility.yul\":11672:11681   */\n      dup10\n        /* \"#utility.yul\":11668:11690   */\n      add\n        /* \"#utility.yul\":11647:11700   */\n      tag_569\n      jump\t// in\n    tag_786:\n        /* \"#utility.yul\":11637:11700   */\n      swap4\n      pop\n        /* \"#utility.yul\":11592:11710   */\n      pop\n        /* \"#utility.yul\":11749:11751   */\n      0x60\n        /* \"#utility.yul\":11775:11828   */\n      tag_787\n        /* \"#utility.yul\":11820:11827   */\n      dup9\n        /* \"#utility.yul\":11811:11817   */\n      dup3\n        /* \"#utility.yul\":11800:11809   */\n      dup10\n        /* \"#utility.yul\":11796:11818   */\n      add\n        /* \"#utility.yul\":11775:11828   */\n      tag_569\n      jump\t// in\n    tag_787:\n        /* \"#utility.yul\":11765:11828   */\n      swap3\n      pop\n        /* \"#utility.yul\":11720:11838   */\n      pop\n        /* \"#utility.yul\":11877:11880   */\n      0x80\n        /* \"#utility.yul\":11904:11957   */\n      tag_788\n        /* \"#utility.yul\":11949:11956   */\n      dup9\n        /* \"#utility.yul\":11940:11946   */\n      dup3\n        /* \"#utility.yul\":11929:11938   */\n      dup10\n        /* \"#utility.yul\":11925:11947   */\n      add\n        /* \"#utility.yul\":11904:11957   */\n      tag_569\n      jump\t// in\n    tag_788:\n        /* \"#utility.yul\":11894:11957   */\n      swap2\n      pop\n        /* \"#utility.yul\":11848:11967   */\n      pop\n        /* \"#utility.yul\":10703:11974   */\n      swap3\n      swap6\n      pop\n      swap3\n      swap6\n      swap1\n      swap4\n      pop\n      jump\t// out\n        /* \"#utility.yul\":11980:12454   */\n    tag_169:\n        /* \"#utility.yul\":12048:12054   */\n      0x00\n        /* \"#utility.yul\":12056:12062   */\n      dup1\n        /* \"#utility.yul\":12105:12107   */\n      0x40\n        /* \"#utility.yul\":12093:12102   */\n      dup4\n        /* \"#utility.yul\":12084:12091   */\n      dup6\n        /* \"#utility.yul\":12080:12103   */\n      sub\n        /* \"#utility.yul\":12076:12108   */\n      slt\n        /* \"#utility.yul\":12073:12192   */\n      iszero\n      tag_790\n      jumpi\n        /* \"#utility.yul\":12111:12190   */\n      tag_791\n      tag_564\n      jump\t// in\n    tag_791:\n        /* \"#utility.yul\":12073:12192   */\n    tag_790:\n        /* \"#utility.yul\":12231:12232   */\n      0x00\n        /* \"#utility.yul\":12256:12309   */\n      tag_792\n        /* \"#utility.yul\":12301:12308   */\n      dup6\n        /* \"#utility.yul\":12292:12298   */\n      dup3\n        /* \"#utility.yul\":12281:12290   */\n      dup7\n        /* \"#utility.yul\":12277:12299   */\n      add\n        /* \"#utility.yul\":12256:12309   */\n      tag_569\n      jump\t// in\n    tag_792:\n        /* \"#utility.yul\":12246:12309   */\n      swap3\n      pop\n        /* \"#utility.yul\":12202:12319   */\n      pop\n        /* \"#utility.yul\":12358:12360   */\n      0x20\n        /* \"#utility.yul\":12384:12437   */\n      tag_793\n        /* \"#utility.yul\":12429:12436   */\n      dup6\n        /* \"#utility.yul\":12420:12426   */\n      dup3\n        /* \"#utility.yul\":12409:12418   */\n      dup7\n        /* \"#utility.yul\":12405:12427   */\n      add\n        /* \"#utility.yul\":12384:12437   */\n      tag_569\n      jump\t// in\n    tag_793:\n        /* \"#utility.yul\":12374:12437   */\n      swap2\n      pop\n        /* \"#utility.yul\":12329:12447   */\n      pop\n        /* \"#utility.yul\":11980:12454   */\n      swap3\n      pop\n      swap3\n      swap1\n      pop\n      jump\t// out\n        /* \"#utility.yul\":12460:13067   */\n    tag_174:\n        /* \"#utility.yul\":12531:12537   */\n      0x00\n        /* \"#utility.yul\":12539:12545   */\n      dup1\n        /* \"#utility.yul\":12547:12553   */\n      0x00\n        /* \"#utility.yul\":12596:12598   */\n      0x60\n        /* \"#utility.yul\":12584:12593   */\n      dup5\n        /* \"#utility.yul\":12575:12582   */\n      dup7\n        /* \"#utility.yul\":12571:12594   */\n      sub\n        /* \"#utility.yul\":12567:12599   */\n      slt\n        /* \"#utility.yul\":12564:12683   */\n      iszero\n      tag_795\n      jumpi\n        /* \"#utility.yul\":12602:12681   */\n      tag_796\n      tag_564\n      jump\t// in\n    tag_796:\n        /* \"#utility.yul\":12564:12683   */\n    tag_795:\n        /* \"#utility.yul\":12722:12723   */\n      0x00\n        /* \"#utility.yul\":12747:12800   */\n      tag_797\n        /* \"#utility.yul\":12792:12799   */\n      dup7\n        /* \"#utility.yul\":12783:12789   */\n      dup3\n        /* \"#utility.yul\":12772:12781   */\n      dup8\n        /* \"#utility.yul\":12768:12790   */\n      add\n        /* \"#utility.yul\":12747:12800   */\n      tag_569\n      jump\t// in\n    tag_797:\n        /* \"#utility.yul\":12737:12800   */\n      swap4\n      pop\n        /* \"#utility.yul\":12693:12810   */\n      pop\n        /* \"#utility.yul\":12849:12851   */\n      0x20\n        /* \"#utility.yul\":12875:12925   */\n      tag_798\n        /* \"#utility.yul\":12917:12924   */\n      dup7\n        /* \"#utility.yul\":12908:12914   */\n      dup3\n        /* \"#utility.yul\":12897:12906   */\n      dup8\n        /* \"#utility.yul\":12893:12915   */\n      add\n        /* \"#utility.yul\":12875:12925   */\n      tag_588\n      jump\t// in\n    tag_798:\n        /* \"#utility.yul\":12865:12925   */\n      swap3\n      pop\n        /* \"#utility.yul\":12820:12935   */\n      pop\n        /* \"#utility.yul\":12974:12976   */\n      0x40\n        /* \"#utility.yul\":13000:13050   */\n      tag_799\n        /* \"#utility.yul\":13042:13049   */\n      dup7\n        /* \"#utility.yul\":13033:13039   */\n      dup3\n        /* \"#utility.yul\":13022:13031   */\n      dup8\n        /* \"#utility.yul\":13018:13040   */\n      add\n        /* \"#utility.yul\":13000:13050   */\n      tag_588\n      jump\t// in\n    tag_799:\n        /* \"#utility.yul\":12990:13050   */\n      swap2\n      pop\n        /* \"#utility.yul\":12945:13060   */\n      pop\n        /* \"#utility.yul\":12460:13067   */\n      swap3\n      pop\n      swap3\n      pop\n      swap3\n      jump\t// out\n        /* \"#utility.yul\":13073:13253   */\n    tag_594:\n        /* \"#utility.yul\":13121:13198   */\n      0x4e487b7100000000000000000000000000000000000000000000000000000000\n        /* \"#utility.yul\":13118:13119   */\n      0x00\n        /* \"#utility.yul\":13111:13199   */\n      mstore\n        /* \"#utility.yul\":13218:13222   */\n      0x22\n        /* \"#utility.yul\":13215:13216   */\n      0x04\n        /* \"#utility.yul\":13208:13223   */\n      mstore\n        /* \"#utility.yul\":13242:13246   */\n      0x24\n        /* \"#utility.yul\":13239:13240   */\n      0x00\n        /* \"#utility.yul\":13232:13247   */\n      revert\n        /* \"#utility.yul\":13259:13579   */\n    tag_190:\n        /* \"#utility.yul\":13303:13309   */\n      0x00\n        /* \"#utility.yul\":13340:13341   */\n      0x02\n        /* \"#utility.yul\":13334:13338   */\n      dup3\n        /* \"#utility.yul\":13330:13342   */\n      div\n        /* \"#utility.yul\":13320:13342   */\n      swap1\n      pop\n        /* \"#utility.yul\":13387:13388   */\n      0x01\n        /* \"#utility.yul\":13381:13385   */\n      dup3\n        /* \"#utility.yul\":13377:13389   */\n      and\n        /* \"#utility.yul\":13408:13426   */\n      dup1\n        /* \"#utility.yul\":13398:13479   */\n      tag_802\n      jumpi\n        /* \"#utility.yul\":13464:13468   */\n      0x7f\n        /* \"#utility.yul\":13456:13462   */\n      dup3\n        /* \"#utility.yul\":13452:13469   */\n      and\n        /* \"#utility.yul\":13442:13469   */\n      swap2\n      pop\n        /* \"#utility.yul\":13398:13479   */\n    tag_802:\n        /* \"#utility.yul\":13526:13528   */\n      0x20\n        /* \"#utility.yul\":13518:13524   */\n      dup3\n        /* \"#utility.yul\":13515:13529   */\n      lt\n        /* \"#utility.yul\":13495:13513   */\n      dup2\n        /* \"#utility.yul\":13492:13530   */\n      sub\n        /* \"#utility.yul\":13489:13573   */\n      tag_803\n      jumpi\n        /* \"#utility.yul\":13545:13563   */\n      tag_804\n      tag_594\n      jump\t// in\n    tag_804:\n        /* \"#utility.yul\":13489:13573   */\n    tag_803:\n        /* \"#utility.yul\":13310:13579   */\n      pop\n        /* \"#utility.yul\":13259:13579   */\n      swap2\n      swap1\n      pop\n      jump\t// out\n        /* \"#utility.yul\":13585:13814   */\n    tag_595:\n        /* \"#utility.yul\":13725:13759   */\n      0x474946543a204e65772061646d696e2063616e6e6f7420626520746865207a65\n        /* \"#utility.yul\":13721:13722   */\n      0x00\n        /* \"#utility.yul\":13713:13719   */\n      dup3\n        /* \"#utility.yul\":13709:13723   */\n      add\n        /* \"#utility.yul\":13702:13760   */\n      mstore\n        /* \"#utility.yul\":13794:13806   */\n      0x726f206164647265737300000000000000000000000000000000000000000000\n        /* \"#utility.yul\":13789:13791   */\n      0x20\n        /* \"#utility.yul\":13781:13787   */\n      dup3\n        /* \"#utility.yul\":13777:13792   */\n      add\n        /* \"#utility.yul\":13770:13807   */\n      mstore\n        /* \"#utility.yul\":13585:13814   */\n      pop\n      jump\t// out\n        /* \"#utility.yul\":13820:14186   */\n    tag_596:\n        /* \"#utility.yul\":13962:13965   */\n      0x00\n        /* \"#utility.yul\":13983:14050   */\n      tag_807\n        /* \"#utility.yul\":14047:14049   */\n      0x2a\n        /* \"#utility.yul\":14042:14045   */\n      dup4\n        /* \"#utility.yul\":13983:14050   */\n      tag_559\n      jump\t// in\n    tag_807:\n        /* \"#utility.yul\":13976:14050   */\n      swap2\n      pop\n        /* \"#utility.yul\":14059:14152   */\n      tag_808\n        /* \"#utility.yul\":14148:14151   */\n      dup3\n        /* \"#utility.yul\":14059:14152   */\n      tag_595\n      jump\t// in\n    tag_808:\n        /* \"#utility.yul\":14177:14179   */\n      0x40\n        /* \"#utility.yul\":14172:14175   */\n      dup3\n        /* \"#utility.yul\":14168:14180   */\n      add\n        /* \"#utility.yul\":14161:14180   */\n      swap1\n      pop\n        /* \"#utility.yul\":13820:14186   */\n      swap2\n      swap1\n      pop\n      jump\t// out\n        /* \"#utility.yul\":14192:14611   */\n    tag_210:\n        /* \"#utility.yul\":14358:14362   */\n      0x00\n        /* \"#utility.yul\":14396:14398   */\n      0x20\n        /* \"#utility.yul\":14385:14394   */\n      dup3\n        /* \"#utility.yul\":14381:14399   */\n      add\n        /* \"#utility.yul\":14373:14399   */\n      swap1\n      pop\n        /* \"#utility.yul\":14445:14454   */\n      dup2\n        /* \"#utility.yul\":14439:14443   */\n      dup2\n        /* \"#utility.yul\":14435:14455   */\n      sub\n        /* \"#utility.yul\":14431:14432   */\n      0x00\n        /* \"#utility.yul\":14420:14429   */\n      dup4\n        /* \"#utility.yul\":14416:14433   */\n      add\n        /* \"#utility.yul\":14409:14456   */\n      mstore\n        /* \"#utility.yul\":14473:14604   */\n      tag_810\n        /* \"#utility.yul\":14599:14603   */\n      dup2\n        /* \"#utility.yul\":14473:14604   */\n      tag_596\n      jump\t// in\n    tag_810:\n        /* \"#utility.yul\":14465:14604   */\n      swap1\n      pop\n        /* \"#utility.yul\":14192:14611   */\n      swap2\n      swap1\n      pop\n      jump\t// out\n        /* \"#utility.yul\":14617:14843   */\n    tag_597:\n        /* \"#utility.yul\":14757:14791   */\n      0x474946543a207472616e7366657220616d6f756e74206578636565647320616c\n        /* \"#utility.yul\":14753:14754   */\n      0x00\n        /* \"#utility.yul\":14745:14751   */\n      dup3\n        /* \"#utility.yul\":14741:14755   */\n      add\n        /* \"#utility.yul\":14734:14792   */\n      mstore\n        /* \"#utility.yul\":14826:14835   */\n      0x6c6f77616e636500000000000000000000000000000000000000000000000000\n        /* \"#utility.yul\":14821:14823   */\n      0x20\n        /* \"#utility.yul\":14813:14819   */\n      dup3\n        /* \"#utility.yul\":14809:14824   */\n      add\n        /* \"#utility.yul\":14802:14836   */\n      mstore\n        /* \"#utility.yul\":14617:14843   */\n      pop\n      jump\t// out\n        /* \"#utility.yul\":14849:15215   */\n    tag_598:\n        /* \"#utility.yul\":14991:14994   */\n      0x00\n        /* \"#utility.yul\":15012:15079   */\n      tag_813\n        /* \"#utility.yul\":15076:15078   */\n      0x27\n        /* \"#utility.yul\":15071:15074   */\n      dup4\n        /* \"#utility.yul\":15012:15079   */\n      tag_559\n      jump\t// in\n    tag_813:\n        /* \"#utility.yul\":15005:15079   */\n      swap2\n      pop\n        /* \"#utility.yul\":15088:15181   */\n      tag_814\n        /* \"#utility.yul\":15177:15180   */\n      dup3\n        /* \"#utility.yul\":15088:15181   */\n      tag_597\n      jump\t// in\n    tag_814:\n        /* \"#utility.yul\":15206:15208   */\n      0x40\n        /* \"#utility.yul\":15201:15204   */\n      dup3\n        /* \"#utility.yul\":15197:15209   */\n      add\n        /* \"#utility.yul\":15190:15209   */\n      swap1\n      pop\n        /* \"#utility.yul\":14849:15215   */\n      swap2\n      swap1\n      pop\n      jump\t// out\n        /* \"#utility.yul\":15221:15640   */\n    tag_229:\n        /* \"#utility.yul\":15387:15391   */\n      0x00\n        /* \"#utility.yul\":15425:15427   */\n      0x20\n        /* \"#utility.yul\":15414:15423   */\n      dup3\n        /* \"#utility.yul\":15410:15428   */\n      add\n        /* \"#utility.yul\":15402:15428   */\n      swap1\n      pop\n        /* \"#utility.yul\":15474:15483   */\n      dup2\n        /* \"#utility.yul\":15468:15472   */\n      dup2\n        /* \"#utility.yul\":15464:15484   */\n      sub\n        /* \"#utility.yul\":15460:15461   */\n      0x00\n        /* \"#utility.yul\":15449:15458   */\n      dup4\n        /* \"#utility.yul\":15445:15462   */\n      add\n        /* \"#utility.yul\":15438:15485   */\n      mstore\n        /* \"#utility.yul\":15502:15633   */\n      tag_816\n        /* \"#utility.yul\":15628:15632   */\n      dup2\n        /* \"#utility.yul\":15502:15633   */\n      tag_598\n      jump\t// in\n    tag_816:\n        /* \"#utility.yul\":15494:15633   */\n      swap1\n      pop\n        /* \"#utility.yul\":15221:15640   */\n      swap2\n      swap1\n      pop\n      jump\t// out\n        /* \"#utility.yul\":15646:15873   */\n    tag_599:\n        /* \"#utility.yul\":15786:15820   */\n      0x474946543a2063616c6c6572206973206e6f742074686520737570706c79436f\n        /* \"#utility.yul\":15782:15783   */\n      0x00\n        /* \"#utility.yul\":15774:15780   */\n      dup3\n        /* \"#utility.yul\":15770:15784   */\n      add\n        /* \"#utility.yul\":15763:15821   */\n      mstore\n        /* \"#utility.yul\":15855:15865   */\n      0x6e74726f6c6c6572000000000000000000000000000000000000000000000000\n        /* \"#utility.yul\":15850:15852   */\n      0x20\n        /* \"#utility.yul\":15842:15848   */\n      dup3\n        /* \"#utility.yul\":15838:15853   */\n      add\n        /* \"#utility.yul\":15831:15866   */\n      mstore\n        /* \"#utility.yul\":15646:15873   */\n      pop\n      jump\t// out\n        /* \"#utility.yul\":15879:16245   */\n    tag_600:\n        /* \"#utility.yul\":16021:16024   */\n      0x00\n        /* \"#utility.yul\":16042:16109   */\n      tag_819\n        /* \"#utility.yul\":16106:16108   */\n      0x28\n        /* \"#utility.yul\":16101:16104   */\n      dup4\n        /* \"#utility.yul\":16042:16109   */\n      tag_559\n      jump\t// in\n    tag_819:\n        /* \"#utility.yul\":16035:16109   */\n      swap2\n      pop\n        /* \"#utility.yul\":16118:16211   */\n      tag_820\n        /* \"#utility.yul\":16207:16210   */\n      dup3\n        /* \"#utility.yul\":16118:16211   */\n      tag_599\n      jump\t// in\n    tag_820:\n        /* \"#utility.yul\":16236:16238   */\n      0x40\n        /* \"#utility.yul\":16231:16234   */\n      dup3\n        /* \"#utility.yul\":16227:16239   */\n      add\n        /* \"#utility.yul\":16220:16239   */\n      swap1\n      pop\n        /* \"#utility.yul\":15879:16245   */\n      swap2\n      swap1\n      pop\n      jump\t// out\n        /* \"#utility.yul\":16251:16670   */\n    tag_243:\n        /* \"#utility.yul\":16417:16421   */\n      0x00\n        /* \"#utility.yul\":16455:16457   */\n      0x20\n        /* \"#utility.yul\":16444:16453   */\n      dup3\n        /* \"#utility.yul\":16440:16458   */\n      add\n        /* \"#utility.yul\":16432:16458   */\n      swap1\n      pop\n        /* \"#utility.yul\":16504:16513   */\n      dup2\n        /* \"#utility.yul\":16498:16502   */\n      dup2\n        /* \"#utility.yul\":16494:16514   */\n      sub\n        /* \"#utility.yul\":16490:16491   */\n      0x00\n        /* \"#utility.yul\":16479:16488   */\n      dup4\n        /* \"#utility.yul\":16475:16492   */\n      add\n        /* \"#utility.yul\":16468:16515   */\n      mstore\n        /* \"#utility.yul\":16532:16663   */\n      tag_822\n        /* \"#utility.yul\":16658:16662   */\n      dup2\n        /* \"#utility.yul\":16532:16663   */\n      tag_600\n      jump\t// in\n    tag_822:\n        /* \"#utility.yul\":16524:16663   */\n      swap1\n      pop\n        /* \"#utility.yul\":16251:16670   */\n      swap2\n      swap1\n      pop\n      jump\t// out\n        /* \"#utility.yul\":16676:16856   */\n    tag_262:\n        /* \"#utility.yul\":16724:16801   */\n      0x4e487b7100000000000000000000000000000000000000000000000000000000\n        /* \"#utility.yul\":16721:16722   */\n      0x00\n        /* \"#utility.yul\":16714:16802   */\n      mstore\n        /* \"#utility.yul\":16821:16825   */\n      0x32\n        /* \"#utility.yul\":16818:16819   */\n      0x04\n        /* \"#utility.yul\":16811:16826   */\n      mstore\n        /* \"#utility.yul\":16845:16849   */\n      0x24\n        /* \"#utility.yul\":16842:16843   */\n      0x00\n        /* \"#utility.yul\":16835:16850   */\n      revert\n        /* \"#utility.yul\":16862:17039   */\n    tag_601:\n        /* \"#utility.yul\":17002:17031   */\n      0x474946543a204c6173742074696572206d757374206265206d61780000000000\n        /* \"#utility.yul\":16998:16999   */\n      0x00\n        /* \"#utility.yul\":16990:16996   */\n      dup3\n        /* \"#utility.yul\":16986:17000   */\n      add\n        /* \"#utility.yul\":16979:17032   */\n      mstore\n        /* \"#utility.yul\":16862:17039   */\n      pop\n      jump\t// out\n        /* \"#utility.yul\":17045:17411   */\n    tag_602:\n        /* \"#utility.yul\":17187:17190   */\n      0x00\n        /* \"#utility.yul\":17208:17275   */\n      tag_826\n        /* \"#utility.yul\":17272:17274   */\n      0x1b\n        /* \"#utility.yul\":17267:17270   */\n      dup4\n        /* \"#utility.yul\":17208:17275   */\n      tag_559\n      jump\t// in\n    tag_826:\n        /* \"#utility.yul\":17201:17275   */\n      swap2\n      pop\n        /* \"#utility.yul\":17284:17377   */\n      tag_827\n        /* \"#utility.yul\":17373:17376   */\n      dup3\n        /* \"#utility.yul\":17284:17377   */\n      tag_601\n      jump\t// in\n    tag_827:\n        /* \"#utility.yul\":17402:17404   */\n      0x20\n        /* \"#utility.yul\":17397:17400   */\n      dup3\n        /* \"#utility.yul\":17393:17405   */\n      add\n        /* \"#utility.yul\":17386:17405   */\n      swap1\n      pop\n        /* \"#utility.yul\":17045:17411   */\n      swap2\n      swap1\n      pop\n      jump\t// out\n        /* \"#utility.yul\":17417:17836   */\n    tag_265:\n        /* \"#utility.yul\":17583:17587   */\n      0x00\n        /* \"#utility.yul\":17621:17623   */\n      0x20\n        /* \"#utility.yul\":17610:17619   */\n      dup3\n        /* \"#utility.yul\":17606:17624   */\n      add\n        /* \"#utility.yul\":17598:17624   */\n      swap1\n      pop\n        /* \"#utility.yul\":17670:17679   */\n      dup2\n        /* \"#utility.yul\":17664:17668   */\n      dup2\n        /* \"#utility.yul\":17660:17680   */\n      sub\n        /* \"#utility.yul\":17656:17657   */\n      0x00\n        /* \"#utility.yul\":17645:17654   */\n      dup4\n        /* \"#utility.yul\":17641:17658   */\n      add\n        /* \"#utility.yul\":17634:17681   */\n      mstore\n        /* \"#utility.yul\":17698:17829   */\n      tag_829\n        /* \"#utility.yul\":17824:17828   */\n      dup2\n        /* \"#utility.yul\":17698:17829   */\n      tag_602\n      jump\t// in\n    tag_829:\n        /* \"#utility.yul\":17690:17829   */\n      swap1\n      pop\n        /* \"#utility.yul\":17417:17836   */\n      swap2\n      swap1\n      pop\n      jump\t// out\n        /* \"#utility.yul\":17842:18021   */\n    tag_603:\n        /* \"#utility.yul\":17982:18013   */\n      0x474946543a205461782070657263656e7461676520746f6f2068696768000000\n        /* \"#utility.yul\":17978:17979   */\n      0x00\n        /* \"#utility.yul\":17970:17976   */\n      dup3\n        /* \"#utility.yul\":17966:17980   */\n      add\n        /* \"#utility.yul\":17959:18014   */\n      mstore\n        /* \"#utility.yul\":17842:18021   */\n      pop\n      jump\t// out\n        /* \"#utility.yul\":18027:18393   */\n    tag_604:\n        /* \"#utility.yul\":18169:18172   */\n      0x00\n        /* \"#utility.yul\":18190:18257   */\n      tag_832\n        /* \"#utility.yul\":18254:18256   */\n      0x1d\n        /* \"#utility.yul\":18249:18252   */\n      dup4\n        /* \"#utility.yul\":18190:18257   */\n      tag_559\n      jump\t// in\n    tag_832:\n        /* \"#utility.yul\":18183:18257   */\n      swap2\n      pop\n        /* \"#utility.yul\":18266:18359   */\n      tag_833\n        /* \"#utility.yul\":18355:18358   */\n      dup3\n        /* \"#utility.yul\":18266:18359   */\n      tag_603\n      jump\t// in\n    tag_833:\n        /* \"#utility.yul\":18384:18386   */\n      0x20\n        /* \"#utility.yul\":18379:18382   */\n      dup3\n        /* \"#utility.yul\":18375:18387   */\n      add\n        /* \"#utility.yul\":18368:18387   */\n      swap1\n      pop\n        /* \"#utility.yul\":18027:18393   */\n      swap2\n      swap1\n      pop\n      jump\t// out\n        /* \"#utility.yul\":18399:18818   */\n    tag_273:\n        /* \"#utility.yul\":18565:18569   */\n      0x00\n        /* \"#utility.yul\":18603:18605   */\n      0x20\n        /* \"#utility.yul\":18592:18601   */\n      dup3\n        /* \"#utility.yul\":18588:18606   */\n      add\n        /* \"#utility.yul\":18580:18606   */\n      swap1\n      pop\n        /* \"#utility.yul\":18652:18661   */\n      dup2\n        /* \"#utility.yul\":18646:18650   */\n      dup2\n        /* \"#utility.yul\":18642:18662   */\n      sub\n        /* \"#utility.yul\":18638:18639   */\n      0x00\n        /* \"#utility.yul\":18627:18636   */\n      dup4\n        /* \"#utility.yul\":18623:18640   */\n      add\n        /* \"#utility.yul\":18616:18663   */\n      mstore\n        /* \"#utility.yul\":18680:18811   */\n      tag_835\n        /* \"#utility.yul\":18806:18810   */\n      dup2\n        /* \"#utility.yul\":18680:18811   */\n      tag_604\n      jump\t// in\n    tag_835:\n        /* \"#utility.yul\":18672:18811   */\n      swap1\n      pop\n        /* \"#utility.yul\":18399:18818   */\n      swap2\n      swap1\n      pop\n      jump\t// out\n        /* \"#utility.yul\":18824:19004   */\n    tag_605:\n        /* \"#utility.yul\":18872:18949   */\n      0x4e487b7100000000000000000000000000000000000000000000000000000000\n        /* \"#utility.yul\":18869:18870   */\n      0x00\n        /* \"#utility.yul\":18862:18950   */\n      mstore\n        /* \"#utility.yul\":18969:18973   */\n      0x11\n        /* \"#utility.yul\":18966:18967   */\n      0x04\n        /* \"#utility.yul\":18959:18974   */\n      mstore\n        /* \"#utility.yul\":18993:18997   */\n      0x24\n        /* \"#utility.yul\":18990:18991   */\n      0x00\n        /* \"#utility.yul\":18983:18998   */\n      revert\n        /* \"#utility.yul\":19010:19204   */\n    tag_276:\n        /* \"#utility.yul\":19050:19054   */\n      0x00\n        /* \"#utility.yul\":19070:19090   */\n      tag_838\n        /* \"#utility.yul\":19088:19089   */\n      dup3\n        /* \"#utility.yul\":19070:19090   */\n      tag_570\n      jump\t// in\n    tag_838:\n        /* \"#utility.yul\":19065:19090   */\n      swap2\n      pop\n        /* \"#utility.yul\":19104:19124   */\n      tag_839\n        /* \"#utility.yul\":19122:19123   */\n      dup4\n        /* \"#utility.yul\":19104:19124   */\n      tag_570\n      jump\t// in\n    tag_839:\n        /* \"#utility.yul\":19099:19124   */\n      swap3\n      pop\n        /* \"#utility.yul\":19148:19149   */\n      dup3\n        /* \"#utility.yul\":19145:19146   */\n      dup3\n        /* \"#utility.yul\":19141:19150   */\n      sub\n        /* \"#utility.yul\":19133:19150   */\n      swap1\n      pop\n        /* \"#utility.yul\":19172:19173   */\n      dup2\n        /* \"#utility.yul\":19166:19170   */\n      dup2\n        /* \"#utility.yul\":19163:19174   */\n      gt\n        /* \"#utility.yul\":19160:19197   */\n      iszero\n      tag_840\n      jumpi\n        /* \"#utility.yul\":19177:19195   */\n      tag_841\n      tag_605\n      jump\t// in\n    tag_841:\n        /* \"#utility.yul\":19160:19197   */\n    tag_840:\n        /* \"#utility.yul\":19010:19204   */\n      swap3\n      swap2\n      pop\n      pop\n      jump\t// out\n        /* \"#utility.yul\":19210:19435   */\n    tag_606:\n        /* \"#utility.yul\":19350:19384   */\n      0x474946543a205469657273206d75737420626520696e20617363656e64696e67\n        /* \"#utility.yul\":19346:19347   */\n      0x00\n        /* \"#utility.yul\":19338:19344   */\n      dup3\n        /* \"#utility.yul\":19334:19348   */\n      add\n        /* \"#utility.yul\":19327:19385   */\n      mstore\n        /* \"#utility.yul\":19419:19427   */\n      0x206f726465720000000000000000000000000000000000000000000000000000\n        /* \"#utility.yul\":19414:19416   */\n      0x20\n        /* \"#utility.yul\":19406:19412   */\n      dup3\n        /* \"#utility.yul\":19402:19417   */\n      add\n        /* \"#utility.yul\":19395:19428   */\n      mstore\n        /* \"#utility.yul\":19210:19435   */\n      pop\n      jump\t// out\n        /* \"#utility.yul\":19441:19807   */\n    tag_607:\n        /* \"#utility.yul\":19583:19586   */\n      0x00\n        /* \"#utility.yul\":19604:19671   */\n      tag_844\n        /* \"#utility.yul\":19668:19670   */\n      0x26\n        /* \"#utility.yul\":19663:19666   */\n      dup4\n        /* \"#utility.yul\":19604:19671   */\n      tag_559\n      jump\t// in\n    tag_844:\n        /* \"#utility.yul\":19597:19671   */\n      swap2\n      pop\n        /* \"#utility.yul\":19680:19773   */\n      tag_845\n        /* \"#utility.yul\":19769:19772   */\n      dup3\n        /* \"#utility.yul\":19680:19773   */\n      tag_606\n      jump\t// in\n    tag_845:\n        /* \"#utility.yul\":19798:19800   */\n      0x40\n        /* \"#utility.yul\":19793:19796   */\n      dup3\n        /* \"#utility.yul\":19789:19801   */\n      add\n        /* \"#utility.yul\":19782:19801   */\n      swap1\n      pop\n        /* \"#utility.yul\":19441:19807   */\n      swap2\n      swap1\n      pop\n      jump\t// out\n        /* \"#utility.yul\":19813:20232   */\n    tag_283:\n        /* \"#utility.yul\":19979:19983   */\n      0x00\n        /* \"#utility.yul\":20017:20019   */\n      0x20\n        /* \"#utility.yul\":20006:20015   */\n      dup3\n        /* \"#utility.yul\":20002:20020   */\n      add\n        /* \"#utility.yul\":19994:20020   */\n      swap1\n      pop\n        /* \"#utility.yul\":20066:20075   */\n      dup2\n        /* \"#utility.yul\":20060:20064   */\n      dup2\n        /* \"#utility.yul\":20056:20076   */\n      sub\n        /* \"#utility.yul\":20052:20053   */\n      0x00\n        /* \"#utility.yul\":20041:20050   */\n      dup4\n        /* \"#utility.yul\":20037:20054   */\n      add\n        /* \"#utility.yul\":20030:20077   */\n      mstore\n        /* \"#utility.yul\":20094:20225   */\n      tag_847\n        /* \"#utility.yul\":20220:20224   */\n      dup2\n        /* \"#utility.yul\":20094:20225   */\n      tag_607\n      jump\t// in\n    tag_847:\n        /* \"#utility.yul\":20086:20225   */\n      swap1\n      pop\n        /* \"#utility.yul\":19813:20232   */\n      swap2\n      swap1\n      pop\n      jump\t// out\n        /* \"#utility.yul\":20238:20471   */\n    tag_285:\n        /* \"#utility.yul\":20277:20280   */\n      0x00\n        /* \"#utility.yul\":20300:20324   */\n      tag_849\n        /* \"#utility.yul\":20318:20323   */\n      dup3\n        /* \"#utility.yul\":20300:20324   */\n      tag_570\n      jump\t// in\n    tag_849:\n        /* \"#utility.yul\":20291:20324   */\n      swap2\n      pop\n        /* \"#utility.yul\":20346:20412   */\n      0xffffffffffffffffffffffffffffffffffffffffffffffffffffffffffffffff\n        /* \"#utility.yul\":20339:20344   */\n      dup3\n        /* \"#utility.yul\":20336:20413   */\n      sub\n        /* \"#utility.yul\":20333:20436   */\n      tag_850\n      jumpi\n        /* \"#utility.yul\":20416:20434   */\n      tag_851\n      tag_605\n      jump\t// in\n    tag_851:\n        /* \"#utility.yul\":20333:20436   */\n    tag_850:\n        /* \"#utility.yul\":20463:20464   */\n      0x01\n        /* \"#utility.yul\":20456:20461   */\n      dup3\n        /* \"#utility.yul\":20452:20465   */\n      add\n        /* \"#utility.yul\":20445:20465   */\n      swap1\n      pop\n        /* \"#utility.yul\":20238:20471   */\n      swap2\n      swap1\n      pop\n      jump\t// out\n        /* \"#utility.yul\":20477:20581   */\n    tag_608:\n        /* \"#utility.yul\":20542:20548   */\n      0x00\n        /* \"#utility.yul\":20570:20574   */\n      0x05\n        /* \"#utility.yul\":20560:20574   */\n      swap1\n      pop\n        /* \"#utility.yul\":20477:20581   */\n      swap2\n      swap1\n      pop\n      jump\t// out\n        /* \"#utility.yul\":20587:20730   */\n    tag_609:\n        /* \"#utility.yul\":20684:20695   */\n      0x00\n        /* \"#utility.yul\":20721:20724   */\n      dup2\n        /* \"#utility.yul\":20706:20724   */\n      swap1\n      pop\n        /* \"#utility.yul\":20587:20730   */\n      swap3\n      swap2\n      pop\n      pop\n      jump\t// out\n        /* \"#utility.yul\":20736:20834   */\n    tag_610:\n        /* \"#utility.yul\":20801:20805   */\n      0x00\n        /* \"#utility.yul\":20824:20827   */\n      dup2\n        /* \"#utility.yul\":20816:20827   */\n      swap1\n      pop\n        /* \"#utility.yul\":20736:20834   */\n      swap2\n      swap1\n      pop\n      jump\t// out\n        /* \"#utility.yul\":20840:20948   */\n    tag_611:\n        /* \"#utility.yul\":20917:20941   */\n      tag_856\n        /* \"#utility.yul\":20935:20940   */\n      dup2\n        /* \"#utility.yul\":20917:20941   */\n      tag_570\n      jump\t// in\n    tag_856:\n        /* \"#utility.yul\":20912:20915   */\n      dup3\n        /* \"#utility.yul\":20905:20942   */\n      mstore\n        /* \"#utility.yul\":20840:20948   */\n      pop\n      pop\n      jump\t// out\n        /* \"#utility.yul\":20954:21133   */\n    tag_612:\n        /* \"#utility.yul\":21023:21033   */\n      0x00\n        /* \"#utility.yul\":21044:21090   */\n      tag_858\n        /* \"#utility.yul\":21086:21089   */\n      dup4\n        /* \"#utility.yul\":21078:21084   */\n      dup4\n        /* \"#utility.yul\":21044:21090   */\n      tag_611\n      jump\t// in\n    tag_858:\n        /* \"#utility.yul\":21122:21126   */\n      0x20\n        /* \"#utility.yul\":21117:21120   */\n      dup4\n        /* \"#utility.yul\":21113:21127   */\n      add\n        /* \"#utility.yul\":21099:21127   */\n      swap1\n      pop\n        /* \"#utility.yul\":20954:21133   */\n      swap3\n      swap2\n      pop\n      pop\n      jump\t// out\n        /* \"#utility.yul\":21139:21250   */\n    tag_613:\n        /* \"#utility.yul\":21207:21211   */\n      0x00\n        /* \"#utility.yul\":21239:21243   */\n      0x20\n        /* \"#utility.yul\":21234:21237   */\n      dup3\n        /* \"#utility.yul\":21230:21244   */\n      add\n        /* \"#utility.yul\":21222:21244   */\n      swap1\n      pop\n        /* \"#utility.yul\":21139:21250   */\n      swap2\n      swap1\n      pop\n      jump\t// out\n        /* \"#utility.yul\":21288:21982   */\n    tag_614:\n        /* \"#utility.yul\":21424:21476   */\n      tag_861\n        /* \"#utility.yul\":21470:21475   */\n      dup2\n        /* \"#utility.yul\":21424:21476   */\n      tag_608\n      jump\t// in\n    tag_861:\n        /* \"#utility.yul\":21492:21576   */\n      tag_862\n        /* \"#utility.yul\":21569:21575   */\n      dup2\n        /* \"#utility.yul\":21564:21567   */\n      dup5\n        /* \"#utility.yul\":21492:21576   */\n      tag_609\n      jump\t// in\n    tag_862:\n        /* \"#utility.yul\":21485:21576   */\n      swap3\n      pop\n        /* \"#utility.yul\":21600:21654   */\n      tag_863\n        /* \"#utility.yul\":21648:21653   */\n      dup3\n        /* \"#utility.yul\":21600:21654   */\n      tag_610\n      jump\t// in\n    tag_863:\n        /* \"#utility.yul\":21677:21684   */\n      dup1\n        /* \"#utility.yul\":21708:21709   */\n      0x00\n        /* \"#utility.yul\":21693:21975   */\n    tag_864:\n        /* \"#utility.yul\":21718:21724   */\n      dup4\n        /* \"#utility.yul\":21715:21716   */\n      dup2\n        /* \"#utility.yul\":21712:21725   */\n      lt\n        /* \"#utility.yul\":21693:21975   */\n      iszero\n      tag_866\n      jumpi\n        /* \"#utility.yul\":21794:21800   */\n      dup2\n        /* \"#utility.yul\":21788:21801   */\n      mload\n        /* \"#utility.yul\":21821:21884   */\n      tag_867\n        /* \"#utility.yul\":21880:21883   */\n      dup8\n        /* \"#utility.yul\":21865:21878   */\n      dup3\n        /* \"#utility.yul\":21821:21884   */\n      tag_612\n      jump\t// in\n    tag_867:\n        /* \"#utility.yul\":21814:21884   */\n      swap7\n      pop\n        /* \"#utility.yul\":21907:21965   */\n      tag_868\n        /* \"#utility.yul\":21958:21964   */\n      dup4\n        /* \"#utility.yul\":21907:21965   */\n      tag_613\n      jump\t// in\n    tag_868:\n        /* \"#utility.yul\":21897:21965   */\n      swap3\n      pop\n        /* \"#utility.yul\":21753:21975   */\n      pop\n        /* \"#utility.yul\":21740:21741   */\n      0x01\n        /* \"#utility.yul\":21737:21738   */\n      dup2\n        /* \"#utility.yul\":21733:21742   */\n      add\n        /* \"#utility.yul\":21728:21742   */\n      swap1\n      pop\n        /* \"#utility.yul\":21693:21975   */\n      jump(tag_864)\n    tag_866:\n        /* \"#utility.yul\":21697:21711   */\n      pop\n        /* \"#utility.yul\":21400:21982   */\n      pop\n      pop\n      pop\n        /* \"#utility.yul\":21288:21982   */\n      pop\n      pop\n      jump\t// out\n        /* \"#utility.yul\":21988:22506   */\n    tag_290:\n        /* \"#utility.yul\":22201:22205   */\n      0x00\n        /* \"#utility.yul\":22239:22242   */\n      0x0140\n        /* \"#utility.yul\":22228:22237   */\n      dup3\n        /* \"#utility.yul\":22224:22243   */\n      add\n        /* \"#utility.yul\":22216:22243   */\n      swap1\n      pop\n        /* \"#utility.yul\":22253:22370   */\n      tag_870\n        /* \"#utility.yul\":22367:22368   */\n      0x00\n        /* \"#utility.yul\":22356:22365   */\n      dup4\n        /* \"#utility.yul\":22352:22369   */\n      add\n        /* \"#utility.yul\":22343:22349   */\n      dup6\n        /* \"#utility.yul\":22253:22370   */\n      tag_614\n      jump\t// in\n    tag_870:\n        /* \"#utility.yul\":22380:22499   */\n      tag_871\n        /* \"#utility.yul\":22494:22497   */\n      0xa0\n        /* \"#utility.yul\":22483:22492   */\n      dup4\n        /* \"#utility.yul\":22479:22498   */\n      add\n        /* \"#utility.yul\":22470:22476   */\n      dup5\n        /* \"#utility.yul\":22380:22499   */\n      tag_614\n      jump\t// in\n    tag_871:\n        /* \"#utility.yul\":21988:22506   */\n      swap4\n      swap3\n      pop\n      pop\n      pop\n      jump\t// out\n        /* \"#utility.yul\":22512:22734   */\n    tag_615:\n        /* \"#utility.yul\":22652:22686   */\n      0x474946543a206275726e20616d6f756e74206578636565647320616c6c6f7761\n        /* \"#utility.yul\":22648:22649   */\n      0x00\n        /* \"#utility.yul\":22640:22646   */\n      dup3\n        /* \"#utility.yul\":22636:22650   */\n      add\n        /* \"#utility.yul\":22629:22687   */\n      mstore\n        /* \"#utility.yul\":22721:22726   */\n      0x6e63650000000000000000000000000000000000000000000000000000000000\n        /* \"#utility.yul\":22716:22718   */\n      0x20\n        /* \"#utility.yul\":22708:22714   */\n      dup3\n        /* \"#utility.yul\":22704:22719   */\n      add\n        /* \"#utility.yul\":22697:22727   */\n      mstore\n        /* \"#utility.yul\":22512:22734   */\n      pop\n      jump\t// out\n        /* \"#utility.yul\":22740:23106   */\n    tag_616:\n        /* \"#utility.yul\":22882:22885   */\n      0x00\n        /* \"#utility.yul\":22903:22970   */\n      tag_874\n        /* \"#utility.yul\":22967:22969   */\n      0x23\n        /* \"#utility.yul\":22962:22965   */\n      dup4\n        /* \"#utility.yul\":22903:22970   */\n      tag_559\n      jump\t// in\n    tag_874:\n        /* \"#utility.yul\":22896:22970   */\n      swap2\n      pop\n        /* \"#utility.yul\":22979:23072   */\n      tag_875\n        /* \"#utility.yul\":23068:23071   */\n      dup3\n        /* \"#utility.yul\":22979:23072   */\n      tag_615\n      jump\t// in\n    tag_875:\n        /* \"#utility.yul\":23097:23099   */\n      0x40\n        /* \"#utility.yul\":23092:23095   */\n      dup3\n        /* \"#utility.yul\":23088:23100   */\n      add\n        /* \"#utility.yul\":23081:23100   */\n      swap1\n      pop\n        /* \"#utility.yul\":22740:23106   */\n      swap2\n      swap1\n      pop\n      jump\t// out\n        /* \"#utility.yul\":23112:23531   */\n    tag_303:\n        /* \"#utility.yul\":23278:23282   */\n      0x00\n        /* \"#utility.yul\":23316:23318   */\n      0x20\n        /* \"#utility.yul\":23305:23314   */\n      dup3\n        /* \"#utility.yul\":23301:23319   */\n      add\n        /* \"#utility.yul\":23293:23319   */\n      swap1\n      pop\n        /* \"#utility.yul\":23365:23374   */\n      dup2\n        /* \"#utility.yul\":23359:23363   */\n      dup2\n        /* \"#utility.yul\":23355:23375   */\n      sub\n        /* \"#utility.yul\":23351:23352   */\n      0x00\n        /* \"#utility.yul\":23340:23349   */\n      dup4\n        /* \"#utility.yul\":23336:23353   */\n      add\n        /* \"#utility.yul\":23329:23376   */\n      mstore\n        /* \"#utility.yul\":23393:23524   */\n      tag_877\n        /* \"#utility.yul\":23519:23523   */\n      dup2\n        /* \"#utility.yul\":23393:23524   */\n      tag_616\n      jump\t// in\n    tag_877:\n        /* \"#utility.yul\":23385:23524   */\n      swap1\n      pop\n        /* \"#utility.yul\":23112:23531   */\n      swap2\n      swap1\n      pop\n      jump\t// out\n        /* \"#utility.yul\":23537:23622   */\n    tag_617:\n        /* \"#utility.yul\":23582:23589   */\n      0x00\n        /* \"#utility.yul\":23611:23616   */\n      dup2\n        /* \"#utility.yul\":23600:23616   */\n      swap1\n      pop\n        /* \"#utility.yul\":23537:23622   */\n      swap2\n      swap1\n      pop\n      jump\t// out\n        /* \"#utility.yul\":23628:23729   */\n    tag_618:\n        /* \"#utility.yul\":23664:23671   */\n      0x00\n        /* \"#utility.yul\":23704:23722   */\n      0xffffffffffffffff\n        /* \"#utility.yul\":23697:23702   */\n      dup3\n        /* \"#utility.yul\":23693:23723   */\n      and\n        /* \"#utility.yul\":23682:23723   */\n      swap1\n      pop\n        /* \"#utility.yul\":23628:23729   */\n      swap2\n      swap1\n      pop\n      jump\t// out\n        /* \"#utility.yul\":23735:23795   */\n    tag_619:\n        /* \"#utility.yul\":23763:23766   */\n      0x00\n        /* \"#utility.yul\":23784:23789   */\n      dup2\n        /* \"#utility.yul\":23777:23789   */\n      swap1\n      pop\n        /* \"#utility.yul\":23735:23795   */\n      swap2\n      swap1\n      pop\n      jump\t// out\n        /* \"#utility.yul\":23801:23957   */\n    tag_620:\n        /* \"#utility.yul\":23858:23867   */\n      0x00\n        /* \"#utility.yul\":23891:23951   */\n      tag_882\n        /* \"#utility.yul\":23908:23950   */\n      tag_883\n        /* \"#utility.yul\":23917:23949   */\n      tag_884\n        /* \"#utility.yul\":23943:23948   */\n      dup5\n        /* \"#utility.yul\":23917:23949   */\n      tag_617\n      jump\t// in\n    tag_884:\n        /* \"#utility.yul\":23908:23950   */\n      tag_619\n      jump\t// in\n    tag_883:\n        /* \"#utility.yul\":23891:23951   */\n      tag_618\n      jump\t// in\n    tag_882:\n        /* \"#utility.yul\":23878:23951   */\n      swap1\n      pop\n        /* \"#utility.yul\":23801:23957   */\n      swap2\n      swap1\n      pop\n      jump\t// out\n        /* \"#utility.yul\":23963:24108   */\n    tag_621:\n        /* \"#utility.yul\":24057:24101   */\n      tag_886\n        /* \"#utility.yul\":24095:24100   */\n      dup2\n        /* \"#utility.yul\":24057:24101   */\n      tag_620\n      jump\t// in\n    tag_886:\n        /* \"#utility.yul\":24052:24055   */\n      dup3\n        /* \"#utility.yul\":24045:24102   */\n      mstore\n        /* \"#utility.yul\":23963:24108   */\n      pop\n      pop\n      jump\t// out\n        /* \"#utility.yul\":24114:24350   */\n    tag_367:\n        /* \"#utility.yul\":24214:24218   */\n      0x00\n        /* \"#utility.yul\":24252:24254   */\n      0x20\n        /* \"#utility.yul\":24241:24250   */\n      dup3\n        /* \"#utility.yul\":24237:24255   */\n      add\n        /* \"#utility.yul\":24229:24255   */\n      swap1\n      pop\n        /* \"#utility.yul\":24265:24343   */\n      tag_888\n        /* \"#utility.yul\":24340:24341   */\n      0x00\n        /* \"#utility.yul\":24329:24338   */\n      dup4\n        /* \"#utility.yul\":24325:24342   */\n      add\n        /* \"#utility.yul\":24316:24322   */\n      dup5\n        /* \"#utility.yul\":24265:24343   */\n      tag_621\n      jump\t// in\n    tag_888:\n        /* \"#utility.yul\":24114:24350   */\n      swap3\n      swap2\n      pop\n      pop\n      jump\t// out\n        /* \"#utility.yul\":24356:24664   */\n    tag_374:\n        /* \"#utility.yul\":24465:24469   */\n      0x00\n        /* \"#utility.yul\":24503:24505   */\n      0x40\n        /* \"#utility.yul\":24492:24501   */\n      dup3\n        /* \"#utility.yul\":24488:24506   */\n      add\n        /* \"#utility.yul\":24480:24506   */\n      swap1\n      pop\n        /* \"#utility.yul\":24516:24581   */\n      tag_890\n        /* \"#utility.yul\":24578:24579   */\n      0x00\n        /* \"#utility.yul\":24567:24576   */\n      dup4\n        /* \"#utility.yul\":24563:24580   */\n      add\n        /* \"#utility.yul\":24554:24560   */\n      dup6\n        /* \"#utility.yul\":24516:24581   */\n      tag_574\n      jump\t// in\n    tag_890:\n        /* \"#utility.yul\":24591:24657   */\n      tag_891\n        /* \"#utility.yul\":24653:24655   */\n      0x20\n        /* \"#utility.yul\":24642:24651   */\n      dup4\n        /* \"#utility.yul\":24638:24656   */\n      add\n        /* \"#utility.yul\":24629:24635   */\n      dup5\n        /* \"#utility.yul\":24591:24657   */\n      tag_574\n      jump\t// in\n    tag_891:\n        /* \"#utility.yul\":24356:24664   */\n      swap4\n      swap3\n      pop\n      pop\n      pop\n      jump\t// out\n        /* \"#utility.yul\":24670:24836   */\n    tag_622:\n        /* \"#utility.yul\":24810:24828   */\n      0x5061757361626c653a2070617573656400000000000000000000000000000000\n        /* \"#utility.yul\":24806:24807   */\n      0x00\n        /* \"#utility.yul\":24798:24804   */\n      dup3\n        /* \"#utility.yul\":24794:24808   */\n      add\n        /* \"#utility.yul\":24787:24829   */\n      mstore\n        /* \"#utility.yul\":24670:24836   */\n      pop\n      jump\t// out\n        /* \"#utility.yul\":24842:25208   */\n    tag_623:\n        /* \"#utility.yul\":24984:24987   */\n      0x00\n        /* \"#utility.yul\":25005:25072   */\n      tag_894\n        /* \"#utility.yul\":25069:25071   */\n      0x10\n        /* \"#utility.yul\":25064:25067   */\n      dup4\n        /* \"#utility.yul\":25005:25072   */\n      tag_559\n      jump\t// in\n    tag_894:\n        /* \"#utility.yul\":24998:25072   */\n      swap2\n      pop\n        /* \"#utility.yul\":25081:25174   */\n      tag_895\n        /* \"#utility.yul\":25170:25173   */\n      dup3\n        /* \"#utility.yul\":25081:25174   */\n      tag_622\n      jump\t// in\n    tag_895:\n        /* \"#utility.yul\":25199:25201   */\n      0x20\n        /* \"#utility.yul\":25194:25197   */\n      dup3\n        /* \"#utility.yul\":25190:25202   */\n      add\n        /* \"#utility.yul\":25183:25202   */\n      swap1\n      pop\n        /* \"#utility.yul\":24842:25208   */\n      swap2\n      swap1\n      pop\n      jump\t// out\n        /* \"#utility.yul\":25214:25633   */\n    tag_396:\n        /* \"#utility.yul\":25380:25384   */\n      0x00\n        /* \"#utility.yul\":25418:25420   */\n      0x20\n        /* \"#utility.yul\":25407:25416   */\n      dup3\n        /* \"#utility.yul\":25403:25421   */\n      add\n        /* \"#utility.yul\":25395:25421   */\n      swap1\n      pop\n        /* \"#utility.yul\":25467:25476   */\n      dup2\n        /* \"#utility.yul\":25461:25465   */\n      dup2\n        /* \"#utility.yul\":25457:25477   */\n      sub\n        /* \"#utility.yul\":25453:25454   */\n      0x00\n        /* \"#utility.yul\":25442:25451   */\n      dup4\n        /* \"#utility.yul\":25438:25455   */\n      add\n        /* \"#utility.yul\":25431:25478   */\n      mstore\n        /* \"#utility.yul\":25495:25626   */\n      tag_897\n        /* \"#utility.yul\":25621:25625   */\n      dup2\n        /* \"#utility.yul\":25495:25626   */\n      tag_623\n      jump\t// in\n    tag_897:\n        /* \"#utility.yul\":25487:25626   */\n      swap1\n      pop\n        /* \"#utility.yul\":25214:25633   */\n      swap2\n      swap1\n      pop\n      jump\t// out\n        /* \"#utility.yul\":25639:25830   */\n    tag_399:\n        /* \"#utility.yul\":25679:25682   */\n      0x00\n        /* \"#utility.yul\":25698:25718   */\n      tag_899\n        /* \"#utility.yul\":25716:25717   */\n      dup3\n        /* \"#utility.yul\":25698:25718   */\n      tag_570\n      jump\t// in\n    tag_899:\n        /* \"#utility.yul\":25693:25718   */\n      swap2\n      pop\n        /* \"#utility.yul\":25732:25752   */\n      tag_900\n        /* \"#utility.yul\":25750:25751   */\n      dup4\n        /* \"#utility.yul\":25732:25752   */\n      tag_570\n      jump\t// in\n    tag_900:\n        /* \"#utility.yul\":25727:25752   */\n      swap3\n      pop\n        /* \"#utility.yul\":25775:25776   */\n      dup3\n        /* \"#utility.yul\":25772:25773   */\n      dup3\n        /* \"#utility.yul\":25768:25777   */\n      add\n        /* \"#utility.yul\":25761:25777   */\n      swap1\n      pop\n        /* \"#utility.yul\":25796:25799   */\n      dup1\n        /* \"#utility.yul\":25793:25794   */\n      dup3\n        /* \"#utility.yul\":25790:25800   */\n      gt\n        /* \"#utility.yul\":25787:25823   */\n      iszero\n      tag_901\n      jumpi\n        /* \"#utility.yul\":25803:25821   */\n      tag_902\n      tag_605\n      jump\t// in\n    tag_902:\n        /* \"#utility.yul\":25787:25823   */\n    tag_901:\n        /* \"#utility.yul\":25639:25830   */\n      swap3\n      swap2\n      pop\n      pop\n      jump\t// out\n        /* \"#utility.yul\":25836:25934   */\n    tag_624:\n        /* \"#utility.yul\":25887:25893   */\n      0x00\n        /* \"#utility.yul\":25921:25926   */\n      dup2\n        /* \"#utility.yul\":25915:25927   */\n      mload\n        /* \"#utility.yul\":25905:25927   */\n      swap1\n      pop\n        /* \"#utility.yul\":25836:25934   */\n      swap2\n      swap1\n      pop\n      jump\t// out\n        /* \"#utility.yul\":25940:26087   */\n    tag_625:\n        /* \"#utility.yul\":26041:26052   */\n      0x00\n        /* \"#utility.yul\":26078:26081   */\n      dup2\n        /* \"#utility.yul\":26063:26081   */\n      swap1\n      pop\n        /* \"#utility.yul\":25940:26087   */\n      swap3\n      swap2\n      pop\n      pop\n      jump\t// out\n        /* \"#utility.yul\":26093:26479   */\n    tag_626:\n        /* \"#utility.yul\":26197:26200   */\n      0x00\n        /* \"#utility.yul\":26225:26263   */\n      tag_906\n        /* \"#utility.yul\":26257:26262   */\n      dup3\n        /* \"#utility.yul\":26225:26263   */\n      tag_624\n      jump\t// in\n    tag_906:\n        /* \"#utility.yul\":26279:26367   */\n      tag_907\n        /* \"#utility.yul\":26360:26366   */\n      dup2\n        /* \"#utility.yul\":26355:26358   */\n      dup6\n        /* \"#utility.yul\":26279:26367   */\n      tag_625\n      jump\t// in\n    tag_907:\n        /* \"#utility.yul\":26272:26367   */\n      swap4\n      pop\n        /* \"#utility.yul\":26376:26441   */\n      tag_908\n        /* \"#utility.yul\":26434:26440   */\n      dup2\n        /* \"#utility.yul\":26429:26432   */\n      dup6\n        /* \"#utility.yul\":26422:26426   */\n      0x20\n        /* \"#utility.yul\":26415:26420   */\n      dup7\n        /* \"#utility.yul\":26411:26427   */\n      add\n        /* \"#utility.yul\":26376:26441   */\n      tag_560\n      jump\t// in\n    tag_908:\n        /* \"#utility.yul\":26466:26472   */\n      dup1\n        /* \"#utility.yul\":26461:26464   */\n      dup5\n        /* \"#utility.yul\":26457:26473   */\n      add\n        /* \"#utility.yul\":26450:26473   */\n      swap2\n      pop\n        /* \"#utility.yul\":26201:26479   */\n      pop\n        /* \"#utility.yul\":26093:26479   */\n      swap3\n      swap2\n      pop\n      pop\n      jump\t// out\n        /* \"#utility.yul\":26485:26756   */\n    tag_403:\n        /* \"#utility.yul\":26615:26618   */\n      0x00\n        /* \"#utility.yul\":26637:26730   */\n      tag_910\n        /* \"#utility.yul\":26726:26729   */\n      dup3\n        /* \"#utility.yul\":26717:26723   */\n      dup5\n        /* \"#utility.yul\":26637:26730   */\n      tag_626\n      jump\t// in\n    tag_910:\n        /* \"#utility.yul\":26630:26730   */\n      swap2\n      pop\n        /* \"#utility.yul\":26747:26750   */\n      dup2\n        /* \"#utility.yul\":26740:26750   */\n      swap1\n      pop\n        /* \"#utility.yul\":26485:26756   */\n      swap3\n      swap2\n      pop\n      pop\n      jump\t// out\n        /* \"#utility.yul\":26762:26942   */\n    tag_627:\n        /* \"#utility.yul\":26902:26934   */\n      0x474946543a204661696c656420746f20636865636b2072657365727665730000\n        /* \"#utility.yul\":26898:26899   */\n      0x00\n        /* \"#utility.yul\":26890:26896   */\n      dup3\n        /* \"#utility.yul\":26886:26900   */\n      add\n        /* \"#utility.yul\":26879:26935   */\n      mstore\n        /* \"#utility.yul\":26762:26942   */\n      pop\n      jump\t// out\n        /* \"#utility.yul\":26948:27314   */\n    tag_628:\n        /* \"#utility.yul\":27090:27093   */\n      0x00\n        /* \"#utility.yul\":27111:27178   */\n      tag_913\n        /* \"#utility.yul\":27175:27177   */\n      0x1e\n        /* \"#utility.yul\":27170:27173   */\n      dup4\n        /* \"#utility.yul\":27111:27178   */\n      tag_559\n      jump\t// in\n    tag_913:\n        /* \"#utility.yul\":27104:27178   */\n      swap2\n      pop\n        /* \"#utility.yul\":27187:27280   */\n      tag_914\n        /* \"#utility.yul\":27276:27279   */\n      dup3\n        /* \"#utility.yul\":27187:27280   */\n      tag_627\n      jump\t// in\n    tag_914:\n        /* \"#utility.yul\":27305:27307   */\n      0x20\n        /* \"#utility.yul\":27300:27303   */\n      dup3\n        /* \"#utility.yul\":27296:27308   */\n      add\n        /* \"#utility.yul\":27289:27308   */\n      swap1\n      pop\n        /* \"#utility.yul\":26948:27314   */\n      swap2\n      swap1\n      pop\n      jump\t// out\n        /* \"#utility.yul\":27320:27739   */\n    tag_409:\n        /* \"#utility.yul\":27486:27490   */\n      0x00\n        /* \"#utility.yul\":27524:27526   */\n      0x20\n        /* \"#utility.yul\":27513:27522   */\n      dup3\n        /* \"#utility.yul\":27509:27527   */\n      add\n        /* \"#utility.yul\":27501:27527   */\n      swap1\n      pop\n        /* \"#utility.yul\":27573:27582   */\n      dup2\n        /* \"#utility.yul\":27567:27571   */\n      dup2\n        /* \"#utility.yul\":27563:27583   */\n      sub\n        /* \"#utility.yul\":27559:27560   */\n      0x00\n        /* \"#utility.yul\":27548:27557   */\n      dup4\n        /* \"#utility.yul\":27544:27561   */\n      add\n        /* \"#utility.yul\":27537:27584   */\n      mstore\n        /* \"#utility.yul\":27601:27732   */\n      tag_916\n        /* \"#utility.yul\":27727:27731   */\n      dup2\n        /* \"#utility.yul\":27601:27732   */\n      tag_628\n      jump\t// in\n    tag_916:\n        /* \"#utility.yul\":27593:27732   */\n      swap1\n      pop\n        /* \"#utility.yul\":27320:27739   */\n      swap2\n      swap1\n      pop\n      jump\t// out\n        /* \"#utility.yul\":27745:27888   */\n    tag_629:\n        /* \"#utility.yul\":27802:27807   */\n      0x00\n        /* \"#utility.yul\":27833:27839   */\n      dup2\n        /* \"#utility.yul\":27827:27840   */\n      mload\n        /* \"#utility.yul\":27818:27840   */\n      swap1\n      pop\n        /* \"#utility.yul\":27849:27882   */\n      tag_918\n        /* \"#utility.yul\":27876:27881   */\n      dup2\n        /* \"#utility.yul\":27849:27882   */\n      tag_571\n      jump\t// in\n    tag_918:\n        /* \"#utility.yul\":27745:27888   */\n      swap3\n      swap2\n      pop\n      pop\n      jump\t// out\n        /* \"#utility.yul\":27894:28245   */\n    tag_411:\n        /* \"#utility.yul\":27964:27970   */\n      0x00\n        /* \"#utility.yul\":28013:28015   */\n      0x20\n        /* \"#utility.yul\":28001:28010   */\n      dup3\n        /* \"#utility.yul\":27992:27999   */\n      dup5\n        /* \"#utility.yul\":27988:28011   */\n      sub\n        /* \"#utility.yul\":27984:28016   */\n      slt\n        /* \"#utility.yul\":27981:28100   */\n      iszero\n      tag_920\n      jumpi\n        /* \"#utility.yul\":28019:28098   */\n      tag_921\n      tag_564\n      jump\t// in\n    tag_921:\n        /* \"#utility.yul\":27981:28100   */\n    tag_920:\n        /* \"#utility.yul\":28139:28140   */\n      0x00\n        /* \"#utility.yul\":28164:28228   */\n      tag_922\n        /* \"#utility.yul\":28220:28227   */\n      dup5\n        /* \"#utility.yul\":28211:28217   */\n      dup3\n        /* \"#utility.yul\":28200:28209   */\n      dup6\n        /* \"#utility.yul\":28196:28218   */\n      add\n        /* \"#utility.yul\":28164:28228   */\n      tag_629\n      jump\t// in\n    tag_922:\n        /* \"#utility.yul\":28154:28228   */\n      swap2\n      pop\n        /* \"#utility.yul\":28110:28238   */\n      pop\n        /* \"#utility.yul\":27894:28245   */\n      swap3\n      swap2\n      pop\n      pop\n      jump\t// out\n        /* \"#utility.yul\":28251:28428   */\n    tag_630:\n        /* \"#utility.yul\":28391:28420   */\n      0x474946543a20496e73756666696369656e742072657365727665730000000000\n        /* \"#utility.yul\":28387:28388   */\n      0x00\n        /* \"#utility.yul\":28379:28385   */\n      dup3\n        /* \"#utility.yul\":28375:28389   */\n      add\n        /* \"#utility.yul\":28368:28421   */\n      mstore\n        /* \"#utility.yul\":28251:28428   */\n      pop\n      jump\t// out\n        /* \"#utility.yul\":28434:28800   */\n    tag_631:\n        /* \"#utility.yul\":28576:28579   */\n      0x00\n        /* \"#utility.yul\":28597:28664   */\n      tag_925\n        /* \"#utility.yul\":28661:28663   */\n      0x1b\n        /* \"#utility.yul\":28656:28659   */\n      dup4\n        /* \"#utility.yul\":28597:28664   */\n      tag_559\n      jump\t// in\n    tag_925:\n        /* \"#utility.yul\":28590:28664   */\n      swap2\n      pop\n        /* \"#utility.yul\":28673:28766   */\n      tag_926\n        /* \"#utility.yul\":28762:28765   */\n      dup3\n        /* \"#utility.yul\":28673:28766   */\n      tag_630\n      jump\t// in\n    tag_926:\n        /* \"#utility.yul\":28791:28793   */\n      0x20\n        /* \"#utility.yul\":28786:28789   */\n      dup3\n        /* \"#utility.yul\":28782:28794   */\n      add\n        /* \"#utility.yul\":28775:28794   */\n      swap1\n      pop\n        /* \"#utility.yul\":28434:28800   */\n      swap2\n      swap1\n      pop\n      jump\t// out\n        /* \"#utility.yul\":28806:29225   */\n    tag_415:\n        /* \"#utility.yul\":28972:28976   */\n      0x00\n        /* \"#utility.yul\":29010:29012   */\n      0x20\n        /* \"#utility.yul\":28999:29008   */\n      dup3\n        /* \"#utility.yul\":28995:29013   */\n      add\n        /* \"#utility.yul\":28987:29013   */\n      swap1\n      pop\n        /* \"#utility.yul\":29059:29068   */\n      dup2\n        /* \"#utility.yul\":29053:29057   */\n      dup2\n        /* \"#utility.yul\":29049:29069   */\n      sub\n        /* \"#utility.yul\":29045:29046   */\n      0x00\n        /* \"#utility.yul\":29034:29043   */\n      dup4\n        /* \"#utility.yul\":29030:29047   */\n      add\n        /* \"#utility.yul\":29023:29070   */\n      mstore\n        /* \"#utility.yul\":29087:29218   */\n      tag_928\n        /* \"#utility.yul\":29213:29217   */\n      dup2\n        /* \"#utility.yul\":29087:29218   */\n      tag_631\n      jump\t// in\n    tag_928:\n        /* \"#utility.yul\":29079:29218   */\n      swap1\n      pop\n        /* \"#utility.yul\":28806:29225   */\n      swap2\n      swap1\n      pop\n      jump\t// out\n        /* \"#utility.yul\":29231:29401   */\n    tag_632:\n        /* \"#utility.yul\":29371:29393   */\n      0x474946543a20496e76616c696420616d6f756e74000000000000000000000000\n        /* \"#utility.yul\":29367:29368   */\n      0x00\n        /* \"#utility.yul\":29359:29365   */\n      dup3\n        /* \"#utility.yul\":29355:29369   */\n      add\n        /* \"#utility.yul\":29348:29394   */\n      mstore\n        /* \"#utility.yul\":29231:29401   */\n      pop\n      jump\t// out\n        /* \"#utility.yul\":29407:29773   */\n    tag_633:\n        /* \"#utility.yul\":29549:29552   */\n      0x00\n        /* \"#utility.yul\":29570:29637   */\n      tag_931\n        /* \"#utility.yul\":29634:29636   */\n      0x14\n        /* \"#utility.yul\":29629:29632   */\n      dup4\n        /* \"#utility.yul\":29570:29637   */\n      tag_559\n      jump\t// in\n    tag_931:\n        /* \"#utility.yul\":29563:29637   */\n      swap2\n      pop\n        /* \"#utility.yul\":29646:29739   */\n      tag_932\n        /* \"#utility.yul\":29735:29738   */\n      dup3\n        /* \"#utility.yul\":29646:29739   */\n      tag_632\n      jump\t// in\n    tag_932:\n        /* \"#utility.yul\":29764:29766   */\n      0x20\n        /* \"#utility.yul\":29759:29762   */\n      dup3\n        /* \"#utility.yul\":29755:29767   */\n      add\n        /* \"#utility.yul\":29748:29767   */\n      swap1\n      pop\n        /* \"#utility.yul\":29407:29773   */\n      swap2\n      swap1\n      pop\n      jump\t// out\n        /* \"#utility.yul\":29779:30198   */\n    tag_500:\n        /* \"#utility.yul\":29945:29949   */\n      0x00\n        /* \"#utility.yul\":29983:29985   */\n      0x20\n        /* \"#utility.yul\":29972:29981   */\n      dup3\n        /* \"#utility.yul\":29968:29986   */\n      add\n        /* \"#utility.yul\":29960:29986   */\n      swap1\n      pop\n        /* \"#utility.yul\":30032:30041   */\n      dup2\n        /* \"#utility.yul\":30026:30030   */\n      dup2\n        /* \"#utility.yul\":30022:30042   */\n      sub\n        /* \"#utility.yul\":30018:30019   */\n      0x00\n        /* \"#utility.yul\":30007:30016   */\n      dup4\n        /* \"#utility.yul\":30003:30020   */\n      add\n        /* \"#utility.yul\":29996:30043   */\n      mstore\n        /* \"#utility.yul\":30060:30191   */\n      tag_934\n        /* \"#utility.yul\":30186:30190   */\n      dup2\n        /* \"#utility.yul\":30060:30191   */\n      tag_633\n      jump\t// in\n    tag_934:\n        /* \"#utility.yul\":30052:30191   */\n      swap1\n      pop\n        /* \"#utility.yul\":29779:30198   */\n      swap2\n      swap1\n      pop\n      jump\t// out\n        /* \"#utility.yul\":30204:30374   */\n    tag_634:\n        /* \"#utility.yul\":30344:30366   */\n      0x5061757361626c653a206e6f7420706175736564000000000000000000000000\n        /* \"#utility.yul\":30340:30341   */\n      0x00\n        /* \"#utility.yul\":30332:30338   */\n      dup3\n        /* \"#utility.yul\":30328:30342   */\n      add\n        /* \"#utility.yul\":30321:30367   */\n      mstore\n        /* \"#utility.yul\":30204:30374   */\n      pop\n      jump\t// out\n        /* \"#utility.yul\":30380:30746   */\n    tag_635:\n        /* \"#utility.yul\":30522:30525   */\n      0x00\n        /* \"#utility.yul\":30543:30610   */\n      tag_937\n        /* \"#utility.yul\":30607:30609   */\n      0x14\n        /* \"#utility.yul\":30602:30605   */\n      dup4\n        /* \"#utility.yul\":30543:30610   */\n      tag_559\n      jump\t// in\n    tag_937:\n        /* \"#utility.yul\":30536:30610   */\n      swap2\n      pop\n        /* \"#utility.yul\":30619:30712   */\n      tag_938\n        /* \"#utility.yul\":30708:30711   */\n      dup3\n        /* \"#utility.yul\":30619:30712   */\n      tag_634\n      jump\t// in\n    tag_938:\n        /* \"#utility.yul\":30737:30739   */\n      0x20\n        /* \"#utility.yul\":30732:30735   */\n      dup3\n        /* \"#utility.yul\":30728:30740   */\n      add\n        /* \"#utility.yul\":30721:30740   */\n      swap1\n      pop\n        /* \"#utility.yul\":30380:30746   */\n      swap2\n      swap1\n      pop\n      jump\t// out\n        /* \"#utility.yul\":30752:31171   */\n    tag_507:\n        /* \"#utility.yul\":30918:30922   */\n      0x00\n        /* \"#utility.yul\":30956:30958   */\n      0x20\n        /* \"#utility.yul\":30945:30954   */\n      dup3\n        /* \"#utility.yul\":30941:30959   */\n      add\n        /* \"#utility.yul\":30933:30959   */\n      swap1\n      pop\n        /* \"#utility.yul\":31005:31014   */\n      dup2\n        /* \"#utility.yul\":30999:31003   */\n      dup2\n        /* \"#utility.yul\":30995:31015   */\n      sub\n        /* \"#utility.yul\":30991:30992   */\n      0x00\n        /* \"#utility.yul\":30980:30989   */\n      dup4\n        /* \"#utility.yul\":30976:30993   */\n      add\n        /* \"#utility.yul\":30969:31016   */\n      mstore\n        /* \"#utility.yul\":31033:31164   */\n      tag_940\n        /* \"#utility.yul\":31159:31163   */\n      dup2\n        /* \"#utility.yul\":31033:31164   */\n      tag_635\n      jump\t// in\n    tag_940:\n        /* \"#utility.yul\":31025:31164   */\n      swap1\n      pop\n        /* \"#utility.yul\":30752:31171   */\n      swap2\n      swap1\n      pop\n      jump\t// out\n        /* \"#utility.yul\":31177:31619   */\n    tag_515:\n        /* \"#utility.yul\":31326:31330   */\n      0x00\n        /* \"#utility.yul\":31364:31366   */\n      0x60\n        /* \"#utility.yul\":31353:31362   */\n      dup3\n        /* \"#utility.yul\":31349:31367   */\n      add\n        /* \"#utility.yul\":31341:31367   */\n      swap1\n      pop\n        /* \"#utility.yul\":31377:31448   */\n      tag_942\n        /* \"#utility.yul\":31445:31446   */\n      0x00\n        /* \"#utility.yul\":31434:31443   */\n      dup4\n        /* \"#utility.yul\":31430:31447   */\n      add\n        /* \"#utility.yul\":31421:31427   */\n      dup7\n        /* \"#utility.yul\":31377:31448   */\n      tag_578\n      jump\t// in\n    tag_942:\n        /* \"#utility.yul\":31458:31530   */\n      tag_943\n        /* \"#utility.yul\":31526:31528   */\n      0x20\n        /* \"#utility.yul\":31515:31524   */\n      dup4\n        /* \"#utility.yul\":31511:31529   */\n      add\n        /* \"#utility.yul\":31502:31508   */\n      dup6\n        /* \"#utility.yul\":31458:31530   */\n      tag_575\n      jump\t// in\n    tag_943:\n        /* \"#utility.yul\":31540:31612   */\n      tag_944\n        /* \"#utility.yul\":31608:31610   */\n      0x40\n        /* \"#utility.yul\":31597:31606   */\n      dup4\n        /* \"#utility.yul\":31593:31611   */\n      add\n        /* \"#utility.yul\":31584:31590   */\n      dup5\n        /* \"#utility.yul\":31540:31612   */\n      tag_575\n      jump\t// in\n    tag_944:\n        /* \"#utility.yul\":31177:31619   */\n      swap5\n      swap4\n      pop\n      pop\n      pop\n      pop\n      jump\t// out\n        /* \"#utility.yul\":31625:31766   */\n    tag_636:\n        /* \"#utility.yul\":31674:31678   */\n      0x00\n        /* \"#utility.yul\":31697:31700   */\n      dup2\n        /* \"#utility.yul\":31689:31700   */\n      swap1\n      pop\n        /* \"#utility.yul\":31720:31723   */\n      dup2\n        /* \"#utility.yul\":31717:31718   */\n      0x00\n        /* \"#utility.yul\":31710:31724   */\n      mstore\n        /* \"#utility.yul\":31754:31758   */\n      0x20\n        /* \"#utility.yul\":31751:31752   */\n      0x00\n        /* \"#utility.yul\":31741:31759   */\n      keccak256\n        /* \"#utility.yul\":31733:31759   */\n      swap1\n      pop\n        /* \"#utility.yul\":31625:31766   */\n      swap2\n      swap1\n      pop\n      jump\t// out\n        /* \"#utility.yul\":31772:31865   */\n    tag_637:\n        /* \"#utility.yul\":31809:31815   */\n      0x00\n        /* \"#utility.yul\":31856:31858   */\n      0x20\n        /* \"#utility.yul\":31851:31853   */\n      0x1f\n        /* \"#utility.yul\":31844:31849   */\n      dup4\n        /* \"#utility.yul\":31840:31854   */\n      add\n        /* \"#utility.yul\":31836:31859   */\n      div\n        /* \"#utility.yul\":31826:31859   */\n      swap1\n      pop\n        /* \"#utility.yul\":31772:31865   */\n      swap2\n      swap1\n      pop\n      jump\t// out\n        /* \"#utility.yul\":31871:31978   */\n    tag_638:\n        /* \"#utility.yul\":31915:31923   */\n      0x00\n        /* \"#utility.yul\":31965:31970   */\n      dup3\n        /* \"#utility.yul\":31959:31963   */\n      dup3\n        /* \"#utility.yul\":31955:31971   */\n      shl\n        /* \"#utility.yul\":31934:31971   */\n      swap1\n      pop\n        /* \"#utility.yul\":31871:31978   */\n      swap3\n      swap2\n      pop\n      pop\n      jump\t// out\n        /* \"#utility.yul\":31984:32377   */\n    tag_639:\n        /* \"#utility.yul\":32053:32059   */\n      0x00\n        /* \"#utility.yul\":32103:32104   */\n      0x08\n        /* \"#utility.yul\":32091:32101   */\n      dup4\n        /* \"#utility.yul\":32087:32105   */\n      mul\n        /* \"#utility.yul\":32126:32223   */\n      tag_949\n        /* \"#utility.yul\":32156:32222   */\n      0xffffffffffffffffffffffffffffffffffffffffffffffffffffffffffffffff\n        /* \"#utility.yul\":32145:32154   */\n      dup3\n        /* \"#utility.yul\":32126:32223   */\n      tag_638\n      jump\t// in\n    tag_949:\n        /* \"#utility.yul\":32244:32283   */\n      tag_950\n        /* \"#utility.yul\":32274:32282   */\n      dup7\n        /* \"#utility.yul\":32263:32272   */\n      dup4\n        /* \"#utility.yul\":32244:32283   */\n      tag_638\n      jump\t// in\n    tag_950:\n        /* \"#utility.yul\":32232:32283   */\n      swap6\n      pop\n        /* \"#utility.yul\":32316:32320   */\n      dup1\n        /* \"#utility.yul\":32312:32321   */\n      not\n        /* \"#utility.yul\":32305:32310   */\n      dup5\n        /* \"#utility.yul\":32301:32322   */\n      and\n        /* \"#utility.yul\":32292:32322   */\n      swap4\n      pop\n        /* \"#utility.yul\":32365:32369   */\n      dup1\n        /* \"#utility.yul\":32355:32363   */\n      dup7\n        /* \"#utility.yul\":32351:32370   */\n      and\n        /* \"#utility.yul\":32344:32349   */\n      dup5\n        /* \"#utility.yul\":32341:32371   */\n      or\n        /* \"#utility.yul\":32331:32371   */\n      swap3\n      pop\n        /* \"#utility.yul\":32060:32377   */\n      pop\n      pop\n        /* \"#utility.yul\":31984:32377   */\n      swap4\n      swap3\n      pop\n      pop\n      pop\n      jump\t// out\n        /* \"#utility.yul\":32383:32525   */\n    tag_640:\n        /* \"#utility.yul\":32433:32442   */\n      0x00\n        /* \"#utility.yul\":32466:32519   */\n      tag_952\n        /* \"#utility.yul\":32484:32518   */\n      tag_953\n        /* \"#utility.yul\":32493:32517   */\n      tag_954\n        /* \"#utility.yul\":32511:32516   */\n      dup5\n        /* \"#utility.yul\":32493:32517   */\n      tag_570\n      jump\t// in\n    tag_954:\n        /* \"#utility.yul\":32484:32518   */\n      tag_619\n      jump\t// in\n    tag_953:\n        /* \"#utility.yul\":32466:32519   */\n      tag_570\n      jump\t// in\n    tag_952:\n        /* \"#utility.yul\":32453:32519   */\n      swap1\n      pop\n        /* \"#utility.yul\":32383:32525   */\n      swap2\n      swap1\n      pop\n      jump\t// out\n        /* \"#utility.yul\":32531:32606   */\n    tag_641:\n        /* \"#utility.yul\":32574:32577   */\n      0x00\n        /* \"#utility.yul\":32595:32600   */\n      dup2\n        /* \"#utility.yul\":32588:32600   */\n      swap1\n      pop\n        /* \"#utility.yul\":32531:32606   */\n      swap2\n      swap1\n      pop\n      jump\t// out\n        /* \"#utility.yul\":32612:32881   */\n    tag_642:\n        /* \"#utility.yul\":32722:32761   */\n      tag_957\n        /* \"#utility.yul\":32753:32760   */\n      dup4\n        /* \"#utility.yul\":32722:32761   */\n      tag_640\n      jump\t// in\n    tag_957:\n        /* \"#utility.yul\":32783:32874   */\n      tag_958\n        /* \"#utility.yul\":32832:32873   */\n      tag_959\n        /* \"#utility.yul\":32856:32872   */\n      dup3\n        /* \"#utility.yul\":32832:32873   */\n      tag_641\n      jump\t// in\n    tag_959:\n        /* \"#utility.yul\":32824:32830   */\n      dup5\n        /* \"#utility.yul\":32817:32821   */\n      dup5\n        /* \"#utility.yul\":32811:32822   */\n      sload\n        /* \"#utility.yul\":32783:32874   */\n      tag_639\n      jump\t// in\n    tag_958:\n        /* \"#utility.yul\":32777:32781   */\n      dup3\n        /* \"#utility.yul\":32770:32875   */\n      sstore\n        /* \"#utility.yul\":32688:32881   */\n      pop\n        /* \"#utility.yul\":32612:32881   */\n      pop\n      pop\n      pop\n      jump\t// out\n        /* \"#utility.yul\":32887:32960   */\n    tag_643:\n        /* \"#utility.yul\":32932:32935   */\n      0x00\n        /* \"#utility.yul\":32887:32960   */\n      swap1\n      jump\t// out\n        /* \"#utility.yul\":32966:33155   */\n    tag_644:\n        /* \"#utility.yul\":33043:33075   */\n      tag_962\n      tag_643\n      jump\t// in\n    tag_962:\n        /* \"#utility.yul\":33084:33149   */\n      tag_963\n        /* \"#utility.yul\":33142:33148   */\n      dup2\n        /* \"#utility.yul\":33134:33140   */\n      dup5\n        /* \"#utility.yul\":33128:33132   */\n      dup5\n        /* \"#utility.yul\":33084:33149   */\n      tag_642\n      jump\t// in\n    tag_963:\n        /* \"#utility.yul\":33019:33155   */\n      pop\n        /* \"#utility.yul\":32966:33155   */\n      pop\n      pop\n      jump\t// out\n        /* \"#utility.yul\":33161:33347   */\n    tag_645:\n        /* \"#utility.yul\":33221:33341   */\n    tag_965:\n        /* \"#utility.yul\":33238:33241   */\n      dup2\n        /* \"#utility.yul\":33231:33236   */\n      dup2\n        /* \"#utility.yul\":33228:33242   */\n      lt\n        /* \"#utility.yul\":33221:33341   */\n      iszero\n      tag_967\n      jumpi\n        /* \"#utility.yul\":33292:33331   */\n      tag_968\n        /* \"#utility.yul\":33329:33330   */\n      0x00\n        /* \"#utility.yul\":33322:33327   */\n      dup3\n        /* \"#utility.yul\":33292:33331   */\n      tag_644\n      jump\t// in\n    tag_968:\n        /* \"#utility.yul\":33265:33266   */\n      0x01\n        /* \"#utility.yul\":33258:33263   */\n      dup2\n        /* \"#utility.yul\":33254:33267   */\n      add\n        /* \"#utility.yul\":33245:33267   */\n      swap1\n      pop\n        /* \"#utility.yul\":33221:33341   */\n      jump(tag_965)\n    tag_967:\n        /* \"#utility.yul\":33161:33347   */\n      pop\n      pop\n      jump\t// out\n        /* \"#utility.yul\":33353:33896   */\n    tag_646:\n        /* \"#utility.yul\":33454:33456   */\n      0x1f\n        /* \"#utility.yul\":33449:33452   */\n      dup3\n        /* \"#utility.yul\":33446:33457   */\n      gt\n        /* \"#utility.yul\":33443:33889   */\n      iszero\n      tag_970\n      jumpi\n        /* \"#utility.yul\":33488:33526   */\n      tag_971\n        /* \"#utility.yul\":33520:33525   */\n      dup2\n        /* \"#utility.yul\":33488:33526   */\n      tag_636\n      jump\t// in\n    tag_971:\n        /* \"#utility.yul\":33572:33601   */\n      tag_972\n        /* \"#utility.yul\":33590:33600   */\n      dup5\n        /* \"#utility.yul\":33572:33601   */\n      tag_637\n      jump\t// in\n    tag_972:\n        /* \"#utility.yul\":33562:33570   */\n      dup2\n        /* \"#utility.yul\":33558:33602   */\n      add\n        /* \"#utility.yul\":33755:33757   */\n      0x20\n        /* \"#utility.yul\":33743:33753   */\n      dup6\n        /* \"#utility.yul\":33740:33758   */\n      lt\n        /* \"#utility.yul\":33737:33786   */\n      iszero\n      tag_973\n      jumpi\n        /* \"#utility.yul\":33776:33784   */\n      dup2\n        /* \"#utility.yul\":33761:33784   */\n      swap1\n      pop\n        /* \"#utility.yul\":33737:33786   */\n    tag_973:\n        /* \"#utility.yul\":33799:33879   */\n      tag_974\n        /* \"#utility.yul\":33855:33877   */\n      tag_975\n        /* \"#utility.yul\":33873:33876   */\n      dup6\n        /* \"#utility.yul\":33855:33877   */\n      tag_637\n      jump\t// in\n    tag_975:\n        /* \"#utility.yul\":33845:33853   */\n      dup4\n        /* \"#utility.yul\":33841:33878   */\n      add\n        /* \"#utility.yul\":33828:33839   */\n      dup3\n        /* \"#utility.yul\":33799:33879   */\n      tag_645\n      jump\t// in\n    tag_974:\n        /* \"#utility.yul\":33458:33889   */\n      pop\n      pop\n        /* \"#utility.yul\":33443:33889   */\n    tag_970:\n        /* \"#utility.yul\":33353:33896   */\n      pop\n      pop\n      pop\n      jump\t// out\n        /* \"#utility.yul\":33902:34019   */\n    tag_647:\n        /* \"#utility.yul\":33956:33964   */\n      0x00\n        /* \"#utility.yul\":34006:34011   */\n      dup3\n        /* \"#utility.yul\":34000:34004   */\n      dup3\n        /* \"#utility.yul\":33996:34012   */\n      shr\n        /* \"#utility.yul\":33975:34012   */\n      swap1\n      pop\n        /* \"#utility.yul\":33902:34019   */\n      swap3\n      swap2\n      pop\n      pop\n      jump\t// out\n        /* \"#utility.yul\":34025:34194   */\n    tag_648:\n        /* \"#utility.yul\":34069:34075   */\n      0x00\n        /* \"#utility.yul\":34102:34153   */\n      tag_978\n        /* \"#utility.yul\":34150:34151   */\n      0x00\n        /* \"#utility.yul\":34146:34152   */\n      not\n        /* \"#utility.yul\":34138:34143   */\n      dup5\n        /* \"#utility.yul\":34135:34136   */\n      0x08\n        /* \"#utility.yul\":34131:34144   */\n      mul\n        /* \"#utility.yul\":34102:34153   */\n      tag_647\n      jump\t// in\n    tag_978:\n        /* \"#utility.yul\":34098:34154   */\n      not\n        /* \"#utility.yul\":34183:34187   */\n      dup1\n        /* \"#utility.yul\":34177:34181   */\n      dup4\n        /* \"#utility.yul\":34173:34188   */\n      and\n        /* \"#utility.yul\":34163:34188   */\n      swap2\n      pop\n        /* \"#utility.yul\":34076:34194   */\n      pop\n        /* \"#utility.yul\":34025:34194   */\n      swap3\n      swap2\n      pop\n      pop\n      jump\t// out\n        /* \"#utility.yul\":34199:34494   */\n    tag_649:\n        /* \"#utility.yul\":34275:34279   */\n      0x00\n        /* \"#utility.yul\":34421:34450   */\n      tag_980\n        /* \"#utility.yul\":34446:34449   */\n      dup4\n        /* \"#utility.yul\":34440:34444   */\n      dup4\n        /* \"#utility.yul\":34421:34450   */\n      tag_648\n      jump\t// in\n    tag_980:\n        /* \"#utility.yul\":34413:34450   */\n      swap2\n      pop\n        /* \"#utility.yul\":34483:34486   */\n      dup3\n        /* \"#utility.yul\":34480:34481   */\n      0x02\n        /* \"#utility.yul\":34476:34487   */\n      mul\n        /* \"#utility.yul\":34470:34474   */\n      dup3\n        /* \"#utility.yul\":34467:34488   */\n      or\n        /* \"#utility.yul\":34459:34488   */\n      swap1\n      pop\n        /* \"#utility.yul\":34199:34494   */\n      swap3\n      swap2\n      pop\n      pop\n      jump\t// out\n        /* \"#utility.yul\":34499:35894   */\n    tag_528:\n        /* \"#utility.yul\":34616:34653   */\n      tag_982\n        /* \"#utility.yul\":34649:34652   */\n      dup3\n        /* \"#utility.yul\":34616:34653   */\n      tag_558\n      jump\t// in\n    tag_982:\n        /* \"#utility.yul\":34718:34736   */\n      0xffffffffffffffff\n        /* \"#utility.yul\":34710:34716   */\n      dup2\n        /* \"#utility.yul\":34707:34737   */\n      gt\n        /* \"#utility.yul\":34704:34760   */\n      iszero\n      tag_983\n      jumpi\n        /* \"#utility.yul\":34740:34758   */\n      tag_984\n      tag_580\n      jump\t// in\n    tag_984:\n        /* \"#utility.yul\":34704:34760   */\n    tag_983:\n        /* \"#utility.yul\":34784:34822   */\n      tag_985\n        /* \"#utility.yul\":34816:34820   */\n      dup3\n        /* \"#utility.yul\":34810:34821   */\n      sload\n        /* \"#utility.yul\":34784:34822   */\n      tag_190\n      jump\t// in\n    tag_985:\n        /* \"#utility.yul\":34869:34936   */\n      tag_986\n        /* \"#utility.yul\":34929:34935   */\n      dup3\n        /* \"#utility.yul\":34921:34927   */\n      dup3\n        /* \"#utility.yul\":34915:34919   */\n      dup6\n        /* \"#utility.yul\":34869:34936   */\n      tag_646\n      jump\t// in\n    tag_986:\n        /* \"#utility.yul\":34963:34964   */\n      0x00\n        /* \"#utility.yul\":34987:34991   */\n      0x20\n        /* \"#utility.yul\":34974:34991   */\n      swap1\n      pop\n        /* \"#utility.yul\":35019:35021   */\n      0x1f\n        /* \"#utility.yul\":35011:35017   */\n      dup4\n        /* \"#utility.yul\":35008:35022   */\n      gt\n        /* \"#utility.yul\":35036:35037   */\n      0x01\n        /* \"#utility.yul\":35031:35649   */\n      dup2\n      eq\n      tag_988\n      jumpi\n        /* \"#utility.yul\":35693:35694   */\n      0x00\n        /* \"#utility.yul\":35710:35716   */\n      dup5\n        /* \"#utility.yul\":35707:35784   */\n      iszero\n      tag_989\n      jumpi\n        /* \"#utility.yul\":35759:35768   */\n      dup3\n        /* \"#utility.yul\":35754:35757   */\n      dup8\n        /* \"#utility.yul\":35750:35769   */\n      add\n        /* \"#utility.yul\":35744:35770   */\n      mload\n        /* \"#utility.yul\":35735:35770   */\n      swap1\n      pop\n        /* \"#utility.yul\":35707:35784   */\n    tag_989:\n        /* \"#utility.yul\":35810:35877   */\n      tag_990\n        /* \"#utility.yul\":35870:35876   */\n      dup6\n        /* \"#utility.yul\":35863:35868   */\n      dup3\n        /* \"#utility.yul\":35810:35877   */\n      tag_649\n      jump\t// in\n    tag_990:\n        /* \"#utility.yul\":35804:35808   */\n      dup7\n        /* \"#utility.yul\":35797:35878   */\n      sstore\n        /* \"#utility.yul\":35666:35888   */\n      pop\n        /* \"#utility.yul\":35001:35888   */\n      jump(tag_987)\n        /* \"#utility.yul\":35031:35649   */\n    tag_988:\n        /* \"#utility.yul\":35083:35087   */\n      0x1f\n        /* \"#utility.yul\":35079:35088   */\n      not\n        /* \"#utility.yul\":35071:35077   */\n      dup5\n        /* \"#utility.yul\":35067:35089   */\n      and\n        /* \"#utility.yul\":35117:35154   */\n      tag_991\n        /* \"#utility.yul\":35149:35153   */\n      dup7\n        /* \"#utility.yul\":35117:35154   */\n      tag_636\n      jump\t// in\n    tag_991:\n        /* \"#utility.yul\":35176:35177   */\n      0x00\n        /* \"#utility.yul\":35190:35398   */\n    tag_992:\n        /* \"#utility.yul\":35204:35211   */\n      dup3\n        /* \"#utility.yul\":35201:35202   */\n      dup2\n        /* \"#utility.yul\":35198:35212   */\n      lt\n        /* \"#utility.yul\":35190:35398   */\n      iszero\n      tag_994\n      jumpi\n        /* \"#utility.yul\":35283:35292   */\n      dup5\n        /* \"#utility.yul\":35278:35281   */\n      dup10\n        /* \"#utility.yul\":35274:35293   */\n      add\n        /* \"#utility.yul\":35268:35294   */\n      mload\n        /* \"#utility.yul\":35260:35266   */\n      dup3\n        /* \"#utility.yul\":35253:35295   */\n      sstore\n        /* \"#utility.yul\":35334:35335   */\n      0x01\n        /* \"#utility.yul\":35326:35332   */\n      dup3\n        /* \"#utility.yul\":35322:35336   */\n      add\n        /* \"#utility.yul\":35312:35336   */\n      swap2\n      pop\n        /* \"#utility.yul\":35381:35383   */\n      0x20\n        /* \"#utility.yul\":35370:35379   */\n      dup6\n        /* \"#utility.yul\":35366:35384   */\n      add\n        /* \"#utility.yul\":35353:35384   */\n      swap5\n      pop\n        /* \"#utility.yul\":35227:35231   */\n      0x20\n        /* \"#utility.yul\":35224:35225   */\n      dup2\n        /* \"#utility.yul\":35220:35232   */\n      add\n        /* \"#utility.yul\":35215:35232   */\n      swap1\n      pop\n        /* \"#utility.yul\":35190:35398   */\n      jump(tag_992)\n    tag_994:\n        /* \"#utility.yul\":35426:35432   */\n      dup7\n        /* \"#utility.yul\":35417:35424   */\n      dup4\n        /* \"#utility.yul\":35414:35433   */\n      lt\n        /* \"#utility.yul\":35411:35590   */\n      iszero\n      tag_995\n      jumpi\n        /* \"#utility.yul\":35484:35493   */\n      dup5\n        /* \"#utility.yul\":35479:35482   */\n      dup10\n        /* \"#utility.yul\":35475:35494   */\n      add\n        /* \"#utility.yul\":35469:35495   */\n      mload\n        /* \"#utility.yul\":35527:35575   */\n      tag_996\n        /* \"#utility.yul\":35569:35573   */\n      0x1f\n        /* \"#utility.yul\":35561:35567   */\n      dup10\n        /* \"#utility.yul\":35557:35574   */\n      and\n        /* \"#utility.yul\":35546:35555   */\n      dup3\n        /* \"#utility.yul\":35527:35575   */\n      tag_648\n      jump\t// in\n    tag_996:\n        /* \"#utility.yul\":35519:35525   */\n      dup4\n        /* \"#utility.yul\":35512:35576   */\n      sstore\n        /* \"#utility.yul\":35434:35590   */\n      pop\n        /* \"#utility.yul\":35411:35590   */\n    tag_995:\n        /* \"#utility.yul\":35636:35637   */\n      0x01\n        /* \"#utility.yul\":35632:35633   */\n      0x02\n        /* \"#utility.yul\":35624:35630   */\n      dup9\n        /* \"#utility.yul\":35620:35634   */\n      mul\n        /* \"#utility.yul\":35616:35638   */\n      add\n        /* \"#utility.yul\":35610:35614   */\n      dup9\n        /* \"#utility.yul\":35603:35639   */\n      sstore\n        /* \"#utility.yul\":35038:35649   */\n      pop\n      pop\n      pop\n        /* \"#utility.yul\":35001:35888   */\n    tag_987:\n      pop\n        /* \"#utility.yul\":34591:35894   */\n      pop\n      pop\n      pop\n        /* \"#utility.yul\":34499:35894   */\n      pop\n      pop\n      jump\t// out\n        /* \"#utility.yul\":35900:36310   */\n    tag_541:\n        /* \"#utility.yul\":35940:35947   */\n      0x00\n        /* \"#utility.yul\":35963:35983   */\n      tag_998\n        /* \"#utility.yul\":35981:35982   */\n      dup3\n        /* \"#utility.yul\":35963:35983   */\n      tag_570\n      jump\t// in\n    tag_998:\n        /* \"#utility.yul\":35958:35983   */\n      swap2\n      pop\n        /* \"#utility.yul\":35997:36017   */\n      tag_999\n        /* \"#utility.yul\":36015:36016   */\n      dup4\n        /* \"#utility.yul\":35997:36017   */\n      tag_570\n      jump\t// in\n    tag_999:\n        /* \"#utility.yul\":35992:36017   */\n      swap3\n      pop\n        /* \"#utility.yul\":36052:36053   */\n      dup3\n        /* \"#utility.yul\":36049:36050   */\n      dup3\n        /* \"#utility.yul\":36045:36054   */\n      mul\n        /* \"#utility.yul\":36074:36104   */\n      tag_1000\n        /* \"#utility.yul\":36092:36103   */\n      dup2\n        /* \"#utility.yul\":36074:36104   */\n      tag_570\n      jump\t// in\n    tag_1000:\n        /* \"#utility.yul\":36063:36104   */\n      swap2\n      pop\n        /* \"#utility.yul\":36253:36254   */\n      dup3\n        /* \"#utility.yul\":36244:36251   */\n      dup3\n        /* \"#utility.yul\":36240:36255   */\n      div\n        /* \"#utility.yul\":36237:36238   */\n      dup5\n        /* \"#utility.yul\":36234:36256   */\n      eq\n        /* \"#utility.yul\":36214:36215   */\n      dup4\n        /* \"#utility.yul\":36207:36216   */\n      iszero\n        /* \"#utility.yul\":36187:36270   */\n      or\n        /* \"#utility.yul\":36164:36303   */\n      tag_1001\n      jumpi\n        /* \"#utility.yul\":36283:36301   */\n      tag_1002\n      tag_605\n      jump\t// in\n    tag_1002:\n        /* \"#utility.yul\":36164:36303   */\n    tag_1001:\n        /* \"#utility.yul\":35948:36310   */\n      pop\n        /* \"#utility.yul\":35900:36310   */\n      swap3\n      swap2\n      pop\n      pop\n      jump\t// out\n        /* \"#utility.yul\":36316:36496   */\n    tag_650:\n        /* \"#utility.yul\":36364:36441   */\n      0x4e487b7100000000000000000000000000000000000000000000000000000000\n        /* \"#utility.yul\":36361:36362   */\n      0x00\n        /* \"#utility.yul\":36354:36442   */\n      mstore\n        /* \"#utility.yul\":36461:36465   */\n      0x12\n        /* \"#utility.yul\":36458:36459   */\n      0x04\n        /* \"#utility.yul\":36451:36466   */\n      mstore\n        /* \"#utility.yul\":36485:36489   */\n      0x24\n        /* \"#utility.yul\":36482:36483   */\n      0x00\n        /* \"#utility.yul\":36475:36490   */\n      revert\n        /* \"#utility.yul\":36502:36687   */\n    tag_544:\n        /* \"#utility.yul\":36542:36543   */\n      0x00\n        /* \"#utility.yul\":36559:36579   */\n      tag_1005\n        /* \"#utility.yul\":36577:36578   */\n      dup3\n        /* \"#utility.yul\":36559:36579   */\n      tag_570\n      jump\t// in\n    tag_1005:\n        /* \"#utility.yul\":36554:36579   */\n      swap2\n      pop\n        /* \"#utility.yul\":36593:36613   */\n      tag_1006\n        /* \"#utility.yul\":36611:36612   */\n      dup4\n        /* \"#utility.yul\":36593:36613   */\n      tag_570\n      jump\t// in\n    tag_1006:\n        /* \"#utility.yul\":36588:36613   */\n      swap3\n      pop\n        /* \"#utility.yul\":36632:36633   */\n      dup3\n        /* \"#utility.yul\":36622:36657   */\n      tag_1007\n      jumpi\n        /* \"#utility.yul\":36637:36655   */\n      tag_1008\n      tag_650\n      jump\t// in\n    tag_1008:\n        /* \"#utility.yul\":36622:36657   */\n    tag_1007:\n        /* \"#utility.yul\":36679:36680   */\n      dup3\n        /* \"#utility.yul\":36676:36677   */\n      dup3\n        /* \"#utility.yul\":36672:36681   */\n      div\n        /* \"#utility.yul\":36667:36681   */\n      swap1\n      pop\n        /* \"#utility.yul\":36502:36687   */\n      swap3\n      swap2\n      pop\n      pop\n      jump\t// out\n\n    auxdata: 0xa264697066735822122028005d00b2c87c680778b0200cc630739d6eba3c97893559553eff21767f5c1364736f6c63430008140033\n}\n",
				"bytecode": {
					"linkReferences": {},
					"object": "608060405234801561000f575f80fd5b506139f88061001d5f395ff3fe608060405234801561000f575f80fd5b506004361061023b575f3560e01c806379cc679011610139578063c29c669a116100b6578063dd62ed3e1161007a578063dd62ed3e14610665578063e1a8f3f414610695578063e7ba1012146106b1578063e85455d7146106cf578063f2fde38b146106ff5761023b565b8063c29c669a146105d5578063c658a5e3146105f1578063cc7134ba146105fb578063d048d9881461062b578063db0ed6a0146106495761023b565b80638da5cb5b116100fd5780638da5cb5b1461051d57806395d89b411461053b578063a02fba1e14610559578063a9059cbb14610575578063a906c70e146105a55761023b565b806379cc67901461048d57806379e631f4146104a95780638456cb59146104c5578063851f39d4146104cf5780638850b9c2146104ff5761023b565b806338af3eed116101c757806353e4e3cb1161018b57806353e4e3cb146103fb5780635c975abb1461041757806370a082311461043557806370d27fa014610465578063715018a6146104835761023b565b806338af3eed1461037f5780633f4ba83a1461039d57806340c10f19146103a757806342966c68146103c357806352875bc3146103df5761023b565b80631a5e62fd1161020e5780631a5e62fd146102db5780631c31f710146102f757806323b872dd1461031357806324e8933d14610343578063313ce567146103615761023b565b806306fdde031461023f578063095ea7b31461025d578063110c621d1461028d57806318160ddd146102bd575b5f80fd5b61024761071b565b6040516102549190612774565b60405180910390f35b61027760048036038101906102729190612832565b6107b9565b604051610284919061288a565b60405180910390f35b6102a760048036038101906102a291906128a3565b6107db565b6040516102b491906128dd565b60405180910390f35b6102c56107f4565b6040516102d291906128dd565b60405180910390f35b6102f560048036038101906102f091906128f6565b61080b565b005b610311600480360381019061030c91906128f6565b61088d565b005b61032d60048036038101906103289190612921565b61091b565b60405161033a919061288a565b60405180910390f35b61034b6109ca565b60405161035891906128dd565b60405180910390f35b6103696109d0565b604051610376919061298c565b60405180910390f35b6103876109d8565b60405161039491906129b4565b60405180910390f35b6103a56109fd565b005b6103c160048036038101906103bc9190612832565b610a0f565b005b6103dd60048036038101906103d891906128a3565b610ad2565b005b6103f960048036038101906103f491906128f6565b610adf565b005b61041560048036038101906104109190612afb565b610b6d565b005b61041f610d50565b60405161042c919061288a565b60405180910390f35b61044f600480360381019061044a91906128f6565b610d64565b60405161045c91906128dd565b60405180910390f35b61046d610db7565b60405161047a91906128dd565b60405180910390f35b61048b610dbd565b005b6104a760048036038101906104a29190612832565b610dd0565b005b6104c360048036038101906104be91906128f6565b610e3c565b005b6104cd610eca565b005b6104e960048036038101906104e491906128f6565b610edc565b6040516104f6919061288a565b60405180910390f35b610507610ef9565b60405161051491906129b4565b60405180910390f35b610525610f1e565b60405161053291906129b4565b60405180910390f35b610543610f53565b6040516105509190612774565b60405180910390f35b610573600480360381019061056e91906128a3565b610ff1565b005b61058f600480360381019061058a9190612832565b61103a565b60405161059c919061288a565b60405180910390f35b6105bf60048036038101906105ba91906128a3565b611083565b6040516105cc91906128dd565b60405180910390f35b6105ef60048036038101906105ea9190612b64565b61109c565b005b6105f961114a565b005b610615600480360381019061061091906128f6565b61115c565b604051610622919061288a565b60405180910390f35b610633611179565b60405161064091906128dd565b60405180910390f35b610663600480360381019061065e9190612c52565b61117f565b005b61067f600480360381019061067a9190612d01565b6114b4565b60405161068c91906128dd565b60405180910390f35b6106af60048036038101906106aa9190612d3f565b611544565b005b6106b9611649565b6040516106c691906129b4565b60405180910390f35b6106e960048036038101906106e491906128f6565b61166e565b6040516106f6919061288a565b60405180910390f35b610719600480360381019061071491906128f6565b61168b565b005b60605f61072661170f565b905080600301805461073790612dbc565b80601f016020809104026020016040519081016040528092919081815260200182805461076390612dbc565b80156107ae5780601f10610785576101008083540402835291602001916107ae565b820191905f5260205f20905b81548152906001019060200180831161079157829003601f168201915b505050505091505090565b5f806107c3611736565b90506107d081858561173d565b600191505092915050565b603d81600581106107ea575f80fd5b015f915090505481565b5f806107fe61170f565b9050806002015491505090565b61081361174f565b5f73ffffffffffffffffffffffffffffffffffffffff168173ffffffffffffffffffffffffffffffffffffffff1603610881576040517f08c379a000000000000000000000000000000000000000000000000000000000815260040161087890612e5c565b60405180910390fd5b61088a8161168b565b50565b61089561174f565b8060335f6101000a81548173ffffffffffffffffffffffffffffffffffffffff021916908373ffffffffffffffffffffffffffffffffffffffff1602179055508073ffffffffffffffffffffffffffffffffffffffff167f04d55a8be181fb8d75b76f2d48aa0b2ee40f47e53d6e61763eeeec46feea8a2460405160405180910390a250565b5f6109246117d6565b61093b60435460425461182090919063ffffffff16565b421061094a57610949611835565b5b5f61095c85610957611736565b6114b4565b9050828110156109a1576040517f08c379a000000000000000000000000000000000000000000000000000000000815260040161099890612eea565b60405180910390fd5b6109b5856109ad611736565b85840361173d565b6109c0858585611a43565b9150509392505050565b60425481565b5f6012905090565b60335f9054906101000a900473ffffffffffffffffffffffffffffffffffffffff1681565b610a0561174f565b610a0d611ba7565b565b60325f9054906101000a900473ffffffffffffffffffffffffffffffffffffffff1673ffffffffffffffffffffffffffffffffffffffff163373ffffffffffffffffffffffffffffffffffffffff1614610a9e576040517f08c379a0000000000000000000000000000000000000000000000000000000008152600401610a9590612f78565b60405180910390fd5b610ab560435460425461182090919063ffffffff16565b4210610ac457610ac3611835565b5b610ace8282611c07565b5050565b610adc3382611c86565b50565b610ae761174f565b8060325f6101000a81548173ffffffffffffffffffffffffffffffffffffffff021916908373ffffffffffffffffffffffffffffffffffffffff1602179055508073ffffffffffffffffffffffffffffffffffffffff167f915d8b94cdcbf4fa1b4c768b15f63b99aee21096b9d04fe1938f45833036106d60405160405180910390a250565b610b7561174f565b7fffffffffffffffffffffffffffffffffffffffffffffffffffffffffffffffff82600460058110610baa57610ba9612f96565b5b602002015114610bef576040517f08c379a0000000000000000000000000000000000000000000000000000000008152600401610be69061300d565b60405180910390fd5b5f5b6005811015610cee57614e20828260058110610c1057610c0f612f96565b5b60200201511115610c56576040517f08c379a0000000000000000000000000000000000000000000000000000000008152600401610c4d90613075565b60405180910390fd5b5f811115610cdb5782600182610c6c91906130c0565b60058110610c7d57610c7c612f96565b5b6020020151838260058110610c9557610c94612f96565b5b602002015111610cda576040517f08c379a0000000000000000000000000000000000000000000000000000000008152600401610cd190613163565b60405180910390fd5b5b8080610ce690613181565b915050610bf1565b50816038906005610d00929190612649565b5080603d906005610d12929190612649565b507ffca5dd7612680a40f4851bb137ecc39852bd2a1a3cc176efbb39affa8ce972148282604051610d4492919061326d565b60405180910390a15050565b5f805f9054906101000a900460ff16905090565b5f80610d6e61170f565b9050805f015f8473ffffffffffffffffffffffffffffffffffffffff1673ffffffffffffffffffffffffffffffffffffffff1681526020019081526020015f2054915050919050565b614e2081565b610dc561174f565b610dce5f611d05565b565b5f610ddb83336114b4565b905081811015610e20576040517f08c379a0000000000000000000000000000000000000000000000000000000008152600401610e1790613305565b60405180910390fd5b610e2d833384840361173d565b610e378383611c86565b505050565b610e4461174f565b8060345f6101000a81548173ffffffffffffffffffffffffffffffffffffffff021916908373ffffffffffffffffffffffffffffffffffffffff1602179055508073ffffffffffffffffffffffffffffffffffffffff167f25cf73d41a7a2f5baa3ed34b7a72144453377d3d6c59b74db14e0ff168fd1fa960405160405180910390a250565b610ed261174f565b610eda611dd6565b565b6036602052805f5260405f205f915054906101000a900460ff1681565b60345f9054906101000a900473ffffffffffffffffffffffffffffffffffffffff1681565b5f80610f28611e37565b9050805f015f9054906101000a900473ffffffffffffffffffffffffffffffffffffffff1691505090565b60605f610f5e61170f565b9050806004018054610f6f90612dbc565b80601f0160208091040260200160405190810160405280929190818152602001828054610f9b90612dbc565b8015610fe65780601f10610fbd57610100808354040283529160200191610fe6565b820191905f5260205f20905b815481529060010190602001808311610fc957829003601f168201915b505050505091505090565b610ff961174f565b806043819055507ff759d32ec37fe15560fbb2ad08f9ea31689d826215d24d6a6e2e740c517c66db8160405161102f91906128dd565b60405180910390a150565b5f6110436117d6565b61105a60435460425461182090919063ffffffff16565b421061106957611068611835565b5b61107b611074611736565b8484611a43565b905092915050565b60388160058110611092575f80fd5b015f915090505481565b6110a461174f565b8060375f8473ffffffffffffffffffffffffffffffffffffffff1673ffffffffffffffffffffffffffffffffffffffff1681526020019081526020015f205f6101000a81548160ff0219169083151502179055508173ffffffffffffffffffffffffffffffffffffffff167ffa4a2b2457d2065452473bed7d55c8fa2f65fc4a1eff1ebdaf14a1b7281e77738260405161113e919061288a565b60405180910390a25050565b61115261174f565b61115a610dbd565b565b6035602052805f5260405f205f915054906101000a900460ff1681565b60435481565b5f611188611e5e565b90505f815f0160089054906101000a900460ff161590505f825f015f9054906101000a900467ffffffffffffffff1690505f808267ffffffffffffffff161480156111d05750825b90505f60018367ffffffffffffffff1614801561120357505f3073ffffffffffffffffffffffffffffffffffffffff163b145b905081158015611211575080155b15611248576040517ff92ee8a900000000000000000000000000000000000000000000000000000000815260040160405180910390fd5b6001855f015f6101000a81548167ffffffffffffffff021916908367ffffffffffffffff1602179055508315611295576001855f0160086101000a81548160ff0219169083151502179055505b61129f8a8a611e85565b6112a833611e9b565b6112b0611eaf565b8760325f6101000a81548173ffffffffffffffffffffffffffffffffffffffff021916908373ffffffffffffffffffffffffffffffffffffffff1602179055508660335f6101000a81548173ffffffffffffffffffffffffffffffffffffffff021916908373ffffffffffffffffffffffffffffffffffffffff1602179055508560345f6101000a81548173ffffffffffffffffffffffffffffffffffffffff021916908373ffffffffffffffffffffffffffffffffffffffff1602179055506040518060a00160405280683635c9adc5dea00000815260200169010f0cf064dd59200000815260200169021e19e0c9bab24000008152602001690a968163f0a57b40000081526020017fffffffffffffffffffffffffffffffffffffffffffffffffffffffffffffffff81525060389060056113ee929190612649565b506040518060a001604052806103e861ffff16815260200161032061ffff16815260200161025861ffff16815260200161019061ffff16815260200160c861ffff16815250603d906005611443929190612689565b506201518060438190555083156114a8575f855f0160086101000a81548160ff0219169083151502179055507fc7f505b2f371ae2175ee4913f4499e1f2633a7b5936321eed1cdaeb6115181d2600160405161149f9190613378565b60405180910390a15b50505050505050505050565b5f806114be61170f565b9050806001015f8573ffffffffffffffffffffffffffffffffffffffff1673ffffffffffffffffffffffffffffffffffffffff1681526020019081526020015f205f8473ffffffffffffffffffffffffffffffffffffffff1673ffffffffffffffffffffffffffffffffffffffff1681526020019081526020015f205491505092915050565b61154c61174f565b8160355f8573ffffffffffffffffffffffffffffffffffffffff1673ffffffffffffffffffffffffffffffffffffffff1681526020019081526020015f205f6101000a81548160ff0219169083151502179055508060365f8573ffffffffffffffffffffffffffffffffffffffff1673ffffffffffffffffffffffffffffffffffffffff1681526020019081526020015f205f6101000a81548160ff0219169083151502179055508273ffffffffffffffffffffffffffffffffffffffff167f56ef0fe49f8ee42d7982bb42d42fa7b8d1370ec36d0f8cb83802a7f74215027d838360405161163c929190613391565b60405180910390a2505050565b60325f9054906101000a900473ffffffffffffffffffffffffffffffffffffffff1681565b6037602052805f5260405f205f915054906101000a900460ff1681565b61169361174f565b5f73ffffffffffffffffffffffffffffffffffffffff168173ffffffffffffffffffffffffffffffffffffffff1603611703575f6040517f1e4fbdf70000000000000000000000000000000000000000000000000000000081526004016116fa91906129b4565b60405180910390fd5b61170c81611d05565b50565b5f7f52c63247e1f47db19d5ce0460030c497f067ca4cebf71ba98eeadabe20bace00905090565b5f33905090565b61174a8383836001611ec1565b505050565b611757611736565b73ffffffffffffffffffffffffffffffffffffffff16611775610f1e565b73ffffffffffffffffffffffffffffffffffffffff16146117d457611798611736565b6040517f118cdaa70000000000000000000000000000000000000000000000000000000081526004016117cb91906129b4565b60405180910390fd5b565b6117de610d50565b1561181e576040517f08c379a000000000000000000000000000000000000000000000000000000000815260040161181590613402565b60405180910390fd5b565b5f818361182d9190613420565b905092915050565b5f73ffffffffffffffffffffffffffffffffffffffff1660345f9054906101000a900473ffffffffffffffffffffffffffffffffffffffff1673ffffffffffffffffffffffffffffffffffffffff1614611a3a575f8060345f9054906101000a900473ffffffffffffffffffffffffffffffffffffffff1673ffffffffffffffffffffffffffffffffffffffff166040516024016040516020818303038152906040527f0902f1ac000000000000000000000000000000000000000000000000000000007bffffffffffffffffffffffffffffffffffffffffffffffffffffffff19166020820180517bffffffffffffffffffffffffffffffffffffffffffffffffffffffff83818316178352505050506040516119539190613497565b5f60405180830381855afa9150503d805f811461198b576040519150601f19603f3d011682016040523d82523d5f602084013e611990565b606091505b5091509150816119d5576040517f08c379a00000000000000000000000000000000000000000000000000000000081526004016119cc906134f7565b60405180910390fd5b5f818060200190518101906119ea9190613529565b9050806119f56107f4565b1115611a36576040517f08c379a0000000000000000000000000000000000000000000000000000000008152600401611a2d9061359e565b60405180910390fd5b5050505b42604281905550565b5f60355f8573ffffffffffffffffffffffffffffffffffffffff1673ffffffffffffffffffffffffffffffffffffffff1681526020019081526020015f205f9054906101000a900460ff1680611adf575060365f8473ffffffffffffffffffffffffffffffffffffffff1673ffffffffffffffffffffffffffffffffffffffff1681526020019081526020015f205f9054906101000a900460ff165b80611b30575060375f8573ffffffffffffffffffffffffffffffffffffffff1673ffffffffffffffffffffffffffffffffffffffff1681526020019081526020015f205f9054906101000a900460ff165b15611b4557611b4084848461209e565b611b9c565b5f611b4f8361218e565b9050611b7d8560335f9054906101000a900473ffffffffffffffffffffffffffffffffffffffff168361209e565b611b9a8585611b95848761225290919063ffffffff16565b61209e565b505b600190509392505050565b611baf612267565b5f805f6101000a81548160ff0219169083151502179055507f5db9ee0a495bf2e6ff9c91a7834c1ba4fdd244a5e8aa4e537bd38aeae4b073aa611bf0611736565b604051611bfd91906129b4565b60405180910390a1565b5f73ffffffffffffffffffffffffffffffffffffffff168273ffffffffffffffffffffffffffffffffffffffff1603611c77575f6040517fec442f05000000000000000000000000000000000000000000000000000000008152600401611c6e91906129b4565b60405180910390fd5b611c825f83836122b0565b5050565b5f73ffffffffffffffffffffffffffffffffffffffff168273ffffffffffffffffffffffffffffffffffffffff1603611cf6575f6040517f96c6fd1e000000000000000000000000000000000000000000000000000000008152600401611ced91906129b4565b60405180910390fd5b611d01825f836122b0565b5050565b5f611d0e611e37565b90505f815f015f9054906101000a900473ffffffffffffffffffffffffffffffffffffffff16905082825f015f6101000a81548173ffffffffffffffffffffffffffffffffffffffff021916908373ffffffffffffffffffffffffffffffffffffffff1602179055508273ffffffffffffffffffffffffffffffffffffffff168173ffffffffffffffffffffffffffffffffffffffff167f8be0079c531659141344cd1fd0a4f28419497f9722a3daafe3b4186f6b6457e060405160405180910390a3505050565b611dde6117d6565b60015f806101000a81548160ff0219169083151502179055507f62e78cea01bee320cd4e420270b5ea74000d11b0c9f74754ebdbfc544b05a258611e20611736565b604051611e2d91906129b4565b60405180910390a1565b5f7f9016d09d72d40fdae2fd8ceac6b6234c7706214fd39c1cd1e609a0528c199300905090565b5f7ff0c57e16840df040f15088dc2f81fe391c3923bec73e23a9662efc9c229c6a00905090565b611e8d6124df565b611e97828261251f565b5050565b611ea36124df565b611eac8161255b565b50565b611eb76124df565b611ebf6125df565b565b5f611eca61170f565b90505f73ffffffffffffffffffffffffffffffffffffffff168573ffffffffffffffffffffffffffffffffffffffff1603611f3c575f6040517fe602df05000000000000000000000000000000000000000000000000000000008152600401611f3391906129b4565b60405180910390fd5b5f73ffffffffffffffffffffffffffffffffffffffff168473ffffffffffffffffffffffffffffffffffffffff1603611fac575f6040517f94280d62000000000000000000000000000000000000000000000000000000008152600401611fa391906129b4565b60405180910390fd5b82816001015f8773ffffffffffffffffffffffffffffffffffffffff1673ffffffffffffffffffffffffffffffffffffffff1681526020019081526020015f205f8673ffffffffffffffffffffffffffffffffffffffff1673ffffffffffffffffffffffffffffffffffffffff1681526020019081526020015f20819055508115612097578373ffffffffffffffffffffffffffffffffffffffff168573ffffffffffffffffffffffffffffffffffffffff167f8c5be1e5ebec7d5bd14f71427d1e84f3dd0314c0f7b2291e5b200ac8c7c3b9258560405161208e91906128dd565b60405180910390a35b5050505050565b5f73ffffffffffffffffffffffffffffffffffffffff168373ffffffffffffffffffffffffffffffffffffffff160361210e575f6040517f96c6fd1e00000000000000000000000000000000000000000000000000000000815260040161210591906129b4565b60405180910390fd5b5f73ffffffffffffffffffffffffffffffffffffffff168273ffffffffffffffffffffffffffffffffffffffff160361217e575f6040517fec442f0500000000000000000000000000000000000000000000000000000000815260040161217591906129b4565b60405180910390fd5b6121898383836122b0565b505050565b5f805f90505b600581101561221157603881600581106121b1576121b0612f96565b5b015483116121fe576121f6620186a06121e8603d84600581106121d7576121d6612f96565b5b01548661260190919063ffffffff16565b61261690919063ffffffff16565b91505061224d565b808061220990613181565b915050612194565b506040517f08c379a000000000000000000000000000000000000000000000000000000000815260040161224490613606565b60405180910390fd5b919050565b5f818361225f91906130c0565b905092915050565b61226f610d50565b6122ae576040517f08c379a00000000000000000000000000000000000000000000000000000000081526004016122a59061366e565b60405180910390fd5b565b5f6122b961170f565b90505f73ffffffffffffffffffffffffffffffffffffffff168473ffffffffffffffffffffffffffffffffffffffff160361230d5781816002015f8282546123019190613420565b925050819055506123df565b5f815f015f8673ffffffffffffffffffffffffffffffffffffffff1673ffffffffffffffffffffffffffffffffffffffff1681526020019081526020015f2054905082811015612398578481846040517fe450d38c00000000000000000000000000000000000000000000000000000000815260040161238f9392919061368c565b60405180910390fd5b828103825f015f8773ffffffffffffffffffffffffffffffffffffffff1673ffffffffffffffffffffffffffffffffffffffff1681526020019081526020015f2081905550505b5f73ffffffffffffffffffffffffffffffffffffffff168373ffffffffffffffffffffffffffffffffffffffff16036124285781816002015f8282540392505081905550612474565b81815f015f8573ffffffffffffffffffffffffffffffffffffffff1673ffffffffffffffffffffffffffffffffffffffff1681526020019081526020015f205f82825401925050819055505b8273ffffffffffffffffffffffffffffffffffffffff168473ffffffffffffffffffffffffffffffffffffffff167fddf252ad1be2c89b69c2b068fc378daa952ba7f163c4a11628f55a4df523b3ef846040516124d191906128dd565b60405180910390a350505050565b6124e761262b565b61251d576040517fd7e6bcf800000000000000000000000000000000000000000000000000000000815260040160405180910390fd5b565b6125276124df565b5f61253061170f565b9050828160030190816125439190613855565b50818160040190816125559190613855565b50505050565b6125636124df565b5f73ffffffffffffffffffffffffffffffffffffffff168173ffffffffffffffffffffffffffffffffffffffff16036125d3575f6040517f1e4fbdf70000000000000000000000000000000000000000000000000000000081526004016125ca91906129b4565b60405180910390fd5b6125dc81611d05565b50565b6125e76124df565b5f805f6101000a81548160ff021916908315150217905550565b5f818361260e9190613924565b905092915050565b5f81836126239190613992565b905092915050565b5f612634611e5e565b5f0160089054906101000a900460ff16905090565b8260058101928215612678579160200282015b8281111561267757825182559160200191906001019061265c565b5b50905061268591906126cf565b5090565b82600581019282156126be579160200282015b828111156126bd578251829061ffff1690559160200191906001019061269c565b5b5090506126cb91906126cf565b5090565b5b808211156126e6575f815f9055506001016126d0565b5090565b5f81519050919050565b5f82825260208201905092915050565b5f5b83811015612721578082015181840152602081019050612706565b5f8484015250505050565b5f601f19601f8301169050919050565b5f612746826126ea565b61275081856126f4565b9350612760818560208601612704565b6127698161272c565b840191505092915050565b5f6020820190508181035f83015261278c818461273c565b905092915050565b5f604051905090565b5f80fd5b5f80fd5b5f73ffffffffffffffffffffffffffffffffffffffff82169050919050565b5f6127ce826127a5565b9050919050565b6127de816127c4565b81146127e8575f80fd5b50565b5f813590506127f9816127d5565b92915050565b5f819050919050565b612811816127ff565b811461281b575f80fd5b50565b5f8135905061282c81612808565b92915050565b5f80604083850312156128485761284761279d565b5b5f612855858286016127eb565b92505060206128668582860161281e565b9150509250929050565b5f8115159050919050565b61288481612870565b82525050565b5f60208201905061289d5f83018461287b565b92915050565b5f602082840312156128b8576128b761279d565b5b5f6128c58482850161281e565b91505092915050565b6128d7816127ff565b82525050565b5f6020820190506128f05f8301846128ce565b92915050565b5f6020828403121561290b5761290a61279d565b5b5f612918848285016127eb565b91505092915050565b5f805f606084860312156129385761293761279d565b5b5f612945868287016127eb565b9350506020612956868287016127eb565b92505060406129678682870161281e565b9150509250925092565b5f60ff82169050919050565b61298681612971565b82525050565b5f60208201905061299f5f83018461297d565b92915050565b6129ae816127c4565b82525050565b5f6020820190506129c75f8301846129a5565b92915050565b5f80fd5b7f4e487b71000000000000000000000000000000000000000000000000000000005f52604160045260245ffd5b612a078261272c565b810181811067ffffffffffffffff82111715612a2657612a256129d1565b5b80604052505050565b5f612a38612794565b9050612a4482826129fe565b919050565b5f67ffffffffffffffff821115612a6357612a626129d1565b5b602082029050919050565b5f80fd5b5f612a84612a7f84612a49565b612a2f565b90508060208402830185811115612a9e57612a9d612a6e565b5b835b81811015612ac75780612ab3888261281e565b845260208401935050602081019050612aa0565b5050509392505050565b5f82601f830112612ae557612ae46129cd565b5b6005612af2848285612a72565b91505092915050565b5f806101408385031215612b1257612b1161279d565b5b5f612b1f85828601612ad1565b92505060a0612b3085828601612ad1565b9150509250929050565b612b4381612870565b8114612b4d575f80fd5b50565b5f81359050612b5e81612b3a565b92915050565b5f8060408385031215612b7a57612b7961279d565b5b5f612b87858286016127eb565b9250506020612b9885828601612b50565b9150509250929050565b5f80fd5b5f67ffffffffffffffff821115612bc057612bbf6129d1565b5b612bc98261272c565b9050602081019050919050565b828183375f83830152505050565b5f612bf6612bf184612ba6565b612a2f565b905082815260208101848484011115612c1257612c11612ba2565b5b612c1d848285612bd6565b509392505050565b5f82601f830112612c3957612c386129cd565b5b8135612c49848260208601612be4565b91505092915050565b5f805f805f60a08688031215612c6b57612c6a61279d565b5b5f86013567ffffffffffffffff811115612c8857612c876127a1565b5b612c9488828901612c25565b955050602086013567ffffffffffffffff811115612cb557612cb46127a1565b5b612cc188828901612c25565b9450506040612cd2888289016127eb565b9350506060612ce3888289016127eb565b9250506080612cf4888289016127eb565b9150509295509295909350565b5f8060408385031215612d1757612d1661279d565b5b5f612d24858286016127eb565b9250506020612d35858286016127eb565b9150509250929050565b5f805f60608486031215612d5657612d5561279d565b5b5f612d63868287016127eb565b9350506020612d7486828701612b50565b9250506040612d8586828701612b50565b9150509250925092565b7f4e487b71000000000000000000000000000000000000000000000000000000005f52602260045260245ffd5b5f6002820490506001821680612dd357607f821691505b602082108103612de657612de5612d8f565b5b50919050565b7f474946543a204e65772061646d696e2063616e6e6f7420626520746865207a655f8201527f726f206164647265737300000000000000000000000000000000000000000000602082015250565b5f612e46602a836126f4565b9150612e5182612dec565b604082019050919050565b5f6020820190508181035f830152612e7381612e3a565b9050919050565b7f474946543a207472616e7366657220616d6f756e74206578636565647320616c5f8201527f6c6f77616e636500000000000000000000000000000000000000000000000000602082015250565b5f612ed46027836126f4565b9150612edf82612e7a565b604082019050919050565b5f6020820190508181035f830152612f0181612ec8565b9050919050565b7f474946543a2063616c6c6572206973206e6f742074686520737570706c79436f5f8201527f6e74726f6c6c6572000000000000000000000000000000000000000000000000602082015250565b5f612f626028836126f4565b9150612f6d82612f08565b604082019050919050565b5f6020820190508181035f830152612f8f81612f56565b9050919050565b7f4e487b71000000000000000000000000000000000000000000000000000000005f52603260045260245ffd5b7f474946543a204c6173742074696572206d757374206265206d617800000000005f82015250565b5f612ff7601b836126f4565b915061300282612fc3565b602082019050919050565b5f6020820190508181035f83015261302481612feb565b9050919050565b7f474946543a205461782070657263656e7461676520746f6f20686967680000005f82015250565b5f61305f601d836126f4565b915061306a8261302b565b602082019050919050565b5f6020820190508181035f83015261308c81613053565b9050919050565b7f4e487b71000000000000000000000000000000000000000000000000000000005f52601160045260245ffd5b5f6130ca826127ff565b91506130d5836127ff565b92508282039050818111156130ed576130ec613093565b5b92915050565b7f474946543a205469657273206d75737420626520696e20617363656e64696e675f8201527f206f726465720000000000000000000000000000000000000000000000000000602082015250565b5f61314d6026836126f4565b9150613158826130f3565b604082019050919050565b5f6020820190508181035f83015261317a81613141565b9050919050565b5f61318b826127ff565b91507fffffffffffffffffffffffffffffffffffffffffffffffffffffffffffffffff82036131bd576131bc613093565b5b600182019050919050565b5f60059050919050565b5f81905092915050565b5f819050919050565b6131ee816127ff565b82525050565b5f6131ff83836131e5565b60208301905092915050565b5f602082019050919050565b613220816131c8565b61322a81846131d2565b9250613235826131dc565b805f5b8381101561326557815161324c87826131f4565b96506132578361320b565b925050600181019050613238565b505050505050565b5f610140820190506132815f830185613217565b61328e60a0830184613217565b9392505050565b7f474946543a206275726e20616d6f756e74206578636565647320616c6c6f77615f8201527f6e63650000000000000000000000000000000000000000000000000000000000602082015250565b5f6132ef6023836126f4565b91506132fa82613295565b604082019050919050565b5f6020820190508181035f83015261331c816132e3565b9050919050565b5f819050919050565b5f67ffffffffffffffff82169050919050565b5f819050919050565b5f61336261335d61335884613323565b61333f565b61332c565b9050919050565b61337281613348565b82525050565b5f60208201905061338b5f830184613369565b92915050565b5f6040820190506133a45f83018561287b565b6133b1602083018461287b565b9392505050565b7f5061757361626c653a20706175736564000000000000000000000000000000005f82015250565b5f6133ec6010836126f4565b91506133f7826133b8565b602082019050919050565b5f6020820190508181035f830152613419816133e0565b9050919050565b5f61342a826127ff565b9150613435836127ff565b925082820190508082111561344d5761344c613093565b5b92915050565b5f81519050919050565b5f81905092915050565b5f61347182613453565b61347b818561345d565b935061348b818560208601612704565b80840191505092915050565b5f6134a28284613467565b915081905092915050565b7f474946543a204661696c656420746f20636865636b20726573657276657300005f82015250565b5f6134e1601e836126f4565b91506134ec826134ad565b602082019050919050565b5f6020820190508181035f83015261350e816134d5565b9050919050565b5f8151905061352381612808565b92915050565b5f6020828403121561353e5761353d61279d565b5b5f61354b84828501613515565b91505092915050565b7f474946543a20496e73756666696369656e7420726573657276657300000000005f82015250565b5f613588601b836126f4565b915061359382613554565b602082019050919050565b5f6020820190508181035f8301526135b58161357c565b9050919050565b7f474946543a20496e76616c696420616d6f756e740000000000000000000000005f82015250565b5f6135f06014836126f4565b91506135fb826135bc565b602082019050919050565b5f6020820190508181035f83015261361d816135e4565b9050919050565b7f5061757361626c653a206e6f74207061757365640000000000000000000000005f82015250565b5f6136586014836126f4565b915061366382613624565b602082019050919050565b5f6020820190508181035f8301526136858161364c565b9050919050565b5f60608201905061369f5f8301866129a5565b6136ac60208301856128ce565b6136b960408301846128ce565b949350505050565b5f819050815f5260205f209050919050565b5f6020601f8301049050919050565b5f82821b905092915050565b5f6008830261371d7fffffffffffffffffffffffffffffffffffffffffffffffffffffffffffffffff826136e2565b61372786836136e2565b95508019841693508086168417925050509392505050565b5f61375961375461374f846127ff565b61333f565b6127ff565b9050919050565b5f819050919050565b6137728361373f565b61378661377e82613760565b8484546136ee565b825550505050565b5f90565b61379a61378e565b6137a5818484613769565b505050565b5b818110156137c8576137bd5f82613792565b6001810190506137ab565b5050565b601f82111561380d576137de816136c1565b6137e7846136d3565b810160208510156137f6578190505b61380a613802856136d3565b8301826137aa565b50505b505050565b5f82821c905092915050565b5f61382d5f1984600802613812565b1980831691505092915050565b5f613845838361381e565b9150826002028217905092915050565b61385e826126ea565b67ffffffffffffffff811115613877576138766129d1565b5b6138818254612dbc565b61388c8282856137cc565b5f60209050601f8311600181146138bd575f84156138ab578287015190505b6138b5858261383a565b86555061391c565b601f1984166138cb866136c1565b5f5b828110156138f2578489015182556001820191506020850194506020810190506138cd565b8683101561390f578489015161390b601f89168261381e565b8355505b6001600288020188555050505b505050505050565b5f61392e826127ff565b9150613939836127ff565b9250828202613947816127ff565b9150828204841483151761395e5761395d613093565b5b5092915050565b7f4e487b71000000000000000000000000000000000000000000000000000000005f52601260045260245ffd5b5f61399c826127ff565b91506139a7836127ff565b9250826139b7576139b6613965565b5b82820490509291505056fea264697066735822122028005d00b2c87c680778b0200cc630739d6eba3c97893559553eff21767f5c1364736f6c63430008140033",
					"opcodes": "PUSH1 0x80 PUSH1 0x40 MSTORE CALLVALUE DUP1 ISZERO PUSH2 0xF JUMPI PUSH0 DUP1 REVERT JUMPDEST POP PUSH2 0x39F8 DUP1 PUSH2 0x1D PUSH0 CODECOPY PUSH0 RETURN INVALID PUSH1 0x80 PUSH1 0x40 MSTORE CALLVALUE DUP1 ISZERO PUSH2 0xF JUMPI PUSH0 DUP1 REVERT JUMPDEST POP PUSH1 0x4 CALLDATASIZE LT PUSH2 0x23B JUMPI PUSH0 CALLDATALOAD PUSH1 0xE0 SHR DUP1 PUSH4 0x79CC6790 GT PUSH2 0x139 JUMPI DUP1 PUSH4 0xC29C669A GT PUSH2 0xB6 JUMPI DUP1 PUSH4 0xDD62ED3E GT PUSH2 0x7A JUMPI DUP1 PUSH4 0xDD62ED3E EQ PUSH2 0x665 JUMPI DUP1 PUSH4 0xE1A8F3F4 EQ PUSH2 0x695 JUMPI DUP1 PUSH4 0xE7BA1012 EQ PUSH2 0x6B1 JUMPI DUP1 PUSH4 0xE85455D7 EQ PUSH2 0x6CF JUMPI DUP1 PUSH4 0xF2FDE38B EQ PUSH2 0x6FF JUMPI PUSH2 0x23B JUMP JUMPDEST DUP1 PUSH4 0xC29C669A EQ PUSH2 0x5D5 JUMPI DUP1 PUSH4 0xC658A5E3 EQ PUSH2 0x5F1 JUMPI DUP1 PUSH4 0xCC7134BA EQ PUSH2 0x5FB JUMPI DUP1 PUSH4 0xD048D988 EQ PUSH2 0x62B JUMPI DUP1 PUSH4 0xDB0ED6A0 EQ PUSH2 0x649 JUMPI PUSH2 0x23B JUMP JUMPDEST DUP1 PUSH4 0x8DA5CB5B GT PUSH2 0xFD JUMPI DUP1 PUSH4 0x8DA5CB5B EQ PUSH2 0x51D JUMPI DUP1 PUSH4 0x95D89B41 EQ PUSH2 0x53B JUMPI DUP1 PUSH4 0xA02FBA1E EQ PUSH2 0x559 JUMPI DUP1 PUSH4 0xA9059CBB EQ PUSH2 0x575 JUMPI DUP1 PUSH4 0xA906C70E EQ PUSH2 0x5A5 JUMPI PUSH2 0x23B JUMP JUMPDEST DUP1 PUSH4 0x79CC6790 EQ PUSH2 0x48D JUMPI DUP1 PUSH4 0x79E631F4 EQ PUSH2 0x4A9 JUMPI DUP1 PUSH4 0x8456CB59 EQ PUSH2 0x4C5 JUMPI DUP1 PUSH4 0x851F39D4 EQ PUSH2 0x4CF JUMPI DUP1 PUSH4 0x8850B9C2 EQ PUSH2 0x4FF JUMPI PUSH2 0x23B JUMP JUMPDEST DUP1 PUSH4 0x38AF3EED GT PUSH2 0x1C7 JUMPI DUP1 PUSH4 0x53E4E3CB GT PUSH2 0x18B JUMPI DUP1 PUSH4 0x53E4E3CB EQ PUSH2 0x3FB JUMPI DUP1 PUSH4 0x5C975ABB EQ PUSH2 0x417 JUMPI DUP1 PUSH4 0x70A08231 EQ PUSH2 0x435 JUMPI DUP1 PUSH4 0x70D27FA0 EQ PUSH2 0x465 JUMPI DUP1 PUSH4 0x715018A6 EQ PUSH2 0x483 JUMPI PUSH2 0x23B JUMP JUMPDEST DUP1 PUSH4 0x38AF3EED EQ PUSH2 0x37F JUMPI DUP1 PUSH4 0x3F4BA83A EQ PUSH2 0x39D JUMPI DUP1 PUSH4 0x40C10F19 EQ PUSH2 0x3A7 JUMPI DUP1 PUSH4 0x42966C68 EQ PUSH2 0x3C3 JUMPI DUP1 PUSH4 0x52875BC3 EQ PUSH2 0x3DF JUMPI PUSH2 0x23B JUMP JUMPDEST DUP1 PUSH4 0x1A5E62FD GT PUSH2 0x20E JUMPI DUP1 PUSH4 0x1A5E62FD EQ PUSH2 0x2DB JUMPI DUP1 PUSH4 0x1C31F710 EQ PUSH2 0x2F7 JUMPI DUP1 PUSH4 0x23B872DD EQ PUSH2 0x313 JUMPI DUP1 PUSH4 0x24E8933D EQ PUSH2 0x343 JUMPI DUP1 PUSH4 0x313CE567 EQ PUSH2 0x361 JUMPI PUSH2 0x23B JUMP JUMPDEST DUP1 PUSH4 0x6FDDE03 EQ PUSH2 0x23F JUMPI DUP1 PUSH4 0x95EA7B3 EQ PUSH2 0x25D JUMPI DUP1 PUSH4 0x110C621D EQ PUSH2 0x28D JUMPI DUP1 PUSH4 0x18160DDD EQ PUSH2 0x2BD JUMPI JUMPDEST PUSH0 DUP1 REVERT JUMPDEST PUSH2 0x247 PUSH2 0x71B JUMP JUMPDEST PUSH1 0x40 MLOAD PUSH2 0x254 SWAP2 SWAP1 PUSH2 0x2774 JUMP JUMPDEST PUSH1 0x40 MLOAD DUP1 SWAP2 SUB SWAP1 RETURN JUMPDEST PUSH2 0x277 PUSH1 0x4 DUP1 CALLDATASIZE SUB DUP2 ADD SWAP1 PUSH2 0x272 SWAP2 SWAP1 PUSH2 0x2832 JUMP JUMPDEST PUSH2 0x7B9 JUMP JUMPDEST PUSH1 0x40 MLOAD PUSH2 0x284 SWAP2 SWAP1 PUSH2 0x288A JUMP JUMPDEST PUSH1 0x40 MLOAD DUP1 SWAP2 SUB SWAP1 RETURN JUMPDEST PUSH2 0x2A7 PUSH1 0x4 DUP1 CALLDATASIZE SUB DUP2 ADD SWAP1 PUSH2 0x2A2 SWAP2 SWAP1 PUSH2 0x28A3 JUMP JUMPDEST PUSH2 0x7DB JUMP JUMPDEST PUSH1 0x40 MLOAD PUSH2 0x2B4 SWAP2 SWAP1 PUSH2 0x28DD JUMP JUMPDEST PUSH1 0x40 MLOAD DUP1 SWAP2 SUB SWAP1 RETURN JUMPDEST PUSH2 0x2C5 PUSH2 0x7F4 JUMP JUMPDEST PUSH1 0x40 MLOAD PUSH2 0x2D2 SWAP2 SWAP1 PUSH2 0x28DD JUMP JUMPDEST PUSH1 0x40 MLOAD DUP1 SWAP2 SUB SWAP1 RETURN JUMPDEST PUSH2 0x2F5 PUSH1 0x4 DUP1 CALLDATASIZE SUB DUP2 ADD SWAP1 PUSH2 0x2F0 SWAP2 SWAP1 PUSH2 0x28F6 JUMP JUMPDEST PUSH2 0x80B JUMP JUMPDEST STOP JUMPDEST PUSH2 0x311 PUSH1 0x4 DUP1 CALLDATASIZE SUB DUP2 ADD SWAP1 PUSH2 0x30C SWAP2 SWAP1 PUSH2 0x28F6 JUMP JUMPDEST PUSH2 0x88D JUMP JUMPDEST STOP JUMPDEST PUSH2 0x32D PUSH1 0x4 DUP1 CALLDATASIZE SUB DUP2 ADD SWAP1 PUSH2 0x328 SWAP2 SWAP1 PUSH2 0x2921 JUMP JUMPDEST PUSH2 0x91B JUMP JUMPDEST PUSH1 0x40 MLOAD PUSH2 0x33A SWAP2 SWAP1 PUSH2 0x288A JUMP JUMPDEST PUSH1 0x40 MLOAD DUP1 SWAP2 SUB SWAP1 RETURN JUMPDEST PUSH2 0x34B PUSH2 0x9CA JUMP JUMPDEST PUSH1 0x40 MLOAD PUSH2 0x358 SWAP2 SWAP1 PUSH2 0x28DD JUMP JUMPDEST PUSH1 0x40 MLOAD DUP1 SWAP2 SUB SWAP1 RETURN JUMPDEST PUSH2 0x369 PUSH2 0x9D0 JUMP JUMPDEST PUSH1 0x40 MLOAD PUSH2 0x376 SWAP2 SWAP1 PUSH2 0x298C JUMP JUMPDEST PUSH1 0x40 MLOAD DUP1 SWAP2 SUB SWAP1 RETURN JUMPDEST PUSH2 0x387 PUSH2 0x9D8 JUMP JUMPDEST PUSH1 0x40 MLOAD PUSH2 0x394 SWAP2 SWAP1 PUSH2 0x29B4 JUMP JUMPDEST PUSH1 0x40 MLOAD DUP1 SWAP2 SUB SWAP1 RETURN JUMPDEST PUSH2 0x3A5 PUSH2 0x9FD JUMP JUMPDEST STOP JUMPDEST PUSH2 0x3C1 PUSH1 0x4 DUP1 CALLDATASIZE SUB DUP2 ADD SWAP1 PUSH2 0x3BC SWAP2 SWAP1 PUSH2 0x2832 JUMP JUMPDEST PUSH2 0xA0F JUMP JUMPDEST STOP JUMPDEST PUSH2 0x3DD PUSH1 0x4 DUP1 CALLDATASIZE SUB DUP2 ADD SWAP1 PUSH2 0x3D8 SWAP2 SWAP1 PUSH2 0x28A3 JUMP JUMPDEST PUSH2 0xAD2 JUMP JUMPDEST STOP JUMPDEST PUSH2 0x3F9 PUSH1 0x4 DUP1 CALLDATASIZE SUB DUP2 ADD SWAP1 PUSH2 0x3F4 SWAP2 SWAP1 PUSH2 0x28F6 JUMP JUMPDEST PUSH2 0xADF JUMP JUMPDEST STOP JUMPDEST PUSH2 0x415 PUSH1 0x4 DUP1 CALLDATASIZE SUB DUP2 ADD SWAP1 PUSH2 0x410 SWAP2 SWAP1 PUSH2 0x2AFB JUMP JUMPDEST PUSH2 0xB6D JUMP JUMPDEST STOP JUMPDEST PUSH2 0x41F PUSH2 0xD50 JUMP JUMPDEST PUSH1 0x40 MLOAD PUSH2 0x42C SWAP2 SWAP1 PUSH2 0x288A JUMP JUMPDEST PUSH1 0x40 MLOAD DUP1 SWAP2 SUB SWAP1 RETURN JUMPDEST PUSH2 0x44F PUSH1 0x4 DUP1 CALLDATASIZE SUB DUP2 ADD SWAP1 PUSH2 0x44A SWAP2 SWAP1 PUSH2 0x28F6 JUMP JUMPDEST PUSH2 0xD64 JUMP JUMPDEST PUSH1 0x40 MLOAD PUSH2 0x45C SWAP2 SWAP1 PUSH2 0x28DD JUMP JUMPDEST PUSH1 0x40 MLOAD DUP1 SWAP2 SUB SWAP1 RETURN JUMPDEST PUSH2 0x46D PUSH2 0xDB7 JUMP JUMPDEST PUSH1 0x40 MLOAD PUSH2 0x47A SWAP2 SWAP1 PUSH2 0x28DD JUMP JUMPDEST PUSH1 0x40 MLOAD DUP1 SWAP2 SUB SWAP1 RETURN JUMPDEST PUSH2 0x48B PUSH2 0xDBD JUMP JUMPDEST STOP JUMPDEST PUSH2 0x4A7 PUSH1 0x4 DUP1 CALLDATASIZE SUB DUP2 ADD SWAP1 PUSH2 0x4A2 SWAP2 SWAP1 PUSH2 0x2832 JUMP JUMPDEST PUSH2 0xDD0 JUMP JUMPDEST STOP JUMPDEST PUSH2 0x4C3 PUSH1 0x4 DUP1 CALLDATASIZE SUB DUP2 ADD SWAP1 PUSH2 0x4BE SWAP2 SWAP1 PUSH2 0x28F6 JUMP JUMPDEST PUSH2 0xE3C JUMP JUMPDEST STOP JUMPDEST PUSH2 0x4CD PUSH2 0xECA JUMP JUMPDEST STOP JUMPDEST PUSH2 0x4E9 PUSH1 0x4 DUP1 CALLDATASIZE SUB DUP2 ADD SWAP1 PUSH2 0x4E4 SWAP2 SWAP1 PUSH2 0x28F6 JUMP JUMPDEST PUSH2 0xEDC JUMP JUMPDEST PUSH1 0x40 MLOAD PUSH2 0x4F6 SWAP2 SWAP1 PUSH2 0x288A JUMP JUMPDEST PUSH1 0x40 MLOAD DUP1 SWAP2 SUB SWAP1 RETURN JUMPDEST PUSH2 0x507 PUSH2 0xEF9 JUMP JUMPDEST PUSH1 0x40 MLOAD PUSH2 0x514 SWAP2 SWAP1 PUSH2 0x29B4 JUMP JUMPDEST PUSH1 0x40 MLOAD DUP1 SWAP2 SUB SWAP1 RETURN JUMPDEST PUSH2 0x525 PUSH2 0xF1E JUMP JUMPDEST PUSH1 0x40 MLOAD PUSH2 0x532 SWAP2 SWAP1 PUSH2 0x29B4 JUMP JUMPDEST PUSH1 0x40 MLOAD DUP1 SWAP2 SUB SWAP1 RETURN JUMPDEST PUSH2 0x543 PUSH2 0xF53 JUMP JUMPDEST PUSH1 0x40 MLOAD PUSH2 0x550 SWAP2 SWAP1 PUSH2 0x2774 JUMP JUMPDEST PUSH1 0x40 MLOAD DUP1 SWAP2 SUB SWAP1 RETURN JUMPDEST PUSH2 0x573 PUSH1 0x4 DUP1 CALLDATASIZE SUB DUP2 ADD SWAP1 PUSH2 0x56E SWAP2 SWAP1 PUSH2 0x28A3 JUMP JUMPDEST PUSH2 0xFF1 JUMP JUMPDEST STOP JUMPDEST PUSH2 0x58F PUSH1 0x4 DUP1 CALLDATASIZE SUB DUP2 ADD SWAP1 PUSH2 0x58A SWAP2 SWAP1 PUSH2 0x2832 JUMP JUMPDEST PUSH2 0x103A JUMP JUMPDEST PUSH1 0x40 MLOAD PUSH2 0x59C SWAP2 SWAP1 PUSH2 0x288A JUMP JUMPDEST PUSH1 0x40 MLOAD DUP1 SWAP2 SUB SWAP1 RETURN JUMPDEST PUSH2 0x5BF PUSH1 0x4 DUP1 CALLDATASIZE SUB DUP2 ADD SWAP1 PUSH2 0x5BA SWAP2 SWAP1 PUSH2 0x28A3 JUMP JUMPDEST PUSH2 0x1083 JUMP JUMPDEST PUSH1 0x40 MLOAD PUSH2 0x5CC SWAP2 SWAP1 PUSH2 0x28DD JUMP JUMPDEST PUSH1 0x40 MLOAD DUP1 SWAP2 SUB SWAP1 RETURN JUMPDEST PUSH2 0x5EF PUSH1 0x4 DUP1 CALLDATASIZE SUB DUP2 ADD SWAP1 PUSH2 0x5EA SWAP2 SWAP1 PUSH2 0x2B64 JUMP JUMPDEST PUSH2 0x109C JUMP JUMPDEST STOP JUMPDEST PUSH2 0x5F9 PUSH2 0x114A JUMP JUMPDEST STOP JUMPDEST PUSH2 0x615 PUSH1 0x4 DUP1 CALLDATASIZE SUB DUP2 ADD SWAP1 PUSH2 0x610 SWAP2 SWAP1 PUSH2 0x28F6 JUMP JUMPDEST PUSH2 0x115C JUMP JUMPDEST PUSH1 0x40 MLOAD PUSH2 0x622 SWAP2 SWAP1 PUSH2 0x288A JUMP JUMPDEST PUSH1 0x40 MLOAD DUP1 SWAP2 SUB SWAP1 RETURN JUMPDEST PUSH2 0x633 PUSH2 0x1179 JUMP JUMPDEST PUSH1 0x40 MLOAD PUSH2 0x640 SWAP2 SWAP1 PUSH2 0x28DD JUMP JUMPDEST PUSH1 0x40 MLOAD DUP1 SWAP2 SUB SWAP1 RETURN JUMPDEST PUSH2 0x663 PUSH1 0x4 DUP1 CALLDATASIZE SUB DUP2 ADD SWAP1 PUSH2 0x65E SWAP2 SWAP1 PUSH2 0x2C52 JUMP JUMPDEST PUSH2 0x117F JUMP JUMPDEST STOP JUMPDEST PUSH2 0x67F PUSH1 0x4 DUP1 CALLDATASIZE SUB DUP2 ADD SWAP1 PUSH2 0x67A SWAP2 SWAP1 PUSH2 0x2D01 JUMP JUMPDEST PUSH2 0x14B4 JUMP JUMPDEST PUSH1 0x40 MLOAD PUSH2 0x68C SWAP2 SWAP1 PUSH2 0x28DD JUMP JUMPDEST PUSH1 0x40 MLOAD DUP1 SWAP2 SUB SWAP1 RETURN JUMPDEST PUSH2 0x6AF PUSH1 0x4 DUP1 CALLDATASIZE SUB DUP2 ADD SWAP1 PUSH2 0x6AA SWAP2 SWAP1 PUSH2 0x2D3F JUMP JUMPDEST PUSH2 0x1544 JUMP JUMPDEST STOP JUMPDEST PUSH2 0x6B9 PUSH2 0x1649 JUMP JUMPDEST PUSH1 0x40 MLOAD PUSH2 0x6C6 SWAP2 SWAP1 PUSH2 0x29B4 JUMP JUMPDEST PUSH1 0x40 MLOAD DUP1 SWAP2 SUB SWAP1 RETURN JUMPDEST PUSH2 0x6E9 PUSH1 0x4 DUP1 CALLDATASIZE SUB DUP2 ADD SWAP1 PUSH2 0x6E4 SWAP2 SWAP1 PUSH2 0x28F6 JUMP JUMPDEST PUSH2 0x166E JUMP JUMPDEST PUSH1 0x40 MLOAD PUSH2 0x6F6 SWAP2 SWAP1 PUSH2 0x288A JUMP JUMPDEST PUSH1 0x40 MLOAD DUP1 SWAP2 SUB SWAP1 RETURN JUMPDEST PUSH2 0x719 PUSH1 0x4 DUP1 CALLDATASIZE SUB DUP2 ADD SWAP1 PUSH2 0x714 SWAP2 SWAP1 PUSH2 0x28F6 JUMP JUMPDEST PUSH2 0x168B JUMP JUMPDEST STOP JUMPDEST PUSH1 0x60 PUSH0 PUSH2 0x726 PUSH2 0x170F JUMP JUMPDEST SWAP1 POP DUP1 PUSH1 0x3 ADD DUP1 SLOAD PUSH2 0x737 SWAP1 PUSH2 0x2DBC JUMP JUMPDEST DUP1 PUSH1 0x1F ADD PUSH1 0x20 DUP1 SWAP2 DIV MUL PUSH1 0x20 ADD PUSH1 0x40 MLOAD SWAP1 DUP2 ADD PUSH1 0x40 MSTORE DUP1 SWAP3 SWAP2 SWAP1 DUP2 DUP2 MSTORE PUSH1 0x20 ADD DUP3 DUP1 SLOAD PUSH2 0x763 SWAP1 PUSH2 0x2DBC JUMP JUMPDEST DUP1 ISZERO PUSH2 0x7AE JUMPI DUP1 PUSH1 0x1F LT PUSH2 0x785 JUMPI PUSH2 0x100 DUP1 DUP4 SLOAD DIV MUL DUP4 MSTORE SWAP2 PUSH1 0x20 ADD SWAP2 PUSH2 0x7AE JUMP JUMPDEST DUP3 ADD SWAP2 SWAP1 PUSH0 MSTORE PUSH1 0x20 PUSH0 KECCAK256 SWAP1 JUMPDEST DUP2 SLOAD DUP2 MSTORE SWAP1 PUSH1 0x1 ADD SWAP1 PUSH1 0x20 ADD DUP1 DUP4 GT PUSH2 0x791 JUMPI DUP3 SWAP1 SUB PUSH1 0x1F AND DUP3 ADD SWAP2 JUMPDEST POP POP POP POP POP SWAP2 POP POP SWAP1 JUMP JUMPDEST PUSH0 DUP1 PUSH2 0x7C3 PUSH2 0x1736 JUMP JUMPDEST SWAP1 POP PUSH2 0x7D0 DUP2 DUP6 DUP6 PUSH2 0x173D JUMP JUMPDEST PUSH1 0x1 SWAP2 POP POP SWAP3 SWAP2 POP POP JUMP JUMPDEST PUSH1 0x3D DUP2 PUSH1 0x5 DUP2 LT PUSH2 0x7EA JUMPI PUSH0 DUP1 REVERT JUMPDEST ADD PUSH0 SWAP2 POP SWAP1 POP SLOAD DUP2 JUMP JUMPDEST PUSH0 DUP1 PUSH2 0x7FE PUSH2 0x170F JUMP JUMPDEST SWAP1 POP DUP1 PUSH1 0x2 ADD SLOAD SWAP2 POP POP SWAP1 JUMP JUMPDEST PUSH2 0x813 PUSH2 0x174F JUMP JUMPDEST PUSH0 PUSH20 0xFFFFFFFFFFFFFFFFFFFFFFFFFFFFFFFFFFFFFFFF AND DUP2 PUSH20 0xFFFFFFFFFFFFFFFFFFFFFFFFFFFFFFFFFFFFFFFF AND SUB PUSH2 0x881 JUMPI PUSH1 0x40 MLOAD PUSH32 0x8C379A000000000000000000000000000000000000000000000000000000000 DUP2 MSTORE PUSH1 0x4 ADD PUSH2 0x878 SWAP1 PUSH2 0x2E5C JUMP JUMPDEST PUSH1 0x40 MLOAD DUP1 SWAP2 SUB SWAP1 REVERT JUMPDEST PUSH2 0x88A DUP2 PUSH2 0x168B JUMP JUMPDEST POP JUMP JUMPDEST PUSH2 0x895 PUSH2 0x174F JUMP JUMPDEST DUP1 PUSH1 0x33 PUSH0 PUSH2 0x100 EXP DUP2 SLOAD DUP2 PUSH20 0xFFFFFFFFFFFFFFFFFFFFFFFFFFFFFFFFFFFFFFFF MUL NOT AND SWAP1 DUP4 PUSH20 0xFFFFFFFFFFFFFFFFFFFFFFFFFFFFFFFFFFFFFFFF AND MUL OR SWAP1 SSTORE POP DUP1 PUSH20 0xFFFFFFFFFFFFFFFFFFFFFFFFFFFFFFFFFFFFFFFF AND PUSH32 0x4D55A8BE181FB8D75B76F2D48AA0B2EE40F47E53D6E61763EEEEC46FEEA8A24 PUSH1 0x40 MLOAD PUSH1 0x40 MLOAD DUP1 SWAP2 SUB SWAP1 LOG2 POP JUMP JUMPDEST PUSH0 PUSH2 0x924 PUSH2 0x17D6 JUMP JUMPDEST PUSH2 0x93B PUSH1 0x43 SLOAD PUSH1 0x42 SLOAD PUSH2 0x1820 SWAP1 SWAP2 SWAP1 PUSH4 0xFFFFFFFF AND JUMP JUMPDEST TIMESTAMP LT PUSH2 0x94A JUMPI PUSH2 0x949 PUSH2 0x1835 JUMP JUMPDEST JUMPDEST PUSH0 PUSH2 0x95C DUP6 PUSH2 0x957 PUSH2 0x1736 JUMP JUMPDEST PUSH2 0x14B4 JUMP JUMPDEST SWAP1 POP DUP3 DUP2 LT ISZERO PUSH2 0x9A1 JUMPI PUSH1 0x40 MLOAD PUSH32 0x8C379A000000000000000000000000000000000000000000000000000000000 DUP2 MSTORE PUSH1 0x4 ADD PUSH2 0x998 SWAP1 PUSH2 0x2EEA JUMP JUMPDEST PUSH1 0x40 MLOAD DUP1 SWAP2 SUB SWAP1 REVERT JUMPDEST PUSH2 0x9B5 DUP6 PUSH2 0x9AD PUSH2 0x1736 JUMP JUMPDEST DUP6 DUP5 SUB PUSH2 0x173D JUMP JUMPDEST PUSH2 0x9C0 DUP6 DUP6 DUP6 PUSH2 0x1A43 JUMP JUMPDEST SWAP2 POP POP SWAP4 SWAP3 POP POP POP JUMP JUMPDEST PUSH1 0x42 SLOAD DUP2 JUMP JUMPDEST PUSH0 PUSH1 0x12 SWAP1 POP SWAP1 JUMP JUMPDEST PUSH1 0x33 PUSH0 SWAP1 SLOAD SWAP1 PUSH2 0x100 EXP SWAP1 DIV PUSH20 0xFFFFFFFFFFFFFFFFFFFFFFFFFFFFFFFFFFFFFFFF AND DUP2 JUMP JUMPDEST PUSH2 0xA05 PUSH2 0x174F JUMP JUMPDEST PUSH2 0xA0D PUSH2 0x1BA7 JUMP JUMPDEST JUMP JUMPDEST PUSH1 0x32 PUSH0 SWAP1 SLOAD SWAP1 PUSH2 0x100 EXP SWAP1 DIV PUSH20 0xFFFFFFFFFFFFFFFFFFFFFFFFFFFFFFFFFFFFFFFF AND PUSH20 0xFFFFFFFFFFFFFFFFFFFFFFFFFFFFFFFFFFFFFFFF AND CALLER PUSH20 0xFFFFFFFFFFFFFFFFFFFFFFFFFFFFFFFFFFFFFFFF AND EQ PUSH2 0xA9E JUMPI PUSH1 0x40 MLOAD PUSH32 0x8C379A000000000000000000000000000000000000000000000000000000000 DUP2 MSTORE PUSH1 0x4 ADD PUSH2 0xA95 SWAP1 PUSH2 0x2F78 JUMP JUMPDEST PUSH1 0x40 MLOAD DUP1 SWAP2 SUB SWAP1 REVERT JUMPDEST PUSH2 0xAB5 PUSH1 0x43 SLOAD PUSH1 0x42 SLOAD PUSH2 0x1820 SWAP1 SWAP2 SWAP1 PUSH4 0xFFFFFFFF AND JUMP JUMPDEST TIMESTAMP LT PUSH2 0xAC4 JUMPI PUSH2 0xAC3 PUSH2 0x1835 JUMP JUMPDEST JUMPDEST PUSH2 0xACE DUP3 DUP3 PUSH2 0x1C07 JUMP JUMPDEST POP POP JUMP JUMPDEST PUSH2 0xADC CALLER DUP3 PUSH2 0x1C86 JUMP JUMPDEST POP JUMP JUMPDEST PUSH2 0xAE7 PUSH2 0x174F JUMP JUMPDEST DUP1 PUSH1 0x32 PUSH0 PUSH2 0x100 EXP DUP2 SLOAD DUP2 PUSH20 0xFFFFFFFFFFFFFFFFFFFFFFFFFFFFFFFFFFFFFFFF MUL NOT AND SWAP1 DUP4 PUSH20 0xFFFFFFFFFFFFFFFFFFFFFFFFFFFFFFFFFFFFFFFF AND MUL OR SWAP1 SSTORE POP DUP1 PUSH20 0xFFFFFFFFFFFFFFFFFFFFFFFFFFFFFFFFFFFFFFFF AND PUSH32 0x915D8B94CDCBF4FA1B4C768B15F63B99AEE21096B9D04FE1938F45833036106D PUSH1 0x40 MLOAD PUSH1 0x40 MLOAD DUP1 SWAP2 SUB SWAP1 LOG2 POP JUMP JUMPDEST PUSH2 0xB75 PUSH2 0x174F JUMP JUMPDEST PUSH32 0xFFFFFFFFFFFFFFFFFFFFFFFFFFFFFFFFFFFFFFFFFFFFFFFFFFFFFFFFFFFFFFFF DUP3 PUSH1 0x4 PUSH1 0x5 DUP2 LT PUSH2 0xBAA JUMPI PUSH2 0xBA9 PUSH2 0x2F96 JUMP JUMPDEST JUMPDEST PUSH1 0x20 MUL ADD MLOAD EQ PUSH2 0xBEF JUMPI PUSH1 0x40 MLOAD PUSH32 0x8C379A000000000000000000000000000000000000000000000000000000000 DUP2 MSTORE PUSH1 0x4 ADD PUSH2 0xBE6 SWAP1 PUSH2 0x300D JUMP JUMPDEST PUSH1 0x40 MLOAD DUP1 SWAP2 SUB SWAP1 REVERT JUMPDEST PUSH0 JUMPDEST PUSH1 0x5 DUP2 LT ISZERO PUSH2 0xCEE JUMPI PUSH2 0x4E20 DUP3 DUP3 PUSH1 0x5 DUP2 LT PUSH2 0xC10 JUMPI PUSH2 0xC0F PUSH2 0x2F96 JUMP JUMPDEST JUMPDEST PUSH1 0x20 MUL ADD MLOAD GT ISZERO PUSH2 0xC56 JUMPI PUSH1 0x40 MLOAD PUSH32 0x8C379A000000000000000000000000000000000000000000000000000000000 DUP2 MSTORE PUSH1 0x4 ADD PUSH2 0xC4D SWAP1 PUSH2 0x3075 JUMP JUMPDEST PUSH1 0x40 MLOAD DUP1 SWAP2 SUB SWAP1 REVERT JUMPDEST PUSH0 DUP2 GT ISZERO PUSH2 0xCDB JUMPI DUP3 PUSH1 0x1 DUP3 PUSH2 0xC6C SWAP2 SWAP1 PUSH2 0x30C0 JUMP JUMPDEST PUSH1 0x5 DUP2 LT PUSH2 0xC7D JUMPI PUSH2 0xC7C PUSH2 0x2F96 JUMP JUMPDEST JUMPDEST PUSH1 0x20 MUL ADD MLOAD DUP4 DUP3 PUSH1 0x5 DUP2 LT PUSH2 0xC95 JUMPI PUSH2 0xC94 PUSH2 0x2F96 JUMP JUMPDEST JUMPDEST PUSH1 0x20 MUL ADD MLOAD GT PUSH2 0xCDA JUMPI PUSH1 0x40 MLOAD PUSH32 0x8C379A000000000000000000000000000000000000000000000000000000000 DUP2 MSTORE PUSH1 0x4 ADD PUSH2 0xCD1 SWAP1 PUSH2 0x3163 JUMP JUMPDEST PUSH1 0x40 MLOAD DUP1 SWAP2 SUB SWAP1 REVERT JUMPDEST JUMPDEST DUP1 DUP1 PUSH2 0xCE6 SWAP1 PUSH2 0x3181 JUMP JUMPDEST SWAP2 POP POP PUSH2 0xBF1 JUMP JUMPDEST POP DUP2 PUSH1 0x38 SWAP1 PUSH1 0x5 PUSH2 0xD00 SWAP3 SWAP2 SWAP1 PUSH2 0x2649 JUMP JUMPDEST POP DUP1 PUSH1 0x3D SWAP1 PUSH1 0x5 PUSH2 0xD12 SWAP3 SWAP2 SWAP1 PUSH2 0x2649 JUMP JUMPDEST POP PUSH32 0xFCA5DD7612680A40F4851BB137ECC39852BD2A1A3CC176EFBB39AFFA8CE97214 DUP3 DUP3 PUSH1 0x40 MLOAD PUSH2 0xD44 SWAP3 SWAP2 SWAP1 PUSH2 0x326D JUMP JUMPDEST PUSH1 0x40 MLOAD DUP1 SWAP2 SUB SWAP1 LOG1 POP POP JUMP JUMPDEST PUSH0 DUP1 PUSH0 SWAP1 SLOAD SWAP1 PUSH2 0x100 EXP SWAP1 DIV PUSH1 0xFF AND SWAP1 POP SWAP1 JUMP JUMPDEST PUSH0 DUP1 PUSH2 0xD6E PUSH2 0x170F JUMP JUMPDEST SWAP1 POP DUP1 PUSH0 ADD PUSH0 DUP5 PUSH20 0xFFFFFFFFFFFFFFFFFFFFFFFFFFFFFFFFFFFFFFFF AND PUSH20 0xFFFFFFFFFFFFFFFFFFFFFFFFFFFFFFFFFFFFFFFF AND DUP2 MSTORE PUSH1 0x20 ADD SWAP1 DUP2 MSTORE PUSH1 0x20 ADD PUSH0 KECCAK256 SLOAD SWAP2 POP POP SWAP2 SWAP1 POP JUMP JUMPDEST PUSH2 0x4E20 DUP2 JUMP JUMPDEST PUSH2 0xDC5 PUSH2 0x174F JUMP JUMPDEST PUSH2 0xDCE PUSH0 PUSH2 0x1D05 JUMP JUMPDEST JUMP JUMPDEST PUSH0 PUSH2 0xDDB DUP4 CALLER PUSH2 0x14B4 JUMP JUMPDEST SWAP1 POP DUP2 DUP2 LT ISZERO PUSH2 0xE20 JUMPI PUSH1 0x40 MLOAD PUSH32 0x8C379A000000000000000000000000000000000000000000000000000000000 DUP2 MSTORE PUSH1 0x4 ADD PUSH2 0xE17 SWAP1 PUSH2 0x3305 JUMP JUMPDEST PUSH1 0x40 MLOAD DUP1 SWAP2 SUB SWAP1 REVERT JUMPDEST PUSH2 0xE2D DUP4 CALLER DUP5 DUP5 SUB PUSH2 0x173D JUMP JUMPDEST PUSH2 0xE37 DUP4 DUP4 PUSH2 0x1C86 JUMP JUMPDEST POP POP POP JUMP JUMPDEST PUSH2 0xE44 PUSH2 0x174F JUMP JUMPDEST DUP1 PUSH1 0x34 PUSH0 PUSH2 0x100 EXP DUP2 SLOAD DUP2 PUSH20 0xFFFFFFFFFFFFFFFFFFFFFFFFFFFFFFFFFFFFFFFF MUL NOT AND SWAP1 DUP4 PUSH20 0xFFFFFFFFFFFFFFFFFFFFFFFFFFFFFFFFFFFFFFFF AND MUL OR SWAP1 SSTORE POP DUP1 PUSH20 0xFFFFFFFFFFFFFFFFFFFFFFFFFFFFFFFFFFFFFFFF AND PUSH32 0x25CF73D41A7A2F5BAA3ED34B7A72144453377D3D6C59B74DB14E0FF168FD1FA9 PUSH1 0x40 MLOAD PUSH1 0x40 MLOAD DUP1 SWAP2 SUB SWAP1 LOG2 POP JUMP JUMPDEST PUSH2 0xED2 PUSH2 0x174F JUMP JUMPDEST PUSH2 0xEDA PUSH2 0x1DD6 JUMP JUMPDEST JUMP JUMPDEST PUSH1 0x36 PUSH1 0x20 MSTORE DUP1 PUSH0 MSTORE PUSH1 0x40 PUSH0 KECCAK256 PUSH0 SWAP2 POP SLOAD SWAP1 PUSH2 0x100 EXP SWAP1 DIV PUSH1 0xFF AND DUP2 JUMP JUMPDEST PUSH1 0x34 PUSH0 SWAP1 SLOAD SWAP1 PUSH2 0x100 EXP SWAP1 DIV PUSH20 0xFFFFFFFFFFFFFFFFFFFFFFFFFFFFFFFFFFFFFFFF AND DUP2 JUMP JUMPDEST PUSH0 DUP1 PUSH2 0xF28 PUSH2 0x1E37 JUMP JUMPDEST SWAP1 POP DUP1 PUSH0 ADD PUSH0 SWAP1 SLOAD SWAP1 PUSH2 0x100 EXP SWAP1 DIV PUSH20 0xFFFFFFFFFFFFFFFFFFFFFFFFFFFFFFFFFFFFFFFF AND SWAP2 POP POP SWAP1 JUMP JUMPDEST PUSH1 0x60 PUSH0 PUSH2 0xF5E PUSH2 0x170F JUMP JUMPDEST SWAP1 POP DUP1 PUSH1 0x4 ADD DUP1 SLOAD PUSH2 0xF6F SWAP1 PUSH2 0x2DBC JUMP JUMPDEST DUP1 PUSH1 0x1F ADD PUSH1 0x20 DUP1 SWAP2 DIV MUL PUSH1 0x20 ADD PUSH1 0x40 MLOAD SWAP1 DUP2 ADD PUSH1 0x40 MSTORE DUP1 SWAP3 SWAP2 SWAP1 DUP2 DUP2 MSTORE PUSH1 0x20 ADD DUP3 DUP1 SLOAD PUSH2 0xF9B SWAP1 PUSH2 0x2DBC JUMP JUMPDEST DUP1 ISZERO PUSH2 0xFE6 JUMPI DUP1 PUSH1 0x1F LT PUSH2 0xFBD JUMPI PUSH2 0x100 DUP1 DUP4 SLOAD DIV MUL DUP4 MSTORE SWAP2 PUSH1 0x20 ADD SWAP2 PUSH2 0xFE6 JUMP JUMPDEST DUP3 ADD SWAP2 SWAP1 PUSH0 MSTORE PUSH1 0x20 PUSH0 KECCAK256 SWAP1 JUMPDEST DUP2 SLOAD DUP2 MSTORE SWAP1 PUSH1 0x1 ADD SWAP1 PUSH1 0x20 ADD DUP1 DUP4 GT PUSH2 0xFC9 JUMPI DUP3 SWAP1 SUB PUSH1 0x1F AND DUP3 ADD SWAP2 JUMPDEST POP POP POP POP POP SWAP2 POP POP SWAP1 JUMP JUMPDEST PUSH2 0xFF9 PUSH2 0x174F JUMP JUMPDEST DUP1 PUSH1 0x43 DUP2 SWAP1 SSTORE POP PUSH32 0xF759D32EC37FE15560FBB2AD08F9EA31689D826215D24D6A6E2E740C517C66DB DUP2 PUSH1 0x40 MLOAD PUSH2 0x102F SWAP2 SWAP1 PUSH2 0x28DD JUMP JUMPDEST PUSH1 0x40 MLOAD DUP1 SWAP2 SUB SWAP1 LOG1 POP JUMP JUMPDEST PUSH0 PUSH2 0x1043 PUSH2 0x17D6 JUMP JUMPDEST PUSH2 0x105A PUSH1 0x43 SLOAD PUSH1 0x42 SLOAD PUSH2 0x1820 SWAP1 SWAP2 SWAP1 PUSH4 0xFFFFFFFF AND JUMP JUMPDEST TIMESTAMP LT PUSH2 0x1069 JUMPI PUSH2 0x1068 PUSH2 0x1835 JUMP JUMPDEST JUMPDEST PUSH2 0x107B PUSH2 0x1074 PUSH2 0x1736 JUMP JUMPDEST DUP5 DUP5 PUSH2 0x1A43 JUMP JUMPDEST SWAP1 POP SWAP3 SWAP2 POP POP JUMP JUMPDEST PUSH1 0x38 DUP2 PUSH1 0x5 DUP2 LT PUSH2 0x1092 JUMPI PUSH0 DUP1 REVERT JUMPDEST ADD PUSH0 SWAP2 POP SWAP1 POP SLOAD DUP2 JUMP JUMPDEST PUSH2 0x10A4 PUSH2 0x174F JUMP JUMPDEST DUP1 PUSH1 0x37 PUSH0 DUP5 PUSH20 0xFFFFFFFFFFFFFFFFFFFFFFFFFFFFFFFFFFFFFFFF AND PUSH20 0xFFFFFFFFFFFFFFFFFFFFFFFFFFFFFFFFFFFFFFFF AND DUP2 MSTORE PUSH1 0x20 ADD SWAP1 DUP2 MSTORE PUSH1 0x20 ADD PUSH0 KECCAK256 PUSH0 PUSH2 0x100 EXP DUP2 SLOAD DUP2 PUSH1 0xFF MUL NOT AND SWAP1 DUP4 ISZERO ISZERO MUL OR SWAP1 SSTORE POP DUP2 PUSH20 0xFFFFFFFFFFFFFFFFFFFFFFFFFFFFFFFFFFFFFFFF AND PUSH32 0xFA4A2B2457D2065452473BED7D55C8FA2F65FC4A1EFF1EBDAF14A1B7281E7773 DUP3 PUSH1 0x40 MLOAD PUSH2 0x113E SWAP2 SWAP1 PUSH2 0x288A JUMP JUMPDEST PUSH1 0x40 MLOAD DUP1 SWAP2 SUB SWAP1 LOG2 POP POP JUMP JUMPDEST PUSH2 0x1152 PUSH2 0x174F JUMP JUMPDEST PUSH2 0x115A PUSH2 0xDBD JUMP JUMPDEST JUMP JUMPDEST PUSH1 0x35 PUSH1 0x20 MSTORE DUP1 PUSH0 MSTORE PUSH1 0x40 PUSH0 KECCAK256 PUSH0 SWAP2 POP SLOAD SWAP1 PUSH2 0x100 EXP SWAP1 DIV PUSH1 0xFF AND DUP2 JUMP JUMPDEST PUSH1 0x43 SLOAD DUP2 JUMP JUMPDEST PUSH0 PUSH2 0x1188 PUSH2 0x1E5E JUMP JUMPDEST SWAP1 POP PUSH0 DUP2 PUSH0 ADD PUSH1 0x8 SWAP1 SLOAD SWAP1 PUSH2 0x100 EXP SWAP1 DIV PUSH1 0xFF AND ISZERO SWAP1 POP PUSH0 DUP3 PUSH0 ADD PUSH0 SWAP1 SLOAD SWAP1 PUSH2 0x100 EXP SWAP1 DIV PUSH8 0xFFFFFFFFFFFFFFFF AND SWAP1 POP PUSH0 DUP1 DUP3 PUSH8 0xFFFFFFFFFFFFFFFF AND EQ DUP1 ISZERO PUSH2 0x11D0 JUMPI POP DUP3 JUMPDEST SWAP1 POP PUSH0 PUSH1 0x1 DUP4 PUSH8 0xFFFFFFFFFFFFFFFF AND EQ DUP1 ISZERO PUSH2 0x1203 JUMPI POP PUSH0 ADDRESS PUSH20 0xFFFFFFFFFFFFFFFFFFFFFFFFFFFFFFFFFFFFFFFF AND EXTCODESIZE EQ JUMPDEST SWAP1 POP DUP2 ISZERO DUP1 ISZERO PUSH2 0x1211 JUMPI POP DUP1 ISZERO JUMPDEST ISZERO PUSH2 0x1248 JUMPI PUSH1 0x40 MLOAD PUSH32 0xF92EE8A900000000000000000000000000000000000000000000000000000000 DUP2 MSTORE PUSH1 0x4 ADD PUSH1 0x40 MLOAD DUP1 SWAP2 SUB SWAP1 REVERT JUMPDEST PUSH1 0x1 DUP6 PUSH0 ADD PUSH0 PUSH2 0x100 EXP DUP2 SLOAD DUP2 PUSH8 0xFFFFFFFFFFFFFFFF MUL NOT AND SWAP1 DUP4 PUSH8 0xFFFFFFFFFFFFFFFF AND MUL OR SWAP1 SSTORE POP DUP4 ISZERO PUSH2 0x1295 JUMPI PUSH1 0x1 DUP6 PUSH0 ADD PUSH1 0x8 PUSH2 0x100 EXP DUP2 SLOAD DUP2 PUSH1 0xFF MUL NOT AND SWAP1 DUP4 ISZERO ISZERO MUL OR SWAP1 SSTORE POP JUMPDEST PUSH2 0x129F DUP11 DUP11 PUSH2 0x1E85 JUMP JUMPDEST PUSH2 0x12A8 CALLER PUSH2 0x1E9B JUMP JUMPDEST PUSH2 0x12B0 PUSH2 0x1EAF JUMP JUMPDEST DUP8 PUSH1 0x32 PUSH0 PUSH2 0x100 EXP DUP2 SLOAD DUP2 PUSH20 0xFFFFFFFFFFFFFFFFFFFFFFFFFFFFFFFFFFFFFFFF MUL NOT AND SWAP1 DUP4 PUSH20 0xFFFFFFFFFFFFFFFFFFFFFFFFFFFFFFFFFFFFFFFF AND MUL OR SWAP1 SSTORE POP DUP7 PUSH1 0x33 PUSH0 PUSH2 0x100 EXP DUP2 SLOAD DUP2 PUSH20 0xFFFFFFFFFFFFFFFFFFFFFFFFFFFFFFFFFFFFFFFF MUL NOT AND SWAP1 DUP4 PUSH20 0xFFFFFFFFFFFFFFFFFFFFFFFFFFFFFFFFFFFFFFFF AND MUL OR SWAP1 SSTORE POP DUP6 PUSH1 0x34 PUSH0 PUSH2 0x100 EXP DUP2 SLOAD DUP2 PUSH20 0xFFFFFFFFFFFFFFFFFFFFFFFFFFFFFFFFFFFFFFFF MUL NOT AND SWAP1 DUP4 PUSH20 0xFFFFFFFFFFFFFFFFFFFFFFFFFFFFFFFFFFFFFFFF AND MUL OR SWAP1 SSTORE POP PUSH1 0x40 MLOAD DUP1 PUSH1 0xA0 ADD PUSH1 0x40 MSTORE DUP1 PUSH9 0x3635C9ADC5DEA00000 DUP2 MSTORE PUSH1 0x20 ADD PUSH10 0x10F0CF064DD59200000 DUP2 MSTORE PUSH1 0x20 ADD PUSH10 0x21E19E0C9BAB2400000 DUP2 MSTORE PUSH1 0x20 ADD PUSH10 0xA968163F0A57B400000 DUP2 MSTORE PUSH1 0x20 ADD PUSH32 0xFFFFFFFFFFFFFFFFFFFFFFFFFFFFFFFFFFFFFFFFFFFFFFFFFFFFFFFFFFFFFFFF DUP2 MSTORE POP PUSH1 0x38 SWAP1 PUSH1 0x5 PUSH2 0x13EE SWAP3 SWAP2 SWAP1 PUSH2 0x2649 JUMP JUMPDEST POP PUSH1 0x40 MLOAD DUP1 PUSH1 0xA0 ADD PUSH1 0x40 MSTORE DUP1 PUSH2 0x3E8 PUSH2 0xFFFF AND DUP2 MSTORE PUSH1 0x20 ADD PUSH2 0x320 PUSH2 0xFFFF AND DUP2 MSTORE PUSH1 0x20 ADD PUSH2 0x258 PUSH2 0xFFFF AND DUP2 MSTORE PUSH1 0x20 ADD PUSH2 0x190 PUSH2 0xFFFF AND DUP2 MSTORE PUSH1 0x20 ADD PUSH1 0xC8 PUSH2 0xFFFF AND DUP2 MSTORE POP PUSH1 0x3D SWAP1 PUSH1 0x5 PUSH2 0x1443 SWAP3 SWAP2 SWAP1 PUSH2 0x2689 JUMP JUMPDEST POP PUSH3 0x15180 PUSH1 0x43 DUP2 SWAP1 SSTORE POP DUP4 ISZERO PUSH2 0x14A8 JUMPI PUSH0 DUP6 PUSH0 ADD PUSH1 0x8 PUSH2 0x100 EXP DUP2 SLOAD DUP2 PUSH1 0xFF MUL NOT AND SWAP1 DUP4 ISZERO ISZERO MUL OR SWAP1 SSTORE POP PUSH32 0xC7F505B2F371AE2175EE4913F4499E1F2633A7B5936321EED1CDAEB6115181D2 PUSH1 0x1 PUSH1 0x40 MLOAD PUSH2 0x149F SWAP2 SWAP1 PUSH2 0x3378 JUMP JUMPDEST PUSH1 0x40 MLOAD DUP1 SWAP2 SUB SWAP1 LOG1 JUMPDEST POP POP POP POP POP POP POP POP POP POP JUMP JUMPDEST PUSH0 DUP1 PUSH2 0x14BE PUSH2 0x170F JUMP JUMPDEST SWAP1 POP DUP1 PUSH1 0x1 ADD PUSH0 DUP6 PUSH20 0xFFFFFFFFFFFFFFFFFFFFFFFFFFFFFFFFFFFFFFFF AND PUSH20 0xFFFFFFFFFFFFFFFFFFFFFFFFFFFFFFFFFFFFFFFF AND DUP2 MSTORE PUSH1 0x20 ADD SWAP1 DUP2 MSTORE PUSH1 0x20 ADD PUSH0 KECCAK256 PUSH0 DUP5 PUSH20 0xFFFFFFFFFFFFFFFFFFFFFFFFFFFFFFFFFFFFFFFF AND PUSH20 0xFFFFFFFFFFFFFFFFFFFFFFFFFFFFFFFFFFFFFFFF AND DUP2 MSTORE PUSH1 0x20 ADD SWAP1 DUP2 MSTORE PUSH1 0x20 ADD PUSH0 KECCAK256 SLOAD SWAP2 POP POP SWAP3 SWAP2 POP POP JUMP JUMPDEST PUSH2 0x154C PUSH2 0x174F JUMP JUMPDEST DUP2 PUSH1 0x35 PUSH0 DUP6 PUSH20 0xFFFFFFFFFFFFFFFFFFFFFFFFFFFFFFFFFFFFFFFF AND PUSH20 0xFFFFFFFFFFFFFFFFFFFFFFFFFFFFFFFFFFFFFFFF AND DUP2 MSTORE PUSH1 0x20 ADD SWAP1 DUP2 MSTORE PUSH1 0x20 ADD PUSH0 KECCAK256 PUSH0 PUSH2 0x100 EXP DUP2 SLOAD DUP2 PUSH1 0xFF MUL NOT AND SWAP1 DUP4 ISZERO ISZERO MUL OR SWAP1 SSTORE POP DUP1 PUSH1 0x36 PUSH0 DUP6 PUSH20 0xFFFFFFFFFFFFFFFFFFFFFFFFFFFFFFFFFFFFFFFF AND PUSH20 0xFFFFFFFFFFFFFFFFFFFFFFFFFFFFFFFFFFFFFFFF AND DUP2 MSTORE PUSH1 0x20 ADD SWAP1 DUP2 MSTORE PUSH1 0x20 ADD PUSH0 KECCAK256 PUSH0 PUSH2 0x100 EXP DUP2 SLOAD DUP2 PUSH1 0xFF MUL NOT AND SWAP1 DUP4 ISZERO ISZERO MUL OR SWAP1 SSTORE POP DUP3 PUSH20 0xFFFFFFFFFFFFFFFFFFFFFFFFFFFFFFFFFFFFFFFF AND PUSH32 0x56EF0FE49F8EE42D7982BB42D42FA7B8D1370EC36D0F8CB83802A7F74215027D DUP4 DUP4 PUSH1 0x40 MLOAD PUSH2 0x163C SWAP3 SWAP2 SWAP1 PUSH2 0x3391 JUMP JUMPDEST PUSH1 0x40 MLOAD DUP1 SWAP2 SUB SWAP1 LOG2 POP POP POP JUMP JUMPDEST PUSH1 0x32 PUSH0 SWAP1 SLOAD SWAP1 PUSH2 0x100 EXP SWAP1 DIV PUSH20 0xFFFFFFFFFFFFFFFFFFFFFFFFFFFFFFFFFFFFFFFF AND DUP2 JUMP JUMPDEST PUSH1 0x37 PUSH1 0x20 MSTORE DUP1 PUSH0 MSTORE PUSH1 0x40 PUSH0 KECCAK256 PUSH0 SWAP2 POP SLOAD SWAP1 PUSH2 0x100 EXP SWAP1 DIV PUSH1 0xFF AND DUP2 JUMP JUMPDEST PUSH2 0x1693 PUSH2 0x174F JUMP JUMPDEST PUSH0 PUSH20 0xFFFFFFFFFFFFFFFFFFFFFFFFFFFFFFFFFFFFFFFF AND DUP2 PUSH20 0xFFFFFFFFFFFFFFFFFFFFFFFFFFFFFFFFFFFFFFFF AND SUB PUSH2 0x1703 JUMPI PUSH0 PUSH1 0x40 MLOAD PUSH32 0x1E4FBDF700000000000000000000000000000000000000000000000000000000 DUP2 MSTORE PUSH1 0x4 ADD PUSH2 0x16FA SWAP2 SWAP1 PUSH2 0x29B4 JUMP JUMPDEST PUSH1 0x40 MLOAD DUP1 SWAP2 SUB SWAP1 REVERT JUMPDEST PUSH2 0x170C DUP2 PUSH2 0x1D05 JUMP JUMPDEST POP JUMP JUMPDEST PUSH0 PUSH32 0x52C63247E1F47DB19D5CE0460030C497F067CA4CEBF71BA98EEADABE20BACE00 SWAP1 POP SWAP1 JUMP JUMPDEST PUSH0 CALLER SWAP1 POP SWAP1 JUMP JUMPDEST PUSH2 0x174A DUP4 DUP4 DUP4 PUSH1 0x1 PUSH2 0x1EC1 JUMP JUMPDEST POP POP POP JUMP JUMPDEST PUSH2 0x1757 PUSH2 0x1736 JUMP JUMPDEST PUSH20 0xFFFFFFFFFFFFFFFFFFFFFFFFFFFFFFFFFFFFFFFF AND PUSH2 0x1775 PUSH2 0xF1E JUMP JUMPDEST PUSH20 0xFFFFFFFFFFFFFFFFFFFFFFFFFFFFFFFFFFFFFFFF AND EQ PUSH2 0x17D4 JUMPI PUSH2 0x1798 PUSH2 0x1736 JUMP JUMPDEST PUSH1 0x40 MLOAD PUSH32 0x118CDAA700000000000000000000000000000000000000000000000000000000 DUP2 MSTORE PUSH1 0x4 ADD PUSH2 0x17CB SWAP2 SWAP1 PUSH2 0x29B4 JUMP JUMPDEST PUSH1 0x40 MLOAD DUP1 SWAP2 SUB SWAP1 REVERT JUMPDEST JUMP JUMPDEST PUSH2 0x17DE PUSH2 0xD50 JUMP JUMPDEST ISZERO PUSH2 0x181E JUMPI PUSH1 0x40 MLOAD PUSH32 0x8C379A000000000000000000000000000000000000000000000000000000000 DUP2 MSTORE PUSH1 0x4 ADD PUSH2 0x1815 SWAP1 PUSH2 0x3402 JUMP JUMPDEST PUSH1 0x40 MLOAD DUP1 SWAP2 SUB SWAP1 REVERT JUMPDEST JUMP JUMPDEST PUSH0 DUP2 DUP4 PUSH2 0x182D SWAP2 SWAP1 PUSH2 0x3420 JUMP JUMPDEST SWAP1 POP SWAP3 SWAP2 POP POP JUMP JUMPDEST PUSH0 PUSH20 0xFFFFFFFFFFFFFFFFFFFFFFFFFFFFFFFFFFFFFFFF AND PUSH1 0x34 PUSH0 SWAP1 SLOAD SWAP1 PUSH2 0x100 EXP SWAP1 DIV PUSH20 0xFFFFFFFFFFFFFFFFFFFFFFFFFFFFFFFFFFFFFFFF AND PUSH20 0xFFFFFFFFFFFFFFFFFFFFFFFFFFFFFFFFFFFFFFFF AND EQ PUSH2 0x1A3A JUMPI PUSH0 DUP1 PUSH1 0x34 PUSH0 SWAP1 SLOAD SWAP1 PUSH2 0x100 EXP SWAP1 DIV PUSH20 0xFFFFFFFFFFFFFFFFFFFFFFFFFFFFFFFFFFFFFFFF AND PUSH20 0xFFFFFFFFFFFFFFFFFFFFFFFFFFFFFFFFFFFFFFFF AND PUSH1 0x40 MLOAD PUSH1 0x24 ADD PUSH1 0x40 MLOAD PUSH1 0x20 DUP2 DUP4 SUB SUB DUP2 MSTORE SWAP1 PUSH1 0x40 MSTORE PUSH32 0x902F1AC00000000000000000000000000000000000000000000000000000000 PUSH28 0xFFFFFFFFFFFFFFFFFFFFFFFFFFFFFFFFFFFFFFFFFFFFFFFFFFFFFFFF NOT AND PUSH1 0x20 DUP3 ADD DUP1 MLOAD PUSH28 0xFFFFFFFFFFFFFFFFFFFFFFFFFFFFFFFFFFFFFFFFFFFFFFFFFFFFFFFF DUP4 DUP2 DUP4 AND OR DUP4 MSTORE POP POP POP POP PUSH1 0x40 MLOAD PUSH2 0x1953 SWAP2 SWAP1 PUSH2 0x3497 JUMP JUMPDEST PUSH0 PUSH1 0x40 MLOAD DUP1 DUP4 SUB DUP2 DUP6 GAS STATICCALL SWAP2 POP POP RETURNDATASIZE DUP1 PUSH0 DUP2 EQ PUSH2 0x198B JUMPI PUSH1 0x40 MLOAD SWAP2 POP PUSH1 0x1F NOT PUSH1 0x3F RETURNDATASIZE ADD AND DUP3 ADD PUSH1 0x40 MSTORE RETURNDATASIZE DUP3 MSTORE RETURNDATASIZE PUSH0 PUSH1 0x20 DUP5 ADD RETURNDATACOPY PUSH2 0x1990 JUMP JUMPDEST PUSH1 0x60 SWAP2 POP JUMPDEST POP SWAP2 POP SWAP2 POP DUP2 PUSH2 0x19D5 JUMPI PUSH1 0x40 MLOAD PUSH32 0x8C379A000000000000000000000000000000000000000000000000000000000 DUP2 MSTORE PUSH1 0x4 ADD PUSH2 0x19CC SWAP1 PUSH2 0x34F7 JUMP JUMPDEST PUSH1 0x40 MLOAD DUP1 SWAP2 SUB SWAP1 REVERT JUMPDEST PUSH0 DUP2 DUP1 PUSH1 0x20 ADD SWAP1 MLOAD DUP2 ADD SWAP1 PUSH2 0x19EA SWAP2 SWAP1 PUSH2 0x3529 JUMP JUMPDEST SWAP1 POP DUP1 PUSH2 0x19F5 PUSH2 0x7F4 JUMP JUMPDEST GT ISZERO PUSH2 0x1A36 JUMPI PUSH1 0x40 MLOAD PUSH32 0x8C379A000000000000000000000000000000000000000000000000000000000 DUP2 MSTORE PUSH1 0x4 ADD PUSH2 0x1A2D SWAP1 PUSH2 0x359E JUMP JUMPDEST PUSH1 0x40 MLOAD DUP1 SWAP2 SUB SWAP1 REVERT JUMPDEST POP POP POP JUMPDEST TIMESTAMP PUSH1 0x42 DUP2 SWAP1 SSTORE POP JUMP JUMPDEST PUSH0 PUSH1 0x35 PUSH0 DUP6 PUSH20 0xFFFFFFFFFFFFFFFFFFFFFFFFFFFFFFFFFFFFFFFF AND PUSH20 0xFFFFFFFFFFFFFFFFFFFFFFFFFFFFFFFFFFFFFFFF AND DUP2 MSTORE PUSH1 0x20 ADD SWAP1 DUP2 MSTORE PUSH1 0x20 ADD PUSH0 KECCAK256 PUSH0 SWAP1 SLOAD SWAP1 PUSH2 0x100 EXP SWAP1 DIV PUSH1 0xFF AND DUP1 PUSH2 0x1ADF JUMPI POP PUSH1 0x36 PUSH0 DUP5 PUSH20 0xFFFFFFFFFFFFFFFFFFFFFFFFFFFFFFFFFFFFFFFF AND PUSH20 0xFFFFFFFFFFFFFFFFFFFFFFFFFFFFFFFFFFFFFFFF AND DUP2 MSTORE PUSH1 0x20 ADD SWAP1 DUP2 MSTORE PUSH1 0x20 ADD PUSH0 KECCAK256 PUSH0 SWAP1 SLOAD SWAP1 PUSH2 0x100 EXP SWAP1 DIV PUSH1 0xFF AND JUMPDEST DUP1 PUSH2 0x1B30 JUMPI POP PUSH1 0x37 PUSH0 DUP6 PUSH20 0xFFFFFFFFFFFFFFFFFFFFFFFFFFFFFFFFFFFFFFFF AND PUSH20 0xFFFFFFFFFFFFFFFFFFFFFFFFFFFFFFFFFFFFFFFF AND DUP2 MSTORE PUSH1 0x20 ADD SWAP1 DUP2 MSTORE PUSH1 0x20 ADD PUSH0 KECCAK256 PUSH0 SWAP1 SLOAD SWAP1 PUSH2 0x100 EXP SWAP1 DIV PUSH1 0xFF AND JUMPDEST ISZERO PUSH2 0x1B45 JUMPI PUSH2 0x1B40 DUP5 DUP5 DUP5 PUSH2 0x209E JUMP JUMPDEST PUSH2 0x1B9C JUMP JUMPDEST PUSH0 PUSH2 0x1B4F DUP4 PUSH2 0x218E JUMP JUMPDEST SWAP1 POP PUSH2 0x1B7D DUP6 PUSH1 0x33 PUSH0 SWAP1 SLOAD SWAP1 PUSH2 0x100 EXP SWAP1 DIV PUSH20 0xFFFFFFFFFFFFFFFFFFFFFFFFFFFFFFFFFFFFFFFF AND DUP4 PUSH2 0x209E JUMP JUMPDEST PUSH2 0x1B9A DUP6 DUP6 PUSH2 0x1B95 DUP5 DUP8 PUSH2 0x2252 SWAP1 SWAP2 SWAP1 PUSH4 0xFFFFFFFF AND JUMP JUMPDEST PUSH2 0x209E JUMP JUMPDEST POP JUMPDEST PUSH1 0x1 SWAP1 POP SWAP4 SWAP3 POP POP POP JUMP JUMPDEST PUSH2 0x1BAF PUSH2 0x2267 JUMP JUMPDEST PUSH0 DUP1 PUSH0 PUSH2 0x100 EXP DUP2 SLOAD DUP2 PUSH1 0xFF MUL NOT AND SWAP1 DUP4 ISZERO ISZERO MUL OR SWAP1 SSTORE POP PUSH32 0x5DB9EE0A495BF2E6FF9C91A7834C1BA4FDD244A5E8AA4E537BD38AEAE4B073AA PUSH2 0x1BF0 PUSH2 0x1736 JUMP JUMPDEST PUSH1 0x40 MLOAD PUSH2 0x1BFD SWAP2 SWAP1 PUSH2 0x29B4 JUMP JUMPDEST PUSH1 0x40 MLOAD DUP1 SWAP2 SUB SWAP1 LOG1 JUMP JUMPDEST PUSH0 PUSH20 0xFFFFFFFFFFFFFFFFFFFFFFFFFFFFFFFFFFFFFFFF AND DUP3 PUSH20 0xFFFFFFFFFFFFFFFFFFFFFFFFFFFFFFFFFFFFFFFF AND SUB PUSH2 0x1C77 JUMPI PUSH0 PUSH1 0x40 MLOAD PUSH32 0xEC442F0500000000000000000000000000000000000000000000000000000000 DUP2 MSTORE PUSH1 0x4 ADD PUSH2 0x1C6E SWAP2 SWAP1 PUSH2 0x29B4 JUMP JUMPDEST PUSH1 0x40 MLOAD DUP1 SWAP2 SUB SWAP1 REVERT JUMPDEST PUSH2 0x1C82 PUSH0 DUP4 DUP4 PUSH2 0x22B0 JUMP JUMPDEST POP POP JUMP JUMPDEST PUSH0 PUSH20 0xFFFFFFFFFFFFFFFFFFFFFFFFFFFFFFFFFFFFFFFF AND DUP3 PUSH20 0xFFFFFFFFFFFFFFFFFFFFFFFFFFFFFFFFFFFFFFFF AND SUB PUSH2 0x1CF6 JUMPI PUSH0 PUSH1 0x40 MLOAD PUSH32 0x96C6FD1E00000000000000000000000000000000000000000000000000000000 DUP2 MSTORE PUSH1 0x4 ADD PUSH2 0x1CED SWAP2 SWAP1 PUSH2 0x29B4 JUMP JUMPDEST PUSH1 0x40 MLOAD DUP1 SWAP2 SUB SWAP1 REVERT JUMPDEST PUSH2 0x1D01 DUP3 PUSH0 DUP4 PUSH2 0x22B0 JUMP JUMPDEST POP POP JUMP JUMPDEST PUSH0 PUSH2 0x1D0E PUSH2 0x1E37 JUMP JUMPDEST SWAP1 POP PUSH0 DUP2 PUSH0 ADD PUSH0 SWAP1 SLOAD SWAP1 PUSH2 0x100 EXP SWAP1 DIV PUSH20 0xFFFFFFFFFFFFFFFFFFFFFFFFFFFFFFFFFFFFFFFF AND SWAP1 POP DUP3 DUP3 PUSH0 ADD PUSH0 PUSH2 0x100 EXP DUP2 SLOAD DUP2 PUSH20 0xFFFFFFFFFFFFFFFFFFFFFFFFFFFFFFFFFFFFFFFF MUL NOT AND SWAP1 DUP4 PUSH20 0xFFFFFFFFFFFFFFFFFFFFFFFFFFFFFFFFFFFFFFFF AND MUL OR SWAP1 SSTORE POP DUP3 PUSH20 0xFFFFFFFFFFFFFFFFFFFFFFFFFFFFFFFFFFFFFFFF AND DUP2 PUSH20 0xFFFFFFFFFFFFFFFFFFFFFFFFFFFFFFFFFFFFFFFF AND PUSH32 0x8BE0079C531659141344CD1FD0A4F28419497F9722A3DAAFE3B4186F6B6457E0 PUSH1 0x40 MLOAD PUSH1 0x40 MLOAD DUP1 SWAP2 SUB SWAP1 LOG3 POP POP POP JUMP JUMPDEST PUSH2 0x1DDE PUSH2 0x17D6 JUMP JUMPDEST PUSH1 0x1 PUSH0 DUP1 PUSH2 0x100 EXP DUP2 SLOAD DUP2 PUSH1 0xFF MUL NOT AND SWAP1 DUP4 ISZERO ISZERO MUL OR SWAP1 SSTORE POP PUSH32 0x62E78CEA01BEE320CD4E420270B5EA74000D11B0C9F74754EBDBFC544B05A258 PUSH2 0x1E20 PUSH2 0x1736 JUMP JUMPDEST PUSH1 0x40 MLOAD PUSH2 0x1E2D SWAP2 SWAP1 PUSH2 0x29B4 JUMP JUMPDEST PUSH1 0x40 MLOAD DUP1 SWAP2 SUB SWAP1 LOG1 JUMP JUMPDEST PUSH0 PUSH32 0x9016D09D72D40FDAE2FD8CEAC6B6234C7706214FD39C1CD1E609A0528C199300 SWAP1 POP SWAP1 JUMP JUMPDEST PUSH0 PUSH32 0xF0C57E16840DF040F15088DC2F81FE391C3923BEC73E23A9662EFC9C229C6A00 SWAP1 POP SWAP1 JUMP JUMPDEST PUSH2 0x1E8D PUSH2 0x24DF JUMP JUMPDEST PUSH2 0x1E97 DUP3 DUP3 PUSH2 0x251F JUMP JUMPDEST POP POP JUMP JUMPDEST PUSH2 0x1EA3 PUSH2 0x24DF JUMP JUMPDEST PUSH2 0x1EAC DUP2 PUSH2 0x255B JUMP JUMPDEST POP JUMP JUMPDEST PUSH2 0x1EB7 PUSH2 0x24DF JUMP JUMPDEST PUSH2 0x1EBF PUSH2 0x25DF JUMP JUMPDEST JUMP JUMPDEST PUSH0 PUSH2 0x1ECA PUSH2 0x170F JUMP JUMPDEST SWAP1 POP PUSH0 PUSH20 0xFFFFFFFFFFFFFFFFFFFFFFFFFFFFFFFFFFFFFFFF AND DUP6 PUSH20 0xFFFFFFFFFFFFFFFFFFFFFFFFFFFFFFFFFFFFFFFF AND SUB PUSH2 0x1F3C JUMPI PUSH0 PUSH1 0x40 MLOAD PUSH32 0xE602DF0500000000000000000000000000000000000000000000000000000000 DUP2 MSTORE PUSH1 0x4 ADD PUSH2 0x1F33 SWAP2 SWAP1 PUSH2 0x29B4 JUMP JUMPDEST PUSH1 0x40 MLOAD DUP1 SWAP2 SUB SWAP1 REVERT JUMPDEST PUSH0 PUSH20 0xFFFFFFFFFFFFFFFFFFFFFFFFFFFFFFFFFFFFFFFF AND DUP5 PUSH20 0xFFFFFFFFFFFFFFFFFFFFFFFFFFFFFFFFFFFFFFFF AND SUB PUSH2 0x1FAC JUMPI PUSH0 PUSH1 0x40 MLOAD PUSH32 0x94280D6200000000000000000000000000000000000000000000000000000000 DUP2 MSTORE PUSH1 0x4 ADD PUSH2 0x1FA3 SWAP2 SWAP1 PUSH2 0x29B4 JUMP JUMPDEST PUSH1 0x40 MLOAD DUP1 SWAP2 SUB SWAP1 REVERT JUMPDEST DUP3 DUP2 PUSH1 0x1 ADD PUSH0 DUP8 PUSH20 0xFFFFFFFFFFFFFFFFFFFFFFFFFFFFFFFFFFFFFFFF AND PUSH20 0xFFFFFFFFFFFFFFFFFFFFFFFFFFFFFFFFFFFFFFFF AND DUP2 MSTORE PUSH1 0x20 ADD SWAP1 DUP2 MSTORE PUSH1 0x20 ADD PUSH0 KECCAK256 PUSH0 DUP7 PUSH20 0xFFFFFFFFFFFFFFFFFFFFFFFFFFFFFFFFFFFFFFFF AND PUSH20 0xFFFFFFFFFFFFFFFFFFFFFFFFFFFFFFFFFFFFFFFF AND DUP2 MSTORE PUSH1 0x20 ADD SWAP1 DUP2 MSTORE PUSH1 0x20 ADD PUSH0 KECCAK256 DUP2 SWAP1 SSTORE POP DUP2 ISZERO PUSH2 0x2097 JUMPI DUP4 PUSH20 0xFFFFFFFFFFFFFFFFFFFFFFFFFFFFFFFFFFFFFFFF AND DUP6 PUSH20 0xFFFFFFFFFFFFFFFFFFFFFFFFFFFFFFFFFFFFFFFF AND PUSH32 0x8C5BE1E5EBEC7D5BD14F71427D1E84F3DD0314C0F7B2291E5B200AC8C7C3B925 DUP6 PUSH1 0x40 MLOAD PUSH2 0x208E SWAP2 SWAP1 PUSH2 0x28DD JUMP JUMPDEST PUSH1 0x40 MLOAD DUP1 SWAP2 SUB SWAP1 LOG3 JUMPDEST POP POP POP POP POP JUMP JUMPDEST PUSH0 PUSH20 0xFFFFFFFFFFFFFFFFFFFFFFFFFFFFFFFFFFFFFFFF AND DUP4 PUSH20 0xFFFFFFFFFFFFFFFFFFFFFFFFFFFFFFFFFFFFFFFF AND SUB PUSH2 0x210E JUMPI PUSH0 PUSH1 0x40 MLOAD PUSH32 0x96C6FD1E00000000000000000000000000000000000000000000000000000000 DUP2 MSTORE PUSH1 0x4 ADD PUSH2 0x2105 SWAP2 SWAP1 PUSH2 0x29B4 JUMP JUMPDEST PUSH1 0x40 MLOAD DUP1 SWAP2 SUB SWAP1 REVERT JUMPDEST PUSH0 PUSH20 0xFFFFFFFFFFFFFFFFFFFFFFFFFFFFFFFFFFFFFFFF AND DUP3 PUSH20 0xFFFFFFFFFFFFFFFFFFFFFFFFFFFFFFFFFFFFFFFF AND SUB PUSH2 0x217E JUMPI PUSH0 PUSH1 0x40 MLOAD PUSH32 0xEC442F0500000000000000000000000000000000000000000000000000000000 DUP2 MSTORE PUSH1 0x4 ADD PUSH2 0x2175 SWAP2 SWAP1 PUSH2 0x29B4 JUMP JUMPDEST PUSH1 0x40 MLOAD DUP1 SWAP2 SUB SWAP1 REVERT JUMPDEST PUSH2 0x2189 DUP4 DUP4 DUP4 PUSH2 0x22B0 JUMP JUMPDEST POP POP POP JUMP JUMPDEST PUSH0 DUP1 PUSH0 SWAP1 POP JUMPDEST PUSH1 0x5 DUP2 LT ISZERO PUSH2 0x2211 JUMPI PUSH1 0x38 DUP2 PUSH1 0x5 DUP2 LT PUSH2 0x21B1 JUMPI PUSH2 0x21B0 PUSH2 0x2F96 JUMP JUMPDEST JUMPDEST ADD SLOAD DUP4 GT PUSH2 0x21FE JUMPI PUSH2 0x21F6 PUSH3 0x186A0 PUSH2 0x21E8 PUSH1 0x3D DUP5 PUSH1 0x5 DUP2 LT PUSH2 0x21D7 JUMPI PUSH2 0x21D6 PUSH2 0x2F96 JUMP JUMPDEST JUMPDEST ADD SLOAD DUP7 PUSH2 0x2601 SWAP1 SWAP2 SWAP1 PUSH4 0xFFFFFFFF AND JUMP JUMPDEST PUSH2 0x2616 SWAP1 SWAP2 SWAP1 PUSH4 0xFFFFFFFF AND JUMP JUMPDEST SWAP2 POP POP PUSH2 0x224D JUMP JUMPDEST DUP1 DUP1 PUSH2 0x2209 SWAP1 PUSH2 0x3181 JUMP JUMPDEST SWAP2 POP POP PUSH2 0x2194 JUMP JUMPDEST POP PUSH1 0x40 MLOAD PUSH32 0x8C379A000000000000000000000000000000000000000000000000000000000 DUP2 MSTORE PUSH1 0x4 ADD PUSH2 0x2244 SWAP1 PUSH2 0x3606 JUMP JUMPDEST PUSH1 0x40 MLOAD DUP1 SWAP2 SUB SWAP1 REVERT JUMPDEST SWAP2 SWAP1 POP JUMP JUMPDEST PUSH0 DUP2 DUP4 PUSH2 0x225F SWAP2 SWAP1 PUSH2 0x30C0 JUMP JUMPDEST SWAP1 POP SWAP3 SWAP2 POP POP JUMP JUMPDEST PUSH2 0x226F PUSH2 0xD50 JUMP JUMPDEST PUSH2 0x22AE JUMPI PUSH1 0x40 MLOAD PUSH32 0x8C379A000000000000000000000000000000000000000000000000000000000 DUP2 MSTORE PUSH1 0x4 ADD PUSH2 0x22A5 SWAP1 PUSH2 0x366E JUMP JUMPDEST PUSH1 0x40 MLOAD DUP1 SWAP2 SUB SWAP1 REVERT JUMPDEST JUMP JUMPDEST PUSH0 PUSH2 0x22B9 PUSH2 0x170F JUMP JUMPDEST SWAP1 POP PUSH0 PUSH20 0xFFFFFFFFFFFFFFFFFFFFFFFFFFFFFFFFFFFFFFFF AND DUP5 PUSH20 0xFFFFFFFFFFFFFFFFFFFFFFFFFFFFFFFFFFFFFFFF AND SUB PUSH2 0x230D JUMPI DUP2 DUP2 PUSH1 0x2 ADD PUSH0 DUP3 DUP3 SLOAD PUSH2 0x2301 SWAP2 SWAP1 PUSH2 0x3420 JUMP JUMPDEST SWAP3 POP POP DUP2 SWAP1 SSTORE POP PUSH2 0x23DF JUMP JUMPDEST PUSH0 DUP2 PUSH0 ADD PUSH0 DUP7 PUSH20 0xFFFFFFFFFFFFFFFFFFFFFFFFFFFFFFFFFFFFFFFF AND PUSH20 0xFFFFFFFFFFFFFFFFFFFFFFFFFFFFFFFFFFFFFFFF AND DUP2 MSTORE PUSH1 0x20 ADD SWAP1 DUP2 MSTORE PUSH1 0x20 ADD PUSH0 KECCAK256 SLOAD SWAP1 POP DUP3 DUP2 LT ISZERO PUSH2 0x2398 JUMPI DUP5 DUP2 DUP5 PUSH1 0x40 MLOAD PUSH32 0xE450D38C00000000000000000000000000000000000000000000000000000000 DUP2 MSTORE PUSH1 0x4 ADD PUSH2 0x238F SWAP4 SWAP3 SWAP2 SWAP1 PUSH2 0x368C JUMP JUMPDEST PUSH1 0x40 MLOAD DUP1 SWAP2 SUB SWAP1 REVERT JUMPDEST DUP3 DUP2 SUB DUP3 PUSH0 ADD PUSH0 DUP8 PUSH20 0xFFFFFFFFFFFFFFFFFFFFFFFFFFFFFFFFFFFFFFFF AND PUSH20 0xFFFFFFFFFFFFFFFFFFFFFFFFFFFFFFFFFFFFFFFF AND DUP2 MSTORE PUSH1 0x20 ADD SWAP1 DUP2 MSTORE PUSH1 0x20 ADD PUSH0 KECCAK256 DUP2 SWAP1 SSTORE POP POP JUMPDEST PUSH0 PUSH20 0xFFFFFFFFFFFFFFFFFFFFFFFFFFFFFFFFFFFFFFFF AND DUP4 PUSH20 0xFFFFFFFFFFFFFFFFFFFFFFFFFFFFFFFFFFFFFFFF AND SUB PUSH2 0x2428 JUMPI DUP2 DUP2 PUSH1 0x2 ADD PUSH0 DUP3 DUP3 SLOAD SUB SWAP3 POP POP DUP2 SWAP1 SSTORE POP PUSH2 0x2474 JUMP JUMPDEST DUP2 DUP2 PUSH0 ADD PUSH0 DUP6 PUSH20 0xFFFFFFFFFFFFFFFFFFFFFFFFFFFFFFFFFFFFFFFF AND PUSH20 0xFFFFFFFFFFFFFFFFFFFFFFFFFFFFFFFFFFFFFFFF AND DUP2 MSTORE PUSH1 0x20 ADD SWAP1 DUP2 MSTORE PUSH1 0x20 ADD PUSH0 KECCAK256 PUSH0 DUP3 DUP3 SLOAD ADD SWAP3 POP POP DUP2 SWAP1 SSTORE POP JUMPDEST DUP3 PUSH20 0xFFFFFFFFFFFFFFFFFFFFFFFFFFFFFFFFFFFFFFFF AND DUP5 PUSH20 0xFFFFFFFFFFFFFFFFFFFFFFFFFFFFFFFFFFFFFFFF AND PUSH32 0xDDF252AD1BE2C89B69C2B068FC378DAA952BA7F163C4A11628F55A4DF523B3EF DUP5 PUSH1 0x40 MLOAD PUSH2 0x24D1 SWAP2 SWAP1 PUSH2 0x28DD JUMP JUMPDEST PUSH1 0x40 MLOAD DUP1 SWAP2 SUB SWAP1 LOG3 POP POP POP POP JUMP JUMPDEST PUSH2 0x24E7 PUSH2 0x262B JUMP JUMPDEST PUSH2 0x251D JUMPI PUSH1 0x40 MLOAD PUSH32 0xD7E6BCF800000000000000000000000000000000000000000000000000000000 DUP2 MSTORE PUSH1 0x4 ADD PUSH1 0x40 MLOAD DUP1 SWAP2 SUB SWAP1 REVERT JUMPDEST JUMP JUMPDEST PUSH2 0x2527 PUSH2 0x24DF JUMP JUMPDEST PUSH0 PUSH2 0x2530 PUSH2 0x170F JUMP JUMPDEST SWAP1 POP DUP3 DUP2 PUSH1 0x3 ADD SWAP1 DUP2 PUSH2 0x2543 SWAP2 SWAP1 PUSH2 0x3855 JUMP JUMPDEST POP DUP2 DUP2 PUSH1 0x4 ADD SWAP1 DUP2 PUSH2 0x2555 SWAP2 SWAP1 PUSH2 0x3855 JUMP JUMPDEST POP POP POP POP JUMP JUMPDEST PUSH2 0x2563 PUSH2 0x24DF JUMP JUMPDEST PUSH0 PUSH20 0xFFFFFFFFFFFFFFFFFFFFFFFFFFFFFFFFFFFFFFFF AND DUP2 PUSH20 0xFFFFFFFFFFFFFFFFFFFFFFFFFFFFFFFFFFFFFFFF AND SUB PUSH2 0x25D3 JUMPI PUSH0 PUSH1 0x40 MLOAD PUSH32 0x1E4FBDF700000000000000000000000000000000000000000000000000000000 DUP2 MSTORE PUSH1 0x4 ADD PUSH2 0x25CA SWAP2 SWAP1 PUSH2 0x29B4 JUMP JUMPDEST PUSH1 0x40 MLOAD DUP1 SWAP2 SUB SWAP1 REVERT JUMPDEST PUSH2 0x25DC DUP2 PUSH2 0x1D05 JUMP JUMPDEST POP JUMP JUMPDEST PUSH2 0x25E7 PUSH2 0x24DF JUMP JUMPDEST PUSH0 DUP1 PUSH0 PUSH2 0x100 EXP DUP2 SLOAD DUP2 PUSH1 0xFF MUL NOT AND SWAP1 DUP4 ISZERO ISZERO MUL OR SWAP1 SSTORE POP JUMP JUMPDEST PUSH0 DUP2 DUP4 PUSH2 0x260E SWAP2 SWAP1 PUSH2 0x3924 JUMP JUMPDEST SWAP1 POP SWAP3 SWAP2 POP POP JUMP JUMPDEST PUSH0 DUP2 DUP4 PUSH2 0x2623 SWAP2 SWAP1 PUSH2 0x3992 JUMP JUMPDEST SWAP1 POP SWAP3 SWAP2 POP POP JUMP JUMPDEST PUSH0 PUSH2 0x2634 PUSH2 0x1E5E JUMP JUMPDEST PUSH0 ADD PUSH1 0x8 SWAP1 SLOAD SWAP1 PUSH2 0x100 EXP SWAP1 DIV PUSH1 0xFF AND SWAP1 POP SWAP1 JUMP JUMPDEST DUP3 PUSH1 0x5 DUP2 ADD SWAP3 DUP3 ISZERO PUSH2 0x2678 JUMPI SWAP2 PUSH1 0x20 MUL DUP3 ADD JUMPDEST DUP3 DUP2 GT ISZERO PUSH2 0x2677 JUMPI DUP3 MLOAD DUP3 SSTORE SWAP2 PUSH1 0x20 ADD SWAP2 SWAP1 PUSH1 0x1 ADD SWAP1 PUSH2 0x265C JUMP JUMPDEST JUMPDEST POP SWAP1 POP PUSH2 0x2685 SWAP2 SWAP1 PUSH2 0x26CF JUMP JUMPDEST POP SWAP1 JUMP JUMPDEST DUP3 PUSH1 0x5 DUP2 ADD SWAP3 DUP3 ISZERO PUSH2 0x26BE JUMPI SWAP2 PUSH1 0x20 MUL DUP3 ADD JUMPDEST DUP3 DUP2 GT ISZERO PUSH2 0x26BD JUMPI DUP3 MLOAD DUP3 SWAP1 PUSH2 0xFFFF AND SWAP1 SSTORE SWAP2 PUSH1 0x20 ADD SWAP2 SWAP1 PUSH1 0x1 ADD SWAP1 PUSH2 0x269C JUMP JUMPDEST JUMPDEST POP SWAP1 POP PUSH2 0x26CB SWAP2 SWAP1 PUSH2 0x26CF JUMP JUMPDEST POP SWAP1 JUMP JUMPDEST JUMPDEST DUP1 DUP3 GT ISZERO PUSH2 0x26E6 JUMPI PUSH0 DUP2 PUSH0 SWAP1 SSTORE POP PUSH1 0x1 ADD PUSH2 0x26D0 JUMP JUMPDEST POP SWAP1 JUMP JUMPDEST PUSH0 DUP2 MLOAD SWAP1 POP SWAP2 SWAP1 POP JUMP JUMPDEST PUSH0 DUP3 DUP3 MSTORE PUSH1 0x20 DUP3 ADD SWAP1 POP SWAP3 SWAP2 POP POP JUMP JUMPDEST PUSH0 JUMPDEST DUP4 DUP2 LT ISZERO PUSH2 0x2721 JUMPI DUP1 DUP3 ADD MLOAD DUP2 DUP5 ADD MSTORE PUSH1 0x20 DUP2 ADD SWAP1 POP PUSH2 0x2706 JUMP JUMPDEST PUSH0 DUP5 DUP5 ADD MSTORE POP POP POP POP JUMP JUMPDEST PUSH0 PUSH1 0x1F NOT PUSH1 0x1F DUP4 ADD AND SWAP1 POP SWAP2 SWAP1 POP JUMP JUMPDEST PUSH0 PUSH2 0x2746 DUP3 PUSH2 0x26EA JUMP JUMPDEST PUSH2 0x2750 DUP2 DUP6 PUSH2 0x26F4 JUMP JUMPDEST SWAP4 POP PUSH2 0x2760 DUP2 DUP6 PUSH1 0x20 DUP7 ADD PUSH2 0x2704 JUMP JUMPDEST PUSH2 0x2769 DUP2 PUSH2 0x272C JUMP JUMPDEST DUP5 ADD SWAP2 POP POP SWAP3 SWAP2 POP POP JUMP JUMPDEST PUSH0 PUSH1 0x20 DUP3 ADD SWAP1 POP DUP2 DUP2 SUB PUSH0 DUP4 ADD MSTORE PUSH2 0x278C DUP2 DUP5 PUSH2 0x273C JUMP JUMPDEST SWAP1 POP SWAP3 SWAP2 POP POP JUMP JUMPDEST PUSH0 PUSH1 0x40 MLOAD SWAP1 POP SWAP1 JUMP JUMPDEST PUSH0 DUP1 REVERT JUMPDEST PUSH0 DUP1 REVERT JUMPDEST PUSH0 PUSH20 0xFFFFFFFFFFFFFFFFFFFFFFFFFFFFFFFFFFFFFFFF DUP3 AND SWAP1 POP SWAP2 SWAP1 POP JUMP JUMPDEST PUSH0 PUSH2 0x27CE DUP3 PUSH2 0x27A5 JUMP JUMPDEST SWAP1 POP SWAP2 SWAP1 POP JUMP JUMPDEST PUSH2 0x27DE DUP2 PUSH2 0x27C4 JUMP JUMPDEST DUP2 EQ PUSH2 0x27E8 JUMPI PUSH0 DUP1 REVERT JUMPDEST POP JUMP JUMPDEST PUSH0 DUP2 CALLDATALOAD SWAP1 POP PUSH2 0x27F9 DUP2 PUSH2 0x27D5 JUMP JUMPDEST SWAP3 SWAP2 POP POP JUMP JUMPDEST PUSH0 DUP2 SWAP1 POP SWAP2 SWAP1 POP JUMP JUMPDEST PUSH2 0x2811 DUP2 PUSH2 0x27FF JUMP JUMPDEST DUP2 EQ PUSH2 0x281B JUMPI PUSH0 DUP1 REVERT JUMPDEST POP JUMP JUMPDEST PUSH0 DUP2 CALLDATALOAD SWAP1 POP PUSH2 0x282C DUP2 PUSH2 0x2808 JUMP JUMPDEST SWAP3 SWAP2 POP POP JUMP JUMPDEST PUSH0 DUP1 PUSH1 0x40 DUP4 DUP6 SUB SLT ISZERO PUSH2 0x2848 JUMPI PUSH2 0x2847 PUSH2 0x279D JUMP JUMPDEST JUMPDEST PUSH0 PUSH2 0x2855 DUP6 DUP3 DUP7 ADD PUSH2 0x27EB JUMP JUMPDEST SWAP3 POP POP PUSH1 0x20 PUSH2 0x2866 DUP6 DUP3 DUP7 ADD PUSH2 0x281E JUMP JUMPDEST SWAP2 POP POP SWAP3 POP SWAP3 SWAP1 POP JUMP JUMPDEST PUSH0 DUP2 ISZERO ISZERO SWAP1 POP SWAP2 SWAP1 POP JUMP JUMPDEST PUSH2 0x2884 DUP2 PUSH2 0x2870 JUMP JUMPDEST DUP3 MSTORE POP POP JUMP JUMPDEST PUSH0 PUSH1 0x20 DUP3 ADD SWAP1 POP PUSH2 0x289D PUSH0 DUP4 ADD DUP5 PUSH2 0x287B JUMP JUMPDEST SWAP3 SWAP2 POP POP JUMP JUMPDEST PUSH0 PUSH1 0x20 DUP3 DUP5 SUB SLT ISZERO PUSH2 0x28B8 JUMPI PUSH2 0x28B7 PUSH2 0x279D JUMP JUMPDEST JUMPDEST PUSH0 PUSH2 0x28C5 DUP5 DUP3 DUP6 ADD PUSH2 0x281E JUMP JUMPDEST SWAP2 POP POP SWAP3 SWAP2 POP POP JUMP JUMPDEST PUSH2 0x28D7 DUP2 PUSH2 0x27FF JUMP JUMPDEST DUP3 MSTORE POP POP JUMP JUMPDEST PUSH0 PUSH1 0x20 DUP3 ADD SWAP1 POP PUSH2 0x28F0 PUSH0 DUP4 ADD DUP5 PUSH2 0x28CE JUMP JUMPDEST SWAP3 SWAP2 POP POP JUMP JUMPDEST PUSH0 PUSH1 0x20 DUP3 DUP5 SUB SLT ISZERO PUSH2 0x290B JUMPI PUSH2 0x290A PUSH2 0x279D JUMP JUMPDEST JUMPDEST PUSH0 PUSH2 0x2918 DUP5 DUP3 DUP6 ADD PUSH2 0x27EB JUMP JUMPDEST SWAP2 POP POP SWAP3 SWAP2 POP POP JUMP JUMPDEST PUSH0 DUP1 PUSH0 PUSH1 0x60 DUP5 DUP7 SUB SLT ISZERO PUSH2 0x2938 JUMPI PUSH2 0x2937 PUSH2 0x279D JUMP JUMPDEST JUMPDEST PUSH0 PUSH2 0x2945 DUP7 DUP3 DUP8 ADD PUSH2 0x27EB JUMP JUMPDEST SWAP4 POP POP PUSH1 0x20 PUSH2 0x2956 DUP7 DUP3 DUP8 ADD PUSH2 0x27EB JUMP JUMPDEST SWAP3 POP POP PUSH1 0x40 PUSH2 0x2967 DUP7 DUP3 DUP8 ADD PUSH2 0x281E JUMP JUMPDEST SWAP2 POP POP SWAP3 POP SWAP3 POP SWAP3 JUMP JUMPDEST PUSH0 PUSH1 0xFF DUP3 AND SWAP1 POP SWAP2 SWAP1 POP JUMP JUMPDEST PUSH2 0x2986 DUP2 PUSH2 0x2971 JUMP JUMPDEST DUP3 MSTORE POP POP JUMP JUMPDEST PUSH0 PUSH1 0x20 DUP3 ADD SWAP1 POP PUSH2 0x299F PUSH0 DUP4 ADD DUP5 PUSH2 0x297D JUMP JUMPDEST SWAP3 SWAP2 POP POP JUMP JUMPDEST PUSH2 0x29AE DUP2 PUSH2 0x27C4 JUMP JUMPDEST DUP3 MSTORE POP POP JUMP JUMPDEST PUSH0 PUSH1 0x20 DUP3 ADD SWAP1 POP PUSH2 0x29C7 PUSH0 DUP4 ADD DUP5 PUSH2 0x29A5 JUMP JUMPDEST SWAP3 SWAP2 POP POP JUMP JUMPDEST PUSH0 DUP1 REVERT JUMPDEST PUSH32 0x4E487B7100000000000000000000000000000000000000000000000000000000 PUSH0 MSTORE PUSH1 0x41 PUSH1 0x4 MSTORE PUSH1 0x24 PUSH0 REVERT JUMPDEST PUSH2 0x2A07 DUP3 PUSH2 0x272C JUMP JUMPDEST DUP2 ADD DUP2 DUP2 LT PUSH8 0xFFFFFFFFFFFFFFFF DUP3 GT OR ISZERO PUSH2 0x2A26 JUMPI PUSH2 0x2A25 PUSH2 0x29D1 JUMP JUMPDEST JUMPDEST DUP1 PUSH1 0x40 MSTORE POP POP POP JUMP JUMPDEST PUSH0 PUSH2 0x2A38 PUSH2 0x2794 JUMP JUMPDEST SWAP1 POP PUSH2 0x2A44 DUP3 DUP3 PUSH2 0x29FE JUMP JUMPDEST SWAP2 SWAP1 POP JUMP JUMPDEST PUSH0 PUSH8 0xFFFFFFFFFFFFFFFF DUP3 GT ISZERO PUSH2 0x2A63 JUMPI PUSH2 0x2A62 PUSH2 0x29D1 JUMP JUMPDEST JUMPDEST PUSH1 0x20 DUP3 MUL SWAP1 POP SWAP2 SWAP1 POP JUMP JUMPDEST PUSH0 DUP1 REVERT JUMPDEST PUSH0 PUSH2 0x2A84 PUSH2 0x2A7F DUP5 PUSH2 0x2A49 JUMP JUMPDEST PUSH2 0x2A2F JUMP JUMPDEST SWAP1 POP DUP1 PUSH1 0x20 DUP5 MUL DUP4 ADD DUP6 DUP2 GT ISZERO PUSH2 0x2A9E JUMPI PUSH2 0x2A9D PUSH2 0x2A6E JUMP JUMPDEST JUMPDEST DUP4 JUMPDEST DUP2 DUP2 LT ISZERO PUSH2 0x2AC7 JUMPI DUP1 PUSH2 0x2AB3 DUP9 DUP3 PUSH2 0x281E JUMP JUMPDEST DUP5 MSTORE PUSH1 0x20 DUP5 ADD SWAP4 POP POP PUSH1 0x20 DUP2 ADD SWAP1 POP PUSH2 0x2AA0 JUMP JUMPDEST POP POP POP SWAP4 SWAP3 POP POP POP JUMP JUMPDEST PUSH0 DUP3 PUSH1 0x1F DUP4 ADD SLT PUSH2 0x2AE5 JUMPI PUSH2 0x2AE4 PUSH2 0x29CD JUMP JUMPDEST JUMPDEST PUSH1 0x5 PUSH2 0x2AF2 DUP5 DUP3 DUP6 PUSH2 0x2A72 JUMP JUMPDEST SWAP2 POP POP SWAP3 SWAP2 POP POP JUMP JUMPDEST PUSH0 DUP1 PUSH2 0x140 DUP4 DUP6 SUB SLT ISZERO PUSH2 0x2B12 JUMPI PUSH2 0x2B11 PUSH2 0x279D JUMP JUMPDEST JUMPDEST PUSH0 PUSH2 0x2B1F DUP6 DUP3 DUP7 ADD PUSH2 0x2AD1 JUMP JUMPDEST SWAP3 POP POP PUSH1 0xA0 PUSH2 0x2B30 DUP6 DUP3 DUP7 ADD PUSH2 0x2AD1 JUMP JUMPDEST SWAP2 POP POP SWAP3 POP SWAP3 SWAP1 POP JUMP JUMPDEST PUSH2 0x2B43 DUP2 PUSH2 0x2870 JUMP JUMPDEST DUP2 EQ PUSH2 0x2B4D JUMPI PUSH0 DUP1 REVERT JUMPDEST POP JUMP JUMPDEST PUSH0 DUP2 CALLDATALOAD SWAP1 POP PUSH2 0x2B5E DUP2 PUSH2 0x2B3A JUMP JUMPDEST SWAP3 SWAP2 POP POP JUMP JUMPDEST PUSH0 DUP1 PUSH1 0x40 DUP4 DUP6 SUB SLT ISZERO PUSH2 0x2B7A JUMPI PUSH2 0x2B79 PUSH2 0x279D JUMP JUMPDEST JUMPDEST PUSH0 PUSH2 0x2B87 DUP6 DUP3 DUP7 ADD PUSH2 0x27EB JUMP JUMPDEST SWAP3 POP POP PUSH1 0x20 PUSH2 0x2B98 DUP6 DUP3 DUP7 ADD PUSH2 0x2B50 JUMP JUMPDEST SWAP2 POP POP SWAP3 POP SWAP3 SWAP1 POP JUMP JUMPDEST PUSH0 DUP1 REVERT JUMPDEST PUSH0 PUSH8 0xFFFFFFFFFFFFFFFF DUP3 GT ISZERO PUSH2 0x2BC0 JUMPI PUSH2 0x2BBF PUSH2 0x29D1 JUMP JUMPDEST JUMPDEST PUSH2 0x2BC9 DUP3 PUSH2 0x272C JUMP JUMPDEST SWAP1 POP PUSH1 0x20 DUP2 ADD SWAP1 POP SWAP2 SWAP1 POP JUMP JUMPDEST DUP3 DUP2 DUP4 CALLDATACOPY PUSH0 DUP4 DUP4 ADD MSTORE POP POP POP JUMP JUMPDEST PUSH0 PUSH2 0x2BF6 PUSH2 0x2BF1 DUP5 PUSH2 0x2BA6 JUMP JUMPDEST PUSH2 0x2A2F JUMP JUMPDEST SWAP1 POP DUP3 DUP2 MSTORE PUSH1 0x20 DUP2 ADD DUP5 DUP5 DUP5 ADD GT ISZERO PUSH2 0x2C12 JUMPI PUSH2 0x2C11 PUSH2 0x2BA2 JUMP JUMPDEST JUMPDEST PUSH2 0x2C1D DUP5 DUP3 DUP6 PUSH2 0x2BD6 JUMP JUMPDEST POP SWAP4 SWAP3 POP POP POP JUMP JUMPDEST PUSH0 DUP3 PUSH1 0x1F DUP4 ADD SLT PUSH2 0x2C39 JUMPI PUSH2 0x2C38 PUSH2 0x29CD JUMP JUMPDEST JUMPDEST DUP2 CALLDATALOAD PUSH2 0x2C49 DUP5 DUP3 PUSH1 0x20 DUP7 ADD PUSH2 0x2BE4 JUMP JUMPDEST SWAP2 POP POP SWAP3 SWAP2 POP POP JUMP JUMPDEST PUSH0 DUP1 PUSH0 DUP1 PUSH0 PUSH1 0xA0 DUP7 DUP9 SUB SLT ISZERO PUSH2 0x2C6B JUMPI PUSH2 0x2C6A PUSH2 0x279D JUMP JUMPDEST JUMPDEST PUSH0 DUP7 ADD CALLDATALOAD PUSH8 0xFFFFFFFFFFFFFFFF DUP2 GT ISZERO PUSH2 0x2C88 JUMPI PUSH2 0x2C87 PUSH2 0x27A1 JUMP JUMPDEST JUMPDEST PUSH2 0x2C94 DUP9 DUP3 DUP10 ADD PUSH2 0x2C25 JUMP JUMPDEST SWAP6 POP POP PUSH1 0x20 DUP7 ADD CALLDATALOAD PUSH8 0xFFFFFFFFFFFFFFFF DUP2 GT ISZERO PUSH2 0x2CB5 JUMPI PUSH2 0x2CB4 PUSH2 0x27A1 JUMP JUMPDEST JUMPDEST PUSH2 0x2CC1 DUP9 DUP3 DUP10 ADD PUSH2 0x2C25 JUMP JUMPDEST SWAP5 POP POP PUSH1 0x40 PUSH2 0x2CD2 DUP9 DUP3 DUP10 ADD PUSH2 0x27EB JUMP JUMPDEST SWAP4 POP POP PUSH1 0x60 PUSH2 0x2CE3 DUP9 DUP3 DUP10 ADD PUSH2 0x27EB JUMP JUMPDEST SWAP3 POP POP PUSH1 0x80 PUSH2 0x2CF4 DUP9 DUP3 DUP10 ADD PUSH2 0x27EB JUMP JUMPDEST SWAP2 POP POP SWAP3 SWAP6 POP SWAP3 SWAP6 SWAP1 SWAP4 POP JUMP JUMPDEST PUSH0 DUP1 PUSH1 0x40 DUP4 DUP6 SUB SLT ISZERO PUSH2 0x2D17 JUMPI PUSH2 0x2D16 PUSH2 0x279D JUMP JUMPDEST JUMPDEST PUSH0 PUSH2 0x2D24 DUP6 DUP3 DUP7 ADD PUSH2 0x27EB JUMP JUMPDEST SWAP3 POP POP PUSH1 0x20 PUSH2 0x2D35 DUP6 DUP3 DUP7 ADD PUSH2 0x27EB JUMP JUMPDEST SWAP2 POP POP SWAP3 POP SWAP3 SWAP1 POP JUMP JUMPDEST PUSH0 DUP1 PUSH0 PUSH1 0x60 DUP5 DUP7 SUB SLT ISZERO PUSH2 0x2D56 JUMPI PUSH2 0x2D55 PUSH2 0x279D JUMP JUMPDEST JUMPDEST PUSH0 PUSH2 0x2D63 DUP7 DUP3 DUP8 ADD PUSH2 0x27EB JUMP JUMPDEST SWAP4 POP POP PUSH1 0x20 PUSH2 0x2D74 DUP7 DUP3 DUP8 ADD PUSH2 0x2B50 JUMP JUMPDEST SWAP3 POP POP PUSH1 0x40 PUSH2 0x2D85 DUP7 DUP3 DUP8 ADD PUSH2 0x2B50 JUMP JUMPDEST SWAP2 POP POP SWAP3 POP SWAP3 POP SWAP3 JUMP JUMPDEST PUSH32 0x4E487B7100000000000000000000000000000000000000000000000000000000 PUSH0 MSTORE PUSH1 0x22 PUSH1 0x4 MSTORE PUSH1 0x24 PUSH0 REVERT JUMPDEST PUSH0 PUSH1 0x2 DUP3 DIV SWAP1 POP PUSH1 0x1 DUP3 AND DUP1 PUSH2 0x2DD3 JUMPI PUSH1 0x7F DUP3 AND SWAP2 POP JUMPDEST PUSH1 0x20 DUP3 LT DUP2 SUB PUSH2 0x2DE6 JUMPI PUSH2 0x2DE5 PUSH2 0x2D8F JUMP JUMPDEST JUMPDEST POP SWAP2 SWAP1 POP JUMP JUMPDEST PUSH32 0x474946543A204E65772061646D696E2063616E6E6F7420626520746865207A65 PUSH0 DUP3 ADD MSTORE PUSH32 0x726F206164647265737300000000000000000000000000000000000000000000 PUSH1 0x20 DUP3 ADD MSTORE POP JUMP JUMPDEST PUSH0 PUSH2 0x2E46 PUSH1 0x2A DUP4 PUSH2 0x26F4 JUMP JUMPDEST SWAP2 POP PUSH2 0x2E51 DUP3 PUSH2 0x2DEC JUMP JUMPDEST PUSH1 0x40 DUP3 ADD SWAP1 POP SWAP2 SWAP1 POP JUMP JUMPDEST PUSH0 PUSH1 0x20 DUP3 ADD SWAP1 POP DUP2 DUP2 SUB PUSH0 DUP4 ADD MSTORE PUSH2 0x2E73 DUP2 PUSH2 0x2E3A JUMP JUMPDEST SWAP1 POP SWAP2 SWAP1 POP JUMP JUMPDEST PUSH32 0x474946543A207472616E7366657220616D6F756E74206578636565647320616C PUSH0 DUP3 ADD MSTORE PUSH32 0x6C6F77616E636500000000000000000000000000000000000000000000000000 PUSH1 0x20 DUP3 ADD MSTORE POP JUMP JUMPDEST PUSH0 PUSH2 0x2ED4 PUSH1 0x27 DUP4 PUSH2 0x26F4 JUMP JUMPDEST SWAP2 POP PUSH2 0x2EDF DUP3 PUSH2 0x2E7A JUMP JUMPDEST PUSH1 0x40 DUP3 ADD SWAP1 POP SWAP2 SWAP1 POP JUMP JUMPDEST PUSH0 PUSH1 0x20 DUP3 ADD SWAP1 POP DUP2 DUP2 SUB PUSH0 DUP4 ADD MSTORE PUSH2 0x2F01 DUP2 PUSH2 0x2EC8 JUMP JUMPDEST SWAP1 POP SWAP2 SWAP1 POP JUMP JUMPDEST PUSH32 0x474946543A2063616C6C6572206973206E6F742074686520737570706C79436F PUSH0 DUP3 ADD MSTORE PUSH32 0x6E74726F6C6C6572000000000000000000000000000000000000000000000000 PUSH1 0x20 DUP3 ADD MSTORE POP JUMP JUMPDEST PUSH0 PUSH2 0x2F62 PUSH1 0x28 DUP4 PUSH2 0x26F4 JUMP JUMPDEST SWAP2 POP PUSH2 0x2F6D DUP3 PUSH2 0x2F08 JUMP JUMPDEST PUSH1 0x40 DUP3 ADD SWAP1 POP SWAP2 SWAP1 POP JUMP JUMPDEST PUSH0 PUSH1 0x20 DUP3 ADD SWAP1 POP DUP2 DUP2 SUB PUSH0 DUP4 ADD MSTORE PUSH2 0x2F8F DUP2 PUSH2 0x2F56 JUMP JUMPDEST SWAP1 POP SWAP2 SWAP1 POP JUMP JUMPDEST PUSH32 0x4E487B7100000000000000000000000000000000000000000000000000000000 PUSH0 MSTORE PUSH1 0x32 PUSH1 0x4 MSTORE PUSH1 0x24 PUSH0 REVERT JUMPDEST PUSH32 0x474946543A204C6173742074696572206D757374206265206D61780000000000 PUSH0 DUP3 ADD MSTORE POP JUMP JUMPDEST PUSH0 PUSH2 0x2FF7 PUSH1 0x1B DUP4 PUSH2 0x26F4 JUMP JUMPDEST SWAP2 POP PUSH2 0x3002 DUP3 PUSH2 0x2FC3 JUMP JUMPDEST PUSH1 0x20 DUP3 ADD SWAP1 POP SWAP2 SWAP1 POP JUMP JUMPDEST PUSH0 PUSH1 0x20 DUP3 ADD SWAP1 POP DUP2 DUP2 SUB PUSH0 DUP4 ADD MSTORE PUSH2 0x3024 DUP2 PUSH2 0x2FEB JUMP JUMPDEST SWAP1 POP SWAP2 SWAP1 POP JUMP JUMPDEST PUSH32 0x474946543A205461782070657263656E7461676520746F6F2068696768000000 PUSH0 DUP3 ADD MSTORE POP JUMP JUMPDEST PUSH0 PUSH2 0x305F PUSH1 0x1D DUP4 PUSH2 0x26F4 JUMP JUMPDEST SWAP2 POP PUSH2 0x306A DUP3 PUSH2 0x302B JUMP JUMPDEST PUSH1 0x20 DUP3 ADD SWAP1 POP SWAP2 SWAP1 POP JUMP JUMPDEST PUSH0 PUSH1 0x20 DUP3 ADD SWAP1 POP DUP2 DUP2 SUB PUSH0 DUP4 ADD MSTORE PUSH2 0x308C DUP2 PUSH2 0x3053 JUMP JUMPDEST SWAP1 POP SWAP2 SWAP1 POP JUMP JUMPDEST PUSH32 0x4E487B7100000000000000000000000000000000000000000000000000000000 PUSH0 MSTORE PUSH1 0x11 PUSH1 0x4 MSTORE PUSH1 0x24 PUSH0 REVERT JUMPDEST PUSH0 PUSH2 0x30CA DUP3 PUSH2 0x27FF JUMP JUMPDEST SWAP2 POP PUSH2 0x30D5 DUP4 PUSH2 0x27FF JUMP JUMPDEST SWAP3 POP DUP3 DUP3 SUB SWAP1 POP DUP2 DUP2 GT ISZERO PUSH2 0x30ED JUMPI PUSH2 0x30EC PUSH2 0x3093 JUMP JUMPDEST JUMPDEST SWAP3 SWAP2 POP POP JUMP JUMPDEST PUSH32 0x474946543A205469657273206D75737420626520696E20617363656E64696E67 PUSH0 DUP3 ADD MSTORE PUSH32 0x206F726465720000000000000000000000000000000000000000000000000000 PUSH1 0x20 DUP3 ADD MSTORE POP JUMP JUMPDEST PUSH0 PUSH2 0x314D PUSH1 0x26 DUP4 PUSH2 0x26F4 JUMP JUMPDEST SWAP2 POP PUSH2 0x3158 DUP3 PUSH2 0x30F3 JUMP JUMPDEST PUSH1 0x40 DUP3 ADD SWAP1 POP SWAP2 SWAP1 POP JUMP JUMPDEST PUSH0 PUSH1 0x20 DUP3 ADD SWAP1 POP DUP2 DUP2 SUB PUSH0 DUP4 ADD MSTORE PUSH2 0x317A DUP2 PUSH2 0x3141 JUMP JUMPDEST SWAP1 POP SWAP2 SWAP1 POP JUMP JUMPDEST PUSH0 PUSH2 0x318B DUP3 PUSH2 0x27FF JUMP JUMPDEST SWAP2 POP PUSH32 0xFFFFFFFFFFFFFFFFFFFFFFFFFFFFFFFFFFFFFFFFFFFFFFFFFFFFFFFFFFFFFFFF DUP3 SUB PUSH2 0x31BD JUMPI PUSH2 0x31BC PUSH2 0x3093 JUMP JUMPDEST JUMPDEST PUSH1 0x1 DUP3 ADD SWAP1 POP SWAP2 SWAP1 POP JUMP JUMPDEST PUSH0 PUSH1 0x5 SWAP1 POP SWAP2 SWAP1 POP JUMP JUMPDEST PUSH0 DUP2 SWAP1 POP SWAP3 SWAP2 POP POP JUMP JUMPDEST PUSH0 DUP2 SWAP1 POP SWAP2 SWAP1 POP JUMP JUMPDEST PUSH2 0x31EE DUP2 PUSH2 0x27FF JUMP JUMPDEST DUP3 MSTORE POP POP JUMP JUMPDEST PUSH0 PUSH2 0x31FF DUP4 DUP4 PUSH2 0x31E5 JUMP JUMPDEST PUSH1 0x20 DUP4 ADD SWAP1 POP SWAP3 SWAP2 POP POP JUMP JUMPDEST PUSH0 PUSH1 0x20 DUP3 ADD SWAP1 POP SWAP2 SWAP1 POP JUMP JUMPDEST PUSH2 0x3220 DUP2 PUSH2 0x31C8 JUMP JUMPDEST PUSH2 0x322A DUP2 DUP5 PUSH2 0x31D2 JUMP JUMPDEST SWAP3 POP PUSH2 0x3235 DUP3 PUSH2 0x31DC JUMP JUMPDEST DUP1 PUSH0 JUMPDEST DUP4 DUP2 LT ISZERO PUSH2 0x3265 JUMPI DUP2 MLOAD PUSH2 0x324C DUP8 DUP3 PUSH2 0x31F4 JUMP JUMPDEST SWAP7 POP PUSH2 0x3257 DUP4 PUSH2 0x320B JUMP JUMPDEST SWAP3 POP POP PUSH1 0x1 DUP2 ADD SWAP1 POP PUSH2 0x3238 JUMP JUMPDEST POP POP POP POP POP POP JUMP JUMPDEST PUSH0 PUSH2 0x140 DUP3 ADD SWAP1 POP PUSH2 0x3281 PUSH0 DUP4 ADD DUP6 PUSH2 0x3217 JUMP JUMPDEST PUSH2 0x328E PUSH1 0xA0 DUP4 ADD DUP5 PUSH2 0x3217 JUMP JUMPDEST SWAP4 SWAP3 POP POP POP JUMP JUMPDEST PUSH32 0x474946543A206275726E20616D6F756E74206578636565647320616C6C6F7761 PUSH0 DUP3 ADD MSTORE PUSH32 0x6E63650000000000000000000000000000000000000000000000000000000000 PUSH1 0x20 DUP3 ADD MSTORE POP JUMP JUMPDEST PUSH0 PUSH2 0x32EF PUSH1 0x23 DUP4 PUSH2 0x26F4 JUMP JUMPDEST SWAP2 POP PUSH2 0x32FA DUP3 PUSH2 0x3295 JUMP JUMPDEST PUSH1 0x40 DUP3 ADD SWAP1 POP SWAP2 SWAP1 POP JUMP JUMPDEST PUSH0 PUSH1 0x20 DUP3 ADD SWAP1 POP DUP2 DUP2 SUB PUSH0 DUP4 ADD MSTORE PUSH2 0x331C DUP2 PUSH2 0x32E3 JUMP JUMPDEST SWAP1 POP SWAP2 SWAP1 POP JUMP JUMPDEST PUSH0 DUP2 SWAP1 POP SWAP2 SWAP1 POP JUMP JUMPDEST PUSH0 PUSH8 0xFFFFFFFFFFFFFFFF DUP3 AND SWAP1 POP SWAP2 SWAP1 POP JUMP JUMPDEST PUSH0 DUP2 SWAP1 POP SWAP2 SWAP1 POP JUMP JUMPDEST PUSH0 PUSH2 0x3362 PUSH2 0x335D PUSH2 0x3358 DUP5 PUSH2 0x3323 JUMP JUMPDEST PUSH2 0x333F JUMP JUMPDEST PUSH2 0x332C JUMP JUMPDEST SWAP1 POP SWAP2 SWAP1 POP JUMP JUMPDEST PUSH2 0x3372 DUP2 PUSH2 0x3348 JUMP JUMPDEST DUP3 MSTORE POP POP JUMP JUMPDEST PUSH0 PUSH1 0x20 DUP3 ADD SWAP1 POP PUSH2 0x338B PUSH0 DUP4 ADD DUP5 PUSH2 0x3369 JUMP JUMPDEST SWAP3 SWAP2 POP POP JUMP JUMPDEST PUSH0 PUSH1 0x40 DUP3 ADD SWAP1 POP PUSH2 0x33A4 PUSH0 DUP4 ADD DUP6 PUSH2 0x287B JUMP JUMPDEST PUSH2 0x33B1 PUSH1 0x20 DUP4 ADD DUP5 PUSH2 0x287B JUMP JUMPDEST SWAP4 SWAP3 POP POP POP JUMP JUMPDEST PUSH32 0x5061757361626C653A2070617573656400000000000000000000000000000000 PUSH0 DUP3 ADD MSTORE POP JUMP JUMPDEST PUSH0 PUSH2 0x33EC PUSH1 0x10 DUP4 PUSH2 0x26F4 JUMP JUMPDEST SWAP2 POP PUSH2 0x33F7 DUP3 PUSH2 0x33B8 JUMP JUMPDEST PUSH1 0x20 DUP3 ADD SWAP1 POP SWAP2 SWAP1 POP JUMP JUMPDEST PUSH0 PUSH1 0x20 DUP3 ADD SWAP1 POP DUP2 DUP2 SUB PUSH0 DUP4 ADD MSTORE PUSH2 0x3419 DUP2 PUSH2 0x33E0 JUMP JUMPDEST SWAP1 POP SWAP2 SWAP1 POP JUMP JUMPDEST PUSH0 PUSH2 0x342A DUP3 PUSH2 0x27FF JUMP JUMPDEST SWAP2 POP PUSH2 0x3435 DUP4 PUSH2 0x27FF JUMP JUMPDEST SWAP3 POP DUP3 DUP3 ADD SWAP1 POP DUP1 DUP3 GT ISZERO PUSH2 0x344D JUMPI PUSH2 0x344C PUSH2 0x3093 JUMP JUMPDEST JUMPDEST SWAP3 SWAP2 POP POP JUMP JUMPDEST PUSH0 DUP2 MLOAD SWAP1 POP SWAP2 SWAP1 POP JUMP JUMPDEST PUSH0 DUP2 SWAP1 POP SWAP3 SWAP2 POP POP JUMP JUMPDEST PUSH0 PUSH2 0x3471 DUP3 PUSH2 0x3453 JUMP JUMPDEST PUSH2 0x347B DUP2 DUP6 PUSH2 0x345D JUMP JUMPDEST SWAP4 POP PUSH2 0x348B DUP2 DUP6 PUSH1 0x20 DUP7 ADD PUSH2 0x2704 JUMP JUMPDEST DUP1 DUP5 ADD SWAP2 POP POP SWAP3 SWAP2 POP POP JUMP JUMPDEST PUSH0 PUSH2 0x34A2 DUP3 DUP5 PUSH2 0x3467 JUMP JUMPDEST SWAP2 POP DUP2 SWAP1 POP SWAP3 SWAP2 POP POP JUMP JUMPDEST PUSH32 0x474946543A204661696C656420746F20636865636B2072657365727665730000 PUSH0 DUP3 ADD MSTORE POP JUMP JUMPDEST PUSH0 PUSH2 0x34E1 PUSH1 0x1E DUP4 PUSH2 0x26F4 JUMP JUMPDEST SWAP2 POP PUSH2 0x34EC DUP3 PUSH2 0x34AD JUMP JUMPDEST PUSH1 0x20 DUP3 ADD SWAP1 POP SWAP2 SWAP1 POP JUMP JUMPDEST PUSH0 PUSH1 0x20 DUP3 ADD SWAP1 POP DUP2 DUP2 SUB PUSH0 DUP4 ADD MSTORE PUSH2 0x350E DUP2 PUSH2 0x34D5 JUMP JUMPDEST SWAP1 POP SWAP2 SWAP1 POP JUMP JUMPDEST PUSH0 DUP2 MLOAD SWAP1 POP PUSH2 0x3523 DUP2 PUSH2 0x2808 JUMP JUMPDEST SWAP3 SWAP2 POP POP JUMP JUMPDEST PUSH0 PUSH1 0x20 DUP3 DUP5 SUB SLT ISZERO PUSH2 0x353E JUMPI PUSH2 0x353D PUSH2 0x279D JUMP JUMPDEST JUMPDEST PUSH0 PUSH2 0x354B DUP5 DUP3 DUP6 ADD PUSH2 0x3515 JUMP JUMPDEST SWAP2 POP POP SWAP3 SWAP2 POP POP JUMP JUMPDEST PUSH32 0x474946543A20496E73756666696369656E742072657365727665730000000000 PUSH0 DUP3 ADD MSTORE POP JUMP JUMPDEST PUSH0 PUSH2 0x3588 PUSH1 0x1B DUP4 PUSH2 0x26F4 JUMP JUMPDEST SWAP2 POP PUSH2 0x3593 DUP3 PUSH2 0x3554 JUMP JUMPDEST PUSH1 0x20 DUP3 ADD SWAP1 POP SWAP2 SWAP1 POP JUMP JUMPDEST PUSH0 PUSH1 0x20 DUP3 ADD SWAP1 POP DUP2 DUP2 SUB PUSH0 DUP4 ADD MSTORE PUSH2 0x35B5 DUP2 PUSH2 0x357C JUMP JUMPDEST SWAP1 POP SWAP2 SWAP1 POP JUMP JUMPDEST PUSH32 0x474946543A20496E76616C696420616D6F756E74000000000000000000000000 PUSH0 DUP3 ADD MSTORE POP JUMP JUMPDEST PUSH0 PUSH2 0x35F0 PUSH1 0x14 DUP4 PUSH2 0x26F4 JUMP JUMPDEST SWAP2 POP PUSH2 0x35FB DUP3 PUSH2 0x35BC JUMP JUMPDEST PUSH1 0x20 DUP3 ADD SWAP1 POP SWAP2 SWAP1 POP JUMP JUMPDEST PUSH0 PUSH1 0x20 DUP3 ADD SWAP1 POP DUP2 DUP2 SUB PUSH0 DUP4 ADD MSTORE PUSH2 0x361D DUP2 PUSH2 0x35E4 JUMP JUMPDEST SWAP1 POP SWAP2 SWAP1 POP JUMP JUMPDEST PUSH32 0x5061757361626C653A206E6F7420706175736564000000000000000000000000 PUSH0 DUP3 ADD MSTORE POP JUMP JUMPDEST PUSH0 PUSH2 0x3658 PUSH1 0x14 DUP4 PUSH2 0x26F4 JUMP JUMPDEST SWAP2 POP PUSH2 0x3663 DUP3 PUSH2 0x3624 JUMP JUMPDEST PUSH1 0x20 DUP3 ADD SWAP1 POP SWAP2 SWAP1 POP JUMP JUMPDEST PUSH0 PUSH1 0x20 DUP3 ADD SWAP1 POP DUP2 DUP2 SUB PUSH0 DUP4 ADD MSTORE PUSH2 0x3685 DUP2 PUSH2 0x364C JUMP JUMPDEST SWAP1 POP SWAP2 SWAP1 POP JUMP JUMPDEST PUSH0 PUSH1 0x60 DUP3 ADD SWAP1 POP PUSH2 0x369F PUSH0 DUP4 ADD DUP7 PUSH2 0x29A5 JUMP JUMPDEST PUSH2 0x36AC PUSH1 0x20 DUP4 ADD DUP6 PUSH2 0x28CE JUMP JUMPDEST PUSH2 0x36B9 PUSH1 0x40 DUP4 ADD DUP5 PUSH2 0x28CE JUMP JUMPDEST SWAP5 SWAP4 POP POP POP POP JUMP JUMPDEST PUSH0 DUP2 SWAP1 POP DUP2 PUSH0 MSTORE PUSH1 0x20 PUSH0 KECCAK256 SWAP1 POP SWAP2 SWAP1 POP JUMP JUMPDEST PUSH0 PUSH1 0x20 PUSH1 0x1F DUP4 ADD DIV SWAP1 POP SWAP2 SWAP1 POP JUMP JUMPDEST PUSH0 DUP3 DUP3 SHL SWAP1 POP SWAP3 SWAP2 POP POP JUMP JUMPDEST PUSH0 PUSH1 0x8 DUP4 MUL PUSH2 0x371D PUSH32 0xFFFFFFFFFFFFFFFFFFFFFFFFFFFFFFFFFFFFFFFFFFFFFFFFFFFFFFFFFFFFFFFF DUP3 PUSH2 0x36E2 JUMP JUMPDEST PUSH2 0x3727 DUP7 DUP4 PUSH2 0x36E2 JUMP JUMPDEST SWAP6 POP DUP1 NOT DUP5 AND SWAP4 POP DUP1 DUP7 AND DUP5 OR SWAP3 POP POP POP SWAP4 SWAP3 POP POP POP JUMP JUMPDEST PUSH0 PUSH2 0x3759 PUSH2 0x3754 PUSH2 0x374F DUP5 PUSH2 0x27FF JUMP JUMPDEST PUSH2 0x333F JUMP JUMPDEST PUSH2 0x27FF JUMP JUMPDEST SWAP1 POP SWAP2 SWAP1 POP JUMP JUMPDEST PUSH0 DUP2 SWAP1 POP SWAP2 SWAP1 POP JUMP JUMPDEST PUSH2 0x3772 DUP4 PUSH2 0x373F JUMP JUMPDEST PUSH2 0x3786 PUSH2 0x377E DUP3 PUSH2 0x3760 JUMP JUMPDEST DUP5 DUP5 SLOAD PUSH2 0x36EE JUMP JUMPDEST DUP3 SSTORE POP POP POP POP JUMP JUMPDEST PUSH0 SWAP1 JUMP JUMPDEST PUSH2 0x379A PUSH2 0x378E JUMP JUMPDEST PUSH2 0x37A5 DUP2 DUP5 DUP5 PUSH2 0x3769 JUMP JUMPDEST POP POP POP JUMP JUMPDEST JUMPDEST DUP2 DUP2 LT ISZERO PUSH2 0x37C8 JUMPI PUSH2 0x37BD PUSH0 DUP3 PUSH2 0x3792 JUMP JUMPDEST PUSH1 0x1 DUP2 ADD SWAP1 POP PUSH2 0x37AB JUMP JUMPDEST POP POP JUMP JUMPDEST PUSH1 0x1F DUP3 GT ISZERO PUSH2 0x380D JUMPI PUSH2 0x37DE DUP2 PUSH2 0x36C1 JUMP JUMPDEST PUSH2 0x37E7 DUP5 PUSH2 0x36D3 JUMP JUMPDEST DUP2 ADD PUSH1 0x20 DUP6 LT ISZERO PUSH2 0x37F6 JUMPI DUP2 SWAP1 POP JUMPDEST PUSH2 0x380A PUSH2 0x3802 DUP6 PUSH2 0x36D3 JUMP JUMPDEST DUP4 ADD DUP3 PUSH2 0x37AA JUMP JUMPDEST POP POP JUMPDEST POP POP POP JUMP JUMPDEST PUSH0 DUP3 DUP3 SHR SWAP1 POP SWAP3 SWAP2 POP POP JUMP JUMPDEST PUSH0 PUSH2 0x382D PUSH0 NOT DUP5 PUSH1 0x8 MUL PUSH2 0x3812 JUMP JUMPDEST NOT DUP1 DUP4 AND SWAP2 POP POP SWAP3 SWAP2 POP POP JUMP JUMPDEST PUSH0 PUSH2 0x3845 DUP4 DUP4 PUSH2 0x381E JUMP JUMPDEST SWAP2 POP DUP3 PUSH1 0x2 MUL DUP3 OR SWAP1 POP SWAP3 SWAP2 POP POP JUMP JUMPDEST PUSH2 0x385E DUP3 PUSH2 0x26EA JUMP JUMPDEST PUSH8 0xFFFFFFFFFFFFFFFF DUP2 GT ISZERO PUSH2 0x3877 JUMPI PUSH2 0x3876 PUSH2 0x29D1 JUMP JUMPDEST JUMPDEST PUSH2 0x3881 DUP3 SLOAD PUSH2 0x2DBC JUMP JUMPDEST PUSH2 0x388C DUP3 DUP3 DUP6 PUSH2 0x37CC JUMP JUMPDEST PUSH0 PUSH1 0x20 SWAP1 POP PUSH1 0x1F DUP4 GT PUSH1 0x1 DUP2 EQ PUSH2 0x38BD JUMPI PUSH0 DUP5 ISZERO PUSH2 0x38AB JUMPI DUP3 DUP8 ADD MLOAD SWAP1 POP JUMPDEST PUSH2 0x38B5 DUP6 DUP3 PUSH2 0x383A JUMP JUMPDEST DUP7 SSTORE POP PUSH2 0x391C JUMP JUMPDEST PUSH1 0x1F NOT DUP5 AND PUSH2 0x38CB DUP7 PUSH2 0x36C1 JUMP JUMPDEST PUSH0 JUMPDEST DUP3 DUP2 LT ISZERO PUSH2 0x38F2 JUMPI DUP5 DUP10 ADD MLOAD DUP3 SSTORE PUSH1 0x1 DUP3 ADD SWAP2 POP PUSH1 0x20 DUP6 ADD SWAP5 POP PUSH1 0x20 DUP2 ADD SWAP1 POP PUSH2 0x38CD JUMP JUMPDEST DUP7 DUP4 LT ISZERO PUSH2 0x390F JUMPI DUP5 DUP10 ADD MLOAD PUSH2 0x390B PUSH1 0x1F DUP10 AND DUP3 PUSH2 0x381E JUMP JUMPDEST DUP4 SSTORE POP JUMPDEST PUSH1 0x1 PUSH1 0x2 DUP9 MUL ADD DUP9 SSTORE POP POP POP JUMPDEST POP POP POP POP POP POP JUMP JUMPDEST PUSH0 PUSH2 0x392E DUP3 PUSH2 0x27FF JUMP JUMPDEST SWAP2 POP PUSH2 0x3939 DUP4 PUSH2 0x27FF JUMP JUMPDEST SWAP3 POP DUP3 DUP3 MUL PUSH2 0x3947 DUP2 PUSH2 0x27FF JUMP JUMPDEST SWAP2 POP DUP3 DUP3 DIV DUP5 EQ DUP4 ISZERO OR PUSH2 0x395E JUMPI PUSH2 0x395D PUSH2 0x3093 JUMP JUMPDEST JUMPDEST POP SWAP3 SWAP2 POP POP JUMP JUMPDEST PUSH32 0x4E487B7100000000000000000000000000000000000000000000000000000000 PUSH0 MSTORE PUSH1 0x12 PUSH1 0x4 MSTORE PUSH1 0x24 PUSH0 REVERT JUMPDEST PUSH0 PUSH2 0x399C DUP3 PUSH2 0x27FF JUMP JUMPDEST SWAP2 POP PUSH2 0x39A7 DUP4 PUSH2 0x27FF JUMP JUMPDEST SWAP3 POP DUP3 PUSH2 0x39B7 JUMPI PUSH2 0x39B6 PUSH2 0x3965 JUMP JUMPDEST JUMPDEST DUP3 DUP3 DIV SWAP1 POP SWAP3 SWAP2 POP POP JUMP INVALID LOG2 PUSH5 0x6970667358 0x22 SLT KECCAK256 0x28 STOP 0x5D STOP 0xB2 0xC8 PUSH29 0x680778B0200CC630739D6EBA3C97893559553EFF21767F5C1364736F6C PUSH4 0x43000814 STOP CALLER "
				},
				"gasEstimates": {
					"creation": {
						"codeDepositCost": "2968000",
						"executionCost": "3253",
						"totalCost": "2971253"
					},
					"external": {
						"MAX_TAX_PERCENTAGE()": "436",
						"allowance(address,address)": "infinite",
						"approve(address,uint256)": "infinite",
						"balanceOf(address)": "2970",
						"beneficiary()": "2554",
						"burn(uint256)": "infinite",
						"burnFrom(address,uint256)": "infinite",
						"decimals()": "472",
						"initialize(string,string,address,address,address)": "infinite",
						"isExcludedFromInboundFees(address)": "2945",
						"isExcludedFromOutboundFees(address)": "2922",
						"isLiquidityPool(address)": "2943",
						"lastReserveCheck()": "2537",
						"mint(address,uint256)": "infinite",
						"name()": "infinite",
						"owner()": "2612",
						"pause()": "infinite",
						"paused()": "2540",
						"renounceAdminControl()": "infinite",
						"renounceOwnership()": "infinite",
						"reserveCheckPeriod()": "2536",
						"reserveConsumer()": "2642",
						"setBeneficiary(address)": "infinite",
						"setFeeExclusion(address,bool,bool)": "infinite",
						"setLiquidityPool(address,bool)": "infinite",
						"setReserveCheckPeriod(uint256)": "infinite",
						"setReserveConsumer(address)": "infinite",
						"setSupplyController(address)": "infinite",
						"setTaxParameters(uint256[5],uint256[5])": "infinite",
						"supplyController()": "2596",
						"symbol()": "infinite",
						"taxPercentages(uint256)": "infinite",
						"taxTiers(uint256)": "infinite",
						"totalSupply()": "2598",
						"transfer(address,uint256)": "infinite",
						"transferAdminControl(address)": "infinite",
						"transferFrom(address,address,uint256)": "infinite",
						"transferOwnership(address)": "infinite",
						"unpause()": "infinite"
					},
					"internal": {
						"_beforeTokenTransfer(address,address,uint256)": "infinite",
						"_checkReserves()": "infinite",
						"_computeTax(uint256)": "infinite",
						"_transferGIFT(address,address,uint256)": "infinite"
					}
				},
				"methodIdentifiers": {
					"MAX_TAX_PERCENTAGE()": "70d27fa0",
					"allowance(address,address)": "dd62ed3e",
					"approve(address,uint256)": "095ea7b3",
					"balanceOf(address)": "70a08231",
					"beneficiary()": "38af3eed",
					"burn(uint256)": "42966c68",
					"burnFrom(address,uint256)": "79cc6790",
					"decimals()": "313ce567",
					"initialize(string,string,address,address,address)": "db0ed6a0",
					"isExcludedFromInboundFees(address)": "851f39d4",
					"isExcludedFromOutboundFees(address)": "cc7134ba",
					"isLiquidityPool(address)": "e85455d7",
					"lastReserveCheck()": "24e8933d",
					"mint(address,uint256)": "40c10f19",
					"name()": "06fdde03",
					"owner()": "8da5cb5b",
					"pause()": "8456cb59",
					"paused()": "5c975abb",
					"renounceAdminControl()": "c658a5e3",
					"renounceOwnership()": "715018a6",
					"reserveCheckPeriod()": "d048d988",
					"reserveConsumer()": "8850b9c2",
					"setBeneficiary(address)": "1c31f710",
					"setFeeExclusion(address,bool,bool)": "e1a8f3f4",
					"setLiquidityPool(address,bool)": "c29c669a",
					"setReserveCheckPeriod(uint256)": "a02fba1e",
					"setReserveConsumer(address)": "79e631f4",
					"setSupplyController(address)": "52875bc3",
					"setTaxParameters(uint256[5],uint256[5])": "53e4e3cb",
					"supplyController()": "e7ba1012",
					"symbol()": "95d89b41",
					"taxPercentages(uint256)": "110c621d",
					"taxTiers(uint256)": "a906c70e",
					"totalSupply()": "18160ddd",
					"transfer(address,uint256)": "a9059cbb",
					"transferAdminControl(address)": "1a5e62fd",
					"transferFrom(address,address,uint256)": "23b872dd",
					"transferOwnership(address)": "f2fde38b",
					"unpause()": "3f4ba83a"
				}
			},
			"storageLayout": {
				"storage": [
					{
						"astId": 470,
						"contract": "GIFT.sol:GIFT",
						"label": "_paused",
						"offset": 0,
						"slot": "0",
						"type": "t_bool"
					},
					{
						"astId": 575,
						"contract": "GIFT.sol:GIFT",
						"label": "__gap",
						"offset": 0,
						"slot": "1",
						"type": "t_array(t_uint256)49_storage"
					},
					{
						"astId": 1809,
						"contract": "GIFT.sol:GIFT",
						"label": "supplyController",
						"offset": 0,
						"slot": "50",
						"type": "t_address"
					},
					{
						"astId": 1811,
						"contract": "GIFT.sol:GIFT",
						"label": "beneficiary",
						"offset": 0,
						"slot": "51",
						"type": "t_address"
					},
					{
						"astId": 1813,
						"contract": "GIFT.sol:GIFT",
						"label": "reserveConsumer",
						"offset": 0,
						"slot": "52",
						"type": "t_address"
					},
					{
						"astId": 1817,
						"contract": "GIFT.sol:GIFT",
						"label": "isExcludedFromOutboundFees",
						"offset": 0,
						"slot": "53",
						"type": "t_mapping(t_address,t_bool)"
					},
					{
						"astId": 1821,
						"contract": "GIFT.sol:GIFT",
						"label": "isExcludedFromInboundFees",
						"offset": 0,
						"slot": "54",
						"type": "t_mapping(t_address,t_bool)"
					},
					{
						"astId": 1825,
						"contract": "GIFT.sol:GIFT",
						"label": "isLiquidityPool",
						"offset": 0,
						"slot": "55",
						"type": "t_mapping(t_address,t_bool)"
					},
					{
						"astId": 1829,
						"contract": "GIFT.sol:GIFT",
						"label": "taxTiers",
						"offset": 0,
						"slot": "56",
						"type": "t_array(t_uint256)5_storage"
					},
					{
						"astId": 1833,
						"contract": "GIFT.sol:GIFT",
						"label": "taxPercentages",
						"offset": 0,
						"slot": "61",
						"type": "t_array(t_uint256)5_storage"
					},
					{
						"astId": 1838,
						"contract": "GIFT.sol:GIFT",
						"label": "lastReserveCheck",
						"offset": 0,
						"slot": "66",
						"type": "t_uint256"
					},
					{
						"astId": 1840,
						"contract": "GIFT.sol:GIFT",
						"label": "reserveCheckPeriod",
						"offset": 0,
						"slot": "67",
						"type": "t_uint256"
					}
				],
				"types": {
					"t_address": {
						"encoding": "inplace",
						"label": "address",
						"numberOfBytes": "20"
					},
					"t_array(t_uint256)49_storage": {
						"base": "t_uint256",
						"encoding": "inplace",
						"label": "uint256[49]",
						"numberOfBytes": "1568"
					},
					"t_array(t_uint256)5_storage": {
						"base": "t_uint256",
						"encoding": "inplace",
						"label": "uint256[5]",
						"numberOfBytes": "160"
					},
					"t_bool": {
						"encoding": "inplace",
						"label": "bool",
						"numberOfBytes": "1"
					},
					"t_mapping(t_address,t_bool)": {
						"encoding": "mapping",
						"key": "t_address",
						"label": "mapping(address => bool)",
						"numberOfBytes": "32",
						"value": "t_bool"
					},
					"t_uint256": {
						"encoding": "inplace",
						"label": "uint256",
						"numberOfBytes": "32"
					}
				}
			},
			"userdoc": {
				"kind": "user",
				"methods": {},
				"version": 1
			}
		}
	}
}