{
	"data": {
		"bytecode": {
			"linkReferences": {},
			"object": "608060405234801561000f575f80fd5b506139f88061001d5f395ff3fe608060405234801561000f575f80fd5b506004361061023b575f3560e01c806379cc679011610139578063c29c669a116100b6578063dd62ed3e1161007a578063dd62ed3e14610665578063e1a8f3f414610695578063e7ba1012146106b1578063e85455d7146106cf578063f2fde38b146106ff5761023b565b8063c29c669a146105d5578063c658a5e3146105f1578063cc7134ba146105fb578063d048d9881461062b578063db0ed6a0146106495761023b565b80638da5cb5b116100fd5780638da5cb5b1461051d57806395d89b411461053b578063a02fba1e14610559578063a9059cbb14610575578063a906c70e146105a55761023b565b806379cc67901461048d57806379e631f4146104a95780638456cb59146104c5578063851f39d4146104cf5780638850b9c2146104ff5761023b565b806338af3eed116101c757806353e4e3cb1161018b57806353e4e3cb146103fb5780635c975abb1461041757806370a082311461043557806370d27fa014610465578063715018a6146104835761023b565b806338af3eed1461037f5780633f4ba83a1461039d57806340c10f19146103a757806342966c68146103c357806352875bc3146103df5761023b565b80631a5e62fd1161020e5780631a5e62fd146102db5780631c31f710146102f757806323b872dd1461031357806324e8933d14610343578063313ce567146103615761023b565b806306fdde031461023f578063095ea7b31461025d578063110c621d1461028d57806318160ddd146102bd575b5f80fd5b61024761071b565b6040516102549190612774565b60405180910390f35b61027760048036038101906102729190612832565b6107b9565b604051610284919061288a565b60405180910390f35b6102a760048036038101906102a291906128a3565b6107db565b6040516102b491906128dd565b60405180910390f35b6102c56107f4565b6040516102d291906128dd565b60405180910390f35b6102f560048036038101906102f091906128f6565b61080b565b005b610311600480360381019061030c91906128f6565b61088d565b005b61032d60048036038101906103289190612921565b61091b565b60405161033a919061288a565b60405180910390f35b61034b6109ca565b60405161035891906128dd565b60405180910390f35b6103696109d0565b604051610376919061298c565b60405180910390f35b6103876109d8565b60405161039491906129b4565b60405180910390f35b6103a56109fd565b005b6103c160048036038101906103bc9190612832565b610a0f565b005b6103dd60048036038101906103d891906128a3565b610ad2565b005b6103f960048036038101906103f491906128f6565b610adf565b005b61041560048036038101906104109190612afb565b610b6d565b005b61041f610d50565b60405161042c919061288a565b60405180910390f35b61044f600480360381019061044a91906128f6565b610d64565b60405161045c91906128dd565b60405180910390f35b61046d610db7565b60405161047a91906128dd565b60405180910390f35b61048b610dbd565b005b6104a760048036038101906104a29190612832565b610dd0565b005b6104c360048036038101906104be91906128f6565b610e3c565b005b6104cd610eca565b005b6104e960048036038101906104e491906128f6565b610edc565b6040516104f6919061288a565b60405180910390f35b610507610ef9565b60405161051491906129b4565b60405180910390f35b610525610f1e565b60405161053291906129b4565b60405180910390f35b610543610f53565b6040516105509190612774565b60405180910390f35b610573600480360381019061056e91906128a3565b610ff1565b005b61058f600480360381019061058a9190612832565b61103a565b60405161059c919061288a565b60405180910390f35b6105bf60048036038101906105ba91906128a3565b611083565b6040516105cc91906128dd565b60405180910390f35b6105ef60048036038101906105ea9190612b64565b61109c565b005b6105f961114a565b005b610615600480360381019061061091906128f6565b61115c565b604051610622919061288a565b60405180910390f35b610633611179565b60405161064091906128dd565b60405180910390f35b610663600480360381019061065e9190612c52565b61117f565b005b61067f600480360381019061067a9190612d01565b6114b4565b60405161068c91906128dd565b60405180910390f35b6106af60048036038101906106aa9190612d3f565b611544565b005b6106b9611649565b6040516106c691906129b4565b60405180910390f35b6106e960048036038101906106e491906128f6565b61166e565b6040516106f6919061288a565b60405180910390f35b610719600480360381019061071491906128f6565b61168b565b005b60605f61072661170f565b905080600301805461073790612dbc565b80601f016020809104026020016040519081016040528092919081815260200182805461076390612dbc565b80156107ae5780601f10610785576101008083540402835291602001916107ae565b820191905f5260205f20905b81548152906001019060200180831161079157829003601f168201915b505050505091505090565b5f806107c3611736565b90506107d081858561173d565b600191505092915050565b603d81600581106107ea575f80fd5b015f915090505481565b5f806107fe61170f565b9050806002015491505090565b61081361174f565b5f73ffffffffffffffffffffffffffffffffffffffff168173ffffffffffffffffffffffffffffffffffffffff1603610881576040517f08c379a000000000000000000000000000000000000000000000000000000000815260040161087890612e5c565b60405180910390fd5b61088a8161168b565b50565b61089561174f565b8060335f6101000a81548173ffffffffffffffffffffffffffffffffffffffff021916908373ffffffffffffffffffffffffffffffffffffffff1602179055508073ffffffffffffffffffffffffffffffffffffffff167f04d55a8be181fb8d75b76f2d48aa0b2ee40f47e53d6e61763eeeec46feea8a2460405160405180910390a250565b5f6109246117d6565b61093b60435460425461182090919063ffffffff16565b421061094a57610949611835565b5b5f61095c85610957611736565b6114b4565b9050828110156109a1576040517f08c379a000000000000000000000000000000000000000000000000000000000815260040161099890612eea565b60405180910390fd5b6109b5856109ad611736565b85840361173d565b6109c0858585611a43565b9150509392505050565b60425481565b5f6012905090565b60335f9054906101000a900473ffffffffffffffffffffffffffffffffffffffff1681565b610a0561174f565b610a0d611ba7565b565b60325f9054906101000a900473ffffffffffffffffffffffffffffffffffffffff1673ffffffffffffffffffffffffffffffffffffffff163373ffffffffffffffffffffffffffffffffffffffff1614610a9e576040517f08c379a0000000000000000000000000000000000000000000000000000000008152600401610a9590612f78565b60405180910390fd5b610ab560435460425461182090919063ffffffff16565b4210610ac457610ac3611835565b5b610ace8282611c07565b5050565b610adc3382611c86565b50565b610ae761174f565b8060325f6101000a81548173ffffffffffffffffffffffffffffffffffffffff021916908373ffffffffffffffffffffffffffffffffffffffff1602179055508073ffffffffffffffffffffffffffffffffffffffff167f915d8b94cdcbf4fa1b4c768b15f63b99aee21096b9d04fe1938f45833036106d60405160405180910390a250565b610b7561174f565b7fffffffffffffffffffffffffffffffffffffffffffffffffffffffffffffffff82600460058110610baa57610ba9612f96565b5b602002015114610bef576040517f08c379a0000000000000000000000000000000000000000000000000000000008152600401610be69061300d565b60405180910390fd5b5f5b6005811015610cee57614e20828260058110610c1057610c0f612f96565b5b60200201511115610c56576040517f08c379a0000000000000000000000000000000000000000000000000000000008152600401610c4d90613075565b60405180910390fd5b5f811115610cdb5782600182610c6c91906130c0565b60058110610c7d57610c7c612f96565b5b6020020151838260058110610c9557610c94612f96565b5b602002015111610cda576040517f08c379a0000000000000000000000000000000000000000000000000000000008152600401610cd190613163565b60405180910390fd5b5b8080610ce690613181565b915050610bf1565b50816038906005610d00929190612649565b5080603d906005610d12929190612649565b507ffca5dd7612680a40f4851bb137ecc39852bd2a1a3cc176efbb39affa8ce972148282604051610d4492919061326d565b60405180910390a15050565b5f805f9054906101000a900460ff16905090565b5f80610d6e61170f565b9050805f015f8473ffffffffffffffffffffffffffffffffffffffff1673ffffffffffffffffffffffffffffffffffffffff1681526020019081526020015f2054915050919050565b614e2081565b610dc561174f565b610dce5f611d05565b565b5f610ddb83336114b4565b905081811015610e20576040517f08c379a0000000000000000000000000000000000000000000000000000000008152600401610e1790613305565b60405180910390fd5b610e2d833384840361173d565b610e378383611c86565b505050565b610e4461174f565b8060345f6101000a81548173ffffffffffffffffffffffffffffffffffffffff021916908373ffffffffffffffffffffffffffffffffffffffff1602179055508073ffffffffffffffffffffffffffffffffffffffff167f25cf73d41a7a2f5baa3ed34b7a72144453377d3d6c59b74db14e0ff168fd1fa960405160405180910390a250565b610ed261174f565b610eda611dd6565b565b6036602052805f5260405f205f915054906101000a900460ff1681565b60345f9054906101000a900473ffffffffffffffffffffffffffffffffffffffff1681565b5f80610f28611e37565b9050805f015f9054906101000a900473ffffffffffffffffffffffffffffffffffffffff1691505090565b60605f610f5e61170f565b9050806004018054610f6f90612dbc565b80601f0160208091040260200160405190810160405280929190818152602001828054610f9b90612dbc565b8015610fe65780601f10610fbd57610100808354040283529160200191610fe6565b820191905f5260205f20905b815481529060010190602001808311610fc957829003601f168201915b505050505091505090565b610ff961174f565b806043819055507ff759d32ec37fe15560fbb2ad08f9ea31689d826215d24d6a6e2e740c517c66db8160405161102f91906128dd565b60405180910390a150565b5f6110436117d6565b61105a60435460425461182090919063ffffffff16565b421061106957611068611835565b5b61107b611074611736565b8484611a43565b905092915050565b60388160058110611092575f80fd5b015f915090505481565b6110a461174f565b8060375f8473ffffffffffffffffffffffffffffffffffffffff1673ffffffffffffffffffffffffffffffffffffffff1681526020019081526020015f205f6101000a81548160ff0219169083151502179055508173ffffffffffffffffffffffffffffffffffffffff167ffa4a2b2457d2065452473bed7d55c8fa2f65fc4a1eff1ebdaf14a1b7281e77738260405161113e919061288a565b60405180910390a25050565b61115261174f565b61115a610dbd565b565b6035602052805f5260405f205f915054906101000a900460ff1681565b60435481565b5f611188611e5e565b90505f815f0160089054906101000a900460ff161590505f825f015f9054906101000a900467ffffffffffffffff1690505f808267ffffffffffffffff161480156111d05750825b90505f60018367ffffffffffffffff1614801561120357505f3073ffffffffffffffffffffffffffffffffffffffff163b145b905081158015611211575080155b15611248576040517ff92ee8a900000000000000000000000000000000000000000000000000000000815260040160405180910390fd5b6001855f015f6101000a81548167ffffffffffffffff021916908367ffffffffffffffff1602179055508315611295576001855f0160086101000a81548160ff0219169083151502179055505b61129f8a8a611e85565b6112a833611e9b565b6112b0611eaf565b8760325f6101000a81548173ffffffffffffffffffffffffffffffffffffffff021916908373ffffffffffffffffffffffffffffffffffffffff1602179055508660335f6101000a81548173ffffffffffffffffffffffffffffffffffffffff021916908373ffffffffffffffffffffffffffffffffffffffff1602179055508560345f6101000a81548173ffffffffffffffffffffffffffffffffffffffff021916908373ffffffffffffffffffffffffffffffffffffffff1602179055506040518060a00160405280683635c9adc5dea00000815260200169010f0cf064dd59200000815260200169021e19e0c9bab24000008152602001690a968163f0a57b40000081526020017fffffffffffffffffffffffffffffffffffffffffffffffffffffffffffffffff81525060389060056113ee929190612649565b506040518060a001604052806103e861ffff16815260200161032061ffff16815260200161025861ffff16815260200161019061ffff16815260200160c861ffff16815250603d906005611443929190612689565b506201518060438190555083156114a8575f855f0160086101000a81548160ff0219169083151502179055507fc7f505b2f371ae2175ee4913f4499e1f2633a7b5936321eed1cdaeb6115181d2600160405161149f9190613378565b60405180910390a15b50505050505050505050565b5f806114be61170f565b9050806001015f8573ffffffffffffffffffffffffffffffffffffffff1673ffffffffffffffffffffffffffffffffffffffff1681526020019081526020015f205f8473ffffffffffffffffffffffffffffffffffffffff1673ffffffffffffffffffffffffffffffffffffffff1681526020019081526020015f205491505092915050565b61154c61174f565b8160355f8573ffffffffffffffffffffffffffffffffffffffff1673ffffffffffffffffffffffffffffffffffffffff1681526020019081526020015f205f6101000a81548160ff0219169083151502179055508060365f8573ffffffffffffffffffffffffffffffffffffffff1673ffffffffffffffffffffffffffffffffffffffff1681526020019081526020015f205f6101000a81548160ff0219169083151502179055508273ffffffffffffffffffffffffffffffffffffffff167f56ef0fe49f8ee42d7982bb42d42fa7b8d1370ec36d0f8cb83802a7f74215027d838360405161163c929190613391565b60405180910390a2505050565b60325f9054906101000a900473ffffffffffffffffffffffffffffffffffffffff1681565b6037602052805f5260405f205f915054906101000a900460ff1681565b61169361174f565b5f73ffffffffffffffffffffffffffffffffffffffff168173ffffffffffffffffffffffffffffffffffffffff1603611703575f6040517f1e4fbdf70000000000000000000000000000000000000000000000000000000081526004016116fa91906129b4565b60405180910390fd5b61170c81611d05565b50565b5f7f52c63247e1f47db19d5ce0460030c497f067ca4cebf71ba98eeadabe20bace00905090565b5f33905090565b61174a8383836001611ec1565b505050565b611757611736565b73ffffffffffffffffffffffffffffffffffffffff16611775610f1e565b73ffffffffffffffffffffffffffffffffffffffff16146117d457611798611736565b6040517f118cdaa70000000000000000000000000000000000000000000000000000000081526004016117cb91906129b4565b60405180910390fd5b565b6117de610d50565b1561181e576040517f08c379a000000000000000000000000000000000000000000000000000000000815260040161181590613402565b60405180910390fd5b565b5f818361182d9190613420565b905092915050565b5f73ffffffffffffffffffffffffffffffffffffffff1660345f9054906101000a900473ffffffffffffffffffffffffffffffffffffffff1673ffffffffffffffffffffffffffffffffffffffff1614611a3a575f8060345f9054906101000a900473ffffffffffffffffffffffffffffffffffffffff1673ffffffffffffffffffffffffffffffffffffffff166040516024016040516020818303038152906040527f0902f1ac000000000000000000000000000000000000000000000000000000007bffffffffffffffffffffffffffffffffffffffffffffffffffffffff19166020820180517bffffffffffffffffffffffffffffffffffffffffffffffffffffffff83818316178352505050506040516119539190613497565b5f60405180830381855afa9150503d805f811461198b576040519150601f19603f3d011682016040523d82523d5f602084013e611990565b606091505b5091509150816119d5576040517f08c379a00000000000000000000000000000000000000000000000000000000081526004016119cc906134f7565b60405180910390fd5b5f818060200190518101906119ea9190613529565b9050806119f56107f4565b1115611a36576040517f08c379a0000000000000000000000000000000000000000000000000000000008152600401611a2d9061359e565b60405180910390fd5b5050505b42604281905550565b5f60355f8573ffffffffffffffffffffffffffffffffffffffff1673ffffffffffffffffffffffffffffffffffffffff1681526020019081526020015f205f9054906101000a900460ff1680611adf575060365f8473ffffffffffffffffffffffffffffffffffffffff1673ffffffffffffffffffffffffffffffffffffffff1681526020019081526020015f205f9054906101000a900460ff165b80611b30575060375f8573ffffffffffffffffffffffffffffffffffffffff1673ffffffffffffffffffffffffffffffffffffffff1681526020019081526020015f205f9054906101000a900460ff165b15611b4557611b4084848461209e565b611b9c565b5f611b4f8361218e565b9050611b7d8560335f9054906101000a900473ffffffffffffffffffffffffffffffffffffffff168361209e565b611b9a8585611b95848761225290919063ffffffff16565b61209e565b505b600190509392505050565b611baf612267565b5f805f6101000a81548160ff0219169083151502179055507f5db9ee0a495bf2e6ff9c91a7834c1ba4fdd244a5e8aa4e537bd38aeae4b073aa611bf0611736565b604051611bfd91906129b4565b60405180910390a1565b5f73ffffffffffffffffffffffffffffffffffffffff168273ffffffffffffffffffffffffffffffffffffffff1603611c77575f6040517fec442f05000000000000000000000000000000000000000000000000000000008152600401611c6e91906129b4565b60405180910390fd5b611c825f83836122b0565b5050565b5f73ffffffffffffffffffffffffffffffffffffffff168273ffffffffffffffffffffffffffffffffffffffff1603611cf6575f6040517f96c6fd1e000000000000000000000000000000000000000000000000000000008152600401611ced91906129b4565b60405180910390fd5b611d01825f836122b0565b5050565b5f611d0e611e37565b90505f815f015f9054906101000a900473ffffffffffffffffffffffffffffffffffffffff16905082825f015f6101000a81548173ffffffffffffffffffffffffffffffffffffffff021916908373ffffffffffffffffffffffffffffffffffffffff1602179055508273ffffffffffffffffffffffffffffffffffffffff168173ffffffffffffffffffffffffffffffffffffffff167f8be0079c531659141344cd1fd0a4f28419497f9722a3daafe3b4186f6b6457e060405160405180910390a3505050565b611dde6117d6565b60015f806101000a81548160ff0219169083151502179055507f62e78cea01bee320cd4e420270b5ea74000d11b0c9f74754ebdbfc544b05a258611e20611736565b604051611e2d91906129b4565b60405180910390a1565b5f7f9016d09d72d40fdae2fd8ceac6b6234c7706214fd39c1cd1e609a0528c199300905090565b5f7ff0c57e16840df040f15088dc2f81fe391c3923bec73e23a9662efc9c229c6a00905090565b611e8d6124df565b611e97828261251f565b5050565b611ea36124df565b611eac8161255b565b50565b611eb76124df565b611ebf6125df565b565b5f611eca61170f565b90505f73ffffffffffffffffffffffffffffffffffffffff168573ffffffffffffffffffffffffffffffffffffffff1603611f3c575f6040517fe602df05000000000000000000000000000000000000000000000000000000008152600401611f3391906129b4565b60405180910390fd5b5f73ffffffffffffffffffffffffffffffffffffffff168473ffffffffffffffffffffffffffffffffffffffff1603611fac575f6040517f94280d62000000000000000000000000000000000000000000000000000000008152600401611fa391906129b4565b60405180910390fd5b82816001015f8773ffffffffffffffffffffffffffffffffffffffff1673ffffffffffffffffffffffffffffffffffffffff1681526020019081526020015f205f8673ffffffffffffffffffffffffffffffffffffffff1673ffffffffffffffffffffffffffffffffffffffff1681526020019081526020015f20819055508115612097578373ffffffffffffffffffffffffffffffffffffffff168573ffffffffffffffffffffffffffffffffffffffff167f8c5be1e5ebec7d5bd14f71427d1e84f3dd0314c0f7b2291e5b200ac8c7c3b9258560405161208e91906128dd565b60405180910390a35b5050505050565b5f73ffffffffffffffffffffffffffffffffffffffff168373ffffffffffffffffffffffffffffffffffffffff160361210e575f6040517f96c6fd1e00000000000000000000000000000000000000000000000000000000815260040161210591906129b4565b60405180910390fd5b5f73ffffffffffffffffffffffffffffffffffffffff168273ffffffffffffffffffffffffffffffffffffffff160361217e575f6040517fec442f0500000000000000000000000000000000000000000000000000000000815260040161217591906129b4565b60405180910390fd5b6121898383836122b0565b505050565b5f805f90505b600581101561221157603881600581106121b1576121b0612f96565b5b015483116121fe576121f6620186a06121e8603d84600581106121d7576121d6612f96565b5b01548661260190919063ffffffff16565b61261690919063ffffffff16565b91505061224d565b808061220990613181565b915050612194565b506040517f08c379a000000000000000000000000000000000000000000000000000000000815260040161224490613606565b60405180910390fd5b919050565b5f818361225f91906130c0565b905092915050565b61226f610d50565b6122ae576040517f08c379a00000000000000000000000000000000000000000000000000000000081526004016122a59061366e565b60405180910390fd5b565b5f6122b961170f565b90505f73ffffffffffffffffffffffffffffffffffffffff168473ffffffffffffffffffffffffffffffffffffffff160361230d5781816002015f8282546123019190613420565b925050819055506123df565b5f815f015f8673ffffffffffffffffffffffffffffffffffffffff1673ffffffffffffffffffffffffffffffffffffffff1681526020019081526020015f2054905082811015612398578481846040517fe450d38c00000000000000000000000000000000000000000000000000000000815260040161238f9392919061368c565b60405180910390fd5b828103825f015f8773ffffffffffffffffffffffffffffffffffffffff1673ffffffffffffffffffffffffffffffffffffffff1681526020019081526020015f2081905550505b5f73ffffffffffffffffffffffffffffffffffffffff168373ffffffffffffffffffffffffffffffffffffffff16036124285781816002015f8282540392505081905550612474565b81815f015f8573ffffffffffffffffffffffffffffffffffffffff1673ffffffffffffffffffffffffffffffffffffffff1681526020019081526020015f205f82825401925050819055505b8273ffffffffffffffffffffffffffffffffffffffff168473ffffffffffffffffffffffffffffffffffffffff167fddf252ad1be2c89b69c2b068fc378daa952ba7f163c4a11628f55a4df523b3ef846040516124d191906128dd565b60405180910390a350505050565b6124e761262b565b61251d576040517fd7e6bcf800000000000000000000000000000000000000000000000000000000815260040160405180910390fd5b565b6125276124df565b5f61253061170f565b9050828160030190816125439190613855565b50818160040190816125559190613855565b50505050565b6125636124df565b5f73ffffffffffffffffffffffffffffffffffffffff168173ffffffffffffffffffffffffffffffffffffffff16036125d3575f6040517f1e4fbdf70000000000000000000000000000000000000000000000000000000081526004016125ca91906129b4565b60405180910390fd5b6125dc81611d05565b50565b6125e76124df565b5f805f6101000a81548160ff021916908315150217905550565b5f818361260e9190613924565b905092915050565b5f81836126239190613992565b905092915050565b5f612634611e5e565b5f0160089054906101000a900460ff16905090565b8260058101928215612678579160200282015b8281111561267757825182559160200191906001019061265c565b5b50905061268591906126cf565b5090565b82600581019282156126be579160200282015b828111156126bd578251829061ffff1690559160200191906001019061269c565b5b5090506126cb91906126cf565b5090565b5b808211156126e6575f815f9055506001016126d0565b5090565b5f81519050919050565b5f82825260208201905092915050565b5f5b83811015612721578082015181840152602081019050612706565b5f8484015250505050565b5f601f19601f8301169050919050565b5f612746826126ea565b61275081856126f4565b9350612760818560208601612704565b6127698161272c565b840191505092915050565b5f6020820190508181035f83015261278c818461273c565b905092915050565b5f604051905090565b5f80fd5b5f80fd5b5f73ffffffffffffffffffffffffffffffffffffffff82169050919050565b5f6127ce826127a5565b9050919050565b6127de816127c4565b81146127e8575f80fd5b50565b5f813590506127f9816127d5565b92915050565b5f819050919050565b612811816127ff565b811461281b575f80fd5b50565b5f8135905061282c81612808565b92915050565b5f80604083850312156128485761284761279d565b5b5f612855858286016127eb565b92505060206128668582860161281e565b9150509250929050565b5f8115159050919050565b61288481612870565b82525050565b5f60208201905061289d5f83018461287b565b92915050565b5f602082840312156128b8576128b761279d565b5b5f6128c58482850161281e565b91505092915050565b6128d7816127ff565b82525050565b5f6020820190506128f05f8301846128ce565b92915050565b5f6020828403121561290b5761290a61279d565b5b5f612918848285016127eb565b91505092915050565b5f805f606084860312156129385761293761279d565b5b5f612945868287016127eb565b9350506020612956868287016127eb565b92505060406129678682870161281e565b9150509250925092565b5f60ff82169050919050565b61298681612971565b82525050565b5f60208201905061299f5f83018461297d565b92915050565b6129ae816127c4565b82525050565b5f6020820190506129c75f8301846129a5565b92915050565b5f80fd5b7f4e487b71000000000000000000000000000000000000000000000000000000005f52604160045260245ffd5b612a078261272c565b810181811067ffffffffffffffff82111715612a2657612a256129d1565b5b80604052505050565b5f612a38612794565b9050612a4482826129fe565b919050565b5f67ffffffffffffffff821115612a6357612a626129d1565b5b602082029050919050565b5f80fd5b5f612a84612a7f84612a49565b612a2f565b90508060208402830185811115612a9e57612a9d612a6e565b5b835b81811015612ac75780612ab3888261281e565b845260208401935050602081019050612aa0565b5050509392505050565b5f82601f830112612ae557612ae46129cd565b5b6005612af2848285612a72565b91505092915050565b5f806101408385031215612b1257612b1161279d565b5b5f612b1f85828601612ad1565b92505060a0612b3085828601612ad1565b9150509250929050565b612b4381612870565b8114612b4d575f80fd5b50565b5f81359050612b5e81612b3a565b92915050565b5f8060408385031215612b7a57612b7961279d565b5b5f612b87858286016127eb565b9250506020612b9885828601612b50565b9150509250929050565b5f80fd5b5f67ffffffffffffffff821115612bc057612bbf6129d1565b5b612bc98261272c565b9050602081019050919050565b828183375f83830152505050565b5f612bf6612bf184612ba6565b612a2f565b905082815260208101848484011115612c1257612c11612ba2565b5b612c1d848285612bd6565b509392505050565b5f82601f830112612c3957612c386129cd565b5b8135612c49848260208601612be4565b91505092915050565b5f805f805f60a08688031215612c6b57612c6a61279d565b5b5f86013567ffffffffffffffff811115612c8857612c876127a1565b5b612c9488828901612c25565b955050602086013567ffffffffffffffff811115612cb557612cb46127a1565b5b612cc188828901612c25565b9450506040612cd2888289016127eb565b9350506060612ce3888289016127eb565b9250506080612cf4888289016127eb565b9150509295509295909350565b5f8060408385031215612d1757612d1661279d565b5b5f612d24858286016127eb565b9250506020612d35858286016127eb565b9150509250929050565b5f805f60608486031215612d5657612d5561279d565b5b5f612d63868287016127eb565b9350506020612d7486828701612b50565b9250506040612d8586828701612b50565b9150509250925092565b7f4e487b71000000000000000000000000000000000000000000000000000000005f52602260045260245ffd5b5f6002820490506001821680612dd357607f821691505b602082108103612de657612de5612d8f565b5b50919050565b7f474946543a204e65772061646d696e2063616e6e6f7420626520746865207a655f8201527f726f206164647265737300000000000000000000000000000000000000000000602082015250565b5f612e46602a836126f4565b9150612e5182612dec565b604082019050919050565b5f6020820190508181035f830152612e7381612e3a565b9050919050565b7f474946543a207472616e7366657220616d6f756e74206578636565647320616c5f8201527f6c6f77616e636500000000000000000000000000000000000000000000000000602082015250565b5f612ed46027836126f4565b9150612edf82612e7a565b604082019050919050565b5f6020820190508181035f830152612f0181612ec8565b9050919050565b7f474946543a2063616c6c6572206973206e6f742074686520737570706c79436f5f8201527f6e74726f6c6c6572000000000000000000000000000000000000000000000000602082015250565b5f612f626028836126f4565b9150612f6d82612f08565b604082019050919050565b5f6020820190508181035f830152612f8f81612f56565b9050919050565b7f4e487b71000000000000000000000000000000000000000000000000000000005f52603260045260245ffd5b7f474946543a204c6173742074696572206d757374206265206d617800000000005f82015250565b5f612ff7601b836126f4565b915061300282612fc3565b602082019050919050565b5f6020820190508181035f83015261302481612feb565b9050919050565b7f474946543a205461782070657263656e7461676520746f6f20686967680000005f82015250565b5f61305f601d836126f4565b915061306a8261302b565b602082019050919050565b5f6020820190508181035f83015261308c81613053565b9050919050565b7f4e487b71000000000000000000000000000000000000000000000000000000005f52601160045260245ffd5b5f6130ca826127ff565b91506130d5836127ff565b92508282039050818111156130ed576130ec613093565b5b92915050565b7f474946543a205469657273206d75737420626520696e20617363656e64696e675f8201527f206f726465720000000000000000000000000000000000000000000000000000602082015250565b5f61314d6026836126f4565b9150613158826130f3565b604082019050919050565b5f6020820190508181035f83015261317a81613141565b9050919050565b5f61318b826127ff565b91507fffffffffffffffffffffffffffffffffffffffffffffffffffffffffffffffff82036131bd576131bc613093565b5b600182019050919050565b5f60059050919050565b5f81905092915050565b5f819050919050565b6131ee816127ff565b82525050565b5f6131ff83836131e5565b60208301905092915050565b5f602082019050919050565b613220816131c8565b61322a81846131d2565b9250613235826131dc565b805f5b8381101561326557815161324c87826131f4565b96506132578361320b565b925050600181019050613238565b505050505050565b5f610140820190506132815f830185613217565b61328e60a0830184613217565b9392505050565b7f474946543a206275726e20616d6f756e74206578636565647320616c6c6f77615f8201527f6e63650000000000000000000000000000000000000000000000000000000000602082015250565b5f6132ef6023836126f4565b91506132fa82613295565b604082019050919050565b5f6020820190508181035f83015261331c816132e3565b9050919050565b5f819050919050565b5f67ffffffffffffffff82169050919050565b5f819050919050565b5f61336261335d61335884613323565b61333f565b61332c565b9050919050565b61337281613348565b82525050565b5f60208201905061338b5f830184613369565b92915050565b5f6040820190506133a45f83018561287b565b6133b1602083018461287b565b9392505050565b7f5061757361626c653a20706175736564000000000000000000000000000000005f82015250565b5f6133ec6010836126f4565b91506133f7826133b8565b602082019050919050565b5f6020820190508181035f830152613419816133e0565b9050919050565b5f61342a826127ff565b9150613435836127ff565b925082820190508082111561344d5761344c613093565b5b92915050565b5f81519050919050565b5f81905092915050565b5f61347182613453565b61347b818561345d565b935061348b818560208601612704565b80840191505092915050565b5f6134a28284613467565b915081905092915050565b7f474946543a204661696c656420746f20636865636b20726573657276657300005f82015250565b5f6134e1601e836126f4565b91506134ec826134ad565b602082019050919050565b5f6020820190508181035f83015261350e816134d5565b9050919050565b5f8151905061352381612808565b92915050565b5f6020828403121561353e5761353d61279d565b5b5f61354b84828501613515565b91505092915050565b7f474946543a20496e73756666696369656e7420726573657276657300000000005f82015250565b5f613588601b836126f4565b915061359382613554565b602082019050919050565b5f6020820190508181035f8301526135b58161357c565b9050919050565b7f474946543a20496e76616c696420616d6f756e740000000000000000000000005f82015250565b5f6135f06014836126f4565b91506135fb826135bc565b602082019050919050565b5f6020820190508181035f83015261361d816135e4565b9050919050565b7f5061757361626c653a206e6f74207061757365640000000000000000000000005f82015250565b5f6136586014836126f4565b915061366382613624565b602082019050919050565b5f6020820190508181035f8301526136858161364c565b9050919050565b5f60608201905061369f5f8301866129a5565b6136ac60208301856128ce565b6136b960408301846128ce565b949350505050565b5f819050815f5260205f209050919050565b5f6020601f8301049050919050565b5f82821b905092915050565b5f6008830261371d7fffffffffffffffffffffffffffffffffffffffffffffffffffffffffffffffff826136e2565b61372786836136e2565b95508019841693508086168417925050509392505050565b5f61375961375461374f846127ff565b61333f565b6127ff565b9050919050565b5f819050919050565b6137728361373f565b61378661377e82613760565b8484546136ee565b825550505050565b5f90565b61379a61378e565b6137a5818484613769565b505050565b5b818110156137c8576137bd5f82613792565b6001810190506137ab565b5050565b601f82111561380d576137de816136c1565b6137e7846136d3565b810160208510156137f6578190505b61380a613802856136d3565b8301826137aa565b50505b505050565b5f82821c905092915050565b5f61382d5f1984600802613812565b1980831691505092915050565b5f613845838361381e565b9150826002028217905092915050565b61385e826126ea565b67ffffffffffffffff811115613877576138766129d1565b5b6138818254612dbc565b61388c8282856137cc565b5f60209050601f8311600181146138bd575f84156138ab578287015190505b6138b5858261383a565b86555061391c565b601f1984166138cb866136c1565b5f5b828110156138f2578489015182556001820191506020850194506020810190506138cd565b8683101561390f578489015161390b601f89168261381e565b8355505b6001600288020188555050505b505050505050565b5f61392e826127ff565b9150613939836127ff565b9250828202613947816127ff565b9150828204841483151761395e5761395d613093565b5b5092915050565b7f4e487b71000000000000000000000000000000000000000000000000000000005f52601260045260245ffd5b5f61399c826127ff565b91506139a7836127ff565b9250826139b7576139b6613965565b5b82820490509291505056fea264697066735822122028005d00b2c87c680778b0200cc630739d6eba3c97893559553eff21767f5c1364736f6c63430008140033",
			"opcodes": "PUSH1 0x80 PUSH1 0x40 MSTORE CALLVALUE DUP1 ISZERO PUSH2 0xF JUMPI PUSH0 DUP1 REVERT JUMPDEST POP PUSH2 0x39F8 DUP1 PUSH2 0x1D PUSH0 CODECOPY PUSH0 RETURN INVALID PUSH1 0x80 PUSH1 0x40 MSTORE CALLVALUE DUP1 ISZERO PUSH2 0xF JUMPI PUSH0 DUP1 REVERT JUMPDEST POP PUSH1 0x4 CALLDATASIZE LT PUSH2 0x23B JUMPI PUSH0 CALLDATALOAD PUSH1 0xE0 SHR DUP1 PUSH4 0x79CC6790 GT PUSH2 0x139 JUMPI DUP1 PUSH4 0xC29C669A GT PUSH2 0xB6 JUMPI DUP1 PUSH4 0xDD62ED3E GT PUSH2 0x7A JUMPI DUP1 PUSH4 0xDD62ED3E EQ PUSH2 0x665 JUMPI DUP1 PUSH4 0xE1A8F3F4 EQ PUSH2 0x695 JUMPI DUP1 PUSH4 0xE7BA1012 EQ PUSH2 0x6B1 JUMPI DUP1 PUSH4 0xE85455D7 EQ PUSH2 0x6CF JUMPI DUP1 PUSH4 0xF2FDE38B EQ PUSH2 0x6FF JUMPI PUSH2 0x23B JUMP JUMPDEST DUP1 PUSH4 0xC29C669A EQ PUSH2 0x5D5 JUMPI DUP1 PUSH4 0xC658A5E3 EQ PUSH2 0x5F1 JUMPI DUP1 PUSH4 0xCC7134BA EQ PUSH2 0x5FB JUMPI DUP1 PUSH4 0xD048D988 EQ PUSH2 0x62B JUMPI DUP1 PUSH4 0xDB0ED6A0 EQ PUSH2 0x649 JUMPI PUSH2 0x23B JUMP JUMPDEST DUP1 PUSH4 0x8DA5CB5B GT PUSH2 0xFD JUMPI DUP1 PUSH4 0x8DA5CB5B EQ PUSH2 0x51D JUMPI DUP1 PUSH4 0x95D89B41 EQ PUSH2 0x53B JUMPI DUP1 PUSH4 0xA02FBA1E EQ PUSH2 0x559 JUMPI DUP1 PUSH4 0xA9059CBB EQ PUSH2 0x575 JUMPI DUP1 PUSH4 0xA906C70E EQ PUSH2 0x5A5 JUMPI PUSH2 0x23B JUMP JUMPDEST DUP1 PUSH4 0x79CC6790 EQ PUSH2 0x48D JUMPI DUP1 PUSH4 0x79E631F4 EQ PUSH2 0x4A9 JUMPI DUP1 PUSH4 0x8456CB59 EQ PUSH2 0x4C5 JUMPI DUP1 PUSH4 0x851F39D4 EQ PUSH2 0x4CF JUMPI DUP1 PUSH4 0x8850B9C2 EQ PUSH2 0x4FF JUMPI PUSH2 0x23B JUMP JUMPDEST DUP1 PUSH4 0x38AF3EED GT PUSH2 0x1C7 JUMPI DUP1 PUSH4 0x53E4E3CB GT PUSH2 0x18B JUMPI DUP1 PUSH4 0x53E4E3CB EQ PUSH2 0x3FB JUMPI DUP1 PUSH4 0x5C975ABB EQ PUSH2 0x417 JUMPI DUP1 PUSH4 0x70A08231 EQ PUSH2 0x435 JUMPI DUP1 PUSH4 0x70D27FA0 EQ PUSH2 0x465 JUMPI DUP1 PUSH4 0x715018A6 EQ PUSH2 0x483 JUMPI PUSH2 0x23B JUMP JUMPDEST DUP1 PUSH4 0x38AF3EED EQ PUSH2 0x37F JUMPI DUP1 PUSH4 0x3F4BA83A EQ PUSH2 0x39D JUMPI DUP1 PUSH4 0x40C10F19 EQ PUSH2 0x3A7 JUMPI DUP1 PUSH4 0x42966C68 EQ PUSH2 0x3C3 JUMPI DUP1 PUSH4 0x52875BC3 EQ PUSH2 0x3DF JUMPI PUSH2 0x23B JUMP JUMPDEST DUP1 PUSH4 0x1A5E62FD GT PUSH2 0x20E JUMPI DUP1 PUSH4 0x1A5E62FD EQ PUSH2 0x2DB JUMPI DUP1 PUSH4 0x1C31F710 EQ PUSH2 0x2F7 JUMPI DUP1 PUSH4 0x23B872DD EQ PUSH2 0x313 JUMPI DUP1 PUSH4 0x24E8933D EQ PUSH2 0x343 JUMPI DUP1 PUSH4 0x313CE567 EQ PUSH2 0x361 JUMPI PUSH2 0x23B JUMP JUMPDEST DUP1 PUSH4 0x6FDDE03 EQ PUSH2 0x23F JUMPI DUP1 PUSH4 0x95EA7B3 EQ PUSH2 0x25D JUMPI DUP1 PUSH4 0x110C621D EQ PUSH2 0x28D JUMPI DUP1 PUSH4 0x18160DDD EQ PUSH2 0x2BD JUMPI JUMPDEST PUSH0 DUP1 REVERT JUMPDEST PUSH2 0x247 PUSH2 0x71B JUMP JUMPDEST PUSH1 0x40 MLOAD PUSH2 0x254 SWAP2 SWAP1 PUSH2 0x2774 JUMP JUMPDEST PUSH1 0x40 MLOAD DUP1 SWAP2 SUB SWAP1 RETURN JUMPDEST PUSH2 0x277 PUSH1 0x4 DUP1 CALLDATASIZE SUB DUP2 ADD SWAP1 PUSH2 0x272 SWAP2 SWAP1 PUSH2 0x2832 JUMP JUMPDEST PUSH2 0x7B9 JUMP JUMPDEST PUSH1 0x40 MLOAD PUSH2 0x284 SWAP2 SWAP1 PUSH2 0x288A JUMP JUMPDEST PUSH1 0x40 MLOAD DUP1 SWAP2 SUB SWAP1 RETURN JUMPDEST PUSH2 0x2A7 PUSH1 0x4 DUP1 CALLDATASIZE SUB DUP2 ADD SWAP1 PUSH2 0x2A2 SWAP2 SWAP1 PUSH2 0x28A3 JUMP JUMPDEST PUSH2 0x7DB JUMP JUMPDEST PUSH1 0x40 MLOAD PUSH2 0x2B4 SWAP2 SWAP1 PUSH2 0x28DD JUMP JUMPDEST PUSH1 0x40 MLOAD DUP1 SWAP2 SUB SWAP1 RETURN JUMPDEST PUSH2 0x2C5 PUSH2 0x7F4 JUMP JUMPDEST PUSH1 0x40 MLOAD PUSH2 0x2D2 SWAP2 SWAP1 PUSH2 0x28DD JUMP JUMPDEST PUSH1 0x40 MLOAD DUP1 SWAP2 SUB SWAP1 RETURN JUMPDEST PUSH2 0x2F5 PUSH1 0x4 DUP1 CALLDATASIZE SUB DUP2 ADD SWAP1 PUSH2 0x2F0 SWAP2 SWAP1 PUSH2 0x28F6 JUMP JUMPDEST PUSH2 0x80B JUMP JUMPDEST STOP JUMPDEST PUSH2 0x311 PUSH1 0x4 DUP1 CALLDATASIZE SUB DUP2 ADD SWAP1 PUSH2 0x30C SWAP2 SWAP1 PUSH2 0x28F6 JUMP JUMPDEST PUSH2 0x88D JUMP JUMPDEST STOP JUMPDEST PUSH2 0x32D PUSH1 0x4 DUP1 CALLDATASIZE SUB DUP2 ADD SWAP1 PUSH2 0x328 SWAP2 SWAP1 PUSH2 0x2921 JUMP JUMPDEST PUSH2 0x91B JUMP JUMPDEST PUSH1 0x40 MLOAD PUSH2 0x33A SWAP2 SWAP1 PUSH2 0x288A JUMP JUMPDEST PUSH1 0x40 MLOAD DUP1 SWAP2 SUB SWAP1 RETURN JUMPDEST PUSH2 0x34B PUSH2 0x9CA JUMP JUMPDEST PUSH1 0x40 MLOAD PUSH2 0x358 SWAP2 SWAP1 PUSH2 0x28DD JUMP JUMPDEST PUSH1 0x40 MLOAD DUP1 SWAP2 SUB SWAP1 RETURN JUMPDEST PUSH2 0x369 PUSH2 0x9D0 JUMP JUMPDEST PUSH1 0x40 MLOAD PUSH2 0x376 SWAP2 SWAP1 PUSH2 0x298C JUMP JUMPDEST PUSH1 0x40 MLOAD DUP1 SWAP2 SUB SWAP1 RETURN JUMPDEST PUSH2 0x387 PUSH2 0x9D8 JUMP JUMPDEST PUSH1 0x40 MLOAD PUSH2 0x394 SWAP2 SWAP1 PUSH2 0x29B4 JUMP JUMPDEST PUSH1 0x40 MLOAD DUP1 SWAP2 SUB SWAP1 RETURN JUMPDEST PUSH2 0x3A5 PUSH2 0x9FD JUMP JUMPDEST STOP JUMPDEST PUSH2 0x3C1 PUSH1 0x4 DUP1 CALLDATASIZE SUB DUP2 ADD SWAP1 PUSH2 0x3BC SWAP2 SWAP1 PUSH2 0x2832 JUMP JUMPDEST PUSH2 0xA0F JUMP JUMPDEST STOP JUMPDEST PUSH2 0x3DD PUSH1 0x4 DUP1 CALLDATASIZE SUB DUP2 ADD SWAP1 PUSH2 0x3D8 SWAP2 SWAP1 PUSH2 0x28A3 JUMP JUMPDEST PUSH2 0xAD2 JUMP JUMPDEST STOP JUMPDEST PUSH2 0x3F9 PUSH1 0x4 DUP1 CALLDATASIZE SUB DUP2 ADD SWAP1 PUSH2 0x3F4 SWAP2 SWAP1 PUSH2 0x28F6 JUMP JUMPDEST PUSH2 0xADF JUMP JUMPDEST STOP JUMPDEST PUSH2 0x415 PUSH1 0x4 DUP1 CALLDATASIZE SUB DUP2 ADD SWAP1 PUSH2 0x410 SWAP2 SWAP1 PUSH2 0x2AFB JUMP JUMPDEST PUSH2 0xB6D JUMP JUMPDEST STOP JUMPDEST PUSH2 0x41F PUSH2 0xD50 JUMP JUMPDEST PUSH1 0x40 MLOAD PUSH2 0x42C SWAP2 SWAP1 PUSH2 0x288A JUMP JUMPDEST PUSH1 0x40 MLOAD DUP1 SWAP2 SUB SWAP1 RETURN JUMPDEST PUSH2 0x44F PUSH1 0x4 DUP1 CALLDATASIZE SUB DUP2 ADD SWAP1 PUSH2 0x44A SWAP2 SWAP1 PUSH2 0x28F6 JUMP JUMPDEST PUSH2 0xD64 JUMP JUMPDEST PUSH1 0x40 MLOAD PUSH2 0x45C SWAP2 SWAP1 PUSH2 0x28DD JUMP JUMPDEST PUSH1 0x40 MLOAD DUP1 SWAP2 SUB SWAP1 RETURN JUMPDEST PUSH2 0x46D PUSH2 0xDB7 JUMP JUMPDEST PUSH1 0x40 MLOAD PUSH2 0x47A SWAP2 SWAP1 PUSH2 0x28DD JUMP JUMPDEST PUSH1 0x40 MLOAD DUP1 SWAP2 SUB SWAP1 RETURN JUMPDEST PUSH2 0x48B PUSH2 0xDBD JUMP JUMPDEST STOP JUMPDEST PUSH2 0x4A7 PUSH1 0x4 DUP1 CALLDATASIZE SUB DUP2 ADD SWAP1 PUSH2 0x4A2 SWAP2 SWAP1 PUSH2 0x2832 JUMP JUMPDEST PUSH2 0xDD0 JUMP JUMPDEST STOP JUMPDEST PUSH2 0x4C3 PUSH1 0x4 DUP1 CALLDATASIZE SUB DUP2 ADD SWAP1 PUSH2 0x4BE SWAP2 SWAP1 PUSH2 0x28F6 JUMP JUMPDEST PUSH2 0xE3C JUMP JUMPDEST STOP JUMPDEST PUSH2 0x4CD PUSH2 0xECA JUMP JUMPDEST STOP JUMPDEST PUSH2 0x4E9 PUSH1 0x4 DUP1 CALLDATASIZE SUB DUP2 ADD SWAP1 PUSH2 0x4E4 SWAP2 SWAP1 PUSH2 0x28F6 JUMP JUMPDEST PUSH2 0xEDC JUMP JUMPDEST PUSH1 0x40 MLOAD PUSH2 0x4F6 SWAP2 SWAP1 PUSH2 0x288A JUMP JUMPDEST PUSH1 0x40 MLOAD DUP1 SWAP2 SUB SWAP1 RETURN JUMPDEST PUSH2 0x507 PUSH2 0xEF9 JUMP JUMPDEST PUSH1 0x40 MLOAD PUSH2 0x514 SWAP2 SWAP1 PUSH2 0x29B4 JUMP JUMPDEST PUSH1 0x40 MLOAD DUP1 SWAP2 SUB SWAP1 RETURN JUMPDEST PUSH2 0x525 PUSH2 0xF1E JUMP JUMPDEST PUSH1 0x40 MLOAD PUSH2 0x532 SWAP2 SWAP1 PUSH2 0x29B4 JUMP JUMPDEST PUSH1 0x40 MLOAD DUP1 SWAP2 SUB SWAP1 RETURN JUMPDEST PUSH2 0x543 PUSH2 0xF53 JUMP JUMPDEST PUSH1 0x40 MLOAD PUSH2 0x550 SWAP2 SWAP1 PUSH2 0x2774 JUMP JUMPDEST PUSH1 0x40 MLOAD DUP1 SWAP2 SUB SWAP1 RETURN JUMPDEST PUSH2 0x573 PUSH1 0x4 DUP1 CALLDATASIZE SUB DUP2 ADD SWAP1 PUSH2 0x56E SWAP2 SWAP1 PUSH2 0x28A3 JUMP JUMPDEST PUSH2 0xFF1 JUMP JUMPDEST STOP JUMPDEST PUSH2 0x58F PUSH1 0x4 DUP1 CALLDATASIZE SUB DUP2 ADD SWAP1 PUSH2 0x58A SWAP2 SWAP1 PUSH2 0x2832 JUMP JUMPDEST PUSH2 0x103A JUMP JUMPDEST PUSH1 0x40 MLOAD PUSH2 0x59C SWAP2 SWAP1 PUSH2 0x288A JUMP JUMPDEST PUSH1 0x40 MLOAD DUP1 SWAP2 SUB SWAP1 RETURN JUMPDEST PUSH2 0x5BF PUSH1 0x4 DUP1 CALLDATASIZE SUB DUP2 ADD SWAP1 PUSH2 0x5BA SWAP2 SWAP1 PUSH2 0x28A3 JUMP JUMPDEST PUSH2 0x1083 JUMP JUMPDEST PUSH1 0x40 MLOAD PUSH2 0x5CC SWAP2 SWAP1 PUSH2 0x28DD JUMP JUMPDEST PUSH1 0x40 MLOAD DUP1 SWAP2 SUB SWAP1 RETURN JUMPDEST PUSH2 0x5EF PUSH1 0x4 DUP1 CALLDATASIZE SUB DUP2 ADD SWAP1 PUSH2 0x5EA SWAP2 SWAP1 PUSH2 0x2B64 JUMP JUMPDEST PUSH2 0x109C JUMP JUMPDEST STOP JUMPDEST PUSH2 0x5F9 PUSH2 0x114A JUMP JUMPDEST STOP JUMPDEST PUSH2 0x615 PUSH1 0x4 DUP1 CALLDATASIZE SUB DUP2 ADD SWAP1 PUSH2 0x610 SWAP2 SWAP1 PUSH2 0x28F6 JUMP JUMPDEST PUSH2 0x115C JUMP JUMPDEST PUSH1 0x40 MLOAD PUSH2 0x622 SWAP2 SWAP1 PUSH2 0x288A JUMP JUMPDEST PUSH1 0x40 MLOAD DUP1 SWAP2 SUB SWAP1 RETURN JUMPDEST PUSH2 0x633 PUSH2 0x1179 JUMP JUMPDEST PUSH1 0x40 MLOAD PUSH2 0x640 SWAP2 SWAP1 PUSH2 0x28DD JUMP JUMPDEST PUSH1 0x40 MLOAD DUP1 SWAP2 SUB SWAP1 RETURN JUMPDEST PUSH2 0x663 PUSH1 0x4 DUP1 CALLDATASIZE SUB DUP2 ADD SWAP1 PUSH2 0x65E SWAP2 SWAP1 PUSH2 0x2C52 JUMP JUMPDEST PUSH2 0x117F JUMP JUMPDEST STOP JUMPDEST PUSH2 0x67F PUSH1 0x4 DUP1 CALLDATASIZE SUB DUP2 ADD SWAP1 PUSH2 0x67A SWAP2 SWAP1 PUSH2 0x2D01 JUMP JUMPDEST PUSH2 0x14B4 JUMP JUMPDEST PUSH1 0x40 MLOAD PUSH2 0x68C SWAP2 SWAP1 PUSH2 0x28DD JUMP JUMPDEST PUSH1 0x40 MLOAD DUP1 SWAP2 SUB SWAP1 RETURN JUMPDEST PUSH2 0x6AF PUSH1 0x4 DUP1 CALLDATASIZE SUB DUP2 ADD SWAP1 PUSH2 0x6AA SWAP2 SWAP1 PUSH2 0x2D3F JUMP JUMPDEST PUSH2 0x1544 JUMP JUMPDEST STOP JUMPDEST PUSH2 0x6B9 PUSH2 0x1649 JUMP JUMPDEST PUSH1 0x40 MLOAD PUSH2 0x6C6 SWAP2 SWAP1 PUSH2 0x29B4 JUMP JUMPDEST PUSH1 0x40 MLOAD DUP1 SWAP2 SUB SWAP1 RETURN JUMPDEST PUSH2 0x6E9 PUSH1 0x4 DUP1 CALLDATASIZE SUB DUP2 ADD SWAP1 PUSH2 0x6E4 SWAP2 SWAP1 PUSH2 0x28F6 JUMP JUMPDEST PUSH2 0x166E JUMP JUMPDEST PUSH1 0x40 MLOAD PUSH2 0x6F6 SWAP2 SWAP1 PUSH2 0x288A JUMP JUMPDEST PUSH1 0x40 MLOAD DUP1 SWAP2 SUB SWAP1 RETURN JUMPDEST PUSH2 0x719 PUSH1 0x4 DUP1 CALLDATASIZE SUB DUP2 ADD SWAP1 PUSH2 0x714 SWAP2 SWAP1 PUSH2 0x28F6 JUMP JUMPDEST PUSH2 0x168B JUMP JUMPDEST STOP JUMPDEST PUSH1 0x60 PUSH0 PUSH2 0x726 PUSH2 0x170F JUMP JUMPDEST SWAP1 POP DUP1 PUSH1 0x3 ADD DUP1 SLOAD PUSH2 0x737 SWAP1 PUSH2 0x2DBC JUMP JUMPDEST DUP1 PUSH1 0x1F ADD PUSH1 0x20 DUP1 SWAP2 DIV MUL PUSH1 0x20 ADD PUSH1 0x40 MLOAD SWAP1 DUP2 ADD PUSH1 0x40 MSTORE DUP1 SWAP3 SWAP2 SWAP1 DUP2 DUP2 MSTORE PUSH1 0x20 ADD DUP3 DUP1 SLOAD PUSH2 0x763 SWAP1 PUSH2 0x2DBC JUMP JUMPDEST DUP1 ISZERO PUSH2 0x7AE JUMPI DUP1 PUSH1 0x1F LT PUSH2 0x785 JUMPI PUSH2 0x100 DUP1 DUP4 SLOAD DIV MUL DUP4 MSTORE SWAP2 PUSH1 0x20 ADD SWAP2 PUSH2 0x7AE JUMP JUMPDEST DUP3 ADD SWAP2 SWAP1 PUSH0 MSTORE PUSH1 0x20 PUSH0 KECCAK256 SWAP1 JUMPDEST DUP2 SLOAD DUP2 MSTORE SWAP1 PUSH1 0x1 ADD SWAP1 PUSH1 0x20 ADD DUP1 DUP4 GT PUSH2 0x791 JUMPI DUP3 SWAP1 SUB PUSH1 0x1F AND DUP3 ADD SWAP2 JUMPDEST POP POP POP POP POP SWAP2 POP POP SWAP1 JUMP JUMPDEST PUSH0 DUP1 PUSH2 0x7C3 PUSH2 0x1736 JUMP JUMPDEST SWAP1 POP PUSH2 0x7D0 DUP2 DUP6 DUP6 PUSH2 0x173D JUMP JUMPDEST PUSH1 0x1 SWAP2 POP POP SWAP3 SWAP2 POP POP JUMP JUMPDEST PUSH1 0x3D DUP2 PUSH1 0x5 DUP2 LT PUSH2 0x7EA JUMPI PUSH0 DUP1 REVERT JUMPDEST ADD PUSH0 SWAP2 POP SWAP1 POP SLOAD DUP2 JUMP JUMPDEST PUSH0 DUP1 PUSH2 0x7FE PUSH2 0x170F JUMP JUMPDEST SWAP1 POP DUP1 PUSH1 0x2 ADD SLOAD SWAP2 POP POP SWAP1 JUMP JUMPDEST PUSH2 0x813 PUSH2 0x174F JUMP JUMPDEST PUSH0 PUSH20 0xFFFFFFFFFFFFFFFFFFFFFFFFFFFFFFFFFFFFFFFF AND DUP2 PUSH20 0xFFFFFFFFFFFFFFFFFFFFFFFFFFFFFFFFFFFFFFFF AND SUB PUSH2 0x881 JUMPI PUSH1 0x40 MLOAD PUSH32 0x8C379A000000000000000000000000000000000000000000000000000000000 DUP2 MSTORE PUSH1 0x4 ADD PUSH2 0x878 SWAP1 PUSH2 0x2E5C JUMP JUMPDEST PUSH1 0x40 MLOAD DUP1 SWAP2 SUB SWAP1 REVERT JUMPDEST PUSH2 0x88A DUP2 PUSH2 0x168B JUMP JUMPDEST POP JUMP JUMPDEST PUSH2 0x895 PUSH2 0x174F JUMP JUMPDEST DUP1 PUSH1 0x33 PUSH0 PUSH2 0x100 EXP DUP2 SLOAD DUP2 PUSH20 0xFFFFFFFFFFFFFFFFFFFFFFFFFFFFFFFFFFFFFFFF MUL NOT AND SWAP1 DUP4 PUSH20 0xFFFFFFFFFFFFFFFFFFFFFFFFFFFFFFFFFFFFFFFF AND MUL OR SWAP1 SSTORE POP DUP1 PUSH20 0xFFFFFFFFFFFFFFFFFFFFFFFFFFFFFFFFFFFFFFFF AND PUSH32 0x4D55A8BE181FB8D75B76F2D48AA0B2EE40F47E53D6E61763EEEEC46FEEA8A24 PUSH1 0x40 MLOAD PUSH1 0x40 MLOAD DUP1 SWAP2 SUB SWAP1 LOG2 POP JUMP JUMPDEST PUSH0 PUSH2 0x924 PUSH2 0x17D6 JUMP JUMPDEST PUSH2 0x93B PUSH1 0x43 SLOAD PUSH1 0x42 SLOAD PUSH2 0x1820 SWAP1 SWAP2 SWAP1 PUSH4 0xFFFFFFFF AND JUMP JUMPDEST TIMESTAMP LT PUSH2 0x94A JUMPI PUSH2 0x949 PUSH2 0x1835 JUMP JUMPDEST JUMPDEST PUSH0 PUSH2 0x95C DUP6 PUSH2 0x957 PUSH2 0x1736 JUMP JUMPDEST PUSH2 0x14B4 JUMP JUMPDEST SWAP1 POP DUP3 DUP2 LT ISZERO PUSH2 0x9A1 JUMPI PUSH1 0x40 MLOAD PUSH32 0x8C379A000000000000000000000000000000000000000000000000000000000 DUP2 MSTORE PUSH1 0x4 ADD PUSH2 0x998 SWAP1 PUSH2 0x2EEA JUMP JUMPDEST PUSH1 0x40 MLOAD DUP1 SWAP2 SUB SWAP1 REVERT JUMPDEST PUSH2 0x9B5 DUP6 PUSH2 0x9AD PUSH2 0x1736 JUMP JUMPDEST DUP6 DUP5 SUB PUSH2 0x173D JUMP JUMPDEST PUSH2 0x9C0 DUP6 DUP6 DUP6 PUSH2 0x1A43 JUMP JUMPDEST SWAP2 POP POP SWAP4 SWAP3 POP POP POP JUMP JUMPDEST PUSH1 0x42 SLOAD DUP2 JUMP JUMPDEST PUSH0 PUSH1 0x12 SWAP1 POP SWAP1 JUMP JUMPDEST PUSH1 0x33 PUSH0 SWAP1 SLOAD SWAP1 PUSH2 0x100 EXP SWAP1 DIV PUSH20 0xFFFFFFFFFFFFFFFFFFFFFFFFFFFFFFFFFFFFFFFF AND DUP2 JUMP JUMPDEST PUSH2 0xA05 PUSH2 0x174F JUMP JUMPDEST PUSH2 0xA0D PUSH2 0x1BA7 JUMP JUMPDEST JUMP JUMPDEST PUSH1 0x32 PUSH0 SWAP1 SLOAD SWAP1 PUSH2 0x100 EXP SWAP1 DIV PUSH20 0xFFFFFFFFFFFFFFFFFFFFFFFFFFFFFFFFFFFFFFFF AND PUSH20 0xFFFFFFFFFFFFFFFFFFFFFFFFFFFFFFFFFFFFFFFF AND CALLER PUSH20 0xFFFFFFFFFFFFFFFFFFFFFFFFFFFFFFFFFFFFFFFF AND EQ PUSH2 0xA9E JUMPI PUSH1 0x40 MLOAD PUSH32 0x8C379A000000000000000000000000000000000000000000000000000000000 DUP2 MSTORE PUSH1 0x4 ADD PUSH2 0xA95 SWAP1 PUSH2 0x2F78 JUMP JUMPDEST PUSH1 0x40 MLOAD DUP1 SWAP2 SUB SWAP1 REVERT JUMPDEST PUSH2 0xAB5 PUSH1 0x43 SLOAD PUSH1 0x42 SLOAD PUSH2 0x1820 SWAP1 SWAP2 SWAP1 PUSH4 0xFFFFFFFF AND JUMP JUMPDEST TIMESTAMP LT PUSH2 0xAC4 JUMPI PUSH2 0xAC3 PUSH2 0x1835 JUMP JUMPDEST JUMPDEST PUSH2 0xACE DUP3 DUP3 PUSH2 0x1C07 JUMP JUMPDEST POP POP JUMP JUMPDEST PUSH2 0xADC CALLER DUP3 PUSH2 0x1C86 JUMP JUMPDEST POP JUMP JUMPDEST PUSH2 0xAE7 PUSH2 0x174F JUMP JUMPDEST DUP1 PUSH1 0x32 PUSH0 PUSH2 0x100 EXP DUP2 SLOAD DUP2 PUSH20 0xFFFFFFFFFFFFFFFFFFFFFFFFFFFFFFFFFFFFFFFF MUL NOT AND SWAP1 DUP4 PUSH20 0xFFFFFFFFFFFFFFFFFFFFFFFFFFFFFFFFFFFFFFFF AND MUL OR SWAP1 SSTORE POP DUP1 PUSH20 0xFFFFFFFFFFFFFFFFFFFFFFFFFFFFFFFFFFFFFFFF AND PUSH32 0x915D8B94CDCBF4FA1B4C768B15F63B99AEE21096B9D04FE1938F45833036106D PUSH1 0x40 MLOAD PUSH1 0x40 MLOAD DUP1 SWAP2 SUB SWAP1 LOG2 POP JUMP JUMPDEST PUSH2 0xB75 PUSH2 0x174F JUMP JUMPDEST PUSH32 0xFFFFFFFFFFFFFFFFFFFFFFFFFFFFFFFFFFFFFFFFFFFFFFFFFFFFFFFFFFFFFFFF DUP3 PUSH1 0x4 PUSH1 0x5 DUP2 LT PUSH2 0xBAA JUMPI PUSH2 0xBA9 PUSH2 0x2F96 JUMP JUMPDEST JUMPDEST PUSH1 0x20 MUL ADD MLOAD EQ PUSH2 0xBEF JUMPI PUSH1 0x40 MLOAD PUSH32 0x8C379A000000000000000000000000000000000000000000000000000000000 DUP2 MSTORE PUSH1 0x4 ADD PUSH2 0xBE6 SWAP1 PUSH2 0x300D JUMP JUMPDEST PUSH1 0x40 MLOAD DUP1 SWAP2 SUB SWAP1 REVERT JUMPDEST PUSH0 JUMPDEST PUSH1 0x5 DUP2 LT ISZERO PUSH2 0xCEE JUMPI PUSH2 0x4E20 DUP3 DUP3 PUSH1 0x5 DUP2 LT PUSH2 0xC10 JUMPI PUSH2 0xC0F PUSH2 0x2F96 JUMP JUMPDEST JUMPDEST PUSH1 0x20 MUL ADD MLOAD GT ISZERO PUSH2 0xC56 JUMPI PUSH1 0x40 MLOAD PUSH32 0x8C379A000000000000000000000000000000000000000000000000000000000 DUP2 MSTORE PUSH1 0x4 ADD PUSH2 0xC4D SWAP1 PUSH2 0x3075 JUMP JUMPDEST PUSH1 0x40 MLOAD DUP1 SWAP2 SUB SWAP1 REVERT JUMPDEST PUSH0 DUP2 GT ISZERO PUSH2 0xCDB JUMPI DUP3 PUSH1 0x1 DUP3 PUSH2 0xC6C SWAP2 SWAP1 PUSH2 0x30C0 JUMP JUMPDEST PUSH1 0x5 DUP2 LT PUSH2 0xC7D JUMPI PUSH2 0xC7C PUSH2 0x2F96 JUMP JUMPDEST JUMPDEST PUSH1 0x20 MUL ADD MLOAD DUP4 DUP3 PUSH1 0x5 DUP2 LT PUSH2 0xC95 JUMPI PUSH2 0xC94 PUSH2 0x2F96 JUMP JUMPDEST JUMPDEST PUSH1 0x20 MUL ADD MLOAD GT PUSH2 0xCDA JUMPI PUSH1 0x40 MLOAD PUSH32 0x8C379A000000000000000000000000000000000000000000000000000000000 DUP2 MSTORE PUSH1 0x4 ADD PUSH2 0xCD1 SWAP1 PUSH2 0x3163 JUMP JUMPDEST PUSH1 0x40 MLOAD DUP1 SWAP2 SUB SWAP1 REVERT JUMPDEST JUMPDEST DUP1 DUP1 PUSH2 0xCE6 SWAP1 PUSH2 0x3181 JUMP JUMPDEST SWAP2 POP POP PUSH2 0xBF1 JUMP JUMPDEST POP DUP2 PUSH1 0x38 SWAP1 PUSH1 0x5 PUSH2 0xD00 SWAP3 SWAP2 SWAP1 PUSH2 0x2649 JUMP JUMPDEST POP DUP1 PUSH1 0x3D SWAP1 PUSH1 0x5 PUSH2 0xD12 SWAP3 SWAP2 SWAP1 PUSH2 0x2649 JUMP JUMPDEST POP PUSH32 0xFCA5DD7612680A40F4851BB137ECC39852BD2A1A3CC176EFBB39AFFA8CE97214 DUP3 DUP3 PUSH1 0x40 MLOAD PUSH2 0xD44 SWAP3 SWAP2 SWAP1 PUSH2 0x326D JUMP JUMPDEST PUSH1 0x40 MLOAD DUP1 SWAP2 SUB SWAP1 LOG1 POP POP JUMP JUMPDEST PUSH0 DUP1 PUSH0 SWAP1 SLOAD SWAP1 PUSH2 0x100 EXP SWAP1 DIV PUSH1 0xFF AND SWAP1 POP SWAP1 JUMP JUMPDEST PUSH0 DUP1 PUSH2 0xD6E PUSH2 0x170F JUMP JUMPDEST SWAP1 POP DUP1 PUSH0 ADD PUSH0 DUP5 PUSH20 0xFFFFFFFFFFFFFFFFFFFFFFFFFFFFFFFFFFFFFFFF AND PUSH20 0xFFFFFFFFFFFFFFFFFFFFFFFFFFFFFFFFFFFFFFFF AND DUP2 MSTORE PUSH1 0x20 ADD SWAP1 DUP2 MSTORE PUSH1 0x20 ADD PUSH0 KECCAK256 SLOAD SWAP2 POP POP SWAP2 SWAP1 POP JUMP JUMPDEST PUSH2 0x4E20 DUP2 JUMP JUMPDEST PUSH2 0xDC5 PUSH2 0x174F JUMP JUMPDEST PUSH2 0xDCE PUSH0 PUSH2 0x1D05 JUMP JUMPDEST JUMP JUMPDEST PUSH0 PUSH2 0xDDB DUP4 CALLER PUSH2 0x14B4 JUMP JUMPDEST SWAP1 POP DUP2 DUP2 LT ISZERO PUSH2 0xE20 JUMPI PUSH1 0x40 MLOAD PUSH32 0x8C379A000000000000000000000000000000000000000000000000000000000 DUP2 MSTORE PUSH1 0x4 ADD PUSH2 0xE17 SWAP1 PUSH2 0x3305 JUMP JUMPDEST PUSH1 0x40 MLOAD DUP1 SWAP2 SUB SWAP1 REVERT JUMPDEST PUSH2 0xE2D DUP4 CALLER DUP5 DUP5 SUB PUSH2 0x173D JUMP JUMPDEST PUSH2 0xE37 DUP4 DUP4 PUSH2 0x1C86 JUMP JUMPDEST POP POP POP JUMP JUMPDEST PUSH2 0xE44 PUSH2 0x174F JUMP JUMPDEST DUP1 PUSH1 0x34 PUSH0 PUSH2 0x100 EXP DUP2 SLOAD DUP2 PUSH20 0xFFFFFFFFFFFFFFFFFFFFFFFFFFFFFFFFFFFFFFFF MUL NOT AND SWAP1 DUP4 PUSH20 0xFFFFFFFFFFFFFFFFFFFFFFFFFFFFFFFFFFFFFFFF AND MUL OR SWAP1 SSTORE POP DUP1 PUSH20 0xFFFFFFFFFFFFFFFFFFFFFFFFFFFFFFFFFFFFFFFF AND PUSH32 0x25CF73D41A7A2F5BAA3ED34B7A72144453377D3D6C59B74DB14E0FF168FD1FA9 PUSH1 0x40 MLOAD PUSH1 0x40 MLOAD DUP1 SWAP2 SUB SWAP1 LOG2 POP JUMP JUMPDEST PUSH2 0xED2 PUSH2 0x174F JUMP JUMPDEST PUSH2 0xEDA PUSH2 0x1DD6 JUMP JUMPDEST JUMP JUMPDEST PUSH1 0x36 PUSH1 0x20 MSTORE DUP1 PUSH0 MSTORE PUSH1 0x40 PUSH0 KECCAK256 PUSH0 SWAP2 POP SLOAD SWAP1 PUSH2 0x100 EXP SWAP1 DIV PUSH1 0xFF AND DUP2 JUMP JUMPDEST PUSH1 0x34 PUSH0 SWAP1 SLOAD SWAP1 PUSH2 0x100 EXP SWAP1 DIV PUSH20 0xFFFFFFFFFFFFFFFFFFFFFFFFFFFFFFFFFFFFFFFF AND DUP2 JUMP JUMPDEST PUSH0 DUP1 PUSH2 0xF28 PUSH2 0x1E37 JUMP JUMPDEST SWAP1 POP DUP1 PUSH0 ADD PUSH0 SWAP1 SLOAD SWAP1 PUSH2 0x100 EXP SWAP1 DIV PUSH20 0xFFFFFFFFFFFFFFFFFFFFFFFFFFFFFFFFFFFFFFFF AND SWAP2 POP POP SWAP1 JUMP JUMPDEST PUSH1 0x60 PUSH0 PUSH2 0xF5E PUSH2 0x170F JUMP JUMPDEST SWAP1 POP DUP1 PUSH1 0x4 ADD DUP1 SLOAD PUSH2 0xF6F SWAP1 PUSH2 0x2DBC JUMP JUMPDEST DUP1 PUSH1 0x1F ADD PUSH1 0x20 DUP1 SWAP2 DIV MUL PUSH1 0x20 ADD PUSH1 0x40 MLOAD SWAP1 DUP2 ADD PUSH1 0x40 MSTORE DUP1 SWAP3 SWAP2 SWAP1 DUP2 DUP2 MSTORE PUSH1 0x20 ADD DUP3 DUP1 SLOAD PUSH2 0xF9B SWAP1 PUSH2 0x2DBC JUMP JUMPDEST DUP1 ISZERO PUSH2 0xFE6 JUMPI DUP1 PUSH1 0x1F LT PUSH2 0xFBD JUMPI PUSH2 0x100 DUP1 DUP4 SLOAD DIV MUL DUP4 MSTORE SWAP2 PUSH1 0x20 ADD SWAP2 PUSH2 0xFE6 JUMP JUMPDEST DUP3 ADD SWAP2 SWAP1 PUSH0 MSTORE PUSH1 0x20 PUSH0 KECCAK256 SWAP1 JUMPDEST DUP2 SLOAD DUP2 MSTORE SWAP1 PUSH1 0x1 ADD SWAP1 PUSH1 0x20 ADD DUP1 DUP4 GT PUSH2 0xFC9 JUMPI DUP3 SWAP1 SUB PUSH1 0x1F AND DUP3 ADD SWAP2 JUMPDEST POP POP POP POP POP SWAP2 POP POP SWAP1 JUMP JUMPDEST PUSH2 0xFF9 PUSH2 0x174F JUMP JUMPDEST DUP1 PUSH1 0x43 DUP2 SWAP1 SSTORE POP PUSH32 0xF759D32EC37FE15560FBB2AD08F9EA31689D826215D24D6A6E2E740C517C66DB DUP2 PUSH1 0x40 MLOAD PUSH2 0x102F SWAP2 SWAP1 PUSH2 0x28DD JUMP JUMPDEST PUSH1 0x40 MLOAD DUP1 SWAP2 SUB SWAP1 LOG1 POP JUMP JUMPDEST PUSH0 PUSH2 0x1043 PUSH2 0x17D6 JUMP JUMPDEST PUSH2 0x105A PUSH1 0x43 SLOAD PUSH1 0x42 SLOAD PUSH2 0x1820 SWAP1 SWAP2 SWAP1 PUSH4 0xFFFFFFFF AND JUMP JUMPDEST TIMESTAMP LT PUSH2 0x1069 JUMPI PUSH2 0x1068 PUSH2 0x1835 JUMP JUMPDEST JUMPDEST PUSH2 0x107B PUSH2 0x1074 PUSH2 0x1736 JUMP JUMPDEST DUP5 DUP5 PUSH2 0x1A43 JUMP JUMPDEST SWAP1 POP SWAP3 SWAP2 POP POP JUMP JUMPDEST PUSH1 0x38 DUP2 PUSH1 0x5 DUP2 LT PUSH2 0x1092 JUMPI PUSH0 DUP1 REVERT JUMPDEST ADD PUSH0 SWAP2 POP SWAP1 POP SLOAD DUP2 JUMP JUMPDEST PUSH2 0x10A4 PUSH2 0x174F JUMP JUMPDEST DUP1 PUSH1 0x37 PUSH0 DUP5 PUSH20 0xFFFFFFFFFFFFFFFFFFFFFFFFFFFFFFFFFFFFFFFF AND PUSH20 0xFFFFFFFFFFFFFFFFFFFFFFFFFFFFFFFFFFFFFFFF AND DUP2 MSTORE PUSH1 0x20 ADD SWAP1 DUP2 MSTORE PUSH1 0x20 ADD PUSH0 KECCAK256 PUSH0 PUSH2 0x100 EXP DUP2 SLOAD DUP2 PUSH1 0xFF MUL NOT AND SWAP1 DUP4 ISZERO ISZERO MUL OR SWAP1 SSTORE POP DUP2 PUSH20 0xFFFFFFFFFFFFFFFFFFFFFFFFFFFFFFFFFFFFFFFF AND PUSH32 0xFA4A2B2457D2065452473BED7D55C8FA2F65FC4A1EFF1EBDAF14A1B7281E7773 DUP3 PUSH1 0x40 MLOAD PUSH2 0x113E SWAP2 SWAP1 PUSH2 0x288A JUMP JUMPDEST PUSH1 0x40 MLOAD DUP1 SWAP2 SUB SWAP1 LOG2 POP POP JUMP JUMPDEST PUSH2 0x1152 PUSH2 0x174F JUMP JUMPDEST PUSH2 0x115A PUSH2 0xDBD JUMP JUMPDEST JUMP JUMPDEST PUSH1 0x35 PUSH1 0x20 MSTORE DUP1 PUSH0 MSTORE PUSH1 0x40 PUSH0 KECCAK256 PUSH0 SWAP2 POP SLOAD SWAP1 PUSH2 0x100 EXP SWAP1 DIV PUSH1 0xFF AND DUP2 JUMP JUMPDEST PUSH1 0x43 SLOAD DUP2 JUMP JUMPDEST PUSH0 PUSH2 0x1188 PUSH2 0x1E5E JUMP JUMPDEST SWAP1 POP PUSH0 DUP2 PUSH0 ADD PUSH1 0x8 SWAP1 SLOAD SWAP1 PUSH2 0x100 EXP SWAP1 DIV PUSH1 0xFF AND ISZERO SWAP1 POP PUSH0 DUP3 PUSH0 ADD PUSH0 SWAP1 SLOAD SWAP1 PUSH2 0x100 EXP SWAP1 DIV PUSH8 0xFFFFFFFFFFFFFFFF AND SWAP1 POP PUSH0 DUP1 DUP3 PUSH8 0xFFFFFFFFFFFFFFFF AND EQ DUP1 ISZERO PUSH2 0x11D0 JUMPI POP DUP3 JUMPDEST SWAP1 POP PUSH0 PUSH1 0x1 DUP4 PUSH8 0xFFFFFFFFFFFFFFFF AND EQ DUP1 ISZERO PUSH2 0x1203 JUMPI POP PUSH0 ADDRESS PUSH20 0xFFFFFFFFFFFFFFFFFFFFFFFFFFFFFFFFFFFFFFFF AND EXTCODESIZE EQ JUMPDEST SWAP1 POP DUP2 ISZERO DUP1 ISZERO PUSH2 0x1211 JUMPI POP DUP1 ISZERO JUMPDEST ISZERO PUSH2 0x1248 JUMPI PUSH1 0x40 MLOAD PUSH32 0xF92EE8A900000000000000000000000000000000000000000000000000000000 DUP2 MSTORE PUSH1 0x4 ADD PUSH1 0x40 MLOAD DUP1 SWAP2 SUB SWAP1 REVERT JUMPDEST PUSH1 0x1 DUP6 PUSH0 ADD PUSH0 PUSH2 0x100 EXP DUP2 SLOAD DUP2 PUSH8 0xFFFFFFFFFFFFFFFF MUL NOT AND SWAP1 DUP4 PUSH8 0xFFFFFFFFFFFFFFFF AND MUL OR SWAP1 SSTORE POP DUP4 ISZERO PUSH2 0x1295 JUMPI PUSH1 0x1 DUP6 PUSH0 ADD PUSH1 0x8 PUSH2 0x100 EXP DUP2 SLOAD DUP2 PUSH1 0xFF MUL NOT AND SWAP1 DUP4 ISZERO ISZERO MUL OR SWAP1 SSTORE POP JUMPDEST PUSH2 0x129F DUP11 DUP11 PUSH2 0x1E85 JUMP JUMPDEST PUSH2 0x12A8 CALLER PUSH2 0x1E9B JUMP JUMPDEST PUSH2 0x12B0 PUSH2 0x1EAF JUMP JUMPDEST DUP8 PUSH1 0x32 PUSH0 PUSH2 0x100 EXP DUP2 SLOAD DUP2 PUSH20 0xFFFFFFFFFFFFFFFFFFFFFFFFFFFFFFFFFFFFFFFF MUL NOT AND SWAP1 DUP4 PUSH20 0xFFFFFFFFFFFFFFFFFFFFFFFFFFFFFFFFFFFFFFFF AND MUL OR SWAP1 SSTORE POP DUP7 PUSH1 0x33 PUSH0 PUSH2 0x100 EXP DUP2 SLOAD DUP2 PUSH20 0xFFFFFFFFFFFFFFFFFFFFFFFFFFFFFFFFFFFFFFFF MUL NOT AND SWAP1 DUP4 PUSH20 0xFFFFFFFFFFFFFFFFFFFFFFFFFFFFFFFFFFFFFFFF AND MUL OR SWAP1 SSTORE POP DUP6 PUSH1 0x34 PUSH0 PUSH2 0x100 EXP DUP2 SLOAD DUP2 PUSH20 0xFFFFFFFFFFFFFFFFFFFFFFFFFFFFFFFFFFFFFFFF MUL NOT AND SWAP1 DUP4 PUSH20 0xFFFFFFFFFFFFFFFFFFFFFFFFFFFFFFFFFFFFFFFF AND MUL OR SWAP1 SSTORE POP PUSH1 0x40 MLOAD DUP1 PUSH1 0xA0 ADD PUSH1 0x40 MSTORE DUP1 PUSH9 0x3635C9ADC5DEA00000 DUP2 MSTORE PUSH1 0x20 ADD PUSH10 0x10F0CF064DD59200000 DUP2 MSTORE PUSH1 0x20 ADD PUSH10 0x21E19E0C9BAB2400000 DUP2 MSTORE PUSH1 0x20 ADD PUSH10 0xA968163F0A57B400000 DUP2 MSTORE PUSH1 0x20 ADD PUSH32 0xFFFFFFFFFFFFFFFFFFFFFFFFFFFFFFFFFFFFFFFFFFFFFFFFFFFFFFFFFFFFFFFF DUP2 MSTORE POP PUSH1 0x38 SWAP1 PUSH1 0x5 PUSH2 0x13EE SWAP3 SWAP2 SWAP1 PUSH2 0x2649 JUMP JUMPDEST POP PUSH1 0x40 MLOAD DUP1 PUSH1 0xA0 ADD PUSH1 0x40 MSTORE DUP1 PUSH2 0x3E8 PUSH2 0xFFFF AND DUP2 MSTORE PUSH1 0x20 ADD PUSH2 0x320 PUSH2 0xFFFF AND DUP2 MSTORE PUSH1 0x20 ADD PUSH2 0x258 PUSH2 0xFFFF AND DUP2 MSTORE PUSH1 0x20 ADD PUSH2 0x190 PUSH2 0xFFFF AND DUP2 MSTORE PUSH1 0x20 ADD PUSH1 0xC8 PUSH2 0xFFFF AND DUP2 MSTORE POP PUSH1 0x3D SWAP1 PUSH1 0x5 PUSH2 0x1443 SWAP3 SWAP2 SWAP1 PUSH2 0x2689 JUMP JUMPDEST POP PUSH3 0x15180 PUSH1 0x43 DUP2 SWAP1 SSTORE POP DUP4 ISZERO PUSH2 0x14A8 JUMPI PUSH0 DUP6 PUSH0 ADD PUSH1 0x8 PUSH2 0x100 EXP DUP2 SLOAD DUP2 PUSH1 0xFF MUL NOT AND SWAP1 DUP4 ISZERO ISZERO MUL OR SWAP1 SSTORE POP PUSH32 0xC7F505B2F371AE2175EE4913F4499E1F2633A7B5936321EED1CDAEB6115181D2 PUSH1 0x1 PUSH1 0x40 MLOAD PUSH2 0x149F SWAP2 SWAP1 PUSH2 0x3378 JUMP JUMPDEST PUSH1 0x40 MLOAD DUP1 SWAP2 SUB SWAP1 LOG1 JUMPDEST POP POP POP POP POP POP POP POP POP POP JUMP JUMPDEST PUSH0 DUP1 PUSH2 0x14BE PUSH2 0x170F JUMP JUMPDEST SWAP1 POP DUP1 PUSH1 0x1 ADD PUSH0 DUP6 PUSH20 0xFFFFFFFFFFFFFFFFFFFFFFFFFFFFFFFFFFFFFFFF AND PUSH20 0xFFFFFFFFFFFFFFFFFFFFFFFFFFFFFFFFFFFFFFFF AND DUP2 MSTORE PUSH1 0x20 ADD SWAP1 DUP2 MSTORE PUSH1 0x20 ADD PUSH0 KECCAK256 PUSH0 DUP5 PUSH20 0xFFFFFFFFFFFFFFFFFFFFFFFFFFFFFFFFFFFFFFFF AND PUSH20 0xFFFFFFFFFFFFFFFFFFFFFFFFFFFFFFFFFFFFFFFF AND DUP2 MSTORE PUSH1 0x20 ADD SWAP1 DUP2 MSTORE PUSH1 0x20 ADD PUSH0 KECCAK256 SLOAD SWAP2 POP POP SWAP3 SWAP2 POP POP JUMP JUMPDEST PUSH2 0x154C PUSH2 0x174F JUMP JUMPDEST DUP2 PUSH1 0x35 PUSH0 DUP6 PUSH20 0xFFFFFFFFFFFFFFFFFFFFFFFFFFFFFFFFFFFFFFFF AND PUSH20 0xFFFFFFFFFFFFFFFFFFFFFFFFFFFFFFFFFFFFFFFF AND DUP2 MSTORE PUSH1 0x20 ADD SWAP1 DUP2 MSTORE PUSH1 0x20 ADD PUSH0 KECCAK256 PUSH0 PUSH2 0x100 EXP DUP2 SLOAD DUP2 PUSH1 0xFF MUL NOT AND SWAP1 DUP4 ISZERO ISZERO MUL OR SWAP1 SSTORE POP DUP1 PUSH1 0x36 PUSH0 DUP6 PUSH20 0xFFFFFFFFFFFFFFFFFFFFFFFFFFFFFFFFFFFFFFFF AND PUSH20 0xFFFFFFFFFFFFFFFFFFFFFFFFFFFFFFFFFFFFFFFF AND DUP2 MSTORE PUSH1 0x20 ADD SWAP1 DUP2 MSTORE PUSH1 0x20 ADD PUSH0 KECCAK256 PUSH0 PUSH2 0x100 EXP DUP2 SLOAD DUP2 PUSH1 0xFF MUL NOT AND SWAP1 DUP4 ISZERO ISZERO MUL OR SWAP1 SSTORE POP DUP3 PUSH20 0xFFFFFFFFFFFFFFFFFFFFFFFFFFFFFFFFFFFFFFFF AND PUSH32 0x56EF0FE49F8EE42D7982BB42D42FA7B8D1370EC36D0F8CB83802A7F74215027D DUP4 DUP4 PUSH1 0x40 MLOAD PUSH2 0x163C SWAP3 SWAP2 SWAP1 PUSH2 0x3391 JUMP JUMPDEST PUSH1 0x40 MLOAD DUP1 SWAP2 SUB SWAP1 LOG2 POP POP POP JUMP JUMPDEST PUSH1 0x32 PUSH0 SWAP1 SLOAD SWAP1 PUSH2 0x100 EXP SWAP1 DIV PUSH20 0xFFFFFFFFFFFFFFFFFFFFFFFFFFFFFFFFFFFFFFFF AND DUP2 JUMP JUMPDEST PUSH1 0x37 PUSH1 0x20 MSTORE DUP1 PUSH0 MSTORE PUSH1 0x40 PUSH0 KECCAK256 PUSH0 SWAP2 POP SLOAD SWAP1 PUSH2 0x100 EXP SWAP1 DIV PUSH1 0xFF AND DUP2 JUMP JUMPDEST PUSH2 0x1693 PUSH2 0x174F JUMP JUMPDEST PUSH0 PUSH20 0xFFFFFFFFFFFFFFFFFFFFFFFFFFFFFFFFFFFFFFFF AND DUP2 PUSH20 0xFFFFFFFFFFFFFFFFFFFFFFFFFFFFFFFFFFFFFFFF AND SUB PUSH2 0x1703 JUMPI PUSH0 PUSH1 0x40 MLOAD PUSH32 0x1E4FBDF700000000000000000000000000000000000000000000000000000000 DUP2 MSTORE PUSH1 0x4 ADD PUSH2 0x16FA SWAP2 SWAP1 PUSH2 0x29B4 JUMP JUMPDEST PUSH1 0x40 MLOAD DUP1 SWAP2 SUB SWAP1 REVERT JUMPDEST PUSH2 0x170C DUP2 PUSH2 0x1D05 JUMP JUMPDEST POP JUMP JUMPDEST PUSH0 PUSH32 0x52C63247E1F47DB19D5CE0460030C497F067CA4CEBF71BA98EEADABE20BACE00 SWAP1 POP SWAP1 JUMP JUMPDEST PUSH0 CALLER SWAP1 POP SWAP1 JUMP JUMPDEST PUSH2 0x174A DUP4 DUP4 DUP4 PUSH1 0x1 PUSH2 0x1EC1 JUMP JUMPDEST POP POP POP JUMP JUMPDEST PUSH2 0x1757 PUSH2 0x1736 JUMP JUMPDEST PUSH20 0xFFFFFFFFFFFFFFFFFFFFFFFFFFFFFFFFFFFFFFFF AND PUSH2 0x1775 PUSH2 0xF1E JUMP JUMPDEST PUSH20 0xFFFFFFFFFFFFFFFFFFFFFFFFFFFFFFFFFFFFFFFF AND EQ PUSH2 0x17D4 JUMPI PUSH2 0x1798 PUSH2 0x1736 JUMP JUMPDEST PUSH1 0x40 MLOAD PUSH32 0x118CDAA700000000000000000000000000000000000000000000000000000000 DUP2 MSTORE PUSH1 0x4 ADD PUSH2 0x17CB SWAP2 SWAP1 PUSH2 0x29B4 JUMP JUMPDEST PUSH1 0x40 MLOAD DUP1 SWAP2 SUB SWAP1 REVERT JUMPDEST JUMP JUMPDEST PUSH2 0x17DE PUSH2 0xD50 JUMP JUMPDEST ISZERO PUSH2 0x181E JUMPI PUSH1 0x40 MLOAD PUSH32 0x8C379A000000000000000000000000000000000000000000000000000000000 DUP2 MSTORE PUSH1 0x4 ADD PUSH2 0x1815 SWAP1 PUSH2 0x3402 JUMP JUMPDEST PUSH1 0x40 MLOAD DUP1 SWAP2 SUB SWAP1 REVERT JUMPDEST JUMP JUMPDEST PUSH0 DUP2 DUP4 PUSH2 0x182D SWAP2 SWAP1 PUSH2 0x3420 JUMP JUMPDEST SWAP1 POP SWAP3 SWAP2 POP POP JUMP JUMPDEST PUSH0 PUSH20 0xFFFFFFFFFFFFFFFFFFFFFFFFFFFFFFFFFFFFFFFF AND PUSH1 0x34 PUSH0 SWAP1 SLOAD SWAP1 PUSH2 0x100 EXP SWAP1 DIV PUSH20 0xFFFFFFFFFFFFFFFFFFFFFFFFFFFFFFFFFFFFFFFF AND PUSH20 0xFFFFFFFFFFFFFFFFFFFFFFFFFFFFFFFFFFFFFFFF AND EQ PUSH2 0x1A3A JUMPI PUSH0 DUP1 PUSH1 0x34 PUSH0 SWAP1 SLOAD SWAP1 PUSH2 0x100 EXP SWAP1 DIV PUSH20 0xFFFFFFFFFFFFFFFFFFFFFFFFFFFFFFFFFFFFFFFF AND PUSH20 0xFFFFFFFFFFFFFFFFFFFFFFFFFFFFFFFFFFFFFFFF AND PUSH1 0x40 MLOAD PUSH1 0x24 ADD PUSH1 0x40 MLOAD PUSH1 0x20 DUP2 DUP4 SUB SUB DUP2 MSTORE SWAP1 PUSH1 0x40 MSTORE PUSH32 0x902F1AC00000000000000000000000000000000000000000000000000000000 PUSH28 0xFFFFFFFFFFFFFFFFFFFFFFFFFFFFFFFFFFFFFFFFFFFFFFFFFFFFFFFF NOT AND PUSH1 0x20 DUP3 ADD DUP1 MLOAD PUSH28 0xFFFFFFFFFFFFFFFFFFFFFFFFFFFFFFFFFFFFFFFFFFFFFFFFFFFFFFFF DUP4 DUP2 DUP4 AND OR DUP4 MSTORE POP POP POP POP PUSH1 0x40 MLOAD PUSH2 0x1953 SWAP2 SWAP1 PUSH2 0x3497 JUMP JUMPDEST PUSH0 PUSH1 0x40 MLOAD DUP1 DUP4 SUB DUP2 DUP6 GAS STATICCALL SWAP2 POP POP RETURNDATASIZE DUP1 PUSH0 DUP2 EQ PUSH2 0x198B JUMPI PUSH1 0x40 MLOAD SWAP2 POP PUSH1 0x1F NOT PUSH1 0x3F RETURNDATASIZE ADD AND DUP3 ADD PUSH1 0x40 MSTORE RETURNDATASIZE DUP3 MSTORE RETURNDATASIZE PUSH0 PUSH1 0x20 DUP5 ADD RETURNDATACOPY PUSH2 0x1990 JUMP JUMPDEST PUSH1 0x60 SWAP2 POP JUMPDEST POP SWAP2 POP SWAP2 POP DUP2 PUSH2 0x19D5 JUMPI PUSH1 0x40 MLOAD PUSH32 0x8C379A000000000000000000000000000000000000000000000000000000000 DUP2 MSTORE PUSH1 0x4 ADD PUSH2 0x19CC SWAP1 PUSH2 0x34F7 JUMP JUMPDEST PUSH1 0x40 MLOAD DUP1 SWAP2 SUB SWAP1 REVERT JUMPDEST PUSH0 DUP2 DUP1 PUSH1 0x20 ADD SWAP1 MLOAD DUP2 ADD SWAP1 PUSH2 0x19EA SWAP2 SWAP1 PUSH2 0x3529 JUMP JUMPDEST SWAP1 POP DUP1 PUSH2 0x19F5 PUSH2 0x7F4 JUMP JUMPDEST GT ISZERO PUSH2 0x1A36 JUMPI PUSH1 0x40 MLOAD PUSH32 0x8C379A000000000000000000000000000000000000000000000000000000000 DUP2 MSTORE PUSH1 0x4 ADD PUSH2 0x1A2D SWAP1 PUSH2 0x359E JUMP JUMPDEST PUSH1 0x40 MLOAD DUP1 SWAP2 SUB SWAP1 REVERT JUMPDEST POP POP POP JUMPDEST TIMESTAMP PUSH1 0x42 DUP2 SWAP1 SSTORE POP JUMP JUMPDEST PUSH0 PUSH1 0x35 PUSH0 DUP6 PUSH20 0xFFFFFFFFFFFFFFFFFFFFFFFFFFFFFFFFFFFFFFFF AND PUSH20 0xFFFFFFFFFFFFFFFFFFFFFFFFFFFFFFFFFFFFFFFF AND DUP2 MSTORE PUSH1 0x20 ADD SWAP1 DUP2 MSTORE PUSH1 0x20 ADD PUSH0 KECCAK256 PUSH0 SWAP1 SLOAD SWAP1 PUSH2 0x100 EXP SWAP1 DIV PUSH1 0xFF AND DUP1 PUSH2 0x1ADF JUMPI POP PUSH1 0x36 PUSH0 DUP5 PUSH20 0xFFFFFFFFFFFFFFFFFFFFFFFFFFFFFFFFFFFFFFFF AND PUSH20 0xFFFFFFFFFFFFFFFFFFFFFFFFFFFFFFFFFFFFFFFF AND DUP2 MSTORE PUSH1 0x20 ADD SWAP1 DUP2 MSTORE PUSH1 0x20 ADD PUSH0 KECCAK256 PUSH0 SWAP1 SLOAD SWAP1 PUSH2 0x100 EXP SWAP1 DIV PUSH1 0xFF AND JUMPDEST DUP1 PUSH2 0x1B30 JUMPI POP PUSH1 0x37 PUSH0 DUP6 PUSH20 0xFFFFFFFFFFFFFFFFFFFFFFFFFFFFFFFFFFFFFFFF AND PUSH20 0xFFFFFFFFFFFFFFFFFFFFFFFFFFFFFFFFFFFFFFFF AND DUP2 MSTORE PUSH1 0x20 ADD SWAP1 DUP2 MSTORE PUSH1 0x20 ADD PUSH0 KECCAK256 PUSH0 SWAP1 SLOAD SWAP1 PUSH2 0x100 EXP SWAP1 DIV PUSH1 0xFF AND JUMPDEST ISZERO PUSH2 0x1B45 JUMPI PUSH2 0x1B40 DUP5 DUP5 DUP5 PUSH2 0x209E JUMP JUMPDEST PUSH2 0x1B9C JUMP JUMPDEST PUSH0 PUSH2 0x1B4F DUP4 PUSH2 0x218E JUMP JUMPDEST SWAP1 POP PUSH2 0x1B7D DUP6 PUSH1 0x33 PUSH0 SWAP1 SLOAD SWAP1 PUSH2 0x100 EXP SWAP1 DIV PUSH20 0xFFFFFFFFFFFFFFFFFFFFFFFFFFFFFFFFFFFFFFFF AND DUP4 PUSH2 0x209E JUMP JUMPDEST PUSH2 0x1B9A DUP6 DUP6 PUSH2 0x1B95 DUP5 DUP8 PUSH2 0x2252 SWAP1 SWAP2 SWAP1 PUSH4 0xFFFFFFFF AND JUMP JUMPDEST PUSH2 0x209E JUMP JUMPDEST POP JUMPDEST PUSH1 0x1 SWAP1 POP SWAP4 SWAP3 POP POP POP JUMP JUMPDEST PUSH2 0x1BAF PUSH2 0x2267 JUMP JUMPDEST PUSH0 DUP1 PUSH0 PUSH2 0x100 EXP DUP2 SLOAD DUP2 PUSH1 0xFF MUL NOT AND SWAP1 DUP4 ISZERO ISZERO MUL OR SWAP1 SSTORE POP PUSH32 0x5DB9EE0A495BF2E6FF9C91A7834C1BA4FDD244A5E8AA4E537BD38AEAE4B073AA PUSH2 0x1BF0 PUSH2 0x1736 JUMP JUMPDEST PUSH1 0x40 MLOAD PUSH2 0x1BFD SWAP2 SWAP1 PUSH2 0x29B4 JUMP JUMPDEST PUSH1 0x40 MLOAD DUP1 SWAP2 SUB SWAP1 LOG1 JUMP JUMPDEST PUSH0 PUSH20 0xFFFFFFFFFFFFFFFFFFFFFFFFFFFFFFFFFFFFFFFF AND DUP3 PUSH20 0xFFFFFFFFFFFFFFFFFFFFFFFFFFFFFFFFFFFFFFFF AND SUB PUSH2 0x1C77 JUMPI PUSH0 PUSH1 0x40 MLOAD PUSH32 0xEC442F0500000000000000000000000000000000000000000000000000000000 DUP2 MSTORE PUSH1 0x4 ADD PUSH2 0x1C6E SWAP2 SWAP1 PUSH2 0x29B4 JUMP JUMPDEST PUSH1 0x40 MLOAD DUP1 SWAP2 SUB SWAP1 REVERT JUMPDEST PUSH2 0x1C82 PUSH0 DUP4 DUP4 PUSH2 0x22B0 JUMP JUMPDEST POP POP JUMP JUMPDEST PUSH0 PUSH20 0xFFFFFFFFFFFFFFFFFFFFFFFFFFFFFFFFFFFFFFFF AND DUP3 PUSH20 0xFFFFFFFFFFFFFFFFFFFFFFFFFFFFFFFFFFFFFFFF AND SUB PUSH2 0x1CF6 JUMPI PUSH0 PUSH1 0x40 MLOAD PUSH32 0x96C6FD1E00000000000000000000000000000000000000000000000000000000 DUP2 MSTORE PUSH1 0x4 ADD PUSH2 0x1CED SWAP2 SWAP1 PUSH2 0x29B4 JUMP JUMPDEST PUSH1 0x40 MLOAD DUP1 SWAP2 SUB SWAP1 REVERT JUMPDEST PUSH2 0x1D01 DUP3 PUSH0 DUP4 PUSH2 0x22B0 JUMP JUMPDEST POP POP JUMP JUMPDEST PUSH0 PUSH2 0x1D0E PUSH2 0x1E37 JUMP JUMPDEST SWAP1 POP PUSH0 DUP2 PUSH0 ADD PUSH0 SWAP1 SLOAD SWAP1 PUSH2 0x100 EXP SWAP1 DIV PUSH20 0xFFFFFFFFFFFFFFFFFFFFFFFFFFFFFFFFFFFFFFFF AND SWAP1 POP DUP3 DUP3 PUSH0 ADD PUSH0 PUSH2 0x100 EXP DUP2 SLOAD DUP2 PUSH20 0xFFFFFFFFFFFFFFFFFFFFFFFFFFFFFFFFFFFFFFFF MUL NOT AND SWAP1 DUP4 PUSH20 0xFFFFFFFFFFFFFFFFFFFFFFFFFFFFFFFFFFFFFFFF AND MUL OR SWAP1 SSTORE POP DUP3 PUSH20 0xFFFFFFFFFFFFFFFFFFFFFFFFFFFFFFFFFFFFFFFF AND DUP2 PUSH20 0xFFFFFFFFFFFFFFFFFFFFFFFFFFFFFFFFFFFFFFFF AND PUSH32 0x8BE0079C531659141344CD1FD0A4F28419497F9722A3DAAFE3B4186F6B6457E0 PUSH1 0x40 MLOAD PUSH1 0x40 MLOAD DUP1 SWAP2 SUB SWAP1 LOG3 POP POP POP JUMP JUMPDEST PUSH2 0x1DDE PUSH2 0x17D6 JUMP JUMPDEST PUSH1 0x1 PUSH0 DUP1 PUSH2 0x100 EXP DUP2 SLOAD DUP2 PUSH1 0xFF MUL NOT AND SWAP1 DUP4 ISZERO ISZERO MUL OR SWAP1 SSTORE POP PUSH32 0x62E78CEA01BEE320CD4E420270B5EA74000D11B0C9F74754EBDBFC544B05A258 PUSH2 0x1E20 PUSH2 0x1736 JUMP JUMPDEST PUSH1 0x40 MLOAD PUSH2 0x1E2D SWAP2 SWAP1 PUSH2 0x29B4 JUMP JUMPDEST PUSH1 0x40 MLOAD DUP1 SWAP2 SUB SWAP1 LOG1 JUMP JUMPDEST PUSH0 PUSH32 0x9016D09D72D40FDAE2FD8CEAC6B6234C7706214FD39C1CD1E609A0528C199300 SWAP1 POP SWAP1 JUMP JUMPDEST PUSH0 PUSH32 0xF0C57E16840DF040F15088DC2F81FE391C3923BEC73E23A9662EFC9C229C6A00 SWAP1 POP SWAP1 JUMP JUMPDEST PUSH2 0x1E8D PUSH2 0x24DF JUMP JUMPDEST PUSH2 0x1E97 DUP3 DUP3 PUSH2 0x251F JUMP JUMPDEST POP POP JUMP JUMPDEST PUSH2 0x1EA3 PUSH2 0x24DF JUMP JUMPDEST PUSH2 0x1EAC DUP2 PUSH2 0x255B JUMP JUMPDEST POP JUMP JUMPDEST PUSH2 0x1EB7 PUSH2 0x24DF JUMP JUMPDEST PUSH2 0x1EBF PUSH2 0x25DF JUMP JUMPDEST JUMP JUMPDEST PUSH0 PUSH2 0x1ECA PUSH2 0x170F JUMP JUMPDEST SWAP1 POP PUSH0 PUSH20 0xFFFFFFFFFFFFFFFFFFFFFFFFFFFFFFFFFFFFFFFF AND DUP6 PUSH20 0xFFFFFFFFFFFFFFFFFFFFFFFFFFFFFFFFFFFFFFFF AND SUB PUSH2 0x1F3C JUMPI PUSH0 PUSH1 0x40 MLOAD PUSH32 0xE602DF0500000000000000000000000000000000000000000000000000000000 DUP2 MSTORE PUSH1 0x4 ADD PUSH2 0x1F33 SWAP2 SWAP1 PUSH2 0x29B4 JUMP JUMPDEST PUSH1 0x40 MLOAD DUP1 SWAP2 SUB SWAP1 REVERT JUMPDEST PUSH0 PUSH20 0xFFFFFFFFFFFFFFFFFFFFFFFFFFFFFFFFFFFFFFFF AND DUP5 PUSH20 0xFFFFFFFFFFFFFFFFFFFFFFFFFFFFFFFFFFFFFFFF AND SUB PUSH2 0x1FAC JUMPI PUSH0 PUSH1 0x40 MLOAD PUSH32 0x94280D6200000000000000000000000000000000000000000000000000000000 DUP2 MSTORE PUSH1 0x4 ADD PUSH2 0x1FA3 SWAP2 SWAP1 PUSH2 0x29B4 JUMP JUMPDEST PUSH1 0x40 MLOAD DUP1 SWAP2 SUB SWAP1 REVERT JUMPDEST DUP3 DUP2 PUSH1 0x1 ADD PUSH0 DUP8 PUSH20 0xFFFFFFFFFFFFFFFFFFFFFFFFFFFFFFFFFFFFFFFF AND PUSH20 0xFFFFFFFFFFFFFFFFFFFFFFFFFFFFFFFFFFFFFFFF AND DUP2 MSTORE PUSH1 0x20 ADD SWAP1 DUP2 MSTORE PUSH1 0x20 ADD PUSH0 KECCAK256 PUSH0 DUP7 PUSH20 0xFFFFFFFFFFFFFFFFFFFFFFFFFFFFFFFFFFFFFFFF AND PUSH20 0xFFFFFFFFFFFFFFFFFFFFFFFFFFFFFFFFFFFFFFFF AND DUP2 MSTORE PUSH1 0x20 ADD SWAP1 DUP2 MSTORE PUSH1 0x20 ADD PUSH0 KECCAK256 DUP2 SWAP1 SSTORE POP DUP2 ISZERO PUSH2 0x2097 JUMPI DUP4 PUSH20 0xFFFFFFFFFFFFFFFFFFFFFFFFFFFFFFFFFFFFFFFF AND DUP6 PUSH20 0xFFFFFFFFFFFFFFFFFFFFFFFFFFFFFFFFFFFFFFFF AND PUSH32 0x8C5BE1E5EBEC7D5BD14F71427D1E84F3DD0314C0F7B2291E5B200AC8C7C3B925 DUP6 PUSH1 0x40 MLOAD PUSH2 0x208E SWAP2 SWAP1 PUSH2 0x28DD JUMP JUMPDEST PUSH1 0x40 MLOAD DUP1 SWAP2 SUB SWAP1 LOG3 JUMPDEST POP POP POP POP POP JUMP JUMPDEST PUSH0 PUSH20 0xFFFFFFFFFFFFFFFFFFFFFFFFFFFFFFFFFFFFFFFF AND DUP4 PUSH20 0xFFFFFFFFFFFFFFFFFFFFFFFFFFFFFFFFFFFFFFFF AND SUB PUSH2 0x210E JUMPI PUSH0 PUSH1 0x40 MLOAD PUSH32 0x96C6FD1E00000000000000000000000000000000000000000000000000000000 DUP2 MSTORE PUSH1 0x4 ADD PUSH2 0x2105 SWAP2 SWAP1 PUSH2 0x29B4 JUMP JUMPDEST PUSH1 0x40 MLOAD DUP1 SWAP2 SUB SWAP1 REVERT JUMPDEST PUSH0 PUSH20 0xFFFFFFFFFFFFFFFFFFFFFFFFFFFFFFFFFFFFFFFF AND DUP3 PUSH20 0xFFFFFFFFFFFFFFFFFFFFFFFFFFFFFFFFFFFFFFFF AND SUB PUSH2 0x217E JUMPI PUSH0 PUSH1 0x40 MLOAD PUSH32 0xEC442F0500000000000000000000000000000000000000000000000000000000 DUP2 MSTORE PUSH1 0x4 ADD PUSH2 0x2175 SWAP2 SWAP1 PUSH2 0x29B4 JUMP JUMPDEST PUSH1 0x40 MLOAD DUP1 SWAP2 SUB SWAP1 REVERT JUMPDEST PUSH2 0x2189 DUP4 DUP4 DUP4 PUSH2 0x22B0 JUMP JUMPDEST POP POP POP JUMP JUMPDEST PUSH0 DUP1 PUSH0 SWAP1 POP JUMPDEST PUSH1 0x5 DUP2 LT ISZERO PUSH2 0x2211 JUMPI PUSH1 0x38 DUP2 PUSH1 0x5 DUP2 LT PUSH2 0x21B1 JUMPI PUSH2 0x21B0 PUSH2 0x2F96 JUMP JUMPDEST JUMPDEST ADD SLOAD DUP4 GT PUSH2 0x21FE JUMPI PUSH2 0x21F6 PUSH3 0x186A0 PUSH2 0x21E8 PUSH1 0x3D DUP5 PUSH1 0x5 DUP2 LT PUSH2 0x21D7 JUMPI PUSH2 0x21D6 PUSH2 0x2F96 JUMP JUMPDEST JUMPDEST ADD SLOAD DUP7 PUSH2 0x2601 SWAP1 SWAP2 SWAP1 PUSH4 0xFFFFFFFF AND JUMP JUMPDEST PUSH2 0x2616 SWAP1 SWAP2 SWAP1 PUSH4 0xFFFFFFFF AND JUMP JUMPDEST SWAP2 POP POP PUSH2 0x224D JUMP JUMPDEST DUP1 DUP1 PUSH2 0x2209 SWAP1 PUSH2 0x3181 JUMP JUMPDEST SWAP2 POP POP PUSH2 0x2194 JUMP JUMPDEST POP PUSH1 0x40 MLOAD PUSH32 0x8C379A000000000000000000000000000000000000000000000000000000000 DUP2 MSTORE PUSH1 0x4 ADD PUSH2 0x2244 SWAP1 PUSH2 0x3606 JUMP JUMPDEST PUSH1 0x40 MLOAD DUP1 SWAP2 SUB SWAP1 REVERT JUMPDEST SWAP2 SWAP1 POP JUMP JUMPDEST PUSH0 DUP2 DUP4 PUSH2 0x225F SWAP2 SWAP1 PUSH2 0x30C0 JUMP JUMPDEST SWAP1 POP SWAP3 SWAP2 POP POP JUMP JUMPDEST PUSH2 0x226F PUSH2 0xD50 JUMP JUMPDEST PUSH2 0x22AE JUMPI PUSH1 0x40 MLOAD PUSH32 0x8C379A000000000000000000000000000000000000000000000000000000000 DUP2 MSTORE PUSH1 0x4 ADD PUSH2 0x22A5 SWAP1 PUSH2 0x366E JUMP JUMPDEST PUSH1 0x40 MLOAD DUP1 SWAP2 SUB SWAP1 REVERT JUMPDEST JUMP JUMPDEST PUSH0 PUSH2 0x22B9 PUSH2 0x170F JUMP JUMPDEST SWAP1 POP PUSH0 PUSH20 0xFFFFFFFFFFFFFFFFFFFFFFFFFFFFFFFFFFFFFFFF AND DUP5 PUSH20 0xFFFFFFFFFFFFFFFFFFFFFFFFFFFFFFFFFFFFFFFF AND SUB PUSH2 0x230D JUMPI DUP2 DUP2 PUSH1 0x2 ADD PUSH0 DUP3 DUP3 SLOAD PUSH2 0x2301 SWAP2 SWAP1 PUSH2 0x3420 JUMP JUMPDEST SWAP3 POP POP DUP2 SWAP1 SSTORE POP PUSH2 0x23DF JUMP JUMPDEST PUSH0 DUP2 PUSH0 ADD PUSH0 DUP7 PUSH20 0xFFFFFFFFFFFFFFFFFFFFFFFFFFFFFFFFFFFFFFFF AND PUSH20 0xFFFFFFFFFFFFFFFFFFFFFFFFFFFFFFFFFFFFFFFF AND DUP2 MSTORE PUSH1 0x20 ADD SWAP1 DUP2 MSTORE PUSH1 0x20 ADD PUSH0 KECCAK256 SLOAD SWAP1 POP DUP3 DUP2 LT ISZERO PUSH2 0x2398 JUMPI DUP5 DUP2 DUP5 PUSH1 0x40 MLOAD PUSH32 0xE450D38C00000000000000000000000000000000000000000000000000000000 DUP2 MSTORE PUSH1 0x4 ADD PUSH2 0x238F SWAP4 SWAP3 SWAP2 SWAP1 PUSH2 0x368C JUMP JUMPDEST PUSH1 0x40 MLOAD DUP1 SWAP2 SUB SWAP1 REVERT JUMPDEST DUP3 DUP2 SUB DUP3 PUSH0 ADD PUSH0 DUP8 PUSH20 0xFFFFFFFFFFFFFFFFFFFFFFFFFFFFFFFFFFFFFFFF AND PUSH20 0xFFFFFFFFFFFFFFFFFFFFFFFFFFFFFFFFFFFFFFFF AND DUP2 MSTORE PUSH1 0x20 ADD SWAP1 DUP2 MSTORE PUSH1 0x20 ADD PUSH0 KECCAK256 DUP2 SWAP1 SSTORE POP POP JUMPDEST PUSH0 PUSH20 0xFFFFFFFFFFFFFFFFFFFFFFFFFFFFFFFFFFFFFFFF AND DUP4 PUSH20 0xFFFFFFFFFFFFFFFFFFFFFFFFFFFFFFFFFFFFFFFF AND SUB PUSH2 0x2428 JUMPI DUP2 DUP2 PUSH1 0x2 ADD PUSH0 DUP3 DUP3 SLOAD SUB SWAP3 POP POP DUP2 SWAP1 SSTORE POP PUSH2 0x2474 JUMP JUMPDEST DUP2 DUP2 PUSH0 ADD PUSH0 DUP6 PUSH20 0xFFFFFFFFFFFFFFFFFFFFFFFFFFFFFFFFFFFFFFFF AND PUSH20 0xFFFFFFFFFFFFFFFFFFFFFFFFFFFFFFFFFFFFFFFF AND DUP2 MSTORE PUSH1 0x20 ADD SWAP1 DUP2 MSTORE PUSH1 0x20 ADD PUSH0 KECCAK256 PUSH0 DUP3 DUP3 SLOAD ADD SWAP3 POP POP DUP2 SWAP1 SSTORE POP JUMPDEST DUP3 PUSH20 0xFFFFFFFFFFFFFFFFFFFFFFFFFFFFFFFFFFFFFFFF AND DUP5 PUSH20 0xFFFFFFFFFFFFFFFFFFFFFFFFFFFFFFFFFFFFFFFF AND PUSH32 0xDDF252AD1BE2C89B69C2B068FC378DAA952BA7F163C4A11628F55A4DF523B3EF DUP5 PUSH1 0x40 MLOAD PUSH2 0x24D1 SWAP2 SWAP1 PUSH2 0x28DD JUMP JUMPDEST PUSH1 0x40 MLOAD DUP1 SWAP2 SUB SWAP1 LOG3 POP POP POP POP JUMP JUMPDEST PUSH2 0x24E7 PUSH2 0x262B JUMP JUMPDEST PUSH2 0x251D JUMPI PUSH1 0x40 MLOAD PUSH32 0xD7E6BCF800000000000000000000000000000000000000000000000000000000 DUP2 MSTORE PUSH1 0x4 ADD PUSH1 0x40 MLOAD DUP1 SWAP2 SUB SWAP1 REVERT JUMPDEST JUMP JUMPDEST PUSH2 0x2527 PUSH2 0x24DF JUMP JUMPDEST PUSH0 PUSH2 0x2530 PUSH2 0x170F JUMP JUMPDEST SWAP1 POP DUP3 DUP2 PUSH1 0x3 ADD SWAP1 DUP2 PUSH2 0x2543 SWAP2 SWAP1 PUSH2 0x3855 JUMP JUMPDEST POP DUP2 DUP2 PUSH1 0x4 ADD SWAP1 DUP2 PUSH2 0x2555 SWAP2 SWAP1 PUSH2 0x3855 JUMP JUMPDEST POP POP POP POP JUMP JUMPDEST PUSH2 0x2563 PUSH2 0x24DF JUMP JUMPDEST PUSH0 PUSH20 0xFFFFFFFFFFFFFFFFFFFFFFFFFFFFFFFFFFFFFFFF AND DUP2 PUSH20 0xFFFFFFFFFFFFFFFFFFFFFFFFFFFFFFFFFFFFFFFF AND SUB PUSH2 0x25D3 JUMPI PUSH0 PUSH1 0x40 MLOAD PUSH32 0x1E4FBDF700000000000000000000000000000000000000000000000000000000 DUP2 MSTORE PUSH1 0x4 ADD PUSH2 0x25CA SWAP2 SWAP1 PUSH2 0x29B4 JUMP JUMPDEST PUSH1 0x40 MLOAD DUP1 SWAP2 SUB SWAP1 REVERT JUMPDEST PUSH2 0x25DC DUP2 PUSH2 0x1D05 JUMP JUMPDEST POP JUMP JUMPDEST PUSH2 0x25E7 PUSH2 0x24DF JUMP JUMPDEST PUSH0 DUP1 PUSH0 PUSH2 0x100 EXP DUP2 SLOAD DUP2 PUSH1 0xFF MUL NOT AND SWAP1 DUP4 ISZERO ISZERO MUL OR SWAP1 SSTORE POP JUMP JUMPDEST PUSH0 DUP2 DUP4 PUSH2 0x260E SWAP2 SWAP1 PUSH2 0x3924 JUMP JUMPDEST SWAP1 POP SWAP3 SWAP2 POP POP JUMP JUMPDEST PUSH0 DUP2 DUP4 PUSH2 0x2623 SWAP2 SWAP1 PUSH2 0x3992 JUMP JUMPDEST SWAP1 POP SWAP3 SWAP2 POP POP JUMP JUMPDEST PUSH0 PUSH2 0x2634 PUSH2 0x1E5E JUMP JUMPDEST PUSH0 ADD PUSH1 0x8 SWAP1 SLOAD SWAP1 PUSH2 0x100 EXP SWAP1 DIV PUSH1 0xFF AND SWAP1 POP SWAP1 JUMP JUMPDEST DUP3 PUSH1 0x5 DUP2 ADD SWAP3 DUP3 ISZERO PUSH2 0x2678 JUMPI SWAP2 PUSH1 0x20 MUL DUP3 ADD JUMPDEST DUP3 DUP2 GT ISZERO PUSH2 0x2677 JUMPI DUP3 MLOAD DUP3 SSTORE SWAP2 PUSH1 0x20 ADD SWAP2 SWAP1 PUSH1 0x1 ADD SWAP1 PUSH2 0x265C JUMP JUMPDEST JUMPDEST POP SWAP1 POP PUSH2 0x2685 SWAP2 SWAP1 PUSH2 0x26CF JUMP JUMPDEST POP SWAP1 JUMP JUMPDEST DUP3 PUSH1 0x5 DUP2 ADD SWAP3 DUP3 ISZERO PUSH2 0x26BE JUMPI SWAP2 PUSH1 0x20 MUL DUP3 ADD JUMPDEST DUP3 DUP2 GT ISZERO PUSH2 0x26BD JUMPI DUP3 MLOAD DUP3 SWAP1 PUSH2 0xFFFF AND SWAP1 SSTORE SWAP2 PUSH1 0x20 ADD SWAP2 SWAP1 PUSH1 0x1 ADD SWAP1 PUSH2 0x269C JUMP JUMPDEST JUMPDEST POP SWAP1 POP PUSH2 0x26CB SWAP2 SWAP1 PUSH2 0x26CF JUMP JUMPDEST POP SWAP1 JUMP JUMPDEST JUMPDEST DUP1 DUP3 GT ISZERO PUSH2 0x26E6 JUMPI PUSH0 DUP2 PUSH0 SWAP1 SSTORE POP PUSH1 0x1 ADD PUSH2 0x26D0 JUMP JUMPDEST POP SWAP1 JUMP JUMPDEST PUSH0 DUP2 MLOAD SWAP1 POP SWAP2 SWAP1 POP JUMP JUMPDEST PUSH0 DUP3 DUP3 MSTORE PUSH1 0x20 DUP3 ADD SWAP1 POP SWAP3 SWAP2 POP POP JUMP JUMPDEST PUSH0 JUMPDEST DUP4 DUP2 LT ISZERO PUSH2 0x2721 JUMPI DUP1 DUP3 ADD MLOAD DUP2 DUP5 ADD MSTORE PUSH1 0x20 DUP2 ADD SWAP1 POP PUSH2 0x2706 JUMP JUMPDEST PUSH0 DUP5 DUP5 ADD MSTORE POP POP POP POP JUMP JUMPDEST PUSH0 PUSH1 0x1F NOT PUSH1 0x1F DUP4 ADD AND SWAP1 POP SWAP2 SWAP1 POP JUMP JUMPDEST PUSH0 PUSH2 0x2746 DUP3 PUSH2 0x26EA JUMP JUMPDEST PUSH2 0x2750 DUP2 DUP6 PUSH2 0x26F4 JUMP JUMPDEST SWAP4 POP PUSH2 0x2760 DUP2 DUP6 PUSH1 0x20 DUP7 ADD PUSH2 0x2704 JUMP JUMPDEST PUSH2 0x2769 DUP2 PUSH2 0x272C JUMP JUMPDEST DUP5 ADD SWAP2 POP POP SWAP3 SWAP2 POP POP JUMP JUMPDEST PUSH0 PUSH1 0x20 DUP3 ADD SWAP1 POP DUP2 DUP2 SUB PUSH0 DUP4 ADD MSTORE PUSH2 0x278C DUP2 DUP5 PUSH2 0x273C JUMP JUMPDEST SWAP1 POP SWAP3 SWAP2 POP POP JUMP JUMPDEST PUSH0 PUSH1 0x40 MLOAD SWAP1 POP SWAP1 JUMP JUMPDEST PUSH0 DUP1 REVERT JUMPDEST PUSH0 DUP1 REVERT JUMPDEST PUSH0 PUSH20 0xFFFFFFFFFFFFFFFFFFFFFFFFFFFFFFFFFFFFFFFF DUP3 AND SWAP1 POP SWAP2 SWAP1 POP JUMP JUMPDEST PUSH0 PUSH2 0x27CE DUP3 PUSH2 0x27A5 JUMP JUMPDEST SWAP1 POP SWAP2 SWAP1 POP JUMP JUMPDEST PUSH2 0x27DE DUP2 PUSH2 0x27C4 JUMP JUMPDEST DUP2 EQ PUSH2 0x27E8 JUMPI PUSH0 DUP1 REVERT JUMPDEST POP JUMP JUMPDEST PUSH0 DUP2 CALLDATALOAD SWAP1 POP PUSH2 0x27F9 DUP2 PUSH2 0x27D5 JUMP JUMPDEST SWAP3 SWAP2 POP POP JUMP JUMPDEST PUSH0 DUP2 SWAP1 POP SWAP2 SWAP1 POP JUMP JUMPDEST PUSH2 0x2811 DUP2 PUSH2 0x27FF JUMP JUMPDEST DUP2 EQ PUSH2 0x281B JUMPI PUSH0 DUP1 REVERT JUMPDEST POP JUMP JUMPDEST PUSH0 DUP2 CALLDATALOAD SWAP1 POP PUSH2 0x282C DUP2 PUSH2 0x2808 JUMP JUMPDEST SWAP3 SWAP2 POP POP JUMP JUMPDEST PUSH0 DUP1 PUSH1 0x40 DUP4 DUP6 SUB SLT ISZERO PUSH2 0x2848 JUMPI PUSH2 0x2847 PUSH2 0x279D JUMP JUMPDEST JUMPDEST PUSH0 PUSH2 0x2855 DUP6 DUP3 DUP7 ADD PUSH2 0x27EB JUMP JUMPDEST SWAP3 POP POP PUSH1 0x20 PUSH2 0x2866 DUP6 DUP3 DUP7 ADD PUSH2 0x281E JUMP JUMPDEST SWAP2 POP POP SWAP3 POP SWAP3 SWAP1 POP JUMP JUMPDEST PUSH0 DUP2 ISZERO ISZERO SWAP1 POP SWAP2 SWAP1 POP JUMP JUMPDEST PUSH2 0x2884 DUP2 PUSH2 0x2870 JUMP JUMPDEST DUP3 MSTORE POP POP JUMP JUMPDEST PUSH0 PUSH1 0x20 DUP3 ADD SWAP1 POP PUSH2 0x289D PUSH0 DUP4 ADD DUP5 PUSH2 0x287B JUMP JUMPDEST SWAP3 SWAP2 POP POP JUMP JUMPDEST PUSH0 PUSH1 0x20 DUP3 DUP5 SUB SLT ISZERO PUSH2 0x28B8 JUMPI PUSH2 0x28B7 PUSH2 0x279D JUMP JUMPDEST JUMPDEST PUSH0 PUSH2 0x28C5 DUP5 DUP3 DUP6 ADD PUSH2 0x281E JUMP JUMPDEST SWAP2 POP POP SWAP3 SWAP2 POP POP JUMP JUMPDEST PUSH2 0x28D7 DUP2 PUSH2 0x27FF JUMP JUMPDEST DUP3 MSTORE POP POP JUMP JUMPDEST PUSH0 PUSH1 0x20 DUP3 ADD SWAP1 POP PUSH2 0x28F0 PUSH0 DUP4 ADD DUP5 PUSH2 0x28CE JUMP JUMPDEST SWAP3 SWAP2 POP POP JUMP JUMPDEST PUSH0 PUSH1 0x20 DUP3 DUP5 SUB SLT ISZERO PUSH2 0x290B JUMPI PUSH2 0x290A PUSH2 0x279D JUMP JUMPDEST JUMPDEST PUSH0 PUSH2 0x2918 DUP5 DUP3 DUP6 ADD PUSH2 0x27EB JUMP JUMPDEST SWAP2 POP POP SWAP3 SWAP2 POP POP JUMP JUMPDEST PUSH0 DUP1 PUSH0 PUSH1 0x60 DUP5 DUP7 SUB SLT ISZERO PUSH2 0x2938 JUMPI PUSH2 0x2937 PUSH2 0x279D JUMP JUMPDEST JUMPDEST PUSH0 PUSH2 0x2945 DUP7 DUP3 DUP8 ADD PUSH2 0x27EB JUMP JUMPDEST SWAP4 POP POP PUSH1 0x20 PUSH2 0x2956 DUP7 DUP3 DUP8 ADD PUSH2 0x27EB JUMP JUMPDEST SWAP3 POP POP PUSH1 0x40 PUSH2 0x2967 DUP7 DUP3 DUP8 ADD PUSH2 0x281E JUMP JUMPDEST SWAP2 POP POP SWAP3 POP SWAP3 POP SWAP3 JUMP JUMPDEST PUSH0 PUSH1 0xFF DUP3 AND SWAP1 POP SWAP2 SWAP1 POP JUMP JUMPDEST PUSH2 0x2986 DUP2 PUSH2 0x2971 JUMP JUMPDEST DUP3 MSTORE POP POP JUMP JUMPDEST PUSH0 PUSH1 0x20 DUP3 ADD SWAP1 POP PUSH2 0x299F PUSH0 DUP4 ADD DUP5 PUSH2 0x297D JUMP JUMPDEST SWAP3 SWAP2 POP POP JUMP JUMPDEST PUSH2 0x29AE DUP2 PUSH2 0x27C4 JUMP JUMPDEST DUP3 MSTORE POP POP JUMP JUMPDEST PUSH0 PUSH1 0x20 DUP3 ADD SWAP1 POP PUSH2 0x29C7 PUSH0 DUP4 ADD DUP5 PUSH2 0x29A5 JUMP JUMPDEST SWAP3 SWAP2 POP POP JUMP JUMPDEST PUSH0 DUP1 REVERT JUMPDEST PUSH32 0x4E487B7100000000000000000000000000000000000000000000000000000000 PUSH0 MSTORE PUSH1 0x41 PUSH1 0x4 MSTORE PUSH1 0x24 PUSH0 REVERT JUMPDEST PUSH2 0x2A07 DUP3 PUSH2 0x272C JUMP JUMPDEST DUP2 ADD DUP2 DUP2 LT PUSH8 0xFFFFFFFFFFFFFFFF DUP3 GT OR ISZERO PUSH2 0x2A26 JUMPI PUSH2 0x2A25 PUSH2 0x29D1 JUMP JUMPDEST JUMPDEST DUP1 PUSH1 0x40 MSTORE POP POP POP JUMP JUMPDEST PUSH0 PUSH2 0x2A38 PUSH2 0x2794 JUMP JUMPDEST SWAP1 POP PUSH2 0x2A44 DUP3 DUP3 PUSH2 0x29FE JUMP JUMPDEST SWAP2 SWAP1 POP JUMP JUMPDEST PUSH0 PUSH8 0xFFFFFFFFFFFFFFFF DUP3 GT ISZERO PUSH2 0x2A63 JUMPI PUSH2 0x2A62 PUSH2 0x29D1 JUMP JUMPDEST JUMPDEST PUSH1 0x20 DUP3 MUL SWAP1 POP SWAP2 SWAP1 POP JUMP JUMPDEST PUSH0 DUP1 REVERT JUMPDEST PUSH0 PUSH2 0x2A84 PUSH2 0x2A7F DUP5 PUSH2 0x2A49 JUMP JUMPDEST PUSH2 0x2A2F JUMP JUMPDEST SWAP1 POP DUP1 PUSH1 0x20 DUP5 MUL DUP4 ADD DUP6 DUP2 GT ISZERO PUSH2 0x2A9E JUMPI PUSH2 0x2A9D PUSH2 0x2A6E JUMP JUMPDEST JUMPDEST DUP4 JUMPDEST DUP2 DUP2 LT ISZERO PUSH2 0x2AC7 JUMPI DUP1 PUSH2 0x2AB3 DUP9 DUP3 PUSH2 0x281E JUMP JUMPDEST DUP5 MSTORE PUSH1 0x20 DUP5 ADD SWAP4 POP POP PUSH1 0x20 DUP2 ADD SWAP1 POP PUSH2 0x2AA0 JUMP JUMPDEST POP POP POP SWAP4 SWAP3 POP POP POP JUMP JUMPDEST PUSH0 DUP3 PUSH1 0x1F DUP4 ADD SLT PUSH2 0x2AE5 JUMPI PUSH2 0x2AE4 PUSH2 0x29CD JUMP JUMPDEST JUMPDEST PUSH1 0x5 PUSH2 0x2AF2 DUP5 DUP3 DUP6 PUSH2 0x2A72 JUMP JUMPDEST SWAP2 POP POP SWAP3 SWAP2 POP POP JUMP JUMPDEST PUSH0 DUP1 PUSH2 0x140 DUP4 DUP6 SUB SLT ISZERO PUSH2 0x2B12 JUMPI PUSH2 0x2B11 PUSH2 0x279D JUMP JUMPDEST JUMPDEST PUSH0 PUSH2 0x2B1F DUP6 DUP3 DUP7 ADD PUSH2 0x2AD1 JUMP JUMPDEST SWAP3 POP POP PUSH1 0xA0 PUSH2 0x2B30 DUP6 DUP3 DUP7 ADD PUSH2 0x2AD1 JUMP JUMPDEST SWAP2 POP POP SWAP3 POP SWAP3 SWAP1 POP JUMP JUMPDEST PUSH2 0x2B43 DUP2 PUSH2 0x2870 JUMP JUMPDEST DUP2 EQ PUSH2 0x2B4D JUMPI PUSH0 DUP1 REVERT JUMPDEST POP JUMP JUMPDEST PUSH0 DUP2 CALLDATALOAD SWAP1 POP PUSH2 0x2B5E DUP2 PUSH2 0x2B3A JUMP JUMPDEST SWAP3 SWAP2 POP POP JUMP JUMPDEST PUSH0 DUP1 PUSH1 0x40 DUP4 DUP6 SUB SLT ISZERO PUSH2 0x2B7A JUMPI PUSH2 0x2B79 PUSH2 0x279D JUMP JUMPDEST JUMPDEST PUSH0 PUSH2 0x2B87 DUP6 DUP3 DUP7 ADD PUSH2 0x27EB JUMP JUMPDEST SWAP3 POP POP PUSH1 0x20 PUSH2 0x2B98 DUP6 DUP3 DUP7 ADD PUSH2 0x2B50 JUMP JUMPDEST SWAP2 POP POP SWAP3 POP SWAP3 SWAP1 POP JUMP JUMPDEST PUSH0 DUP1 REVERT JUMPDEST PUSH0 PUSH8 0xFFFFFFFFFFFFFFFF DUP3 GT ISZERO PUSH2 0x2BC0 JUMPI PUSH2 0x2BBF PUSH2 0x29D1 JUMP JUMPDEST JUMPDEST PUSH2 0x2BC9 DUP3 PUSH2 0x272C JUMP JUMPDEST SWAP1 POP PUSH1 0x20 DUP2 ADD SWAP1 POP SWAP2 SWAP1 POP JUMP JUMPDEST DUP3 DUP2 DUP4 CALLDATACOPY PUSH0 DUP4 DUP4 ADD MSTORE POP POP POP JUMP JUMPDEST PUSH0 PUSH2 0x2BF6 PUSH2 0x2BF1 DUP5 PUSH2 0x2BA6 JUMP JUMPDEST PUSH2 0x2A2F JUMP JUMPDEST SWAP1 POP DUP3 DUP2 MSTORE PUSH1 0x20 DUP2 ADD DUP5 DUP5 DUP5 ADD GT ISZERO PUSH2 0x2C12 JUMPI PUSH2 0x2C11 PUSH2 0x2BA2 JUMP JUMPDEST JUMPDEST PUSH2 0x2C1D DUP5 DUP3 DUP6 PUSH2 0x2BD6 JUMP JUMPDEST POP SWAP4 SWAP3 POP POP POP JUMP JUMPDEST PUSH0 DUP3 PUSH1 0x1F DUP4 ADD SLT PUSH2 0x2C39 JUMPI PUSH2 0x2C38 PUSH2 0x29CD JUMP JUMPDEST JUMPDEST DUP2 CALLDATALOAD PUSH2 0x2C49 DUP5 DUP3 PUSH1 0x20 DUP7 ADD PUSH2 0x2BE4 JUMP JUMPDEST SWAP2 POP POP SWAP3 SWAP2 POP POP JUMP JUMPDEST PUSH0 DUP1 PUSH0 DUP1 PUSH0 PUSH1 0xA0 DUP7 DUP9 SUB SLT ISZERO PUSH2 0x2C6B JUMPI PUSH2 0x2C6A PUSH2 0x279D JUMP JUMPDEST JUMPDEST PUSH0 DUP7 ADD CALLDATALOAD PUSH8 0xFFFFFFFFFFFFFFFF DUP2 GT ISZERO PUSH2 0x2C88 JUMPI PUSH2 0x2C87 PUSH2 0x27A1 JUMP JUMPDEST JUMPDEST PUSH2 0x2C94 DUP9 DUP3 DUP10 ADD PUSH2 0x2C25 JUMP JUMPDEST SWAP6 POP POP PUSH1 0x20 DUP7 ADD CALLDATALOAD PUSH8 0xFFFFFFFFFFFFFFFF DUP2 GT ISZERO PUSH2 0x2CB5 JUMPI PUSH2 0x2CB4 PUSH2 0x27A1 JUMP JUMPDEST JUMPDEST PUSH2 0x2CC1 DUP9 DUP3 DUP10 ADD PUSH2 0x2C25 JUMP JUMPDEST SWAP5 POP POP PUSH1 0x40 PUSH2 0x2CD2 DUP9 DUP3 DUP10 ADD PUSH2 0x27EB JUMP JUMPDEST SWAP4 POP POP PUSH1 0x60 PUSH2 0x2CE3 DUP9 DUP3 DUP10 ADD PUSH2 0x27EB JUMP JUMPDEST SWAP3 POP POP PUSH1 0x80 PUSH2 0x2CF4 DUP9 DUP3 DUP10 ADD PUSH2 0x27EB JUMP JUMPDEST SWAP2 POP POP SWAP3 SWAP6 POP SWAP3 SWAP6 SWAP1 SWAP4 POP JUMP JUMPDEST PUSH0 DUP1 PUSH1 0x40 DUP4 DUP6 SUB SLT ISZERO PUSH2 0x2D17 JUMPI PUSH2 0x2D16 PUSH2 0x279D JUMP JUMPDEST JUMPDEST PUSH0 PUSH2 0x2D24 DUP6 DUP3 DUP7 ADD PUSH2 0x27EB JUMP JUMPDEST SWAP3 POP POP PUSH1 0x20 PUSH2 0x2D35 DUP6 DUP3 DUP7 ADD PUSH2 0x27EB JUMP JUMPDEST SWAP2 POP POP SWAP3 POP SWAP3 SWAP1 POP JUMP JUMPDEST PUSH0 DUP1 PUSH0 PUSH1 0x60 DUP5 DUP7 SUB SLT ISZERO PUSH2 0x2D56 JUMPI PUSH2 0x2D55 PUSH2 0x279D JUMP JUMPDEST JUMPDEST PUSH0 PUSH2 0x2D63 DUP7 DUP3 DUP8 ADD PUSH2 0x27EB JUMP JUMPDEST SWAP4 POP POP PUSH1 0x20 PUSH2 0x2D74 DUP7 DUP3 DUP8 ADD PUSH2 0x2B50 JUMP JUMPDEST SWAP3 POP POP PUSH1 0x40 PUSH2 0x2D85 DUP7 DUP3 DUP8 ADD PUSH2 0x2B50 JUMP JUMPDEST SWAP2 POP POP SWAP3 POP SWAP3 POP SWAP3 JUMP JUMPDEST PUSH32 0x4E487B7100000000000000000000000000000000000000000000000000000000 PUSH0 MSTORE PUSH1 0x22 PUSH1 0x4 MSTORE PUSH1 0x24 PUSH0 REVERT JUMPDEST PUSH0 PUSH1 0x2 DUP3 DIV SWAP1 POP PUSH1 0x1 DUP3 AND DUP1 PUSH2 0x2DD3 JUMPI PUSH1 0x7F DUP3 AND SWAP2 POP JUMPDEST PUSH1 0x20 DUP3 LT DUP2 SUB PUSH2 0x2DE6 JUMPI PUSH2 0x2DE5 PUSH2 0x2D8F JUMP JUMPDEST JUMPDEST POP SWAP2 SWAP1 POP JUMP JUMPDEST PUSH32 0x474946543A204E65772061646D696E2063616E6E6F7420626520746865207A65 PUSH0 DUP3 ADD MSTORE PUSH32 0x726F206164647265737300000000000000000000000000000000000000000000 PUSH1 0x20 DUP3 ADD MSTORE POP JUMP JUMPDEST PUSH0 PUSH2 0x2E46 PUSH1 0x2A DUP4 PUSH2 0x26F4 JUMP JUMPDEST SWAP2 POP PUSH2 0x2E51 DUP3 PUSH2 0x2DEC JUMP JUMPDEST PUSH1 0x40 DUP3 ADD SWAP1 POP SWAP2 SWAP1 POP JUMP JUMPDEST PUSH0 PUSH1 0x20 DUP3 ADD SWAP1 POP DUP2 DUP2 SUB PUSH0 DUP4 ADD MSTORE PUSH2 0x2E73 DUP2 PUSH2 0x2E3A JUMP JUMPDEST SWAP1 POP SWAP2 SWAP1 POP JUMP JUMPDEST PUSH32 0x474946543A207472616E7366657220616D6F756E74206578636565647320616C PUSH0 DUP3 ADD MSTORE PUSH32 0x6C6F77616E636500000000000000000000000000000000000000000000000000 PUSH1 0x20 DUP3 ADD MSTORE POP JUMP JUMPDEST PUSH0 PUSH2 0x2ED4 PUSH1 0x27 DUP4 PUSH2 0x26F4 JUMP JUMPDEST SWAP2 POP PUSH2 0x2EDF DUP3 PUSH2 0x2E7A JUMP JUMPDEST PUSH1 0x40 DUP3 ADD SWAP1 POP SWAP2 SWAP1 POP JUMP JUMPDEST PUSH0 PUSH1 0x20 DUP3 ADD SWAP1 POP DUP2 DUP2 SUB PUSH0 DUP4 ADD MSTORE PUSH2 0x2F01 DUP2 PUSH2 0x2EC8 JUMP JUMPDEST SWAP1 POP SWAP2 SWAP1 POP JUMP JUMPDEST PUSH32 0x474946543A2063616C6C6572206973206E6F742074686520737570706C79436F PUSH0 DUP3 ADD MSTORE PUSH32 0x6E74726F6C6C6572000000000000000000000000000000000000000000000000 PUSH1 0x20 DUP3 ADD MSTORE POP JUMP JUMPDEST PUSH0 PUSH2 0x2F62 PUSH1 0x28 DUP4 PUSH2 0x26F4 JUMP JUMPDEST SWAP2 POP PUSH2 0x2F6D DUP3 PUSH2 0x2F08 JUMP JUMPDEST PUSH1 0x40 DUP3 ADD SWAP1 POP SWAP2 SWAP1 POP JUMP JUMPDEST PUSH0 PUSH1 0x20 DUP3 ADD SWAP1 POP DUP2 DUP2 SUB PUSH0 DUP4 ADD MSTORE PUSH2 0x2F8F DUP2 PUSH2 0x2F56 JUMP JUMPDEST SWAP1 POP SWAP2 SWAP1 POP JUMP JUMPDEST PUSH32 0x4E487B7100000000000000000000000000000000000000000000000000000000 PUSH0 MSTORE PUSH1 0x32 PUSH1 0x4 MSTORE PUSH1 0x24 PUSH0 REVERT JUMPDEST PUSH32 0x474946543A204C6173742074696572206D757374206265206D61780000000000 PUSH0 DUP3 ADD MSTORE POP JUMP JUMPDEST PUSH0 PUSH2 0x2FF7 PUSH1 0x1B DUP4 PUSH2 0x26F4 JUMP JUMPDEST SWAP2 POP PUSH2 0x3002 DUP3 PUSH2 0x2FC3 JUMP JUMPDEST PUSH1 0x20 DUP3 ADD SWAP1 POP SWAP2 SWAP1 POP JUMP JUMPDEST PUSH0 PUSH1 0x20 DUP3 ADD SWAP1 POP DUP2 DUP2 SUB PUSH0 DUP4 ADD MSTORE PUSH2 0x3024 DUP2 PUSH2 0x2FEB JUMP JUMPDEST SWAP1 POP SWAP2 SWAP1 POP JUMP JUMPDEST PUSH32 0x474946543A205461782070657263656E7461676520746F6F2068696768000000 PUSH0 DUP3 ADD MSTORE POP JUMP JUMPDEST PUSH0 PUSH2 0x305F PUSH1 0x1D DUP4 PUSH2 0x26F4 JUMP JUMPDEST SWAP2 POP PUSH2 0x306A DUP3 PUSH2 0x302B JUMP JUMPDEST PUSH1 0x20 DUP3 ADD SWAP1 POP SWAP2 SWAP1 POP JUMP JUMPDEST PUSH0 PUSH1 0x20 DUP3 ADD SWAP1 POP DUP2 DUP2 SUB PUSH0 DUP4 ADD MSTORE PUSH2 0x308C DUP2 PUSH2 0x3053 JUMP JUMPDEST SWAP1 POP SWAP2 SWAP1 POP JUMP JUMPDEST PUSH32 0x4E487B7100000000000000000000000000000000000000000000000000000000 PUSH0 MSTORE PUSH1 0x11 PUSH1 0x4 MSTORE PUSH1 0x24 PUSH0 REVERT JUMPDEST PUSH0 PUSH2 0x30CA DUP3 PUSH2 0x27FF JUMP JUMPDEST SWAP2 POP PUSH2 0x30D5 DUP4 PUSH2 0x27FF JUMP JUMPDEST SWAP3 POP DUP3 DUP3 SUB SWAP1 POP DUP2 DUP2 GT ISZERO PUSH2 0x30ED JUMPI PUSH2 0x30EC PUSH2 0x3093 JUMP JUMPDEST JUMPDEST SWAP3 SWAP2 POP POP JUMP JUMPDEST PUSH32 0x474946543A205469657273206D75737420626520696E20617363656E64696E67 PUSH0 DUP3 ADD MSTORE PUSH32 0x206F726465720000000000000000000000000000000000000000000000000000 PUSH1 0x20 DUP3 ADD MSTORE POP JUMP JUMPDEST PUSH0 PUSH2 0x314D PUSH1 0x26 DUP4 PUSH2 0x26F4 JUMP JUMPDEST SWAP2 POP PUSH2 0x3158 DUP3 PUSH2 0x30F3 JUMP JUMPDEST PUSH1 0x40 DUP3 ADD SWAP1 POP SWAP2 SWAP1 POP JUMP JUMPDEST PUSH0 PUSH1 0x20 DUP3 ADD SWAP1 POP DUP2 DUP2 SUB PUSH0 DUP4 ADD MSTORE PUSH2 0x317A DUP2 PUSH2 0x3141 JUMP JUMPDEST SWAP1 POP SWAP2 SWAP1 POP JUMP JUMPDEST PUSH0 PUSH2 0x318B DUP3 PUSH2 0x27FF JUMP JUMPDEST SWAP2 POP PUSH32 0xFFFFFFFFFFFFFFFFFFFFFFFFFFFFFFFFFFFFFFFFFFFFFFFFFFFFFFFFFFFFFFFF DUP3 SUB PUSH2 0x31BD JUMPI PUSH2 0x31BC PUSH2 0x3093 JUMP JUMPDEST JUMPDEST PUSH1 0x1 DUP3 ADD SWAP1 POP SWAP2 SWAP1 POP JUMP JUMPDEST PUSH0 PUSH1 0x5 SWAP1 POP SWAP2 SWAP1 POP JUMP JUMPDEST PUSH0 DUP2 SWAP1 POP SWAP3 SWAP2 POP POP JUMP JUMPDEST PUSH0 DUP2 SWAP1 POP SWAP2 SWAP1 POP JUMP JUMPDEST PUSH2 0x31EE DUP2 PUSH2 0x27FF JUMP JUMPDEST DUP3 MSTORE POP POP JUMP JUMPDEST PUSH0 PUSH2 0x31FF DUP4 DUP4 PUSH2 0x31E5 JUMP JUMPDEST PUSH1 0x20 DUP4 ADD SWAP1 POP SWAP3 SWAP2 POP POP JUMP JUMPDEST PUSH0 PUSH1 0x20 DUP3 ADD SWAP1 POP SWAP2 SWAP1 POP JUMP JUMPDEST PUSH2 0x3220 DUP2 PUSH2 0x31C8 JUMP JUMPDEST PUSH2 0x322A DUP2 DUP5 PUSH2 0x31D2 JUMP JUMPDEST SWAP3 POP PUSH2 0x3235 DUP3 PUSH2 0x31DC JUMP JUMPDEST DUP1 PUSH0 JUMPDEST DUP4 DUP2 LT ISZERO PUSH2 0x3265 JUMPI DUP2 MLOAD PUSH2 0x324C DUP8 DUP3 PUSH2 0x31F4 JUMP JUMPDEST SWAP7 POP PUSH2 0x3257 DUP4 PUSH2 0x320B JUMP JUMPDEST SWAP3 POP POP PUSH1 0x1 DUP2 ADD SWAP1 POP PUSH2 0x3238 JUMP JUMPDEST POP POP POP POP POP POP JUMP JUMPDEST PUSH0 PUSH2 0x140 DUP3 ADD SWAP1 POP PUSH2 0x3281 PUSH0 DUP4 ADD DUP6 PUSH2 0x3217 JUMP JUMPDEST PUSH2 0x328E PUSH1 0xA0 DUP4 ADD DUP5 PUSH2 0x3217 JUMP JUMPDEST SWAP4 SWAP3 POP POP POP JUMP JUMPDEST PUSH32 0x474946543A206275726E20616D6F756E74206578636565647320616C6C6F7761 PUSH0 DUP3 ADD MSTORE PUSH32 0x6E63650000000000000000000000000000000000000000000000000000000000 PUSH1 0x20 DUP3 ADD MSTORE POP JUMP JUMPDEST PUSH0 PUSH2 0x32EF PUSH1 0x23 DUP4 PUSH2 0x26F4 JUMP JUMPDEST SWAP2 POP PUSH2 0x32FA DUP3 PUSH2 0x3295 JUMP JUMPDEST PUSH1 0x40 DUP3 ADD SWAP1 POP SWAP2 SWAP1 POP JUMP JUMPDEST PUSH0 PUSH1 0x20 DUP3 ADD SWAP1 POP DUP2 DUP2 SUB PUSH0 DUP4 ADD MSTORE PUSH2 0x331C DUP2 PUSH2 0x32E3 JUMP JUMPDEST SWAP1 POP SWAP2 SWAP1 POP JUMP JUMPDEST PUSH0 DUP2 SWAP1 POP SWAP2 SWAP1 POP JUMP JUMPDEST PUSH0 PUSH8 0xFFFFFFFFFFFFFFFF DUP3 AND SWAP1 POP SWAP2 SWAP1 POP JUMP JUMPDEST PUSH0 DUP2 SWAP1 POP SWAP2 SWAP1 POP JUMP JUMPDEST PUSH0 PUSH2 0x3362 PUSH2 0x335D PUSH2 0x3358 DUP5 PUSH2 0x3323 JUMP JUMPDEST PUSH2 0x333F JUMP JUMPDEST PUSH2 0x332C JUMP JUMPDEST SWAP1 POP SWAP2 SWAP1 POP JUMP JUMPDEST PUSH2 0x3372 DUP2 PUSH2 0x3348 JUMP JUMPDEST DUP3 MSTORE POP POP JUMP JUMPDEST PUSH0 PUSH1 0x20 DUP3 ADD SWAP1 POP PUSH2 0x338B PUSH0 DUP4 ADD DUP5 PUSH2 0x3369 JUMP JUMPDEST SWAP3 SWAP2 POP POP JUMP JUMPDEST PUSH0 PUSH1 0x40 DUP3 ADD SWAP1 POP PUSH2 0x33A4 PUSH0 DUP4 ADD DUP6 PUSH2 0x287B JUMP JUMPDEST PUSH2 0x33B1 PUSH1 0x20 DUP4 ADD DUP5 PUSH2 0x287B JUMP JUMPDEST SWAP4 SWAP3 POP POP POP JUMP JUMPDEST PUSH32 0x5061757361626C653A2070617573656400000000000000000000000000000000 PUSH0 DUP3 ADD MSTORE POP JUMP JUMPDEST PUSH0 PUSH2 0x33EC PUSH1 0x10 DUP4 PUSH2 0x26F4 JUMP JUMPDEST SWAP2 POP PUSH2 0x33F7 DUP3 PUSH2 0x33B8 JUMP JUMPDEST PUSH1 0x20 DUP3 ADD SWAP1 POP SWAP2 SWAP1 POP JUMP JUMPDEST PUSH0 PUSH1 0x20 DUP3 ADD SWAP1 POP DUP2 DUP2 SUB PUSH0 DUP4 ADD MSTORE PUSH2 0x3419 DUP2 PUSH2 0x33E0 JUMP JUMPDEST SWAP1 POP SWAP2 SWAP1 POP JUMP JUMPDEST PUSH0 PUSH2 0x342A DUP3 PUSH2 0x27FF JUMP JUMPDEST SWAP2 POP PUSH2 0x3435 DUP4 PUSH2 0x27FF JUMP JUMPDEST SWAP3 POP DUP3 DUP3 ADD SWAP1 POP DUP1 DUP3 GT ISZERO PUSH2 0x344D JUMPI PUSH2 0x344C PUSH2 0x3093 JUMP JUMPDEST JUMPDEST SWAP3 SWAP2 POP POP JUMP JUMPDEST PUSH0 DUP2 MLOAD SWAP1 POP SWAP2 SWAP1 POP JUMP JUMPDEST PUSH0 DUP2 SWAP1 POP SWAP3 SWAP2 POP POP JUMP JUMPDEST PUSH0 PUSH2 0x3471 DUP3 PUSH2 0x3453 JUMP JUMPDEST PUSH2 0x347B DUP2 DUP6 PUSH2 0x345D JUMP JUMPDEST SWAP4 POP PUSH2 0x348B DUP2 DUP6 PUSH1 0x20 DUP7 ADD PUSH2 0x2704 JUMP JUMPDEST DUP1 DUP5 ADD SWAP2 POP POP SWAP3 SWAP2 POP POP JUMP JUMPDEST PUSH0 PUSH2 0x34A2 DUP3 DUP5 PUSH2 0x3467 JUMP JUMPDEST SWAP2 POP DUP2 SWAP1 POP SWAP3 SWAP2 POP POP JUMP JUMPDEST PUSH32 0x474946543A204661696C656420746F20636865636B2072657365727665730000 PUSH0 DUP3 ADD MSTORE POP JUMP JUMPDEST PUSH0 PUSH2 0x34E1 PUSH1 0x1E DUP4 PUSH2 0x26F4 JUMP JUMPDEST SWAP2 POP PUSH2 0x34EC DUP3 PUSH2 0x34AD JUMP JUMPDEST PUSH1 0x20 DUP3 ADD SWAP1 POP SWAP2 SWAP1 POP JUMP JUMPDEST PUSH0 PUSH1 0x20 DUP3 ADD SWAP1 POP DUP2 DUP2 SUB PUSH0 DUP4 ADD MSTORE PUSH2 0x350E DUP2 PUSH2 0x34D5 JUMP JUMPDEST SWAP1 POP SWAP2 SWAP1 POP JUMP JUMPDEST PUSH0 DUP2 MLOAD SWAP1 POP PUSH2 0x3523 DUP2 PUSH2 0x2808 JUMP JUMPDEST SWAP3 SWAP2 POP POP JUMP JUMPDEST PUSH0 PUSH1 0x20 DUP3 DUP5 SUB SLT ISZERO PUSH2 0x353E JUMPI PUSH2 0x353D PUSH2 0x279D JUMP JUMPDEST JUMPDEST PUSH0 PUSH2 0x354B DUP5 DUP3 DUP6 ADD PUSH2 0x3515 JUMP JUMPDEST SWAP2 POP POP SWAP3 SWAP2 POP POP JUMP JUMPDEST PUSH32 0x474946543A20496E73756666696369656E742072657365727665730000000000 PUSH0 DUP3 ADD MSTORE POP JUMP JUMPDEST PUSH0 PUSH2 0x3588 PUSH1 0x1B DUP4 PUSH2 0x26F4 JUMP JUMPDEST SWAP2 POP PUSH2 0x3593 DUP3 PUSH2 0x3554 JUMP JUMPDEST PUSH1 0x20 DUP3 ADD SWAP1 POP SWAP2 SWAP1 POP JUMP JUMPDEST PUSH0 PUSH1 0x20 DUP3 ADD SWAP1 POP DUP2 DUP2 SUB PUSH0 DUP4 ADD MSTORE PUSH2 0x35B5 DUP2 PUSH2 0x357C JUMP JUMPDEST SWAP1 POP SWAP2 SWAP1 POP JUMP JUMPDEST PUSH32 0x474946543A20496E76616C696420616D6F756E74000000000000000000000000 PUSH0 DUP3 ADD MSTORE POP JUMP JUMPDEST PUSH0 PUSH2 0x35F0 PUSH1 0x14 DUP4 PUSH2 0x26F4 JUMP JUMPDEST SWAP2 POP PUSH2 0x35FB DUP3 PUSH2 0x35BC JUMP JUMPDEST PUSH1 0x20 DUP3 ADD SWAP1 POP SWAP2 SWAP1 POP JUMP JUMPDEST PUSH0 PUSH1 0x20 DUP3 ADD SWAP1 POP DUP2 DUP2 SUB PUSH0 DUP4 ADD MSTORE PUSH2 0x361D DUP2 PUSH2 0x35E4 JUMP JUMPDEST SWAP1 POP SWAP2 SWAP1 POP JUMP JUMPDEST PUSH32 0x5061757361626C653A206E6F7420706175736564000000000000000000000000 PUSH0 DUP3 ADD MSTORE POP JUMP JUMPDEST PUSH0 PUSH2 0x3658 PUSH1 0x14 DUP4 PUSH2 0x26F4 JUMP JUMPDEST SWAP2 POP PUSH2 0x3663 DUP3 PUSH2 0x3624 JUMP JUMPDEST PUSH1 0x20 DUP3 ADD SWAP1 POP SWAP2 SWAP1 POP JUMP JUMPDEST PUSH0 PUSH1 0x20 DUP3 ADD SWAP1 POP DUP2 DUP2 SUB PUSH0 DUP4 ADD MSTORE PUSH2 0x3685 DUP2 PUSH2 0x364C JUMP JUMPDEST SWAP1 POP SWAP2 SWAP1 POP JUMP JUMPDEST PUSH0 PUSH1 0x60 DUP3 ADD SWAP1 POP PUSH2 0x369F PUSH0 DUP4 ADD DUP7 PUSH2 0x29A5 JUMP JUMPDEST PUSH2 0x36AC PUSH1 0x20 DUP4 ADD DUP6 PUSH2 0x28CE JUMP JUMPDEST PUSH2 0x36B9 PUSH1 0x40 DUP4 ADD DUP5 PUSH2 0x28CE JUMP JUMPDEST SWAP5 SWAP4 POP POP POP POP JUMP JUMPDEST PUSH0 DUP2 SWAP1 POP DUP2 PUSH0 MSTORE PUSH1 0x20 PUSH0 KECCAK256 SWAP1 POP SWAP2 SWAP1 POP JUMP JUMPDEST PUSH0 PUSH1 0x20 PUSH1 0x1F DUP4 ADD DIV SWAP1 POP SWAP2 SWAP1 POP JUMP JUMPDEST PUSH0 DUP3 DUP3 SHL SWAP1 POP SWAP3 SWAP2 POP POP JUMP JUMPDEST PUSH0 PUSH1 0x8 DUP4 MUL PUSH2 0x371D PUSH32 0xFFFFFFFFFFFFFFFFFFFFFFFFFFFFFFFFFFFFFFFFFFFFFFFFFFFFFFFFFFFFFFFF DUP3 PUSH2 0x36E2 JUMP JUMPDEST PUSH2 0x3727 DUP7 DUP4 PUSH2 0x36E2 JUMP JUMPDEST SWAP6 POP DUP1 NOT DUP5 AND SWAP4 POP DUP1 DUP7 AND DUP5 OR SWAP3 POP POP POP SWAP4 SWAP3 POP POP POP JUMP JUMPDEST PUSH0 PUSH2 0x3759 PUSH2 0x3754 PUSH2 0x374F DUP5 PUSH2 0x27FF JUMP JUMPDEST PUSH2 0x333F JUMP JUMPDEST PUSH2 0x27FF JUMP JUMPDEST SWAP1 POP SWAP2 SWAP1 POP JUMP JUMPDEST PUSH0 DUP2 SWAP1 POP SWAP2 SWAP1 POP JUMP JUMPDEST PUSH2 0x3772 DUP4 PUSH2 0x373F JUMP JUMPDEST PUSH2 0x3786 PUSH2 0x377E DUP3 PUSH2 0x3760 JUMP JUMPDEST DUP5 DUP5 SLOAD PUSH2 0x36EE JUMP JUMPDEST DUP3 SSTORE POP POP POP POP JUMP JUMPDEST PUSH0 SWAP1 JUMP JUMPDEST PUSH2 0x379A PUSH2 0x378E JUMP JUMPDEST PUSH2 0x37A5 DUP2 DUP5 DUP5 PUSH2 0x3769 JUMP JUMPDEST POP POP POP JUMP JUMPDEST JUMPDEST DUP2 DUP2 LT ISZERO PUSH2 0x37C8 JUMPI PUSH2 0x37BD PUSH0 DUP3 PUSH2 0x3792 JUMP JUMPDEST PUSH1 0x1 DUP2 ADD SWAP1 POP PUSH2 0x37AB JUMP JUMPDEST POP POP JUMP JUMPDEST PUSH1 0x1F DUP3 GT ISZERO PUSH2 0x380D JUMPI PUSH2 0x37DE DUP2 PUSH2 0x36C1 JUMP JUMPDEST PUSH2 0x37E7 DUP5 PUSH2 0x36D3 JUMP JUMPDEST DUP2 ADD PUSH1 0x20 DUP6 LT ISZERO PUSH2 0x37F6 JUMPI DUP2 SWAP1 POP JUMPDEST PUSH2 0x380A PUSH2 0x3802 DUP6 PUSH2 0x36D3 JUMP JUMPDEST DUP4 ADD DUP3 PUSH2 0x37AA JUMP JUMPDEST POP POP JUMPDEST POP POP POP JUMP JUMPDEST PUSH0 DUP3 DUP3 SHR SWAP1 POP SWAP3 SWAP2 POP POP JUMP JUMPDEST PUSH0 PUSH2 0x382D PUSH0 NOT DUP5 PUSH1 0x8 MUL PUSH2 0x3812 JUMP JUMPDEST NOT DUP1 DUP4 AND SWAP2 POP POP SWAP3 SWAP2 POP POP JUMP JUMPDEST PUSH0 PUSH2 0x3845 DUP4 DUP4 PUSH2 0x381E JUMP JUMPDEST SWAP2 POP DUP3 PUSH1 0x2 MUL DUP3 OR SWAP1 POP SWAP3 SWAP2 POP POP JUMP JUMPDEST PUSH2 0x385E DUP3 PUSH2 0x26EA JUMP JUMPDEST PUSH8 0xFFFFFFFFFFFFFFFF DUP2 GT ISZERO PUSH2 0x3877 JUMPI PUSH2 0x3876 PUSH2 0x29D1 JUMP JUMPDEST JUMPDEST PUSH2 0x3881 DUP3 SLOAD PUSH2 0x2DBC JUMP JUMPDEST PUSH2 0x388C DUP3 DUP3 DUP6 PUSH2 0x37CC JUMP JUMPDEST PUSH0 PUSH1 0x20 SWAP1 POP PUSH1 0x1F DUP4 GT PUSH1 0x1 DUP2 EQ PUSH2 0x38BD JUMPI PUSH0 DUP5 ISZERO PUSH2 0x38AB JUMPI DUP3 DUP8 ADD MLOAD SWAP1 POP JUMPDEST PUSH2 0x38B5 DUP6 DUP3 PUSH2 0x383A JUMP JUMPDEST DUP7 SSTORE POP PUSH2 0x391C JUMP JUMPDEST PUSH1 0x1F NOT DUP5 AND PUSH2 0x38CB DUP7 PUSH2 0x36C1 JUMP JUMPDEST PUSH0 JUMPDEST DUP3 DUP2 LT ISZERO PUSH2 0x38F2 JUMPI DUP5 DUP10 ADD MLOAD DUP3 SSTORE PUSH1 0x1 DUP3 ADD SWAP2 POP PUSH1 0x20 DUP6 ADD SWAP5 POP PUSH1 0x20 DUP2 ADD SWAP1 POP PUSH2 0x38CD JUMP JUMPDEST DUP7 DUP4 LT ISZERO PUSH2 0x390F JUMPI DUP5 DUP10 ADD MLOAD PUSH2 0x390B PUSH1 0x1F DUP10 AND DUP3 PUSH2 0x381E JUMP JUMPDEST DUP4 SSTORE POP JUMPDEST PUSH1 0x1 PUSH1 0x2 DUP9 MUL ADD DUP9 SSTORE POP POP POP JUMPDEST POP POP POP POP POP POP JUMP JUMPDEST PUSH0 PUSH2 0x392E DUP3 PUSH2 0x27FF JUMP JUMPDEST SWAP2 POP PUSH2 0x3939 DUP4 PUSH2 0x27FF JUMP JUMPDEST SWAP3 POP DUP3 DUP3 MUL PUSH2 0x3947 DUP2 PUSH2 0x27FF JUMP JUMPDEST SWAP2 POP DUP3 DUP3 DIV DUP5 EQ DUP4 ISZERO OR PUSH2 0x395E JUMPI PUSH2 0x395D PUSH2 0x3093 JUMP JUMPDEST JUMPDEST POP SWAP3 SWAP2 POP POP JUMP JUMPDEST PUSH32 0x4E487B7100000000000000000000000000000000000000000000000000000000 PUSH0 MSTORE PUSH1 0x12 PUSH1 0x4 MSTORE PUSH1 0x24 PUSH0 REVERT JUMPDEST PUSH0 PUSH2 0x399C DUP3 PUSH2 0x27FF JUMP JUMPDEST SWAP2 POP PUSH2 0x39A7 DUP4 PUSH2 0x27FF JUMP JUMPDEST SWAP3 POP DUP3 PUSH2 0x39B7 JUMPI PUSH2 0x39B6 PUSH2 0x3965 JUMP JUMPDEST JUMPDEST DUP3 DUP3 DIV SWAP1 POP SWAP3 SWAP2 POP POP JUMP INVALID LOG2 PUSH5 0x6970667358 0x22 SLT KECCAK256 0x28 STOP 0x5D STOP 0xB2 0xC8 PUSH29 0x680778B0200CC630739D6EBA3C97893559553EFF21767F5C1364736F6C PUSH4 0x43000814 STOP CALLER "
		},
		"gasEstimates": {
			"creation": {
				"codeDepositCost": "2968000",
				"executionCost": "3253",
				"totalCost": "2971253"
			},
			"external": {
				"MAX_TAX_PERCENTAGE()": "436",
				"allowance(address,address)": "infinite",
				"approve(address,uint256)": "infinite",
				"balanceOf(address)": "2970",
				"beneficiary()": "2554",
				"burn(uint256)": "infinite",
				"burnFrom(address,uint256)": "infinite",
				"decimals()": "472",
				"initialize(string,string,address,address,address)": "infinite",
				"isExcludedFromInboundFees(address)": "2945",
				"isExcludedFromOutboundFees(address)": "2922",
				"isLiquidityPool(address)": "2943",
				"lastReserveCheck()": "2537",
				"mint(address,uint256)": "infinite",
				"name()": "infinite",
				"owner()": "2612",
				"pause()": "infinite",
				"paused()": "2540",
				"renounceAdminControl()": "infinite",
				"renounceOwnership()": "infinite",
				"reserveCheckPeriod()": "2536",
				"reserveConsumer()": "2642",
				"setBeneficiary(address)": "infinite",
				"setFeeExclusion(address,bool,bool)": "infinite",
				"setLiquidityPool(address,bool)": "infinite",
				"setReserveCheckPeriod(uint256)": "infinite",
				"setReserveConsumer(address)": "infinite",
				"setSupplyController(address)": "infinite",
				"setTaxParameters(uint256[5],uint256[5])": "infinite",
				"supplyController()": "2596",
				"symbol()": "infinite",
				"taxPercentages(uint256)": "infinite",
				"taxTiers(uint256)": "infinite",
				"totalSupply()": "2598",
				"transfer(address,uint256)": "infinite",
				"transferAdminControl(address)": "infinite",
				"transferFrom(address,address,uint256)": "infinite",
				"transferOwnership(address)": "infinite",
				"unpause()": "infinite"
			},
			"internal": {
				"_beforeTokenTransfer(address,address,uint256)": "infinite",
				"_checkReserves()": "infinite",
				"_computeTax(uint256)": "infinite",
				"_transferGIFT(address,address,uint256)": "infinite"
			}
		},
		"methodIdentifiers": {
			"MAX_TAX_PERCENTAGE()": "70d27fa0",
			"allowance(address,address)": "dd62ed3e",
			"approve(address,uint256)": "095ea7b3",
			"balanceOf(address)": "70a08231",
			"beneficiary()": "38af3eed",
			"burn(uint256)": "42966c68",
			"burnFrom(address,uint256)": "79cc6790",
			"decimals()": "313ce567",
			"initialize(string,string,address,address,address)": "db0ed6a0",
			"isExcludedFromInboundFees(address)": "851f39d4",
			"isExcludedFromOutboundFees(address)": "cc7134ba",
			"isLiquidityPool(address)": "e85455d7",
			"lastReserveCheck()": "24e8933d",
			"mint(address,uint256)": "40c10f19",
			"name()": "06fdde03",
			"owner()": "8da5cb5b",
			"pause()": "8456cb59",
			"paused()": "5c975abb",
			"renounceAdminControl()": "c658a5e3",
			"renounceOwnership()": "715018a6",
			"reserveCheckPeriod()": "d048d988",
			"reserveConsumer()": "8850b9c2",
			"setBeneficiary(address)": "1c31f710",
			"setFeeExclusion(address,bool,bool)": "e1a8f3f4",
			"setLiquidityPool(address,bool)": "c29c669a",
			"setReserveCheckPeriod(uint256)": "a02fba1e",
			"setReserveConsumer(address)": "79e631f4",
			"setSupplyController(address)": "52875bc3",
			"setTaxParameters(uint256[5],uint256[5])": "53e4e3cb",
			"supplyController()": "e7ba1012",
			"symbol()": "95d89b41",
			"taxPercentages(uint256)": "110c621d",
			"taxTiers(uint256)": "a906c70e",
			"totalSupply()": "18160ddd",
			"transfer(address,uint256)": "a9059cbb",
			"transferAdminControl(address)": "1a5e62fd",
			"transferFrom(address,address,uint256)": "23b872dd",
			"transferOwnership(address)": "f2fde38b",
			"unpause()": "3f4ba83a"
		}
	},
	"abi": [
		{
			"inputs": [
				{
					"internalType": "address",
					"name": "spender",
					"type": "address"
				},
				{
					"internalType": "uint256",
					"name": "allowance",
					"type": "uint256"
				},
				{
					"internalType": "uint256",
					"name": "needed",
					"type": "uint256"
				}
			],
			"name": "ERC20InsufficientAllowance",
			"type": "error"
		},
		{
			"inputs": [
				{
					"internalType": "address",
					"name": "sender",
					"type": "address"
				},
				{
					"internalType": "uint256",
					"name": "balance",
					"type": "uint256"
				},
				{
					"internalType": "uint256",
					"name": "needed",
					"type": "uint256"
				}
			],
			"name": "ERC20InsufficientBalance",
			"type": "error"
		},
		{
			"inputs": [
				{
					"internalType": "address",
					"name": "approver",
					"type": "address"
				}
			],
			"name": "ERC20InvalidApprover",
			"type": "error"
		},
		{
			"inputs": [
				{
					"internalType": "address",
					"name": "receiver",
					"type": "address"
				}
			],
			"name": "ERC20InvalidReceiver",
			"type": "error"
		},
		{
			"inputs": [
				{
					"internalType": "address",
					"name": "sender",
					"type": "address"
				}
			],
			"name": "ERC20InvalidSender",
			"type": "error"
		},
		{
			"inputs": [
				{
					"internalType": "address",
					"name": "spender",
					"type": "address"
				}
			],
			"name": "ERC20InvalidSpender",
			"type": "error"
		},
		{
			"inputs": [],
			"name": "InvalidInitialization",
			"type": "error"
		},
		{
			"inputs": [],
			"name": "NotInitializing",
			"type": "error"
		},
		{
			"inputs": [
				{
					"internalType": "address",
					"name": "owner",
					"type": "address"
				}
			],
			"name": "OwnableInvalidOwner",
			"type": "error"
		},
		{
			"inputs": [
				{
					"internalType": "address",
					"name": "account",
					"type": "address"
				}
			],
			"name": "OwnableUnauthorizedAccount",
			"type": "error"
		},
		{
			"anonymous": false,
			"inputs": [
				{
					"indexed": true,
					"internalType": "address",
					"name": "owner",
					"type": "address"
				},
				{
					"indexed": true,
					"internalType": "address",
					"name": "spender",
					"type": "address"
				},
				{
					"indexed": false,
					"internalType": "uint256",
					"name": "value",
					"type": "uint256"
				}
			],
			"name": "Approval",
			"type": "event"
		},
		{
			"anonymous": false,
			"inputs": [
				{
					"indexed": true,
					"internalType": "address",
					"name": "newBeneficiary",
					"type": "address"
				}
			],
			"name": "BeneficiarySet",
			"type": "event"
		},
		{
			"anonymous": false,
			"inputs": [
				{
					"indexed": true,
					"internalType": "address",
					"name": "account",
					"type": "address"
				},
				{
					"indexed": false,
					"internalType": "bool",
					"name": "isExcludedOutbound",
					"type": "bool"
				},
				{
					"indexed": false,
					"internalType": "bool",
					"name": "isExcludedInbound",
					"type": "bool"
				}
			],
			"name": "FeeExclusionSet",
			"type": "event"
		},
		{
			"anonymous": false,
			"inputs": [
				{
					"indexed": false,
					"internalType": "uint64",
					"name": "version",
					"type": "uint64"
				}
			],
			"name": "Initialized",
			"type": "event"
		},
		{
			"anonymous": false,
			"inputs": [
				{
					"indexed": true,
					"internalType": "address",
					"name": "account",
					"type": "address"
				},
				{
					"indexed": false,
					"internalType": "bool",
					"name": "isPool",
					"type": "bool"
				}
			],
			"name": "LiquidityPoolSet",
			"type": "event"
		},
		{
			"anonymous": false,
			"inputs": [
				{
					"indexed": true,
					"internalType": "address",
					"name": "previousOwner",
					"type": "address"
				},
				{
					"indexed": true,
					"internalType": "address",
					"name": "newOwner",
					"type": "address"
				}
			],
			"name": "OwnershipTransferred",
			"type": "event"
		},
		{
			"anonymous": false,
			"inputs": [
				{
					"indexed": false,
					"internalType": "address",
					"name": "account",
					"type": "address"
				}
			],
			"name": "Paused",
			"type": "event"
		},
		{
			"anonymous": false,
			"inputs": [
				{
					"indexed": false,
					"internalType": "uint256",
					"name": "newPeriod",
					"type": "uint256"
				}
			],
			"name": "ReserveCheckPeriodSet",
			"type": "event"
		},
		{
			"anonymous": false,
			"inputs": [
				{
					"indexed": true,
					"internalType": "address",
					"name": "newReserveConsumer",
					"type": "address"
				}
			],
			"name": "ReserveConsumerSet",
			"type": "event"
		},
		{
			"anonymous": false,
			"inputs": [
				{
					"indexed": true,
					"internalType": "address",
					"name": "newSupplyController",
					"type": "address"
				}
			],
			"name": "SupplyControllerSet",
			"type": "event"
		},
		{
			"anonymous": false,
			"inputs": [
				{
					"indexed": false,
					"internalType": "uint256[5]",
					"name": "tiers",
					"type": "uint256[5]"
				},
				{
					"indexed": false,
					"internalType": "uint256[5]",
					"name": "percentages",
					"type": "uint256[5]"
				}
			],
			"name": "TaxUpdated",
			"type": "event"
		},
		{
			"anonymous": false,
			"inputs": [
				{
					"indexed": true,
					"internalType": "address",
					"name": "from",
					"type": "address"
				},
				{
					"indexed": true,
					"internalType": "address",
					"name": "to",
					"type": "address"
				},
				{
					"indexed": false,
					"internalType": "uint256",
					"name": "value",
					"type": "uint256"
				}
			],
			"name": "Transfer",
			"type": "event"
		},
		{
			"anonymous": false,
			"inputs": [
				{
					"indexed": false,
					"internalType": "address",
					"name": "account",
					"type": "address"
				}
			],
			"name": "Unpaused",
			"type": "event"
		},
		{
			"inputs": [],
			"name": "MAX_TAX_PERCENTAGE",
			"outputs": [
				{
					"internalType": "uint256",
					"name": "",
					"type": "uint256"
				}
			],
			"stateMutability": "view",
			"type": "function"
		},
		{
			"inputs": [
				{
					"internalType": "address",
					"name": "owner",
					"type": "address"
				},
				{
					"internalType": "address",
					"name": "spender",
					"type": "address"
				}
			],
			"name": "allowance",
			"outputs": [
				{
					"internalType": "uint256",
					"name": "",
					"type": "uint256"
				}
			],
			"stateMutability": "view",
			"type": "function"
		},
		{
			"inputs": [
				{
					"internalType": "address",
					"name": "spender",
					"type": "address"
				},
				{
					"internalType": "uint256",
					"name": "value",
					"type": "uint256"
				}
			],
			"name": "approve",
			"outputs": [
				{
					"internalType": "bool",
					"name": "",
					"type": "bool"
				}
			],
			"stateMutability": "nonpayable",
			"type": "function"
		},
		{
			"inputs": [
				{
					"internalType": "address",
					"name": "account",
					"type": "address"
				}
			],
			"name": "balanceOf",
			"outputs": [
				{
					"internalType": "uint256",
					"name": "",
					"type": "uint256"
				}
			],
			"stateMutability": "view",
			"type": "function"
		},
		{
			"inputs": [],
			"name": "beneficiary",
			"outputs": [
				{
					"internalType": "address",
					"name": "",
					"type": "address"
				}
			],
			"stateMutability": "view",
			"type": "function"
		},
		{
			"inputs": [
				{
					"internalType": "uint256",
					"name": "_amount",
					"type": "uint256"
				}
			],
			"name": "burn",
			"outputs": [],
			"stateMutability": "nonpayable",
			"type": "function"
		},
		{
			"inputs": [
				{
					"internalType": "address",
					"name": "_account",
					"type": "address"
				},
				{
					"internalType": "uint256",
					"name": "_amount",
					"type": "uint256"
				}
			],
			"name": "burnFrom",
			"outputs": [],
			"stateMutability": "nonpayable",
			"type": "function"
		},
		{
			"inputs": [],
			"name": "decimals",
			"outputs": [
				{
					"internalType": "uint8",
					"name": "",
					"type": "uint8"
				}
			],
			"stateMutability": "view",
			"type": "function"
		},
		{
			"inputs": [
				{
					"internalType": "string",
					"name": "name",
					"type": "string"
				},
				{
					"internalType": "string",
					"name": "symbol",
					"type": "string"
				},
				{
					"internalType": "address",
					"name": "_supplyController",
					"type": "address"
				},
				{
					"internalType": "address",
					"name": "_beneficiary",
					"type": "address"
				},
				{
					"internalType": "address",
					"name": "_reserveConsumer",
					"type": "address"
				}
			],
			"name": "initialize",
			"outputs": [],
			"stateMutability": "nonpayable",
			"type": "function"
		},
		{
			"inputs": [
				{
					"internalType": "address",
					"name": "",
					"type": "address"
				}
			],
			"name": "isExcludedFromInboundFees",
			"outputs": [
				{
					"internalType": "bool",
					"name": "",
					"type": "bool"
				}
			],
			"stateMutability": "view",
			"type": "function"
		},
		{
			"inputs": [
				{
					"internalType": "address",
					"name": "",
					"type": "address"
				}
			],
			"name": "isExcludedFromOutboundFees",
			"outputs": [
				{
					"internalType": "bool",
					"name": "",
					"type": "bool"
				}
			],
			"stateMutability": "view",
			"type": "function"
		},
		{
			"inputs": [
				{
					"internalType": "address",
					"name": "",
					"type": "address"
				}
			],
			"name": "isLiquidityPool",
			"outputs": [
				{
					"internalType": "bool",
					"name": "",
					"type": "bool"
				}
			],
			"stateMutability": "view",
			"type": "function"
		},
		{
			"inputs": [],
			"name": "lastReserveCheck",
			"outputs": [
				{
					"internalType": "uint256",
					"name": "",
					"type": "uint256"
				}
			],
			"stateMutability": "view",
			"type": "function"
		},
		{
			"inputs": [
				{
					"internalType": "address",
					"name": "_to",
					"type": "address"
				},
				{
					"internalType": "uint256",
					"name": "_amount",
					"type": "uint256"
				}
			],
			"name": "mint",
			"outputs": [],
			"stateMutability": "nonpayable",
			"type": "function"
		},
		{
			"inputs": [],
			"name": "name",
			"outputs": [
				{
					"internalType": "string",
					"name": "",
					"type": "string"
				}
			],
			"stateMutability": "view",
			"type": "function"
		},
		{
			"inputs": [],
			"name": "owner",
			"outputs": [
				{
					"internalType": "address",
					"name": "",
					"type": "address"
				}
			],
			"stateMutability": "view",
			"type": "function"
		},
		{
			"inputs": [],
			"name": "pause",
			"outputs": [],
			"stateMutability": "nonpayable",
			"type": "function"
		},
		{
			"inputs": [],
			"name": "paused",
			"outputs": [
				{
					"internalType": "bool",
					"name": "",
					"type": "bool"
				}
			],
			"stateMutability": "view",
			"type": "function"
		},
		{
			"inputs": [],
			"name": "renounceAdminControl",
			"outputs": [],
			"stateMutability": "nonpayable",
			"type": "function"
		},
		{
			"inputs": [],
			"name": "renounceOwnership",
			"outputs": [],
			"stateMutability": "nonpayable",
			"type": "function"
		},
		{
			"inputs": [],
			"name": "reserveCheckPeriod",
			"outputs": [
				{
					"internalType": "uint256",
					"name": "",
					"type": "uint256"
				}
			],
			"stateMutability": "view",
			"type": "function"
		},
		{
			"inputs": [],
			"name": "reserveConsumer",
			"outputs": [
				{
					"internalType": "address",
					"name": "",
					"type": "address"
				}
			],
			"stateMutability": "view",
			"type": "function"
		},
		{
			"inputs": [
				{
					"internalType": "address",
					"name": "_newBeneficiary",
					"type": "address"
				}
			],
			"name": "setBeneficiary",
			"outputs": [],
			"stateMutability": "nonpayable",
			"type": "function"
		},
		{
			"inputs": [
				{
					"internalType": "address",
					"name": "_address",
					"type": "address"
				},
				{
					"internalType": "bool",
					"name": "_isExcludedOutbound",
					"type": "bool"
				},
				{
					"internalType": "bool",
					"name": "_isExcludedInbound",
					"type": "bool"
				}
			],
			"name": "setFeeExclusion",
			"outputs": [],
			"stateMutability": "nonpayable",
			"type": "function"
		},
		{
			"inputs": [
				{
					"internalType": "address",
					"name": "_address",
					"type": "address"
				},
				{
					"internalType": "bool",
					"name": "_isPool",
					"type": "bool"
				}
			],
			"name": "setLiquidityPool",
			"outputs": [],
			"stateMutability": "nonpayable",
			"type": "function"
		},
		{
			"inputs": [
				{
					"internalType": "uint256",
					"name": "_newPeriod",
					"type": "uint256"
				}
			],
			"name": "setReserveCheckPeriod",
			"outputs": [],
			"stateMutability": "nonpayable",
			"type": "function"
		},
		{
			"inputs": [
				{
					"internalType": "address",
					"name": "_newReserveConsumer",
					"type": "address"
				}
			],
			"name": "setReserveConsumer",
			"outputs": [],
			"stateMutability": "nonpayable",
			"type": "function"
		},
		{
			"inputs": [
				{
					"internalType": "address",
					"name": "_newSupplyController",
					"type": "address"
				}
			],
			"name": "setSupplyController",
			"outputs": [],
			"stateMutability": "nonpayable",
			"type": "function"
		},
		{
			"inputs": [
				{
					"internalType": "uint256[5]",
					"name": "_tiers",
					"type": "uint256[5]"
				},
				{
					"internalType": "uint256[5]",
					"name": "_percentages",
					"type": "uint256[5]"
				}
			],
			"name": "setTaxParameters",
			"outputs": [],
			"stateMutability": "nonpayable",
			"type": "function"
		},
		{
			"inputs": [],
			"name": "supplyController",
			"outputs": [
				{
					"internalType": "address",
					"name": "",
					"type": "address"
				}
			],
			"stateMutability": "view",
			"type": "function"
		},
		{
			"inputs": [],
			"name": "symbol",
			"outputs": [
				{
					"internalType": "string",
					"name": "",
					"type": "string"
				}
			],
			"stateMutability": "view",
			"type": "function"
		},
		{
			"inputs": [
				{
					"internalType": "uint256",
					"name": "",
					"type": "uint256"
				}
			],
			"name": "taxPercentages",
			"outputs": [
				{
					"internalType": "uint256",
					"name": "",
					"type": "uint256"
				}
			],
			"stateMutability": "view",
			"type": "function"
		},
		{
			"inputs": [
				{
					"internalType": "uint256",
					"name": "",
					"type": "uint256"
				}
			],
			"name": "taxTiers",
			"outputs": [
				{
					"internalType": "uint256",
					"name": "",
					"type": "uint256"
				}
			],
			"stateMutability": "view",
			"type": "function"
		},
		{
			"inputs": [],
			"name": "totalSupply",
			"outputs": [
				{
					"internalType": "uint256",
					"name": "",
					"type": "uint256"
				}
			],
			"stateMutability": "view",
			"type": "function"
		},
		{
			"inputs": [
				{
					"internalType": "address",
					"name": "recipient",
					"type": "address"
				},
				{
					"internalType": "uint256",
					"name": "amount",
					"type": "uint256"
				}
			],
			"name": "transfer",
			"outputs": [
				{
					"internalType": "bool",
					"name": "",
					"type": "bool"
				}
			],
			"stateMutability": "nonpayable",
			"type": "function"
		},
		{
			"inputs": [
				{
					"internalType": "address",
					"name": "newAdmin",
					"type": "address"
				}
			],
			"name": "transferAdminControl",
			"outputs": [],
			"stateMutability": "nonpayable",
			"type": "function"
		},
		{
			"inputs": [
				{
					"internalType": "address",
					"name": "sender",
					"type": "address"
				},
				{
					"internalType": "address",
					"name": "recipient",
					"type": "address"
				},
				{
					"internalType": "uint256",
					"name": "amount",
					"type": "uint256"
				}
			],
			"name": "transferFrom",
			"outputs": [
				{
					"internalType": "bool",
					"name": "",
					"type": "bool"
				}
			],
			"stateMutability": "nonpayable",
			"type": "function"
		},
		{
			"inputs": [
				{
					"internalType": "address",
					"name": "newOwner",
					"type": "address"
				}
			],
			"name": "transferOwnership",
			"outputs": [],
			"stateMutability": "nonpayable",
			"type": "function"
		},
		{
			"inputs": [],
			"name": "unpause",
			"outputs": [],
			"stateMutability": "nonpayable",
			"type": "function"
		}
	]
}